:100000000C94E0000C948C0D0C94650D0C943E0D3A
:100010000C94170D0C9408010C9408010C94F00C2E
:100020000C9408010C9454100C94B30D0C94220EF3
:100030000C9408010C9408010C9408010C9408011C
:100040000C9408010C9408010C9408010C9408010C
:100050000C9408010C9408010C9408010C94A60C53
:100060000C9408010C9408010C9408010C940801EC
:100070000C9408010C9408010C9408010C940801DC
:100080000C9408010C9408010C9408010C940801CC
:100090000C9408010C9408010C9408010C940801BC
:1000A0000C9408010C94D0100C940801080B000269
:1000B0000202000009040000010202000005240001
:1000C0001001052401010104240206052406000193
:1000D0000705810310004009040100020A00000026
:1000E00007050202400000070583024000000403E8
:1000F000090412010002EF020140FB1F002300016E
:1001000001020301506F6C6F6C7520436F72706F4A
:10011000726174696F6E00506F6C6F6C7520412D49
:100120005374617220333255340007060504010010
:10013000080A0B0C0D0900000000240027002A000B
:100140002D00300000000000250028002B002E00AC
:100150003100000000002300260029002C002F00A1
:10016000040404040403040502020202040302025C
:10017000020206060606060604040202020404043D
:100180000802011040804010204080408008020496
:10019000018040201002011080102040402000000B
:1001A000000200090F0000030401000C0000000021
:1001B00000000000000000000000000000003011FE
:1001C00011241FBECFEFDAE0DEBFCDBF12E0A0E00A
:1001D000B1E0EAE2F6E302C005900D92AC38B10757
:1001E000D9F723E0ACE8B2E001C01D92AA3EB20705
:1001F000E1F710E0C0EED0E004C02197FE010E94BC
:10020000CA18CF3DD107C9F70E9491120C94131B55
:100210000C940000E82FF0E0EE0FFF1FEC5EFE4FA5
:10022000718360838230D9F028F4882341F08130D3
:1002300071F008958330D9F0843009F108958091E8
:1002400069008C7F816080936900E89A08958091AD
:100250006900837F846080936900E99A08958091A2
:1002600069008F7C806180936900EA9A089580918B
:1002700069008F73806480936900EB9A0895809180
:100280006A008F7C806180936A00EE9A08954F9295
:100290005F926F927F928F929F92AF92BF92CF9216
:1002A000DF92EF92FF92CF93DF9300D000D0CDB7D3
:1002B000DEB769837A838B839C8329013A0160913D
:1002C000E8037091E90390E080E00E94EA1920E0E1
:1002D00030E04AE754E40E9442194B015C01C090AF
:1002E000E003D090E103E090E203F090E303A30188
:1002F00092010E94A11AA70196010E9442190E9430
:10030000B4192B0129813A814B815C81C501B4016B
:100310000E94A11AA70196010E9442190E94B419D5
:10032000072E000C880B990B0E94EC196093730345
:100330007093740380937503909376038091700398
:10034000813081F0109297031092980310929903D4
:1003500010929A0380917D0390917E0390937C0389
:1003600080937B0381E080937003B201550C880B6E
:10037000990B0E94EC196093AC037093AD038093CA
:10038000AE039093AF038091A903813081F0109266
:10039000D0031092D1031092D2031092D303809114
:1003A000B6039091B7039093B5038093B40381E0B3
:1003B0008093A9030F900F900F900F90DF91CF9132
:1003C000FF90EF90DF90CF90BF90AF909F908F9075
:1003D0007F906F905F904F9008954F925F926F92D1
:1003E0007F928F929F92AF92BF92CF92DF92EF92C5
:1003F000FF92CF93DF93CDB7DEB728970FB6F8946F
:10040000DEBF0FBECDBF4B015C012D833E834F830A
:1004100058876091E8037091E90390E080E00E94C2
:10042000EA1920E030E04AE754E40E9442196B01E7
:100430007C014090E0035090E1036090E2037090F3
:10044000E303A50194010E94A11AA30192010E9455
:1004500042190E94B41969837A838B839C8323ECAD
:1004600035EF48E450E46091E4037091E503809136
:10047000E6039091E7030E94A11A20E030E044E3F4
:1004800053E40E9442194B015C012D813E814F8152
:100490005885C701B6010E94A11A9B01AC01C50194
:1004A000B4010E94A11AA30192010E9442190E9464
:1004B000B4196B0169817A816C197D09072E000CD2
:1004C000880B990B0E94EC1960937303709374036B
:1004D000809375039093760380917003813081F04F
:1004E00010929703109298031092990310929A0316
:1004F00080917D0390917E0390937C0380937B0396
:1005000081E08093700389819A81C80ED91EB6015B
:10051000DD0C880B990B0E94EC196093AC0370936F
:10052000AD038093AE039093AF038091A903813014
:1005300081F01092D0031092D1031092D203109246
:10054000D3038091B6039091B7039093B503809342
:10055000B40381E08093A90328960FB6F894DEBF18
:100560000FBECDBFDF91CF91FF90EF90DF90CF9086
:10057000BF90AF909F908F907F906F905F904F90C3
:100580000895FC018091C302882311F13FB7F894CC
:1005900082E08093E9002091F200822F90E018160B
:1005A000190614F481E090E0882339F0289844E695
:1005B0004093C2024091F1004083222339F0209100
:1005C000F200211103C02BE62093E8003FBF0895FD
:1005D0008FEF9FEF08952FB7F89483E08093E900A1
:1005E0009091E800892F807295FF04C09091F200ED
:1005F00080E4891B2FBF08958091BA0281110DC03C
:1006000082E08093B60284E08093B7021092B90230
:100610001092B80281E08093BA0286EB92E00895CE
:1006200081508F3008F047C0E82FF0E0E65EFC4FC5
:100630000C94CA1837033B0329032F0333035B03CE
:100640005B035B033E03440348034C0352035B0319
:100650005603809180008F77809380000895809169
:1006600080008F7DF9CF80918000877FF5CF84B5A2
:100670008F7784BD089584B58F7DFBCF80919000E6
:100680008F77809390000895809190008F7DF9CFAF
:1006900080919000877FF5CF8091C0008F77809305
:1006A000C00008958091C0008F7DF9CF8091C20075
:1006B000877F8093C2000895CF93DF93282F30E087
:1006C000F901E256FE4F8491F901E158FE4FD491B1
:1006D000F901E05AFE4FC491CC23A1F081110E9490
:1006E0001003EC2FF0E0EE0FFF1FEE5AFE4FA59126
:1006F000B491EC91ED2381E090E009F480E0DF918A
:10070000CF91089580E090E0FACF1F93CF93DF93CD
:10071000282F30E0F901E256FE4F8491F901E158AB
:10072000FE4FD491F901E05AFE4FC491CC23A9F0B9
:10073000162F81110E941003EC2FF0E0EE0FFF1F27
:10074000EC5BFE4FA591B4918FB7F894EC91111129
:1007500008C0D095DE23DC938FBFDF91CF911F912E
:100760000895DE2BF8CFCF93DF9390E0FC01E158A2
:10077000FE4F2491805A9E4FFC0184918823C9F03A
:1007800090E0880F991FFC01EA5CFE4FA591B4919F
:10079000FC01EC5BFE4FC591D49161110DC09FB778
:1007A000F8948C91209582238C9388812823288328
:1007B0009FBFDF91CF910895623051F49FB7F894B5
:1007C0003C91822F809583238C93E8812E2BEFCF51
:1007D0008FB7F894EC912E2B2C938FBFEACF8231F8
:1007E00008F08251E82FF0E0E65DFE4FE491909131
:1007F0007B008E2F880F880F80729F7D892B8093BE
:100800007B00E770E064E0937C0080917A00806474
:1008100080937A0080917A0086FDFCCF80917800E9
:100820009091790008953FB7F8948091B202909129
:10083000B302A091B402B091B50226B5A89B05C041
:100840002F3F19F00196A11DB11D3FBFBA2FA92F4F
:10085000982F8827BC01CD01620F711D811D911D4C
:1008600042E0660F771F881F991F4A95D1F70895B8
:100870008F929F92AF92BF92CF92DF92EF92FF92B0
:100880004B015C010E9413046B017C010E94130464
:100890006C197D098E099F09683E73408105910599
:1008A000A8F321E0821A9108A108B10888EEC80EC9
:1008B00083E0D81EE11CF11C81149104A104B10451
:1008C00029F7FF90EF90DF90CF90BF90AF909F906F
:1008D0008F90089580917003811104C08091A903C5
:1008E000882339F061E070E080E090E00E943804F5
:1008F000F1CF08958F929F92AF92BF92CF92DF92E5
:10090000EF92FF924B015C0169017A01E894F7F8DC
:1009100020E030E0A9010E949C1A181624F0F7FA92
:10092000F094F7F8F094A701960160E070E0CB0135
:100930000E94ED0123EC35EF48E450E46091E403BC
:100940007091E5038091E6039091E7030E94A11A5C
:1009500020E030E044E353E40E944219A5019401F1
:100960000E94A11A2091E0033091E1034091E2033B
:100970005091E3030E9442190E94B419F894209107
:100980007D0330917E037894261B370B30937803D8
:100990002093770322E020937003F8944091B603EC
:1009A0005091B7037894CA01860F971F9093B103B3
:1009B0008093B0032093A903FF90EF90DF90CF9036
:1009C000BF90AF909F908F900C946A048F929F92EB
:1009D000AF92BF92CF92DF92EF92FF920F934B01B3
:1009E0005C0169017A01E894F7F820E030E0A901A0
:1009F0000E949C1A181624F0F7FAF094F7F8F09475
:100A000020E030E0A901C701B6010E94ED0120916C
:100A1000E0033091E1034091E2035091E303C5010B
:100A2000B4010E9442190E94B419F89420917D03E8
:100A300030917E037894260F371F309378032093EC
:100A4000770322E020937003F8944091B60350910D
:100A5000B7037894CA01860F971F9093B1038093D0
:100A6000B0032093A903002359F00F91FF90EF905A
:100A7000DF90CF90BF90AF909F908F900C946A04BE
:100A80000F91FF90EF90DF90CF90BF90AF909F902D
:100A90008F900895089540919E0250919F02209159
:100AA0009C0230919D0242175307B4F49091E800E4
:100AB0009570E1F39091E80092FD19C08093F100E8
:100AC00080919E0290919F0201968F739927892BA6
:100AD00019F48EEF8093E80080919E0290919F021E
:100AE000019690939F0280939E0281E0089580E09A
:100AF0000895EF92FF920F931F93CF93DF93F82EF9
:100B0000192FE62E042F81E0860F880F0E944B05D7
:100B100083E00E944B05CF2DD12FEC0EFD2EF11C52
:100B2000CE15DF05B9F007FF13C0FE0184910E94C6
:100B30004B05182F80E00E944B05812321968111DF
:100B4000EFCFDF91CF911F910F91FF90EF9008951C
:100B50008881EDCF81E0F5CFDF92EF92FF920F9386
:100B60001F93CF93DF93D82E8A01EB017B01E40E14
:100B7000F51ECE15DF0559F0D7FE12C0FE01849197
:100B80000E944B0521968111F4CF0FEF1FEFC80192
:100B9000DF91CF911F910F91FF90EF90DF9008951B
:100BA0008881EECF0F931F93CF93DF931F92CDB722
:100BB000DEB782E0898342E450E06CEA70E080E8CE
:100BC0000E94AC050E94FC02DC0112960D911C9162
:100BD0000115110589F0D801ED91FC910280F38196
:100BE000E02DBE016F5F7F4FC801099597FD04C0DE
:100BF000F80100851185ECCF89810F90DF91CF91AD
:100C00001F910F910895615030F02091F100FC0187
:100C100020830196F8CF289884E68093C202089535
:100C20008F929F92AF92BF92CF92DF92EF92FF92FC
:100C30000F931F93CF93DF936C017B018A01809107
:100C40000B01882309F45CC08091C302882309F456
:100C500057C08091A20280FF05C08091E0008260B1
:100C60008093E000E801B12C8AEFA82E93E0892E52
:100C70002AE3922E209711F4BB20D9F10E94EB02B7
:100C800081110AC0AA94AA20D9F161E070E080E045
:100C900090E00E943804EECF8C171D0611F00CF086
:100CA0008C2F9FB7F8948092E9002091E80025FDF1
:100CB00002C09FBFDFCF282F30E0C21BD30BF7014C
:100CC000815020F041914093F100FACFE20EF31EE3
:100CD000BB2021F09092E800B12CEBCF8091E8008E
:100CE00085FDE7CF9092E800BB24B394209709F3E9
:100CF000F3CF5D9884E68093A102101611063CF0B4
:100D000081E090E0F6019383828310E000E0C80167
:100D1000DF91CF911F910F91FF90EF90DF90CF90D7
:100D2000BF90AF909F908F900895CF93DF931F92C5
:100D3000CDB7DEB76983DC01ED91FC910280F381D0
:100D4000E02D41E050E0BE016F5F7F4F09950F90AD
:100D5000DF91CF91089583E08093E9008091F200C4
:100D6000882319F08AE38093E80008950E94EB023B
:100D700090E00895CF93DF931F92CDB7DEB7FC01CB
:100D80008485958597FD08C02FEF3FEF3587248731
:100D90000F90DF91CF910895CE0101960E94C1027C
:100DA000019719F4898190E0F3CF8FEF9FEFF0CF97
:100DB0000F931F93CF93DF931F92CDB7DEB78C01B4
:100DC000FC018485958597FF0BC0CE0101960E949A
:100DD000C102019771F4898190E0F80195878487B9
:100DE000F801848595850F90DF91CF911F910F9128
:100DF00008958FEF9FEFF1CFFC018485958597FDD6
:100E00000BC09FB7F89482E08093E9008091F200D4
:100E10009FBF90E0019608959FB7F89482E0809379
:100E2000E9008091F2009FBF90E008950F931F9317
:100E3000CF93DF93EC018B018F81811107C0E88193
:100E4000F9810190F081E02DCE0109958A819B8185
:100E50000817190730F08C819D810817190708F4CD
:100E6000C801880F991F019790939900809398006B
:100E7000DF91CF911F910F910895DC01F894E0E983
:100E8000F0E090819F779083789417961C92089554
:100E9000CF93DF93EC0161E085E00E94B303F89407
:100EA00082E8809390008AE1809391008FE39CE92F
:100EB000909397008093960088EB9BE09093990025
:100EC00080939800789481E08F83DF91CF9108958B
:100ED000F89441E040936800ABE6B0E09C91E82FC5
:100EE000F0E021E030E001C0220F8A95EAF7892F77
:100EF000822B8C93EE0FFF1FE457FD4F71836083AD
:100F00004BBB90911803822F8095892380931803FF
:100F100083B1909118038223892B809318037894CE
:100F200008954F925F926F927F928F929F92AF92AD
:100F3000BF92CF92DF92EF92FF92CF93DF93EC01BB
:100F40006B817C81072E000C880B990B0E94EC1999
:100F50009B01AC016D817E818F8198850E94D018A4
:100F60006B017C01C9A2DAA2EBA2FCA229A53AA5D9
:100F70004BA55CA50E94D1184B015C0189A69AA6DD
:100F8000ABA6BCA64DA45EA46FA478A820E030E078
:100F9000A901C301B2010E949C1A18169CF4A50174
:100FA00094015F77C301B2010E943D1987FF0AC017
:100FB000A7019601C501B4010E94D01869A77AA7BC
:100FC0008BA79CA72DA13EA14FA158A5C701B60193
:100FD0000E94D0184B015C01CDA2DEA2EFA2F8A6C0
:100FE00029A53AA54BA55CA5698D7A8D8B8D9C8D25
:100FF0000E94A11A2B013C012D893E894F89588DF1
:10100000C701B6010E94A11A9B01AC01C301B20144
:101010000E94D1186B017C012D8D3E8D4F8D58A102
:10102000C501B4010E94A11A9B01AC01C701B60120
:101030000E94D1186DAB7EAB8FAB98AF0E94B419F4
:10104000E881F9810190F081E02DCE01DF91CF910F
:10105000FF90EF90DF90CF90BF90AF909F908F90D8
:101060007F906F905F904F90099420E077FF04C0CD
:1010700071956195710921E0FC018385948568175C
:1010800079070CF4CB019093890080938800222388
:1010900019F0299A219A08952998FCCF20E077FF2A
:1010A00004C071956195710921E0FC0183859485E7
:1010B000681779070CF4CB0190938B0080938A001A
:1010C000222319F02A9A229A08952A98FCCFCF93C6
:1010D000DF93CEE6D3E01A8270E060E0CE010E949A
:1010E0004E081BAE70E060E087EA93E0DF91CF919D
:1010F0000C943508CF93DF93EC0189899A8950E0ED
:1011000070E02B893C89AF85B889842795272627ED
:101110003727821B930B8A0F9B1F988B8F877A8BA5
:10112000698B5C8B4B8B8A81823089F42F8538895F
:1011300089859A852817390751F4E881F98101904A
:10114000F081E02D70E060E0CE0109951A82DF9118
:10115000CF9108956CB1262F30E0359527953595C0
:10116000279583B1422F4170682F70E094E0759508
:1011700067959A95E1F7622761708EE693E00C948B
:101180007A084FB141706CB166FB662760F964273D
:1011900087EA93E00C947A08FC01F894878590899B
:1011A000108A1786168615867894089580913C03D8
:1011B0000E945C03892B59F00E941304609346033C
:1011C00070934703809348039093490308950E94C6
:1011D000130460934A0370934B0380934C039093E2
:1011E0004D0380913B03826080933B030895CF932E
:1011F000DF93EC01888581110EC0898591E0988785
:101200009A8562E0911101C060E00E94B3038FE013
:1012100090E00197F1F789850E945C033B8521E00E
:101220003817190609F420E0822FDF91CF91089535
:10123000CF92DF92EF92FF920F931F930E941304BD
:101240006B017C01809123030E945C03892B79F45C
:10125000C0922F03D0923003E0923103F092320318
:101260001F910F91FF90EF90DF90CF900895C09263
:101270003303D0923403E0923503F0923603409169
:10128000330350913403609135037091360380919C
:101290002F0390913003A0913103B0913203481B8A
:1012A000590B6A0B7B0B8091330390913403A0910F
:1012B0003503B0913603C0903703D0903803E090E7
:1012C0003903F0903A0300913303109134032091D5
:1012D000350330913603009337031093380320937E
:1012E000390330933A038A019B01055311422109C6
:1012F0003109073E13402105310548F410922E03B1
:1013000081E090E09093250380932403A9CF445F6C
:10131000514061097109493C51056105710590F021
:1013200085E090E090932503809324038FEF9FEF57
:10133000DC0180932A0390932B03A0932C03B0939A
:101340002D038ECF8C199D09AE09BF09209124036E
:10135000309125032130310509F05FC0AC01BD019A
:10136000415C524161097109433F5140610571057A
:1013700058F410922A0310922B0310922C0310920F
:101380002D0383E090E0BECF8D589A40A109B109AA
:1013900087359240A105B10508F062CF82E090E068
:1013A000909325038093240340912A0350912B03AB
:1013B00060912C0370912D0380912A0390912B034F
:1013C000A0912C03B0912D03892F9A2FAB2FBB270F
:1013D00084279527A627B72788279927BB27009713
:1013E000AF4FB10531F085E090E0909325038093F5
:1013F00024032FB7F8948091AE029091AF02A09190
:10140000B002B091B1022FBF8093260390932703BF
:10141000A0932803B093290323CF2330310509F08B
:101420001FCFAC01BD0145585340610971094F38C8
:1014300051406105710560F580912E038F5F8093A7
:101440002E0380912E03803209F00ACF40912A03A7
:1014500050912B0360912C0370912D0380912A03EE
:1014600090912B03A0912C03B0912D03892F9A2FDB
:10147000AB2FBB2784279527A627B727882799272F
:10148000BB270097AF4FB105A9F185E090E03ACFB7
:10149000815D9740A109B109833F9140A105B10544
:1014A00010F520912E0340912A0350912B03609157
:1014B0002C0370912D0381E090E0A0E0B0E004C027
:1014C000880F991FAA1FBB1F2A95D2F7840F951F5B
:1014D000A61FB71F80932A0390932B03A0932C037E
:1014E000B0932D03A9CF85E090E0909325038093DE
:1014F0002403A7CF84E090E078CF86E10C94EF033B
:1015000085E10C94EF038F929F92AF92BF92CF929E
:10151000DF92EF92FF92CF93DF930E947D0AEC015E
:101520000E94800ABE01681B790B072E000C880BF5
:10153000990B0E94EC192AE037ED43E25CE30E942C
:10154000A11A6B017C01AC019B0160E070E080E7B7
:1015500091E40E94D0184B015C0120E030E040E7AC
:1015600051E4C701B6010E94D118A5019401DF9191
:10157000CF91FF90EF90DF90CF90BF90AF909F9072
:101580008F900C944701CF93DF9380E00E945C031F
:10159000EC0181E00E945C034091C4025091C502BD
:1015A0006091C6027091C702C817D90779F44F5FDE
:1015B0005F4F6F4F7F4F4093C4025093C5026093BB
:1015C000C6027093C702DF91CF910895415051092F
:1015D00061097109F0CFCF93DF9380E00E945C0333
:1015E000EC0181E00E945C034091C4025091C5026D
:1015F0006091C6027091C702C817D90779F44150AB
:101600005109610971094093C4025093C502609366
:10161000C6027093C702DF91CF9108954F5F5F4F6D
:101620006F4F7F4FF0CFCF93DF93EC018091210379
:10163000D7FF18C061E00E94850360E080911F031E
:101640000E948503D195C195D109C13981E0D807A0
:1016500014F0C0E9D1E0D0938D00C0938C00DF91ED
:10166000CF91089560E00E94850361E080911F039F
:101670000E948503EACFFC0101900020E9F7319731
:10168000AF01481B590BBC0188EC92E00C9410068A
:101690004F925F926F927F928F929F92AF92BF9282
:1016A000CF92DF92EF92FF920F931F93CF93DF932E
:1016B000CDB7DEB7A1970FB6F894DEBF0FBECDBF92
:1016C0004B015C01F894C090C402D090C502E09038
:1016D000C602F090C70278949AE0492E512C612CF2
:1016E000712CD701C60188199909AA09BB09B7FF4E
:1016F00007C0B095A095909581959F4FAF4FBF4F74
:101700004091190350911A0360911B0370911C03BF
:10171000481759076A077B070CF08CC0C501B40154
:101720006C197D098E099F09660F771F77FF53C0DB
:10173000072E000C880B990B0E94EC1923EC35EF57
:1017400048EE5EE30E94A11A20E030E04AE553E44F
:101750000E94D0180E94B419CB010E94130BF89478
:10176000C090C402D090C502E090C602F090C702BB
:101770007894F7FE49C06DE288EC92E00E949506ED
:1017800022273327A9012C193D094E095F0919A207
:101790008E010F5D1F4FCA01B901A30192010E9482
:1017A000A818605DF80162938F012115310541058C
:1017B000510589F70115110519F0C8010E943B0B6D
:1017C00089E691E00E943B0B6AE070E080E090E0E7
:1017D0000E94380486CF90E080E06115710509F41D
:1017E000BCCF072E000C880B990B0E94EC192BED37
:1017F00039EF4EEB5EE30E94A11A20E030E04BE7A8
:1018000053E40E94D118A6CFA701960119A28E0118
:101810000F5D1F4FCA01B901A30192010E94A818D0
:10182000605DF80162938F01211531054105510575
:1018300089F7C0CF90E080E00E94130BA1960FB60D
:10184000F894DEBF0FBECDBFDF91CF911F910F91F6
:10185000FF90EF90DF90CF90BF90AF909F908F90D0
:101860007F906F905F904F900895CF93DF930E9489
:101870003B0BEC0189E691E00E943B0B8C0F9D1F16
:10188000DF91CF9108950E940E1BCF93DF93A2EEBC
:10189000B0E09C911C92E9EEF0E020811082C0EF54
:1018A000D0E03881188240E0289941602099426058
:1018B0002098289A80E18A95F1F783B141FB0EF0D8
:1018C000209840FB0EF028980EF4289A41FB0EF465
:1018D000209A1082388320839C9380958170DF91B9
:1018E000CF910895CF93DF93A2EEB0E09C911C922C
:1018F000E9EEF0E020811082C0EFD0E0388118825C
:1019000040E05D9941605599426055985D9A80E14B
:101910008A95F1F789B141FB0EF0559840FB0EF026
:101920005D980EF45D9A41FB0EF4559A108238834F
:1019300020839C9390E025E0959587952A95E1F783
:10194000809590958170DF91CF9108951F920F92AD
:101950000FB60F9211242F933F938F939F93AF93C2
:10196000BF938091AE029091AF02A091B002B0916E
:10197000B1023091AD0223E0230F2D3758F50196C7
:10198000A11DB11D2093AD028093AE029093AF02D2
:10199000A093B002B093B1028091B2029091B302D1
:1019A000A091B402B091B5020196A11DB11D809322
:1019B000B2029093B302A093B402B093B502BF9168
:1019C000AF919F918F913F912F910F900FBE0F90EC
:1019D0001F90189526E8230F0296A11DB11DD2CFA6
:1019E0001F920F920FB60F9211242F933F934F9394
:1019F0005F936F937F938F939F93AF93BF93EF9377
:101A0000FF93E0911C01F0911D010995FF91EF9169
:101A1000BF91AF919F918F917F916F915F914F9106
:101A20003F912F910F900FBE0F901F9018951F920E
:101A30000F920FB60F9211242F933F934F935F9302
:101A40006F937F938F939F93AF93BF93EF93FF9386
:101A5000E0911A01F0911B010995FF91EF91BF915F
:101A6000AF919F918F917F916F915F914F913F9136
:101A70002F910F900FBE0F901F9018951F920F92ED
:101A80000FB60F9211242F933F934F935F936F9351
:101A90007F938F939F93AF93BF93EF93FF93E091C7
:101AA0001801F09119010995FF91EF91BF91AF9144
:101AB0009F918F917F916F915F914F913F912F9166
:101AC0000F900FBE0F901F9018951F920F920FB698
:101AD0000F9211242F933F934F935F936F937F93B4
:101AE0008F939F93AF93BF93EF93FF93E091160172
:101AF000F09117010995FF91EF91BF91AF919F91DF
:101B00008F917F916F915F914F913F912F910F90A6
:101B10000FBE0F901F9018951F920F920FB60F9245
:101B200011242F933F934F935F936F937F938F93E2
:101B30009F93AF93BF93EF93FF93E0911401F091C4
:101B400015010995FF91EF91BF91AF919F918F91F1
:101B50007F916F915F914F913F912F910F900FBEA9
:101B60000F901F9018951F920F920FB60F9211248D
:101B70008F939F938091E1009091E100937F9093E8
:101B8000E10083FF0FC01092E90091E09093EB0019
:101B90001092EC0092E39093ED001092C30298E053
:101BA0009093F00082FF22C093E09093E90090911F
:101BB000F200992319F09AE39093E8009091A10222
:101BC000992341F09091A10291509093A10291111B
:101BD00001C05D9A9091C202992341F09091C20296
:101BE00091509093C202911101C0289A84FF18C0AD
:101BF0008091E2008E7E81608093E2008091E1001E
:101C00008F7E8093E1008091A2028E7E806180931E
:101C1000A2029F918F910F900FBE0F901F90189569
:101C200080FFF7CF8091E2008E7E80618093E2009A
:101C30008091E1008E7E8093E1008091A2028E7EF1
:101C40008160E5CF1F920F920FB60F921124CF92B1
:101C5000DF92EF92FF920F931F932F933F934F9337
:101C60005F936F937F938F939F93AF93BF93EF9304
:101C7000FF93CF93DF93CDB7DEB76C97DEBFCDBFB9
:101C80001092E9008091E80083FF25C068E0CE0152
:101C900045960E94030682EF8093E8008D8987FFB6
:101CA00039C09091E80090FFFCCF982F907609F012
:101CB00034C19E894F89588D2F89F88C911131C07C
:101CC000803861F58091A3028093F1001092F100B9
:101CD0008EEF8093E8006C960FB6F894DEBF0FBECF
:101CE000CDBFDF91CF91FF91EF91BF91AF919F91C8
:101CF0008F917F916F915F914F913F912F911F91A4
:101D00000F91FF90EF90DF90CF900F900FBE0F904C
:101D10001F9018959EEF9093E800C7CF1092F100A6
:101D2000D5CF913059F48111D3CF4130510581F68F
:101D30008091A3028D7F8093A302CACF933049F490
:101D40008111C6CF4130510519F68091A3028260FE
:101D5000F2CF953041F48091E80080FFFCCF2068FD
:101D60002093E300B5CF963009F0A9C00B8D1C8DF0
:101D700022E01092E90010929F0210929E02F2124D
:101D80002EC010929D0210929C020E94D2051F82CA
:101D900099E09983FA8291E09E8390EA98879AEF7E
:101DA000998720919E0230919F02275F3F4F3C838D
:101DB0002B838D831092E90010929F0210929E0255
:101DC00010939D0200939C0249E050E0BE016F5FBA
:101DD0007F4F80E00E94AC050E94D20579CF10931E
:101DE0009D0200939C020E94FC02DC0112960D9160
:101DF0001C910115110509F451C1D801ED91FC9117
:101E00000480F581E02DBE016B5E7F4FC80109950E
:101E1000009709F03EC1F80100851185EACFF3E093
:101E2000FF120EC08F89882309F440C0823061F40C
:101E300040E862E187E191E00E947905811148CF95
:101E400081E28093EB0047CF813029F440E862E1E2
:101E500084E091E0F1CF833099F70E94FC02DC012D
:101E60001296ED90FC908E010F5F1F4F6801E114F8
:101E7000F10479F0D701ED91FC910680F781E02D16
:101E8000B801C7010995080F111DF701E084F1841D
:101E9000EECFD8011C92F60101900020E9F73197AE
:101EA000BF016C197D0940E0C601C6CF6EEE70E03F
:101EB000FB01449150E080E80E94AC0509CF9730C7
:101EC00009F4BECF983021F481E08093F10000CF77
:101ED000993009F0FDCE837009F0B2CFE9E2F1E06C
:101EE00081E031E096E32191222371F08093E900B3
:101EF0003093EB00DF0111972C912093EC0090932D
:101F0000ED008F5F873079F78EE78093EA001092BB
:101F1000EA008F898093C302DBCE8B8D9C8D10925B
:101F2000E90010929F0210929E0290939D0280936E
:101F30009C02898D811192C08E899D89913A49F4C4
:101F4000813209F07DCF47E050E064E071E080E04D
:101F5000B3CF913209F074CF833269F48F89988DB1
:101F6000B0E0A0E08093000190930101A0930201F2
:101F7000B0930301ADCE803269F48091E80082FF16
:101F8000FCCF67E084E091E00E9403068BEF809332
:101F9000E8009ECE823209F09BCE8F8980930B01A0
:101FA000EEEFFFE7859194918B3F9C4D51F1E0E07E
:101FB000F8E08091040190910501A0910601B09193
:101FC0000701803B9440A105B105F1F480910B011C
:101FD00080FD1AC0EE3F8AE0F80789F587E797E7AA
:101FE00091838083809160008093A00288E19BE0D0
:101FF0000FB6F894A895809360000FBE9093600090
:1020000067CEEEEFFAE0D5CF808191818737974791
:1020100009F05ECEA8958091600088618093600091
:102020008091A00280936000EE3F2AE0F20789F0E1
:102030008091FE0A9091FF0A9183808349CE80812E
:1020400091818737980751F29093FF0A8093FE0A97
:10205000C5CF1092FF0A1092FE0A3ACE0E94FC02EF
:10206000DC0112960D911C910115110509F4E8CEC1
:10207000D801ED91FC910190F081E02DBE016B5EE5
:102080007F4FC8010995811123CEF8010085118584
:10209000EBCF181619060CF41BCED2CEF1E0FF12CE
:1020A000BECE62EF70E004CF1F920F920FB60F9278
:1020B00011242F933F934F935F936F937F938F934D
:1020C0009F93AF93BF93EF93FF93CF93DF9300D092
:1020D0001F92CDB7DEB783B18983898190911803B0
:1020E00089278A8380916B009A8189238B838B81D6
:1020F00080FF05C0E0918C02F0918D0209958B81E3
:1021000081FF05C0E0918E02F0918F0209958B81CD
:1021100082FF05C0E0919002F091910209958B81B8
:1021200083FF05C0E0919202F091930209958B81A3
:1021300084FF05C0E0919402F091950209958B818E
:1021400085FF05C0E0919602F091970209958B8179
:1021500086FF05C0E0919802F091990209958B8164
:1021600087FF05C0E0919A02F0919B020995898151
:10217000809318030F900F900F90DF91CF91FF91F4
:10218000EF91BF91AF919F918F917F916F915F91EF
:102190004F913F912F910F900FBE0F901F90189568
:1021A0001F920F920FB60F9211242F933F934F93CC
:1021B0005F936F937F938F939F93AF93BF93EF93AF
:1021C000FF9380917D0390917E0320917B0330915A
:1021D0007C03AC01421B530B509372034093710379
:1021E00090937C0380937B038091B6039091B70317
:1021F0002091B4033091B503AC01421B530B5093B3
:10220000AB034093AA039093B5038093B4038091EA
:102210007003813021F080917003823021F48EE6CA
:1022200093E00E9491078091A903813021F0809171
:10223000A903823021F487EA93E00E949107FF917D
:10224000EF91BF91AF919F918F917F916F915F912E
:102250004F913F912F910F900FBE0F901F901895A7
:10226000CF93DF93E8ECF2E01382128288EE93E0E2
:10227000A0E0B0E084839583A683B7838DE391E0EB
:10228000918380838FEF9FEF9587848783B18093BD
:102290001803EEE6F3E0128214821382158216828E
:1022A00017821086128611862CE231E0348723874C
:1022B00016861586108A1786128A118A148A138A3E
:1022C00040E050E060EA70E4458B568B678B708F7E
:1022D00080E090E0A0E0BFE3818F928FA38FB48F66
:1022E000158E168E178E10A211A212A213A214A27E
:1022F00015A216A217A210A611A612A613A614A61E
:1023000015A616A617A610AA11AA12AA13AA14AAED
:1023100015AA16AA17AA10AEC7E6D1E0D183C083CA
:1023200013AE15AE14AE1092AC031092AD03109222
:10233000AE031092AF031092B1031092B00330932A
:10234000B3032093B2031092B5031092B40310921A
:10235000B7031092B6031092B9031092B80310920B
:10236000BB031092BA034093BC035093BD03609328
:10237000BE037093BF038093C0039093C103A093E7
:10238000C203B093C3031092C4031092C50310920A
:10239000C6031092C7031092C8031092C90310928B
:1023A000CA031092CB031092CC031092CD0310926B
:1023B000CE031092CF031092D0031092D10310924B
:1023C000D2031092D3031092D4031092D50310922B
:1023D000D6031092D7031092D8031092D90310920B
:1023E000DA031092DB031092DC031092DD031092EB
:1023F000DE031092DF0381E691E092AF81AF8EEDB4
:1024000095E3AAE7BCE38093E0039093E103A093F4
:10241000E203B093E30383E393E3ABEEB0E4809392
:10242000E4039093E503A093E603B093E70380E110
:1024300090E09093E9038093E803E6E6F3E01282EC
:1024400015828BE591E091838083EEE5F3E01282C3
:10245000158285E591E091838083E2E5F3E01282C5
:10246000158210868EE0818791E0928793872FE412
:1024700031E031832083EBE3F3E010821382148296
:10248000158216824AE050E060E070E04783508792
:102490006187728713861486158616861786108ABA
:1024A000118A128A40E050E066EC72E4438B548B50
:1024B000658B768B91E191839CE09283E3E2F3E07C
:1024C00080831282118213821482158216821782EF
:1024D0001086118612861386148615861686178630
:1024E000108A118A128A138A148A158A168A178A00
:1024F000E9E1F3E083E090E0A0E0B0E08083918345
:10250000A283B3838BE090E09583848384E090E0A2
:10251000978386838DE090E091878087DF91CF91CC
:102520000895789484B5826084BD84B5816084BD4B
:1025300085B5826085BD85B5816085BD80916E0061
:10254000816080936E001092810080918100826092
:1025500080938100809181008160809381008091CF
:1025600080008160809380008091910082608093E0
:102570009100809191008160809391008091900002
:102580008160809390008091C10084608093C1003D
:102590008091C10082608093C1008091C100816000
:1025A0008093C1008091C30081608093C3008091BB
:1025B000C00082608093C0008091C20081608093DF
:1025C000C20080917A00846080937A0080917A00C2
:1025D000826080937A0080917A00816080937A0093
:1025E00080917A00806880937A001092C3021092E2
:1025F000A3021092A2028091D70081608093D7003D
:1026000080EA8093D80089B5806189BD89B58260F0
:1026100089BD09B400FEFDCF61E070E080E090E08C
:102620000E9438048091D8008F7C80618093D8000C
:102630008091E000807F8093E0008091E1008E7EB9
:102640008093E1008DE08093E200559A209A8DE618
:1026500091E00E94350C2E98269A2D98259A2A985A
:10266000229A2998219A2F98279AF8948AEA809397
:10267000800089E18093810084EA91E09093870053
:1026800080938600109289001092880010928B002F
:1026900010928A0010928D0010928C0078948CE633
:1026A00091E00E94350C8BE791E00E94350C249854
:1026B0002C9A6A98729A6E98769A8098889A6AEAA2
:1026C00078E084E00E94680761EC78E084E00E9492
:1026D0000A016CB1262F30E0359527953595279561
:1026E00083B1422F4170682F70E054E07595679573
:1026F0005A95E1F7622761708EE693E00E947A08AE
:102700008EE693E00E94CC086CB1262F30E0359520
:1027100027953595279583B1422F4170682F70E03A
:10272000E4E075956795EA95E1F76227617087EABD
:1027300093E00E947A0887EA93E00E94CC088AE737
:1027400091E00E94350CF8941092C0008BE08093C9
:10275000C1001092C2001092C30089EF8093D10093
:1027600084E080937200789460E0809123030E945B
:10277000B30380912303843018F0873009F04DC1F2
:102780008AE891E00E94350C80912303882309F4A4
:102790003CC1813009F43BC1823009F43AC1833035
:1027A00009F439C1873029F484E068E179E00E94B6
:1027B0000A0160E080913C030E94B30380913C03D6
:1027C000843018F0873009F043C189EA91E00E9413
:1027D000350C80913C03882309F432C1813009F41F
:1027E00031C1823009F430C1833009F42FC1873000
:1027F00029F484E066ED78E00E940A0161E08091AE
:102800003D030E94B30361E080911D030E94B30366
:1028100061E080911F030E94B30361E08091210376
:102820000E94B30360E080E00E94B30360E081E0B7
:102830000E94B30388EA8093800081E18093810045
:1028400080E991E0909387008093860010928D003C
:1028500010928C006BEE7AE082E00E940A0163EC39
:102860007AE083E00E940A01F8941092C402109268
:10287000C5021092C6021092C7027894F894109282
:10288000C4021092C5021092C6021092C702789438
:1028900088EE93E090930F0180930E0180ED97E016
:1028A000909311018093100160E08EE00E94B303C9
:1028B0008FEF9FEF9093D5028093D4021092AC02D9
:1028C0001092AB0286E693E00E94450C8823D1F378
:1028D0006AE070E080E090E00E94380486E693E0D1
:1028E0000E94450C882371F386E693E00E94450C14
:1028F0008111FACF6AE070E080E090E00E94380435
:1029000086E693E00E94450C8111EECF0E94800A7A
:102910000E947D0A20E030E040E252E460E070E096
:1029200080EF91E40E947A046CE271E080E090E034
:102930000E9438040E947D0A8A3F91057CF420E0C1
:1029400030E040E751E460E070E080E791EC0E9405
:1029500047010E947D0A8A3F910564F30E9467083F
:1029600068EE73E080E090E00E943804C6E0D0E0BA
:10297000EE24E394F12C9EE0292E312C2BE0C22E84
:10298000D12C8091240390912503049711F5109286
:1029900025031092240380912A0390912B03A09188
:1029A0002C03B0912D038A2F90E08130910509F01E
:1029B00062C08091AB029091AC029093AA02809386
:1029C000A902D093AC02C093AB0280EE91E00E94CA
:1029D000350CE091AB02F091AC02E031F10508F06A
:1029E0002BC1EB50FB4E0C94CA185B15C8159E16F4
:1029F000FD167F15D01627172E172F1653166E1695
:102A00004D17AB17D2172F18731882E0CECE83E084
:102A1000CCCE81E0CACE80E0C8CE88E991E00E94A9
:102A2000350CE0912303E8508FEFEA3020F4F0E01A
:102A3000E15DFE4F808168E179E00E946807B9CED0
:102A400082E0D8CE83E0D6CE81E0D4CE80E0D2CE74
:102A500083EC91E00E94350CE0913C03E8508FEF4D
:102A6000EA3020F4F0E0E15DFE4F808166ED78E031
:102A70000E946807C3CE8A30910559F48091A9025B
:102A80009091AA029093AC028093AB028FEE91E0FA
:102A90009ECF8D30910529F41092AC021092AB02BA
:102AA00098CF409709F095CF88E090E09093AC02E2
:102AB0008093AB028ECF0E94830A0E947D0A8B3FD7
:102AC00091050CF4B9C00E94800A8B3F91050CF46B
:102AD000B3C020E030E0A901CA01B9010E9447015A
:102AE00084E090E09093AA028093A902D093AC0274
:102AF000C093AB0286EF91E00E94350C9DC083E04D
:102B000092E00E94350C8091A802811132C08BEABC
:102B10009FEF9093A5028093A402D093AC02C09340
:102B2000AB0289E090E09093AA028093A90201E0B1
:102B300020E030E040E251E46CE57FE88AEE90E48A
:102B40000E94E60420E030E048EC52E460E070E0EF
:102B50008AEA92EC0E947A0489E092E00E94350CA5
:102B60008EE693E00E94CC0887EA93E00E94CC08AE
:102B700063C08BEA9FEF9093A5028093A402D09349
:102B8000AC02C093AB02F092AA02E092A902CFCFAE
:102B90000E947D0A5C010E94800AB501681B790BC6
:102BA000072E000C880B990B0E94EC192AE037EDD8
:102BB00043E25CE30E94A11A4B015C01AC019B0162
:102BC00060E070E080E291E40E94D0182B013C01AB
:102BD00020E030E040E251E4C501B4010E94D11888
:102BE000A30192010E944701F89480917D03909186
:102BF0007E03789482379440B4F020E030E0A9015D
:102C0000CA01B9010E9447018091A80281111CC02C
:102C1000D093AC02C093AB02D092AA02C092A90298
:102C200082E192E069CFF8948091B6039091B70366
:102C30007894823794400CF780E090E0892B09F477
:102C4000A0CE0E94000094CED093AC02C093AB0201
:102C50003092AA022092A9028FE192E04DCF8DE23C
:102C600092E00E94350C6CE173EF8FEF9FEF0E94B2
:102C7000480BF8948091C4029091C502A091C602BD
:102C8000B091C70278948D30934FAF4FBF4FA4F2ED
:102C9000F092AA02E092A902D093AC02C093AB02D8
:102CA00086E492E029CF84E592E00E94350C64EC42
:102CB00070EF8FEF9FEF0E94480BF8948091C40251
:102CC0009091C502A091C602B091C7027894853B4D
:102CD000904FAF4FBF4F0CF4AFCFDACF20E030E0D2
:102CE00048EC51ECCA01B9010E94470167ED70E060
:102CF00080E090E00E94380420E030E048EC51E4AD
:102D000060E070E08AE293E40E947A0401E020E04F
:102D100030E040E251E460E070E080EC90EC0E9432
:102D2000E60482E090E09093AA028093A902D093F7
:102D3000AC02C093AB0282E692E0DECE0E94830A30
:102D40000E947D0A8B3F91050CF476CF0E94800A89
:102D50008B3F91050CF470CF20E030E0A901CA014F
:102D6000B9010E94470185E090E09093AA02809308
:102D7000A902D093AC02C093AB0287E692E00E9416
:102D8000350C8EE693E00E94CC08F89480917D0388
:102D900090917E0378949093A7028093A6024CCFE3
:102DA00083E092E00E94350C01E020E030E040E258
:102DB00051E46CE57FE88AEE90E40E94E6046091BD
:102DC000A4027091A502719561957109072E000CFE
:102DD000880B990B0E94EC1920E030E048EC52E49B
:102DE0000E947A0483E090E09093AA028093A90263
:102DF000D093AC02C093AB02B3CE0E94830AF89486
:102E000080917D0390917E0378948C3D96400CF4E4
:102E100013CFF8948091B6039091B70378948C3DCA
:102E200096400CF409CF20E030E0A901CA01B901B5
:102E30000E944701D093AC02C093AB0287E090E0C0
:102E40009093AA028093A90284E792E055CE0E9453
:102E5000670890E080E00E94130BEECE81E892E0DC
:102E60000E94350C60E070E0CB010E94480BF894A2
:102E70008091C4029091C502A091C602B091C70290
:102E800078944097A105B1050CF0D6CE8CE090E087
:102E90009093AA028093A902FFCE68EE73E08CE0C3
:102EA00091E00E94160760E273E080E090E00E94EB
:102EB00038048CE091E00E943D0701E020E030E022
:102EC00040E751E466E676E686EB90E40E94E6048D
:102ED00060ED77E08CE091E00E9416076CEB72E009
:102EE00080E090E00E9438048CE091E00E943D0771
:102EF00064EF71E080E090E00E94380464EA7DEEC7
:102F00008FEF9FEF0E94480B64E670E080E090E056
:102F10000E94380420E030E040E051E463E373E3D2
:102F200083EF9FE30E94E6046AE070E080E090E0B7
:102F30000E94380468EE7AEE8FEF9FEF0E94480BF4
:102F40008AE090E09093AA028093A902D093AC0209
:102F5000C093AB0271CE68EE73E08CE091E00E940A
:102F600016076CEB72E080E090E00E9438048CE081
:102F700091E00E943D076AE070E080E090E00E94EE
:102F8000380401E020E030E040E251E460E070E02D
:102F900080EF91EC0E94E60481E08093A8028DE02E
:102FA00090E0D0CF0E94830AF89480917D039091A5
:102FB0007E037894803497400CF43ECEF894809150
:102FC000B6039091B7037894803497400CF434CED4
:102FD00020E030E0A901CA01B9010E94470168EC74
:102FE00070E080E090E00E94480B60ED77E08CE0BC
:102FF00091E00E9416076CEB72E080E090E00E9486
:1030000038048CE091E00E943D0764E170E080E0CC
:1030100090E00E94380464EC70EF8FEF9FEF0E9405
:10302000480B01E020E030E040E451E460E070E073
:1030300080EA90EC0E94E60420E030E040EA51E4AF
:1030400060E070E08FE293E40E947A04D093AC02D7
:10305000C093AB021092AA021092A902EDCD64E1D6
:103060007CEE8FEF9FEF0E94480B6AE070E080E0FB
:1030700090E00E94380401E020E030E040E251E4BA
:1030800066E676E686EF90E40E94E60464E670E089
:1030900080E090E00E94380468E07EEE8FEF9FEFC2
:1030A0000E94480B64EF71E080E090E00E943804D9
:1030B00068EE73E08CE091E00E9416076CEB72E022
:1030C00080E090E00E9438048CE091E00E943D078F
:1030D000D093AC02C093AB028FE090E09093AA0231
:1030E0008093A902A9CD00E020E030E040E051E467
:1030F00060E070E080EA91EC0E94E6046CE271E02E
:1031000080E090E00E94380460ED77E08CE091E090
:103110000E9416076CEB72E080E090E00E94380499
:103120008CE091E00E943D0764E170E080E090E077
:103130000E94380460E070E0CB010E94480BD093FD
:10314000AC02C093AB02D093AA02C093A90274CD83
:10315000A1E21A2EAA1BBB1BFD010DC0AA1FBB1F9B
:10316000EE1FFF1FA217B307E407F50720F0A21B0D
:10317000B30BE40BF50B661F771F881F991F1A947A
:1031800069F760957095809590959B01AC01BD01A4
:10319000CF010895EE0FFF1F0590F491E02D0994E3
:1031A0005058BB27AA270E94E8180C94621A0E9464
:1031B000541A38F00E945B1A20F039F49F3F19F43A
:1031C00026F40C94511A0EF4E095E7FB0C944B1A7C
:1031D000E92F0E94731A58F3BA176207730784071E
:1031E000950720F079F4A6F50C94951A0EF4E09565
:1031F0000B2EBA2FA02D0B01B90190010C01CA01B1
:10320000A0011124FF27591B99F0593F50F4503E5B
:1032100068F11A16F040A22F232F342F4427585F4D
:10322000F3CF469537952795A795F0405395C9F765
:103230007EF41F16BA0B620B730B840BBAF091501D
:10324000A1F0FF0FBB1F661F771F881FC2F70EC0BC
:10325000BA0F621F731F841F48F48795779567958F
:10326000B795F7959E3F08F0B0CF9395880F08F07B
:103270009927EE0F9795879508950E94271A08F4CD
:1032800081E008950E9456190C94621A0E945B1AFC
:1032900058F00E94541A40F029F45F3F29F00C9432
:1032A0004B1A51110C94961A0C94511A0E94731ACD
:1032B00068F39923B1F3552391F3951B550BBB2765
:1032C000AA2762177307840738F09F5F5F4F220FAA
:1032D000331F441FAA1FA9F335D00E2E3AF0E0E8A1
:1032E00032D091505040E695001CCAF72BD0FE2FEB
:1032F00029D0660F771F881FBB1F2617370748077F
:10330000AB07B0E809F0BB0B802DBF01FF27935836
:103310005F4F3AF09E3F510578F00C944B1A0C9495
:10332000961A5F3FE4F3983ED4F3869577956795B8
:10333000B795F7959F5FC9F7880F911D969587956B
:1033400097F90895E1E0660F771F881FBB1F62178A
:1033500073078407BA0720F0621B730B840BBA0B48
:10336000EE1F88F7E09508950E94BB196894B1118B
:103370000C94961A08950E947B1A88F09F5798F033
:10338000B92F9927B751B0F0E1F0660F771F881F6A
:10339000991F1AF0BA95C9F714C0B13091F00E9484
:1033A000951AB1E008950C94951A672F782F882705
:1033B000B85F39F0B93FCCF3869577956795B395AB
:1033C000D9F73EF490958095709561957F4F8F4F1A
:1033D0009F4F0895E89409C097FB3EF4909580951F
:1033E000709561957F4F8F4F9F4F9923A9F0F92FCB
:1033F00096E9BB279395F695879577956795B79549
:10340000F111F8CFFAF4BB0F11F460FF1BC06F5F2E
:103410007F4F8F4F9F4F16C0882311F096E911C040
:10342000772321F09EE8872F762F05C0662371F061
:1034300096E8862F70E060E02AF09A95660F771F75
:10344000881FDAF7880F9695879597F90895990F51
:103450000008550FAA0BE0E8FEEF16161706E8075E
:10346000F907C0F012161306E407F50798F0621B7F
:10347000730B840B950B39F40A2661F0232B242B54
:10348000252B21F408950A2609F4A140A6958FEF73
:10349000811D811D089597F99F6780E870E060E0C5
:1034A00008959FEF80EC089500240A9416161706DD
:1034B00018060906089500240A9412161306140625
:1034C00005060895092E0394000C11F4882352F088
:1034D000BB0F40F4BF2B11F460FF04C06F5F7F4F40
:1034E0008F4F9F4F089557FD9058440F551F59F027
:1034F0005F3F71F04795880F97FB991F61F09F3FE1
:1035000079F087950895121613061406551FF2CF09
:103510004695F1DF08C0161617061806991FF1CF59
:1035200086957105610508940895E894BB27662780
:103530007727CB0197F908950E94271A08F48FEF97
:1035400008950E94B41A0C94621A0E94541A38F01A
:103550000E945B1A20F0952311F00C944B1A0C94E6
:10356000511A11240C94961A0E94731A70F3959FA5
:10357000C1F3950F50E0551F629FF001729FBB276A
:10358000F00DB11D639FAA27F00DB11DAA1F649F06
:103590006627B00DA11D661F829F2227B00DA11DB9
:1035A000621F739FB00DA11D621F839FA00D611D3F
:1035B000221F749F3327A00D611D231F849F600D60
:1035C000211D822F762F6A2F11249F5750409AF089
:1035D000F1F088234AF0EE0FFF1FBB1F661F771F15
:1035E000881F91505040A9F79E3F510580F00C94E0
:1035F0004B1A0C94961A5F3FE4F3983ED4F38695E9
:1036000077956795B795F795E7959F5FC1F7FE2B7F
:10361000880F911D9695879597F9089581E090E020
:0A362000F8940C94131BF894FFCFEC
:10362A00FFFFFFFF00E10000000000002201E803A5
:10363A00D007FF004A054A054A054A054A0500001F
:10364A00000048073D07160700C1808100000004FA
:10365A00050607FFFF03010200000000009506109F
:10366A0006B606AB06FC06BA06D80600000000F746
:10367A000800000000720C00000000450C00000069
:10368A00003508000000004E080D0A002F696E6917
:10369A00744D6F746F72732829002F696E697445AF
:1036AA006E636F646572732829004174746163687C
:1036BA00696E672049535200417474616368696E88
:1036CA00672050435F4953520041747461636869CB
:1036DA006E672072616E676566696E6465722049FD
:1036EA00535200417474616368696E672072616E37
:1036FA00676566696E6465722050435F495352007C
:10370A00456D657267656E63792053746F70004FFB
:10371A006E7761726400436865636B706F696E747B
:10372A00203100436865636B006469726563746580
:10373A006400436865636B706F696E74203400625D
:10374A006567696E206F66666C6F61640073697382
:10375A00797068757320616E642074686520626F81
:10376A00756C64657200436865636B706F696E742B
:10377A002033610061726D207374726F6E67696EB7
:10378A0067005370756E00436865636B706F696E8E
:10379A0074203500436865636B706F696E742036F8
:0C37AA00006465706F736974696E6700DD
:00000001FF
