:100000000C94E0000C94760D0C944F0D0C94280D7C
:100010000C94010D0C9408010C9408010C94DA0C5A
:100020000C9408010C943E100C949D0D0C940C0E35
:100030000C9408010C9408010C9408010C9408011C
:100040000C9408010C9408010C9408010C9408010C
:100050000C9408010C9408010C9408010C94900C69
:100060000C9408010C9408010C9408010C940801EC
:100070000C9408010C9408010C9408010C940801DC
:100080000C9408010C9408010C9408010C940801CC
:100090000C9408010C9408010C9408010C940801BC
:1000A0000C9408010C94BA100C940801080B00027F
:1000B0000202000009040000010202000005240001
:1000C0001001052401010104240206052406000193
:1000D0000705810310004009040100020A00000026
:1000E00007050202400000070583024000000403E8
:1000F000090412010002EF020140FB1F002300016E
:1001000001020301506F6C6F6C7520436F72706F4A
:10011000726174696F6E00506F6C6F6C7520412D49
:100120005374617220333255340007060504010010
:10013000080A0B0C0D0900000000240027002A000B
:100140002D00300000000000250028002B002E00AC
:100150003100000000002300260029002C002F00A1
:10016000040404040403040502020202040302025C
:10017000020206060606060604040202020404043D
:100180000802011040804010204080408008020496
:10019000018040201002011080102040402000000B
:1001A000000200090F0000030401000C0000000021
:1001B00000000000000000000000000000001A1114
:1001C00011241FBECFEFDAE0DEBFCDBF12E0A0E00A
:1001D000B1E0E0E6F3E302C005900D92AE37B1075F
:1001E000D9F723E0AEE7B2E001C01D92AB3DB20704
:1001F000E1F710E0C0EED0E004C02197FE010E94BC
:100200006517CF3DD107C9F70E947B120C94AE1938
:100210000C940000E82FF0E0EE0FFF1FEC5EFE4FA5
:10022000718360838230D9F028F4882341F08130D3
:1002300071F008958330D9F0843009F108958091E8
:1002400069008C7F816080936900E89A08958091AD
:100250006900837F846080936900E99A08958091A2
:1002600069008F7C806180936900EA9A089580918B
:1002700069008F73806480936900EB9A0895809180
:100280006A008F7C806180936A00EE9A08954F9295
:100290005F926F927F928F929F92AF92BF92CF9216
:1002A000DF92EF92FF92CF93DF9300D000D0CDB7D3
:1002B000DEB769837A838B839C8329013A0160913D
:1002C000D9037091DA0390E080E00E94851820E065
:1002D00030E04AE754E40E94DD174B015C01C09016
:1002E000D103D090D203E090D303F090D403A301C4
:1002F00092010E943C19A70196010E94DD170E94FD
:100300004F182B0129813A814B815C81C501B401D1
:100310000E943C19A70196010E94DD170E944F1808
:10032000072E000C880B990B0E94871860936403BA
:1003300070936503809366039093670380916103D4
:10034000813081F0109288031092890310928A0301
:1003500010928B0380916E0390916F0390936D03C5
:1003600080936C0381E080936103B201550C880B8C
:10037000990B0E94871860939D0370939E0380934E
:100380009F039093A00380919A03813081F0109293
:10039000C1031092C2031092C3031092C403809150
:1003A000A7039091A8039093A6038093A50381E0EF
:1003B00080939A030F900F900F900F90DF91CF9141
:1003C000FF90EF90DF90CF90BF90AF909F908F9075
:1003D0007F906F905F904F9008954F925F926F92D1
:1003E0007F928F929F92AF92BF92CF92DF92EF92C5
:1003F000FF92CF93DF93CDB7DEB728970FB6F8946F
:10040000DEBF0FBECDBF4B015C012D833E834F830A
:1004100058876091D9037091DA0390E080E00E94E0
:10042000851820E030E04AE754E40E94DD176B01B4
:100430007C014090D1035090D2036090D303709020
:10044000D403A50194010E943C19A30192010E94CA
:10045000DD170E944F1869837A838B839C8323EC7A
:1004600035EF48E450E46091D5037091D603809154
:10047000D7039091D8030E943C1920E030E044E378
:1004800053E40E94DD174B015C012D813E814F81B9
:100490005885C701B6010E943C199B01AC01C501FA
:1004A000B4010E943C19A30192010E94DD170E9431
:1004B0004F186B0169817A816C197D09072E000C38
:1004C000880B990B0E9487186093640370936503EF
:1004D000809366039093670380916103813081F07C
:1004E000109288031092890310928A0310928B0352
:1004F00080916E0390916F0390936D0380936C03D2
:1005000081E08093610389819A81C80ED91EB6016A
:10051000DD0C880B990B0E94871860939D037093E4
:100520009E0380939F039093A00380919A03813050
:1005300081F01092C1031092C2031092C303109273
:10054000C4038091A7039091A8039093A60380937E
:10055000A50381E080939A0328960FB6F894DEBF36
:100560000FBECDBFDF91CF91FF90EF90DF90CF9086
:10057000BF90AF909F908F907F906F905F904F90C3
:100580000895FC018091B402882311F13FB7F894DB
:1005900082E08093E9002091F200822F90E018160B
:1005A000190614F481E090E0882339F0289844E695
:1005B0004093B3024091F1004083222339F020910F
:1005C000F200211103C02BE62093E8003FBF0895FD
:1005D0008FEF9FEF08952FB7F89483E08093E900A1
:1005E0009091E800892F807295FF04C09091F200ED
:1005F00080E4891B2FBF08958091AB0281110DC04B
:1006000082E08093A70284E08093A8021092AA025D
:100610001092A90281E08093AB0287EA92E00895EC
:1006200081508F3008F047C0E82FF0E0E65EFC4FC5
:100630000C94651737033B0329032F0333035B0334
:100640005B035B033E03440348034C0352035B0319
:100650005603809180008F77809380000895809169
:1006600080008F7DF9CF80918000877FF5CF84B5A2
:100670008F7784BD089584B58F7DFBCF80919000E6
:100680008F77809390000895809190008F7DF9CFAF
:1006900080919000877FF5CF8091C0008F77809305
:1006A000C00008958091C0008F7DF9CF8091C20075
:1006B000877F8093C2000895CF93DF93282F30E087
:1006C000F901E256FE4F8491F901E158FE4FD491B1
:1006D000F901E05AFE4FC491CC23A1F081110E9490
:1006E0001003EC2FF0E0EE0FFF1FEE5AFE4FA59126
:1006F000B491EC91ED2381E090E009F480E0DF918A
:10070000CF91089580E090E0FACF1F93CF93DF93CD
:10071000282F30E0F901E256FE4F8491F901E158AB
:10072000FE4FD491F901E05AFE4FC491CC23A9F0B9
:10073000162F81110E941003EC2FF0E0EE0FFF1F27
:10074000EC5BFE4FA591B4918FB7F894EC91111129
:1007500008C0D095DE23DC938FBFDF91CF911F912E
:100760000895DE2BF8CFCF93DF9390E0FC01E158A2
:10077000FE4F2491805A9E4FFC0184918823C9F03A
:1007800090E0880F991FFC01EA5CFE4FA591B4919F
:10079000FC01EC5BFE4FC591D49161110DC09FB778
:1007A000F8948C91209582238C9388812823288328
:1007B0009FBFDF91CF910895623051F49FB7F894B5
:1007C0003C91822F809583238C93E8812E2BEFCF51
:1007D0008FB7F894EC912E2B2C938FBFEACF8231F8
:1007E00008F08251E82FF0E0E65DFE4FE491909131
:1007F0007B008E2F880F880F80729F7D892B8093BE
:100800007B00E770E064E0937C0080917A00806474
:1008100080937A0080917A0086FDFCCF80917800E9
:100820009091790008953FB7F8948091A302909138
:10083000A402A091A502B091A60226B5A89B05C06E
:100840002F3F19F00196A11DB11D3FBFBA2FA92F4F
:10085000982F8827BC01CD01620F711D811D911D4C
:1008600042E0660F771F881F991F4A95D1F70895B8
:100870008F929F92AF92BF92CF92DF92EF92FF92B0
:100880004B015C010E9413046B017C010E94130464
:100890006C197D098E099F09683E73408105910599
:1008A000A8F321E0821A9108A108B10888EEC80EC9
:1008B00083E0D81EE11CF11C81149104A104B10451
:1008C00029F7FF90EF90DF90CF90BF90AF909F906F
:1008D0008F90089580916103811104C080919A03E3
:1008E000882339F061E070E080E090E00E943804F5
:1008F000F1CF08958F929F92AF92BF92CF92DF92E5
:10090000EF92FF924B015C0169017A01E894F7F8DC
:1009100020E030E0A9010E943719181624F0F7FAF8
:10092000F094F7F8F094A701960160E070E0CB0135
:100930000E94ED0123EC35EF48E450E46091D503CB
:100940007091D6038091D7039091D8030E943C19EF
:1009500020E030E044E353E40E94DD17A501940158
:100960000E943C192091D1033091D2034091D303CE
:100970005091D4030E94DD170E944F18F8942091E3
:100980006E0330916F037894261B370B3093690305
:100990002093680322E020936103F8944091A70319
:1009A0005091A8037894CA01860F971F9093A203D1
:1009B0008093A10320939A03FF90EF90DF90CF9054
:1009C000BF90AF909F908F900C946A04CF92DF926B
:1009D000EF92FF926B017C0120E030E0A9010E94C0
:1009E000371918160CF43BC060E070E080E291EC1F
:1009F00020E030E0A9010E94ED012091D103309167
:100A0000D2034091D3035091D403C701B6010E9491
:100A1000DD170E944F18F89420916E0330916F03F8
:100A20007894260F371F309369032093680322E0E0
:100A300020936103F8944091A7035091A803789400
:100A4000CA01860F971F9093A2038093A10320935E
:100A50009A03FF90EF90DF90CF900C946A0460E0CF
:100A600070E080E291E4C4CF0895409190025091EB
:100A7000910220918E0230918F0242175307B4F4F5
:100A80009091E8009570E1F39091E80092FD19C013
:100A90008093F100809190029091910201968F7362
:100AA0009927892B19F48EEF8093E80080919002AA
:100AB000909191020196909391028093900281E02F
:100AC000089580E00895EF92FF920F931F93CF93C4
:100AD000DF93F82E192FE62E042F81E0860F880F62
:100AE0000E94350583E00E943505CF2DD12FEC0EF5
:100AF000FD2EF11CCE15DF05B9F007FF13C0FE0176
:100B000084910E943505182F80E00E9435058123CD
:100B100021968111EFCFDF91CF911F910F91FF901F
:100B2000EF9008958881EDCF81E0F5CFDF92EF92CD
:100B3000FF920F931F93CF93DF93D82E8A01EB017F
:100B40007B01E40EF51ECE15DF0559F0D7FE12C06D
:100B5000FE0184910E94350521968111F4CF0FEF9B
:100B60001FEFC801DF91CF911F910F91FF90EF9080
:100B7000DF9008958881EECF0F931F93CF93DF937B
:100B80001F92CDB7DEB782E0898342E450E06CEA81
:100B900070E080E80E9496050E94FC02DC0112963B
:100BA0000D911C910115110589F0D801ED91FC9171
:100BB0000280F381E02DBE016F5F7F4FC801099570
:100BC00097FD04C0F80100851185ECCF89810F9055
:100BD000DF91CF911F910F910895615030F02091D6
:100BE000F100FC0120830196F8CF289884E68093D9
:100BF000B30208958F929F92AF92BF92CF92DF92ED
:100C0000EF92FF920F931F93CF93DF936C017B01C1
:100C10008A0180910B01882309F45CC08091B402A1
:100C2000882309F457C08091940280FF05C0809109
:100C3000E00082608093E000E801B12C8AEFA82EEA
:100C400093E0892E2AE3922E209711F4BB20D9F14C
:100C50000E94EB0281110AC0AA94AA20D9F161E096
:100C600070E080E090E00E943804EECF8C171D0603
:100C700011F00CF08C2F9FB7F8948092E90020912E
:100C8000E80025FD02C09FBFDFCF282F30E0C21B48
:100C9000D30BF701815020F041914093F100FACF3E
:100CA000E20EF31EBB2021F09092E800B12CEBCFB6
:100CB0008091E80085FDE7CF9092E800BB24B394D3
:100CC000209709F3F3CF5D9884E680939302101682
:100CD00011063CF081E090E0F6019383828310E0FE
:100CE00000E0C801DF91CF911F910F91FF90EF902D
:100CF000DF90CF90BF90AF909F908F900895CF934B
:100D0000DF931F92CDB7DEB76983DC01ED91FC91D3
:100D10000280F381E02D41E050E0BE016F5F7F4F24
:100D200009950F90DF91CF91089583E08093E900BA
:100D30008091F200882319F08AE38093E8000895F7
:100D40000E94EB0290E00895CF93DF931F92CDB7FE
:100D5000DEB7FC018485958597FD08C02FEF3FEF36
:100D6000358724870F90DF91CF910895CE010196AA
:100D70000E94C102019719F4898190E0F3CF8FEFAF
:100D80009FEFF0CF0F931F93CF93DF931F92CDB7B9
:100D9000DEB78C01FC018485958597FF0BC0CE01E1
:100DA00001960E94C102019771F4898190E0F801D7
:100DB00095878487F801848595850F90DF91CF9181
:100DC0001F910F9108958FEF9FEFF1CFFC01848564
:100DD000958597FD0BC09FB7F89482E08093E9005A
:100DE0008091F2009FBF90E0019608959FB7F8941C
:100DF00082E08093E9008091F2009FBF90E0089527
:100E00000F931F93CF93DF93EC018B018F8181119F
:100E100007C0E881F9810190F081E02DCE010995AC
:100E20008A819B810817190730F08C819D810817F2
:100E3000190708F4C801880F991F0197909399002A
:100E400080939800DF91CF911F910F910895DC015D
:100E5000F894E0E9F0E090819F779083789417967A
:100E60001C920895CF93DF93EC0161E085E00E942E
:100E7000B303F89482E8809390008AE18093910014
:100E80008FE39CE9909397008093960088EB9BE01A
:100E90009093990080939800789481E08F83DF91FC
:100EA000CF910895F89441E040936800ABE6B0E03C
:100EB0009C91E82FF0E021E030E001C0220F8A95FC
:100EC000EAF7892F822B8C93EE0FFF1FE258FD4F1C
:100ED000718360834BBB90910903822F8095892396
:100EE0008093090383B1909109038223892B809316
:100EF0000903789408954F925F926F927F928F9238
:100F00009F92AF92BF92CF92DF92EF92FF92CF93D8
:100F1000DF93EC016B817C81072E000C880B990B11
:100F20000E9487189B01AC016D817E818F8198851D
:100F30000E946B176B017C01C9A2DAA2EBA2FCA292
:100F400029A53AA54BA55CA50E946C174B015C0135
:100F500089A69AA6ABA6BCA64DA45EA46FA478A849
:100F600020E030E0A901C301B2010E943719181630
:100F70009CF4A50194015F77C301B2010E94D817C8
:100F800087FF0AC0A7019601C501B4010E946B1733
:100F900069A77AA78BA79CA72DA13EA14FA158A511
:100FA000C701B6010E946B174B015C01CDA2DEA206
:100FB000EFA2F8A629A53AA54BA55CA5698D7A8D67
:100FC0008B8D9C8D0E943C192B013C012D893E8903
:100FD0004F89588DC701B6010E943C199B01AC0195
:100FE000C301B2010E946C176B017C012D8D3E8DF7
:100FF0004F8D58A1C501B4010E943C199B01AC0161
:10100000C701B6010E946C176DAB7EAB8FAB98AF7A
:101010000E944F18E881F9810190F081E02DCE0106
:10102000DF91CF91FF90EF90DF90CF90BF90AF9086
:101030009F908F907F906F905F904F90099420E0E9
:1010400077FF04C071956195710921E0FC018385EA
:101050009485681779070CF4CB01909389008093ED
:101060008800222319F0299A219A08952998FCCF03
:1010700020E077FF04C071956195710921E0FC01C2
:1010800083859485681779070CF4CB0190938B00C6
:1010900080938A00222319F02A9A229A08952A9886
:1010A000FCCFCF93DF93CFE5D3E01A8270E060E00E
:1010B000CE010E9438081BAE70E060E088E993E042
:1010C000DF91CF910C941F08CF93DF93EC018989B6
:1010D0009A8950E070E02B893C89AF85B8898427D4
:1010E000952726273727821B930B8A0F9B1F988BE8
:1010F0008F877A8B698B5C8B4B8B8A81823089F4EA
:101100002F85388989859A852817390751F4E88110
:10111000F9810190F081E02D70E060E0CE01099549
:101120001A82DF91CF9108956CB1262F30E035956A
:1011300027953595279583B1422F4170682F70E030
:1011400094E0759567959A95E1F7622761708FE550
:1011500093E00C9464084FB141706CB166FB662754
:1011600060F9642788E993E00C946408FC01F89422
:1011700087859089108A1786168615867894089533
:1011800080912D030E945C03892B59F00E94130467
:1011900060933703709338038093390390933A0335
:1011A00008950E94130460933B0370933C03809363
:1011B0003D0390933E0380912C03826080932C0327
:1011C0000895CF93DF93EC01888581110EC0898546
:1011D00091E098879A8562E0911101C060E00E94D9
:1011E000B3038FE090E00197F1F789850E945C03DB
:1011F0003B8521E03817190609F420E0822FDF91A2
:10120000CF910895CF92DF92EF92FF920F931F93A9
:101210000E9413046B017C01809114030E945C0303
:10122000892B79F4C0922003D0922103E09222030B
:10123000F09223031F910F91FF90EF90DF90CF90DA
:101240000895C0922403D0922503E0922603F092E1
:101250002703409124035091250360912603709148
:1012600027038091200390912103A0912203B09144
:101270002303481B590B6A0B7B0B8091240390912D
:101280002503A0912603B0912703C0902803D09096
:101290002903E0902A03F0902B030091240310917E
:1012A00025032091260330912703009328031093F0
:1012B000290320932A0330932B038A019B010553B2
:1012C000114221093109073E13402105310548F437
:1012D00010921F0381E090E0909316038093150312
:1012E000A9CF445F514061097109493C510561052D
:1012F000710590F085E090E09093160380931503BC
:101300008FEF9FEFDC0180931B0390931C03A0934E
:101310001D03B0931E038ECF8C199D09AE09BF0922
:1013200020911503309116032130310509F05FC07B
:10133000AC01BD01415C524161097109433F51401B
:101340006105710558F410921B0310921C03109252
:101350001D0310921E0383E090E0BECF8D589A408B
:10136000A109B10987359240A105B10508F062CF06
:1013700082E090E0909316038093150340911B0345
:1013800050911C0360911D0370911E0380911B03FB
:1013900090911C03A0911D03B0911E03892F9A2FD9
:1013A000AB2FBB2784279527A627B7278827992700
:1013B000BB270097AF4FB10531F085E090E09093E7
:1013C0001603809315032FB7F89480919F02909194
:1013D000A002A091A102B091A2022FBF8093170397
:1013E00090931803A0931903B0931A0323CF2330CB
:1013F000310509F01FCFAC01BD01455853406109CB
:1014000071094F3851406105710560F580911F03E6
:101410008F5F80931F0380911F03803209F00ACFF2
:1014200040911B0350911C0360911D0370911E039A
:1014300080911B0390911C03A0911D03B0911E038A
:10144000892F9A2FAB2FBB2784279527A627B7274D
:1014500088279927BB270097AF4FB105A9F185E0F1
:1014600090E03ACF815D9740A109B109833F914057
:10147000A105B10510F520911F0340911B03509168
:101480001C0360911D0370911E0381E090E0A0E0B9
:10149000B0E004C0880F991FAA1FBB1F2A95D2F77E
:1014A000840F951FA61FB71F80931B0390931C03E7
:1014B000A0931D03B0931E03A9CF85E090E0909305
:1014C000160380931503A7CF84E090E078CF86E1E0
:1014D0000C94EF0385E10C94EF038F929F92AF92EF
:1014E000BF92CF92DF92EF92FF92CF93DF930E9451
:1014F000670AEC010E946A0ABE01681B790B072E7D
:10150000000C880B990B0E9487182AE037ED43E204
:101510005CE30E943C196B017C01AC019B0160E023
:1015200070E080E791E40E946B174B015C0120E0C2
:1015300030E040E751E4C701B6010E946C17A501F5
:101540009401DF91CF91FF90EF90DF90CF90BF900B
:10155000AF909F908F900C944701CF93DF9380E0E2
:101560000E945C03EC0181E00E945C034091B502A3
:101570005091B6026091B7027091B802C817D907AE
:1015800079F44F5F5F4F6F4F7F4F4093B502509399
:10159000B6026093B7027093B802DF91CF910895BD
:1015A0004150510961097109F0CFCF93DF9380E079
:1015B0000E945C03EC0181E00E945C034091B50253
:1015C0005091B6026091B7027091B802C817D9075E
:1015D00079F441505109610971094093B502509362
:1015E000B6026093B7027093B802DF91CF9108956D
:1015F0004F5F5F4F6F4F7F4FF0CFCF93DF93EC0183
:1016000080911203D7FF18C061E00E94850360E05B
:10161000809110030E948503D195C195D109C139EC
:1016200081E0D80714F0C0E9D1E0D0938D00C093D9
:101630008C00DF91CF91089560E00E94850361E006
:10164000809110030E948503EACFFC0101900020E5
:10165000E9F73197AF01481B590BBC0189EB92E0C8
:101660000C94FA054F925F926F927F928F929F92A5
:10167000AF92BF92CF92DF92EF92FF920F931F93A0
:10168000CF93DF93CDB7DEB7A1970FB6F894DEBF47
:101690000FBECDBF4B015C01F894C090B502D09055
:1016A000B602E090B702F090B80278949AE0492E22
:1016B000512C612C712CD701C60188199909AA09EE
:1016C000BB09B7FF07C0B095A095909581959F4F36
:1016D000AF4FBF4F40910A0350910B0360910C0331
:1016E00070910D03481759076A077B070CF08CC0EF
:1016F000C501B4016C197D098E099F09660F771F1A
:1017000077FF53C0072E000C880B990B0E94871897
:1017100023EC35EF48EE5EE30E943C1920E030E018
:101720004AE553E40E946B170E944F18CB010E94B8
:10173000FD0AF894C090B502D090B602E090B702CE
:10174000F090B8027894F7FE49C06DE289EB92E020
:101750000E947F0622273327A9012C193D094E0933
:101760005F0919A28E010F5D1F4FCA01B901A301C4
:1017700092010E944317605DF80162938F01211569
:1017800031054105510589F70115110519F0C80109
:101790000E94250B89E691E00E94250B6AE070E02B
:1017A00080E090E00E94380486CF90E080E06115F0
:1017B000710509F4BCCF072E000C880B990B0E9411
:1017C00087182BED39EF4EEB5EE30E943C1920E0C9
:1017D00030E04BE753E40E946C17A6CFA7019601B7
:1017E00019A28E010F5D1F4FCA01B901A301920119
:1017F0000E944317605DF80162938F012115310546
:101800004105510589F7C0CF90E080E00E94FD0AB4
:10181000A1960FB6F894DEBF0FBECDBFDF91CF917A
:101820001F910F91FF90EF90DF90CF90BF90AF90FE
:101830009F908F907F906F905F904F900895CF937F
:10184000DF930E94250BEC0189E691E00E94250BB5
:101850008C0F9D1FDF91CF9108950E94A919CF93FE
:10186000DF93A2EEB0E09C911C92E9EEF0E02081C3
:101870001082C0EFD0E03881188240E028994160A2
:10188000209942602098289A80E18A95F1F783B1E7
:1018900041FB0EF0209840FB0EF028980EF4289A99
:1018A00041FB0EF4209A1082388320839C9380950C
:1018B0008170DF91CF910895CF93DF93A2EEB0E0D6
:1018C0009C911C92E9EEF0E020811082C0EFD0E004
:1018D0003881188240E05D99416055994260559881
:1018E0005D9A80E18A95F1F789B141FB0EF0559838
:1018F00040FB0EF05D980EF45D9A41FB0EF4559A94
:101900001082388320839C9390E025E095958795FD
:101910002A95E1F7809590958170DF91CF91089598
:101920001F920F920FB60F9211242F933F938F9314
:101930009F93AF93BF9380919F029091A002A0913B
:10194000A102B091A20230919E0223E0230F2D3715
:1019500058F50196A11DB11D20939E0280939F0210
:101960009093A002A093A102B093A2028091A3023F
:101970009091A402A091A502B091A6020196A11D8A
:10198000B11D8093A3029093A402A093A502B093EB
:10199000A602BF91AF919F918F913F912F910F9090
:1019A0000FBE0F901F90189526E8230F0296A11DD9
:1019B000B11DD2CF1F920F920FB60F9211242F9309
:1019C0003F934F935F936F937F938F939F93AF93C7
:1019D000BF93EF93FF93E0911C01F0911D010995D6
:1019E000FF91EF91BF91AF919F918F917F916F91F7
:1019F0005F914F913F912F910F900FBE0F901F90CD
:101A000018951F920F920FB60F9211242F933F93A8
:101A10004F935F936F937F938F939F93AF93BF93F6
:101A2000EF93FF93E0911A01F0911B010995FF914B
:101A3000EF91BF91AF919F918F917F916F915F9146
:101A40004F913F912F910F900FBE0F901F901895BF
:101A50001F920F920FB60F9211242F933F934F9323
:101A60005F936F937F938F939F93AF93BF93EF9306
:101A7000FF93E0911801F09119010995FF91EF9101
:101A8000BF91AF919F918F917F916F915F914F9196
:101A90003F912F910F900FBE0F901F9018951F929E
:101AA0000F920FB60F9211242F933F934F935F9392
:101AB0006F937F938F939F93AF93BF93EF93FF9316
:101AC000E0911601F09117010995FF91EF91BF91F7
:101AD000AF919F918F917F916F915F914F913F91C6
:101AE0002F910F900FBE0F901F9018951F920F927D
:101AF0000FB60F9211242F933F934F935F936F93E1
:101B00007F938F939F93AF93BF93EF93FF93E09156
:101B10001401F09115010995FF91EF91BF91AF91DB
:101B20009F918F917F916F915F914F913F912F91F5
:101B30000F900FBE0F901F9018951F920F920FB627
:101B40000F9211248F939F938091E1009091E10077
:101B5000937F9093E10083FF0FC01092E90091E022
:101B60009093EB001092EC0092E39093ED001092B2
:101B7000B40298E09093F00082FF22C093E090932B
:101B8000E9009091F200992319F09AE39093E8000C
:101B900090919302992341F09091930291509093E8
:101BA0009302911101C05D9A9091B302992341F083
:101BB0009091B30291509093B302911101C0289A71
:101BC00084FF18C08091E2008E7E81608093E200E5
:101BD0008091E1008F7E8093E100809194028E7E5F
:101BE0008061809394029F918F910F900FBE0F9010
:101BF0001F90189580FFF7CF8091E2008E7E806164
:101C00008093E2008091E1008E7E8093E1008091DC
:101C100094028E7E8160E5CF1F920F920FB60F92D5
:101C20001124CF92DF92EF92FF920F931F932F9385
:101C30003F934F935F936F937F938F939F93AF9354
:101C4000BF93EF93FF93CF93DF93CDB7DEB76C973E
:101C5000DEBFCDBF1092E9008091E80083FF25C070
:101C600068E0CE0145960E94ED0582EF8093E80082
:101C70008D8987FF39C09091E80090FFFCCF982FA5
:101C8000907609F034C19E894F89588D2F89F88C40
:101C9000911131C0803861F5809195028093F100F7
:101CA0001092F1008EEF8093E8006C960FB6F894D6
:101CB000DEBF0FBECDBFDF91CF91FF91EF91BF91FE
:101CC000AF919F918F917F916F915F914F913F91D4
:101CD0002F911F910F91FF90EF90DF90CF900F9079
:101CE0000FBE0F901F9018959EEF9093E800C7CFFE
:101CF0001092F100D5CF913059F48111D3CF4130FA
:101D0000510581F6809195028D7F80939502CACF0F
:101D1000933049F48111C6CF4130510519F68091B5
:101D200095028260F2CF953041F48091E80080FF07
:101D3000FCCF20682093E300B5CF963009F0A9C00E
:101D40000B8D1C8D22E01092E900109291021092EE
:101D50009002F2122EC010928F0210928E020E94F8
:101D6000BC051F8299E09983FA8291E09E8390EAF4
:101D700098879AEF99872091900230919102275F7E
:101D80003F4F3C832B838D831092E9001092910288
:101D90001092900210938F0200938E0249E050E05F
:101DA000BE016F5F7F4F80E00E9496050E94BC05D8
:101DB00079CF10938F0200938E020E94FC02DC0107
:101DC00012960D911C910115110509F451C1D8010C
:101DD000ED91FC910480F581E02DBE016B5E7F4F9B
:101DE000C8010995009709F03EC1F80100851185E9
:101DF000EACFF3E0FF120EC08F89882309F440C0B8
:101E0000823061F440E862E187E191E00E9463057D
:101E1000811148CF81E28093EB0047CF813029F4D4
:101E200040E862E184E091E0F1CF833099F70E94CD
:101E3000FC02DC011296ED90FC908E010F5F1F4FAB
:101E40006801E114F10479F0D701ED91FC9106806D
:101E5000F781E02DB801C7010995080F111DF701A1
:101E6000E084F184EECFD8011C92F60101900020AD
:101E7000E9F73197BF016C197D0940E0C601C6CF73
:101E80006EEE70E0FB01449150E080E80E94960500
:101E900009CF973009F4BECF983021F481E08093C8
:101EA000F10000CF993009F0FDCE837009F0B2CF78
:101EB000E9E2F1E081E031E096E32191222371F043
:101EC0008093E9003093EB00DF0111972C91209370
:101ED000EC009093ED008F5F873079F78EE7809369
:101EE000EA001092EA008F898093B402DBCE8B8DDA
:101EF0009C8D1092E90010929102109290029093A2
:101F00008F0280938E02898D811192C08E899D8966
:101F1000913A49F4813209F07DCF47E050E064E026
:101F200071E080E0B3CF913209F074CF833269F46D
:101F30008F89988DB0E0A0E080930001909301011B
:101F4000A0930201B0930301ADCE803269F4809179
:101F5000E80082FFFCCF67E084E091E00E94ED059D
:101F60008BEF8093E8009ECE823209F09BCE8F8962
:101F700080930B01EEEFFFE7859194918B3F9C4D91
:101F800051F1E0E0F8E08091040190910501A09109
:101F90000601B0910701803B9440A105B105F1F421
:101FA00080910B0180FD1AC0EE3F8AE0F80789F5A9
:101FB00087E797E791838083809160008093920206
:101FC00088E19BE00FB6F894A895809360000FBE5F
:101FD0009093600067CEEEEFFAE0D5CF80819181DB
:101FE0008737974709F05ECEA89580916000886199
:101FF000809360008091920280936000EE3F2AE01F
:10200000F20789F08091FE0A9091FF0A9183808304
:1020100049CE808191818737980751F29093FF0ACA
:102020008093FE0AC5CF1092FF0A1092FE0A3ACEA4
:102030000E94FC02DC0112960D911C910115110504
:1020400009F4E8CED801ED91FC910190F081E02DEA
:10205000BE016B5E7F4FC8010995811123CEF80147
:1020600000851185EBCF181619060CF41BCED2CEC5
:10207000F1E0FF12BECE62EF70E004CF1F920F922C
:102080000FB60F9211242F933F934F935F936F934B
:102090007F938F939F93AF93BF93EF93FF93CF93D0
:1020A000DF9300D01F92CDB7DEB783B189838981DA
:1020B0009091090389278A8380916B009A818923F3
:1020C0008B838B8180FF05C0E0917E02F0917F02BF
:1020D00009958B8181FF05C0E0918002F09181021A
:1020E00009958B8182FF05C0E0918202F091830205
:1020F00009958B8183FF05C0E0918402F0918502F0
:1021000009958B8184FF05C0E0918602F0918702DA
:1021100009958B8185FF05C0E0918802F0918902C5
:1021200009958B8186FF05C0E0918A02F0918B02B0
:1021300009958B8187FF05C0E0918C02F0918D029B
:1021400009958981809309030F900F900F90DF917B
:10215000CF91FF91EF91BF91AF919F918F917F911F
:102160006F915F914F913F912F910F900FBE0F9004
:102170001F9018951F920F920FB60F9211242F9354
:102180003F934F935F936F937F938F939F93AF93FF
:10219000BF93EF93FF9380916E0390916F03209113
:1021A0006C0330916D03AC01421B530B50936303DE
:1021B0004093620390936D0380936C038091A70317
:1021C0009091A8032091A5033091A603AC01421B76
:1021D000530B50939C0340939B039093A6038093CF
:1021E000A50380916103813021F0809161038230E9
:1021F00021F48FE593E00E947B0780919A03813060
:1022000021F080919A03823021F488E993E00E94C2
:102210007B07FF91EF91BF91AF919F918F917F913C
:102220006F915F914F913F912F910F900FBE0F9043
:102230001F901895CF93DF93E9EBF2E0138212829F
:1022400088EE93E0A0E0B0E084839583A683B78313
:102250008DE391E0918380838FEF9FEF9587848753
:1022600083B180930903EFE5F3E0128214821382B5
:102270001582168217821086128611862CE231E0B2
:102280003487238716861586108A1786128A118A44
:10229000148A138A40E050E060EA70E4458B568B64
:1022A000678B708F80E090E0A0E0BFE3818F928F1A
:1022B000A38FB48F158E168E178E10A211A212A2A4
:1022C00013A214A215A216A217A210A611A612A656
:1022D00013A614A615A616A617A610AA11AA12AA26
:1022E00013AA14AA15AA16AA17AA10AEC7E6D1E017
:1022F000D183C08313AE15AE14AE10929D0310921D
:102300009E0310929F031092A0031092A2031092BA
:10231000A1033093A4032093A3031092A603109269
:10232000A5031092A8031092A7031092AA0310927B
:10233000A9031092AC031092AB034093AD035093EA
:10234000AE036093AF037093B0038093B103909397
:10235000B203A093B303B093B4031092B5031092E9
:10236000B6031092B7031092B8031092B9031092FB
:10237000BA031092BB031092BC031092BD031092DB
:10238000BE031092BF031092C0031092C1031092BB
:10239000C2031092C3031092C4031092C50310929B
:1023A000C6031092C7031092C8031092C90310927B
:1023B000CA031092CB031092CC031092CD0310925B
:1023C000CE031092CF031092D00381E691E092AF3A
:1023D00081AF8EED95E3AAE7BCE38093D1039093A0
:1023E000D203A093D303B093D40383E393E3ABEE80
:1023F000B0E48093D5039093D603A093D703B09312
:10240000D80380E190E09093DA038093D903E7E565
:10241000F3E0128215828BE591E091838083EFE4F3
:10242000F3E01282158285E591E091838083E3E4F5
:10243000F3E01282158210868EE0818791E0928708
:1024400093872FE431E031832083ECE2F3E01082C4
:1024500013821482158216824AE050E060E070E038
:102460004783508761877287138614861586168680
:102470001786108A118A128A40E050E066EC72E4F6
:10248000438B548B658B768B91E191839CE0928397
:10249000E4E1F3E0808312821182138214821582B8
:1024A0001682178210861186128613861486158668
:1024B00016861786108A118A128A138A148A158A38
:1024C000168A178AEAE0F3E083E090E0A0E0B0E04B
:1024D00080839183A283B3838BE090E09583848390
:1024E00084E090E0978386838DE090E091878087F9
:1024F000DF91CF910895789484B5826084BD84B5CE
:10250000816084BD85B5826085BD85B5816085BDEE
:1025100080916E00816080936E00109281008091A6
:10252000810082608093810080918100816080932E
:102530008100809180008160809380008091910073
:1025400082608093910080919100816080939100DE
:10255000809190008160809390008091C1008460A0
:102560008093C1008091C10082608093C1008091FE
:10257000C10081608093C1008091C300816080931D
:10258000C3008091C00082608093C0008091C2002F
:1025900081608093C20080917A00846080937A0089
:1025A00080917A00826080937A0080917A008160C5
:1025B00080937A0080917A00806880937A001092EC
:1025C000B40210929502109294028091D70081601B
:1025D0008093D70080EA8093D80089B5806189BD57
:1025E00089B5826089BD09B400FEFDCF61E070E06D
:1025F00080E090E00E9438048091D8008F7C806158
:102600008093D8008091E000807F8093E0008091EB
:10261000E1008E7E8093E1008DE08093E200559A88
:10262000209A8DE691E00E941F0C2E98269A2D98F4
:10263000259A2A98229A2998219A2F98279AF894CD
:102640008AEA8093800089E18093810084EA91E0A6
:1026500090938700809386001092890010928800E2
:1026600010928B0010928A0010928D0010928C00B4
:1026700078948CE691E00E941F0C8BE791E00E9419
:102680001F0C24982C9A6A98729A6E98769A809861
:10269000889A64E978E084E00E9452076BEA78E067
:1026A00084E00E940A016CB1262F30E03595279511
:1026B0003595279583B1422F4170682F70E054E023
:1026C000759567955A95E1F7622761708FE593E0FC
:1026D0000E9464088FE593E00E94B6086CB1262F33
:1026E00030E0359527953595279583B1422F417078
:1026F000682F70E0E4E075956795EA95E1F7622749
:10270000617088E993E00E94640888E993E00E9480
:10271000B6088AE791E00E941F0CF8941092C0005E
:102720008BE08093C1001092C2001092C30089EF29
:102730008093D10084E080937200789460E080916F
:1027400014030E94B30380911403843018F087307F
:1027500009F04CC18AE891E00E941F0C809114039B
:10276000882309F43BC1813009F43AC1823009F46D
:1027700039C1833009F438C1873029F484E062E03C
:1027800079E00E940A0160E080912D030E94B3036A
:1027900080912D03843018F0873009F042C189EA16
:1027A00091E00E941F0C80912D03882309F431C110
:1027B000813009F430C1823009F42FC1833009F42B
:1027C0002EC1873029F484E060EC78E00E940A0191
:1027D00061E080912E030E94B30361E080910E03BB
:1027E0000E94B30361E0809110030E94B30361E093
:1027F000809112030E94B30360E080E00E94B30363
:1028000060E081E00E94B30388EA8093800081E168
:102810008093810080E991E0909387008093860007
:1028200010928D0010928C0065ED7AE082E00E949B
:102830000A016DEA7AE083E00E940A01F89410929E
:10284000B5021092B6021092B7021092B8027894B4
:10285000F8941092B5021092B6021092B70210923C
:10286000B802789488EE93E090930F0180930E0164
:1028700080ED97E0909311018093100160E08EE06D
:102880000E94B3038FEF9FEF9093C6028093C5021F
:1028900010929D0210929C0287E593E00E942F0CFB
:1028A0008823D1F36AE070E080E090E00E94380471
:1028B00087E593E00E942F0C882371F387E593E06E
:1028C0000E942F0C8111FACF6AE070E080E090E066
:1028D0000E94380487E593E00E942F0C8111EECF0F
:1028E0000E946A0A0E94670A20E030E040E252E457
:1028F00060E070E080EF91E40E947A046CE271E0A5
:1029000080E090E00E9438040E94670A8A3F9105A7
:102910007CF420E030E040E751E460E070E080E7E4
:1029200091EC0E9447010E94670A8A3F910564F377
:102930000E94510868EE73E080E090E00E94380445
:1029400008E010E0C6E0D0E08BE0282E312C95E5C1
:10295000892E912C24E0A22EB12C80911503909108
:102960001603049711F51092160310921503809127
:102970001B0390911C03A0911D03B0911E038A2F8D
:1029800090E08130910509F05FC080919C029091A8
:102990009D0290939B0280939A02D0939D02C093D4
:1029A0009C0280EE91E00E941F0CE0919C02F0914D
:1029B0009D02ED30F10508F014C1EF51FB4E0C946F
:1029C000651742159F156516AF1672158716D9162D
:1029D000E016F9151F163A16FB16221782E0CFCE25
:1029E00083E0CDCE81E0CBCE80E0C9CE88E991E016
:1029F0000E941F0CE0911403E8508FEFEA3020F49E
:102A0000F0E0E15DFE4F808162E079E00E945207D4
:102A1000BACE82E0D9CE83E0D7CE81E0D5CE80E0B9
:102A2000D3CE83EC91E00E941F0CE0912D03E8507F
:102A30008FEFEA3020F4F0E0E15DFE4F808160EC42
:102A400078E00E945207C4CE8830910559F48091F5
:102A50009A0290919B0290939D0280939C028FEE2C
:102A600091E0A1CF8D30910529F410929D02109232
:102A70009C029BCF409709F098CF10939D02009342
:102A80009C0293CF0E946D0A0E94670A8B3F9105BA
:102A90000CF4A7C00E946A0A8B3F91050CF4A1C0F8
:102AA00020E030E0A901CA01B9010E944701B092BB
:102AB0009B02A0929A02D0939D02C0939C0286EF43
:102AC00091E00E941F0C8FE593E00E94B608F894F5
:102AD00080916E0390916F03789490939902809304
:102AE00098027FC083E092E00E941F0C90929702B0
:102AF00080929602D0939D02C0939C0210939B02F9
:102B000000939A026CE57FE88AEE90E40E94E60466
:102B100020E030E048EC52E460E070E08AEA92E4C1
:102B20000E947A0489E092E00E941F0C8FE593E0F6
:102B30000E94B60888E993E00E94B60852C00E943D
:102B4000670A7C010E946A0AB701681B790B072E8D
:102B5000000C880B990B0E9487182AE037ED43E29E
:102B60005CE30E943C196B017C01AC019B0160E0BD
:102B700070E080E291E40E946B172B013C0120E0A1
:102B800030E040E251E4C701B6010E946C17A30196
:102B900092010E944701F89480916E0390916F0317
:102BA000789482379440A4F020E030E0A901CA0173
:102BB000B9010E944701D0939D02C0939C023092BC
:102BC0009B0220929A0282E192E00E941F0C09C0AF
:102BD000F8948091A7039091A80378948237944049
:102BE0001CF780E090E0892B09F4B7CE0E9400002A
:102BF000ABCE8FE192E00E941F0C6CE173EF8FEF80
:102C00009FEF0E94320BF8948091B5029091B6022A
:102C1000A091B702B091B80278948D30934FAF4F26
:102C2000BF4FFCF281E090E090939B0280939A0268
:102C3000D0939D02C0939C0288E392E0C6CF86E4C5
:102C400092E00E941F0C64EC70EF8FEF9FEF0E94E8
:102C5000320BF8948091B5029091B602A091B70220
:102C6000B091B8027894853B904FAF4FBF4F0CF4B2
:102C7000B8CFD8CF20E030E048EC51ECCA01B90120
:102C80000E94470167ED70E080E090E00E94380408
:102C900020E030E048EC51E460E070E08AE293E448
:102CA0000E947A0460E070E080EC90EC0E94E60400
:102CB00082E090E090939B0280939A02D0939D02D1
:102CC000C0939C0284E592E080CF0E946D0A0E942E
:102CD000670A8B3F91050CF484CF0E946A0A8B3FF0
:102CE00091050CF47ECF20E030E0A901CA01B901C2
:102CF0000E94470185E090E090939B0280939A02A6
:102D0000D0939D02C0939C0289E592E0DACE83E0E5
:102D100092E00E941F0C6CE57FE88AEE90E40E942E
:102D2000E604609196027091970271956195710920
:102D3000072E000C880B990B0E94871820E030E0CA
:102D400048EC52E40E947A0483E090E090939B0266
:102D500080939A02D0939D02C0939C02E7CE0E947A
:102D60006D0AF89480916E0390916F0378948C3D76
:102D700096400CF436CFF8948091A7039091A80365
:102D800078948C3D96400CF42CCF20E030E0A901E3
:102D9000CA01B9010E944701D0939D02C0939C02D1
:102DA00087E090E090939B0280939A0286E692E0FF
:102DB0000CCF0E94510890E080E00E94FD0A11CFE4
:102DC00083E792E00E941F0C60E070E0CB010E945C
:102DD000320BF8948091B5029091B602A091B7029F
:102DE000B091B80278944097A105B1050CF0F9CEE6
:102DF0008CE090E019CF68EE73E08CE091E00E94E7
:102E0000000760ED77E080E090E00E9438048CE0FD
:102E100091E00E94270764EF71E080E090E00E945B
:102E200038046CEF7FEE8FEF9FEF0E94320B8AE049
:102E300090E090939B0280939A02D0939D02C0935E
:102E40009C02CFCE68EE73E08CE091E00E94000718
:102E50006CEB72E080E090E00E9438048CE091E03E
:102E60000E9427076AE070E080E090E00E9438044A
:102E700060E070E080EF91EC0E94E604D0939B024A
:102E8000C0939A02DACFA1E21A2EAA1BBB1BFD0146
:102E90000DC0AA1FBB1FEE1FFF1FA217B307E40739
:102EA000F50720F0A21BB30BE40BF50B661F771F91
:102EB000881F991F1A9469F7609570958095909571
:102EC0009B01AC01BD01CF010895EE0FFF1F0590DE
:102ED000F491E02D09945058BB27AA270E9483172C
:102EE0000C94FD180E94EF1838F00E94F61820F09C
:102EF00039F49F3F19F426F40C94EC180EF4E09585
:102F0000E7FB0C94E618E92F0E940E1958F3BA1744
:102F1000620773078407950720F079F4A6F50C94EF
:102F200030190EF4E0950B2EBA2FA02D0B01B9012C
:102F300090010C01CA01A0011124FF27591B99F02F
:102F4000593F50F4503E68F11A16F040A22F232F3B
:102F5000342F4427585FF3CF469537952795A7958B
:102F6000F0405395C9F77EF41F16BA0B620B730B32
:102F7000840BBAF09150A1F0FF0FBB1F661F771FA3
:102F8000881FC2F70EC0BA0F621F731F841F48F458
:102F9000879577956795B795F7959E3F08F0B0CFE1
:102FA0009395880F08F09927EE0F979587950895C8
:102FB0000E94C21808F481E008950E94F1170C9451
:102FC000FD180E94F61858F00E94EF1840F029F4FE
:102FD0005F3F29F00C94E61851110C9431190C94B0
:102FE000EC180E940E1968F39923B1F3552391F35D
:102FF000951B550BBB27AA2762177307840738F068
:103000009F5F5F4F220F331F441FAA1FA9F335D0C4
:103010000E2E3AF0E0E832D091505040E695001C78
:10302000CAF72BD0FE2F29D0660F771F881FBB1F32
:10303000261737074807AB07B0E809F0BB0B802D10
:10304000BF01FF2793585F4F3AF09E3F510578F03C
:103050000C94E6180C9431195F3FE4F3983ED4F3D6
:10306000869577956795B795F7959F5FC9F7880F10
:10307000911D9695879597F90895E1E0660F771F62
:10308000881FBB1F621773078407BA0720F0621BF3
:10309000730B840BBA0BEE1F88F7E09508950E941E
:1030A00056186894B1110C94311908950E9416199C
:1030B00088F09F5798F0B92F9927B751B0F0E1F0F9
:1030C000660F771F881F991F1AF0BA95C9F714C0A9
:1030D000B13091F00E943019B1E008950C9430198C
:1030E000672F782F8827B85F39F0B93FCCF38695E2
:1030F00077956795B395D9F73EF49095809570953F
:1031000061957F4F8F4F9F4F0895E89409C097FBBB
:103110003EF490958095709561957F4F8F4F9F4FAE
:103120009923A9F0F92F96E9BB279395F6958795F2
:1031300077956795B795F111F8CFFAF4BB0F11F4B5
:1031400060FF1BC06F5F7F4F8F4F9F4F16C088235C
:1031500011F096E911C0772321F09EE8872F762F92
:1031600005C0662371F096E8862F70E060E02AF0D3
:103170009A95660F771F881FDAF7880F96958795BF
:1031800097F90895990F0008550FAA0BE0E8FEEF94
:1031900016161706E807F907C0F012161306E4071B
:1031A000F50798F0621B730B840B950B39F40A2614
:1031B00061F0232B242B252B21F408950A2609F4F2
:1031C000A140A6958FEF811D811D089597F99F67F6
:1031D00080E870E060E008959FEF80EC089500249F
:1031E0000A941616170618060906089500240A946C
:1031F00012161306140605060895092E0394000CF2
:1032000011F4882352F0BB0F40F4BF2B11F460FF80
:1032100004C06F5F7F4F8F4F9F4F089557FD9058A9
:10322000440F551F59F05F3F71F04795880F97FB8A
:10323000991F61F09F3F79F0879508951216130644
:103240001406551FF2CF4695F1DF08C01616170673
:103250001806991FF1CF86957105610508940895A8
:10326000E894BB2766277727CB0197F908950E943A
:10327000C21808F48FEF08950E944F190C94FD189E
:103280000E94EF1838F00E94F61820F0952311F0F4
:103290000C94E6180C94EC1811240C9431190E942B
:1032A0000E1970F3959FC1F3950F50E0551F629F63
:1032B000F001729FBB27F00DB11D639FAA27F00D8F
:1032C000B11DAA1F649F6627B00DA11D661F829FB6
:1032D0002227B00DA11D621F739FB00DA11D621F9B
:1032E000839FA00D611D221F749F3327A00D611DB8
:1032F000231F849F600D211D822F762F6A2F11249A
:103300009F5750409AF0F1F088234AF0EE0FFF1FCC
:10331000BB1F661F771F881F91505040A9F79E3F23
:10332000510580F00C94E6180C9431195F3FE4F3DA
:10333000983ED4F3869577956795B795F795E79579
:103340009F5FC1F7FE2B880F911D9695879597F982
:10335000089581E090E0F8940C94AE19F894FFCFB2
:10336000FFFFFFFF00E10000000000002201E80372
:10337000D007FF003405340534053405340500005A
:10338000000032072707000700C180810000000409
:10339000050607FFFF03010200000000007F06FA98
:1033A00005A0069506E606A406C20600000000E198
:1033B00008000000005C0C000000002F0C00000062
:1033C000001F080000000038080D0A002F696E6910
:1033D000744D6F746F72732829002F696E6974457C
:1033E0006E636F6465727328290041747461636849
:1033F000696E672049535200417474616368696E55
:10340000672050435F495352004174746163686997
:103410006E672072616E676566696E6465722049C9
:10342000535200417474616368696E672072616E03
:10343000676566696E6465722050435F4953520048
:10344000456D657267656E63792053746F70004FC8
:103450006E7761726400436865636B706F696E7448
:10346000203100436865636B00646972656374654D
:103470006400436865636B706F696E742034007319
:103480006973797068757320616E64207468652053
:10349000626F756C64657200436865636B706F6919
:1034A0006E742033610061726D207374726F6E6789
:1034B000696E67005370756E00436865636B706F6B
:1034C000696E74203500436865636B706F696E7454
:0E34D0002036006465706F736974696E670062
:00000001FF
