:100000000C94E0000C94C10D0C949A0D0C94730D9B
:100010000C944C0D0C9408010C9408010C94250DC3
:100020000C9408010C9489100C94E80D0C94570E54
:100030000C9408010C9408010C9408010C9408011C
:100040000C9408010C9408010C9408010C9408010C
:100050000C9408010C9408010C9408010C94DB0C1E
:100060000C9408010C9408010C9408010C940801EC
:100070000C9408010C9408010C9408010C940801DC
:100080000C9408010C9408010C9408010C940801CC
:100090000C9408010C9408010C9408010C940801BC
:1000A0000C9408010C9405110C940801080B000233
:1000B0000202000009040000010202000005240001
:1000C0001001052401010104240206052406000193
:1000D0000705810310004009040100020A00000026
:1000E00007050202400000070583024000000403E8
:1000F000090412010002EF020140FB1F002300016E
:1001000001020301506F6C6F6C7520436F72706F4A
:10011000726174696F6E00506F6C6F6C7520412D49
:100120005374617220333255340007060504010010
:10013000080A0B0C0D0900000000240027002A000B
:100140002D00300000000000250028002B002E00AC
:100150003100000000002300260029002C002F00A1
:10016000040404040403040502020202040302025C
:10017000020206060606060604040202020404043D
:100180000802011040804010204080408008020496
:10019000018040201002011080102040402000000B
:1001A000000200090F0000030401000C0000000021
:1001B00000000000000000000000000000006511C9
:1001C00011241FBECFEFDAE0DEBFCDBF12E0A0E00A
:1001D000B1E0E2EEF9E302C005900D92AC3BB1074D
:1001E000D9F724E0ACEBB2E001C01D92AF31B20709
:1001F000E1F710E0C0EED0E004C02197FE010E94BC
:10020000A61ACF3DD107C9F70E94C6120C94EF1C65
:100210000C940000E82FF0E0EE0FFF1FEC5EFE4FA5
:10022000718360838230D9F028F4882341F08130D3
:1002300071F008958330D9F0843009F108958091E8
:1002400069008C7F816080936900E89A08958091AD
:100250006900837F846080936900E99A08958091A2
:1002600069008F7C806180936900EA9A089580918B
:1002700069008F73806480936900EB9A0895809180
:100280006A008F7C806180936A00EE9A08954F9295
:100290005F926F927F928F929F92AF92BF92CF9216
:1002A000DF92EF92FF92CF93DF9300D000D0CDB7D3
:1002B000DEB769837A838B839C8329013A0160913D
:1002C0001D0470911E0490E080E00E94C61B20E097
:1002D00030E04AE754E40E941E1B4B015C01C090D1
:1002E0001504D0901604E0901704F0901804A301B0
:1002F00092010E947D1CA70196010E941E1B0E9474
:10030000901B2B0129813A814B815C81C501B4018D
:100310000E947D1CA70196010E941E1B0E94901B3B
:10032000072E000C880B990B0E94C81B6093A80332
:100330007093A9038093AA039093AB038091A503C4
:10034000813081F01092CC031092CD031092CE0335
:100350001092CF038091B2039091B3039093B103B5
:100360008093B00381E08093A503B201550C880B04
:10037000990B0E94C81B6093E1037093E203809382
:10038000E3039093E4038091DE03813081F01092C7
:10039000050410920604109207041092080480913C
:1003A000EB039091EC039093EA038093E90381E0DF
:1003B0008093DE030F900F900F900F90DF91CF91FD
:1003C000FF90EF90DF90CF90BF90AF909F908F9075
:1003D0007F906F905F904F9008954F925F926F92D1
:1003E0007F928F929F92AF92BF92CF92DF92EF92C5
:1003F000FF92CF93DF93CDB7DEB728970FB6F8946F
:10040000DEBF0FBECDBF4B015C012D833E834F830A
:10041000588760911D0470911E0490E080E00E9456
:10042000C61B20E030E04AE754E40E941E1B6B012B
:100430007C01409015045090160460901704709051
:100440001804A50194010E947D1CA30192010E9441
:100450001E1B0E94901B69837A838B839C8323ECF1
:1004600035EF48E450E46091190470911A048091CA
:100470001B0490911C040E947D1C20E030E044E3AA
:1004800053E40E941E1B4B015C012D813E814F8174
:100490005885C701B6010E947D1C9B01AC01C501B6
:1004A000B4010E947D1CA30192010E941E1B0E94A8
:1004B000901B6B0169817A816C197D09072E000CF4
:1004C000880B990B0E94C81B6093A8037093A90323
:1004D0008093AA039093AB038091A503813081F0B0
:1004E0001092CC031092CD031092CE031092CF0342
:1004F0008091B2039091B3039093B1038093B003C2
:1005000081E08093A50389819A81C80ED91EB60126
:10051000DD0C880B990B0E94C81B6093E10370935C
:10052000E2038093E3039093E4038091DE03813040
:1005300081F01092050410920604109207041092A4
:1005400008048091EB039091EC039093EA0380936D
:10055000E90381E08093DE0328960FB6F894DEBFAE
:100560000FBECDBFDF91CF91FF90EF90DF90CF9086
:10057000BF90AF909F908F907F906F905F904F90C3
:100580000895FC018091F802882311F13FB7F89497
:1005900082E08093E9002091F200822F90E018160B
:1005A000190614F481E090E0882339F0289844E695
:1005B0004093F7024091F1004083222339F02091CB
:1005C000F200211103C02BE62093E8003FBF0895FD
:1005D0008FEF9FEF08952FB7F89483E08093E900A1
:1005E0009091E800892F807295FF04C09091F200ED
:1005F00080E4891B2FBF08958091EF0281110DC007
:1006000082E08093EB0284E08093EC021092EE0291
:100610001092ED0281E08093EF028BEE92E008955C
:1006200081508F3008F047C0E82FF0E0E65EFC4FC5
:100630000C94A61A37033B0329032F0333035B03F0
:100640005B035B033E03440348034C0352035B0319
:100650005603809180008F77809380000895809169
:1006600080008F7DF9CF80918000877FF5CF84B5A2
:100670008F7784BD089584B58F7DFBCF80919000E6
:100680008F77809390000895809190008F7DF9CFAF
:1006900080919000877FF5CF8091C0008F77809305
:1006A000C00008958091C0008F7DF9CF8091C20075
:1006B000877F8093C2000895CF93DF93282F30E087
:1006C000F901E256FE4F8491F901E158FE4FD491B1
:1006D000F901E05AFE4FC491CC23A1F081110E9490
:1006E0001003EC2FF0E0EE0FFF1FEE5AFE4FA59126
:1006F000B491EC91ED2381E090E009F480E0DF918A
:10070000CF91089580E090E0FACF1F93CF93DF93CD
:10071000282F30E0F901E256FE4F8491F901E158AB
:10072000FE4FD491F901E05AFE4FC491CC23A9F0B9
:10073000162F81110E941003EC2FF0E0EE0FFF1F27
:10074000EC5BFE4FA591B4918FB7F894EC91111129
:1007500008C0D095DE23DC938FBFDF91CF911F912E
:100760000895DE2BF8CFCF93DF9390E0FC01E158A2
:10077000FE4F2491805A9E4FFC0184918823C9F03A
:1007800090E0880F991FFC01EA5CFE4FA591B4919F
:10079000FC01EC5BFE4FC591D49161110DC09FB778
:1007A000F8948C91209582238C9388812823288328
:1007B0009FBFDF91CF910895623051F49FB7F894B5
:1007C0003C91822F809583238C93E8812E2BEFCF51
:1007D0008FB7F894EC912E2B2C938FBFEACF8231F8
:1007E00008F08251E82FF0E0E65DFE4FE491909131
:1007F0007B008E2F880F880F80729F7D892B8093BE
:100800007B00E770E064E0937C0080917A00806474
:1008100080937A0080917A0086FDFCCF80917800E9
:100820009091790008953FB7F8948091E7029091F4
:10083000E802A091E902B091EA0226B5A89B05C0A2
:100840002F3F19F00196A11DB11D3FBFBA2FA92F4F
:10085000982F8827BC01CD01620F711D811D911D4C
:1008600042E0660F771F881F991F4A95D1F70895B8
:100870008F929F92AF92BF92CF92DF92EF92FF92B0
:100880004B015C010E9413046B017C010E94130464
:100890006C197D098E099F09683E73408105910599
:1008A000A8F321E0821A9108A108B10888EEC80EC9
:1008B00083E0D81EE11CF11C81149104A104B10451
:1008C00029F7FF90EF90DF90CF90BF90AF909F906F
:1008D0008F9008958091A503811104C08091DE035B
:1008E000882339F061E070E080E090E00E943804F5
:1008F000F1CF08958F929F92AF92BF92CF92DF92E5
:10090000EF92FF924B015C0169017A01E894F7F8DC
:1009100020E030E0A9010E94781C181624F0F7FAB4
:10092000F094F7F8F094A701960160E070E0CB0135
:100930000E94ED0123EC35EF48E450E46091190486
:1009400070911A0480911B0490911C040E947D1CDC
:1009500020E030E044E353E40E941E1BA501940113
:100960000E947D1C209115043091160440911704BB
:10097000509118040E941E1B0E94901BF894209115
:10098000B2033091B3037894261B370B3093AD0339
:100990002093AC0322E02093A503F8944091EB034D
:1009A0005091EC037894CA01860F971F9093E60349
:1009B0008093E5032093DE03FF90EF90DF90CF90CC
:1009C000BF90AF909F908F900C946A048F929F92EB
:1009D000AF92BF92CF92DF92EF92FF920F934B01B3
:1009E0005C0169017A01E894F7F820E030E0A901A0
:1009F0000E94781C181624F0F7FAF094F7F8F09497
:100A000020E030E0A901C701B6010E94ED0120916C
:100A10001504309116044091170450911804C50133
:100A2000B4010E941E1B0E94901BF8942091B203F7
:100A30003091B3037894260F371F3093AD03209382
:100A4000AC0322E02093A503F8944091EB0350916E
:100A5000EC037894CA01860F971F9093E603809366
:100A6000E5032093DE03002359F00F91FF90EF90F0
:100A7000DF90CF90BF90AF909F908F900C946A04BE
:100A80000F91FF90EF90DF90CF90BF90AF909F902D
:100A90008F9008952FB7F8946091E3027091E4026B
:100AA0008091E5029091E6022FBF08950F931F9366
:100AB0008091700381FF2EC0F89480917F03909104
:100AC0008003A0918103B091820340917B035091F8
:100AD0007C0360917D0370917E03841B950B2091B4
:100AE00070032D7F209370037894009799F0BC01D8
:100AF00090E080E00E94C61B20E030E048E652E42F
:100B00000E941E1B6093830370938403809385036C
:100B100090938603809171030E945C03892B51F0AE
:100B20000E944A0560937303709374038093750366
:100B3000909376030E944A05009173031091740309
:100B40002091750330917603601B710B820B930B20
:100B500000917703109178032091790330917A0303
:100B6000601771078207930760F1F89410927B0376
:100B700010927C0310927D0310927E0310927F03EB
:100B800010928003109281031092820310927003DE
:100B900078940E944A056093730370937403809362
:100BA00075039093760361E0809172030E94850340
:100BB00083E790E00197F1F760E0809172030E9473
:100BC0008503809170036091830370918403809109
:100BD0008503909186031F910F9108950895409188
:100BE000CE025091CF022091CC023091CD0242171B
:100BF0005307B4F49091E8009570E1F39091E80008
:100C000092FD19C08093F1008091CE029091CF02A5
:100C100001968F739927892B19F48EEF8093E80042
:100C20008091CE029091CF0201969093CF02809353
:100C3000CE0281E0089580E00895EF92FF920F9335
:100C40001F93CF93DF93F82E192FE62E042F81E008
:100C5000860F880F0E94EF0583E00E94EF05CF2DDD
:100C6000D12FEC0EFD2EF11CCE15DF05B9F007FFDC
:100C700013C0FE0184910E94EF05182F80E00E94AE
:100C8000EF05812321968111EFCFDF91CF911F9145
:100C90000F91FF90EF9008958881EDCF81E0F5CF1F
:100CA000DF92EF92FF920F931F93CF93DF93D82E93
:100CB0008A01EB017B01E40EF51ECE15DF0559F02C
:100CC000D7FE12C0FE0184910E94EF05219681118A
:100CD000F4CF0FEF1FEFC801DF91CF911F910F915C
:100CE000FF90EF90DF9008958881EECF0F931F93D0
:100CF000CF93DF931F92CDB7DEB782E0898342E4C2
:100D000050E06CEA70E080E80E9450060E94FC020D
:100D1000DC0112960D911C910115110589F0D80185
:100D2000ED91FC910280F381E02DBE016F5F7F4F5A
:100D3000C801099597FD04C0F80100851185ECCF25
:100D400089810F90DF91CF911F910F91089561508C
:100D500030F02091F100FC0120830196F8CF289813
:100D600084E68093F70208958F929F92AF92BF928C
:100D7000CF92DF92EF92FF920F931F93CF93DF9367
:100D80006C017B018A0180910B01882309F45CC00E
:100D90008091F802882309F457C08091D20280FF25
:100DA00005C08091E00082608093E000E801B12CF2
:100DB0008AEFA82E93E0892E2AE3922E209711F431
:100DC000BB20D9F10E94EB0281110AC0AA94AA208B
:100DD000D9F161E070E080E090E00E943804EECF4D
:100DE0008C171D0611F00CF08C2F9FB7F894809291
:100DF000E9002091E80025FD02C09FBFDFCF282F2A
:100E000030E0C21BD30BF701815020F04191409399
:100E1000F100FACFE20EF31EBB2021F09092E80021
:100E2000B12CEBCF8091E80085FDE7CF9092E800F0
:100E3000BB24B394209709F3F3CF5D9884E68093A5
:100E4000D102101611063CF081E090E0F601938388
:100E5000828310E000E0C801DF91CF911F910F91D4
:100E6000FF90EF90DF90CF90BF90AF909F908F90CA
:100E70000895CF93DF931F92CDB7DEB76983DC016E
:100E8000ED91FC910280F381E02D41E050E0BE0144
:100E90006F5F7F4F09950F90DF91CF91089583E0A9
:100EA0008093E9008091F200882319F08AE380930F
:100EB000E80008950E94EB0290E00895CF93DF933D
:100EC0001F92CDB7DEB7FC018485958597FD08C0DC
:100ED0002FEF3FEF358724870F90DF91CF91089553
:100EE000CE0101960E94C102019719F4898190E018
:100EF000F3CF8FEF9FEFF0CF0F931F93CF93DF933D
:100F00001F92CDB7DEB78C01FC018485958597FFD4
:100F10000BC0CE0101960E94C102019771F4898134
:100F200090E0F80195878487F801848595850F9076
:100F3000DF91CF911F910F9108958FEF9FEFF1CF28
:100F4000FC018485958597FD0BC09FB7F89482E0DE
:100F50008093E9008091F2009FBF90E00196089590
:100F60009FB7F89482E08093E9008091F2009FBFE0
:100F700090E008950F931F93CF93DF93EC018B01C3
:100F80008F81811107C0E881F9810190F081E02D06
:100F9000CE0109958A819B810817190730F08C8151
:100FA0009D810817190708F4C801880F991F019738
:100FB0009093990080939800DF91CF911F910F91AA
:100FC0000895DC01F894E0E9F0E090819F77908348
:100FD000789417961C920895CF93DF93EC0161E00B
:100FE00085E00E94B303F89482E8809390008AE140
:100FF000809391008FE39CE99093970080939600F3
:1010000088EB9BE09093990080939800789481E01E
:101010008F83DF91CF910895F89441E04093680069
:10102000ABE6B0E09C91E82FF0E021E030E001C0B9
:10103000220F8A95EAF7892F822B8C93EE0FFF1FE0
:10104000E454FD4F718360834BBB90914D03822F1D
:101050008095892380934D0383B190914D03822322
:10106000892B80934D03789408954F925F926F92ED
:101070007F928F929F92AF92BF92CF92DF92EF9228
:10108000FF92CF93DF93EC016B817C81072E000CE4
:10109000880B990B0E94C81B9B01AC016D817E815E
:1010A0008F8198850E94AC1A6B017C01C9A2DAA2DB
:1010B000EBA2FCA229A53AA54BA55CA50E94AD1AFE
:1010C0004B015C0189A69AA6ABA6BCA64DA45EA462
:1010D0006FA478A820E030E0A901C301B2010E940A
:1010E000781C18169CF4A50194015F77C301B20126
:1010F0000E94191B87FF0AC0A7019601C501B40110
:101100000E94AC1A69A77AA78BA79CA72DA13EA124
:101110004FA158A5C701B6010E94AC1A4B015C0152
:10112000CDA2DEA2EFA2F8A629A53AA54BA55CA503
:10113000698D7A8D8B8D9C8D0E947D1C2B013C01CD
:101140002D893E894F89588DC701B6010E947D1CAB
:101150009B01AC01C301B2010E94AD1A6B017C017D
:101160002D8D3E8D4F8D58A1C501B4010E947D1C6F
:101170009B01AC01C701B6010E94AD1A6DAB7EABFD
:101180008FAB98AF0E94901BE881F9810190F081AC
:10119000E02DCE01DF91CF91FF90EF90DF90CF90C7
:1011A000BF90AF909F908F907F906F905F904F9087
:1011B000099420E077FF04C071956195710921E0E1
:1011C000FC0183859485681779070CF4CB01909313
:1011D000890080938800222319F0299A219A089582
:1011E0002998FCCF20E077FF04C0719561957109C3
:1011F00021E0FC0183859485681779070CF4CB0105
:1012000090938B0080938A00222319F02A9A229AC5
:1012100008952A98FCCFCF93DF93C3EAD3E01A82D4
:1012200070E060E0CE010E94F2081BAE70E060E06A
:101230008CED93E0DF91CF910C94D908CF93DF939D
:10124000EC0189899A8950E070E02B893C89AF854F
:10125000B8898427952726273727821B930B8A0F67
:101260009B1F988B8F877A8B698B5C8B4B8B8A81CA
:10127000823089F42F85388989859A85281739071E
:1012800051F4E881F9810190F081E02D70E060E097
:10129000CE0109951A82DF91CF9108956CB1262F66
:1012A00030E0359527953595279583B1422F4170CC
:1012B000682F70E094E0759567959A95E1F762273D
:1012C000617083EA93E00C941E094FB141706CB1D8
:1012D00066FB662760F964278CED93E00C941E0989
:1012E000FC01F89487859089108A178616861586E2
:1012F00078940895809171030E945C03892B59F0C2
:101300000E94130460937B0370937C0380937D039E
:1013100090937E0308950E94130460937F0370935B
:101320008003809381039093820380917003826095
:10133000809370030895CF93DF93EC01888581112A
:101340000EC0898591E098879A8562E0911101C06D
:1013500060E00E94B3038FE090E00197F1F7898588
:101360000E945C033B8521E03817190609F420E050
:10137000822FDF91CF910895CF92DF92EF92FF926B
:101380000F931F930E9413046B017C0180915803FB
:101390000E945C03892B79F4C0926403D0926503A8
:1013A000E0926603F09267031F910F91FF90EF9018
:1013B000DF90CF900895C0926803D0926903E092C5
:1013C0006A03F0926B034091680350916903609146
:1013D0006A0370916B038091640390916503A091FF
:1013E0006603B0916703481B590B6A0B7B0B809116
:1013F000680390916903A0916A03B0916B03C09058
:101400006C03D0906D03E0906E03F0906F03009139
:1014100068031091690320916A0330916B03009374
:101420006C0310936D0320936E0330936F038A0156
:101430009B010553114221093109073E1340210543
:10144000310548F41092630381E090E090935A03D1
:1014500080935903A9CF445F514061097109493C08
:1014600051056105710590F085E090E090935A0375
:10147000809359038FEF9FEFDC0180935F0390937C
:101480006003A0936103B09362038ECF8C199D0912
:10149000AE09BF092091590330915A03213031051B
:1014A00009F056C0AC01BD01415C524161097109AE
:1014B000433F51406105710558F410925F0310924B
:1014C0006003109261031092620383E090E0BECF4C
:1014D0008D589A40A109B10987359240A105B105FF
:1014E00008F062CF82E090E090935A038093590312
:1014F00040915F03509160036091610370916203BA
:1015000080915F0390916003A0916103B0916203A9
:10151000892F9A2FAB2FBB2784279527A627B7277C
:1015200088279927BB270097AF4FB10531F085E099
:1015300090E090935A03809359030E944A05609368
:101540005B0370935C0380935D0390935E032CCFE9
:101550002330310509F028CFAC01BD014558534077
:10156000610971094F3851406105710560F580913D
:1015700063038F5F8093630380916303803209F07C
:1015800013CF40915F0350916003609161037091AC
:10159000620380915F0390916003A0916103B09119
:1015A0006203892F9A2FAB2FBB2784279527A62765
:1015B000B72788279927BB270097AF4FB105A9F117
:1015C00085E090E043CF815D9740A109B109833F59
:1015D0009140A105B10510F52091630340915F038F
:1015E00050916003609161037091620381E090E02B
:1015F000A0E0B0E004C0880F991FAA1FBB1F2A9566
:10160000D2F7840F951FA61FB71F80935F03909397
:101610006003A0936103B0936203A9CF85E090E0DB
:1016200090935A0380935903A7CF84E090E081CF31
:1016300086E10C94EF0385E10C94EF038F929F9267
:10164000AF92BF92CF92DF92EF92FF92CF93DF9350
:101650000E94180BEC010E941B0BBE01681B790B4A
:10166000072E000C880B990B0E94C81B2AE037ED4F
:1016700043E25CE30E947D1C6B017C01AC019B0199
:1016800060E070E080E791E40E94AC1A4B015C01DD
:1016900020E030E040E751E4C701B6010E94AD1AF6
:1016A000A5019401DF91CF91FF90EF90DF90CF9053
:1016B000BF90AF909F908F900C944701CF93DF9392
:1016C00080E00E945C03EC0181E00E945C03409199
:1016D000F9025091FA026091FB027091FC02C81766
:1016E000D90779F44F5F5F4F6F4F7F4F4093F902F7
:1016F0005093FA026093FB027093FC02DF91CF914A
:1017000008954150510961097109F0CFCF93DF93DA
:1017100080E00E945C03EC0181E00E945C03409148
:10172000F9025091FA026091FB027091FC02C81715
:10173000D90779F441505109610971094093F902BF
:101740005093FA026093FB027093FC02DF91CF91F9
:1017500008954F5F5F4F6F4F7F4FF0CFCF93DF9371
:10176000EC0180915603D7FF18C061E00E94850309
:1017700060E0809154030E948503D195C195D10901
:10178000C13981E0D80714F0C0E9D1E0D0938D00D1
:10179000C0938C00DF91CF91089560E00E94850393
:1017A00061E0809154030E948503EACF8F929F925B
:1017B000AF92BF92CF92DF92EF92FF926B017C01CA
:1017C000F8948090F9029090FA02A090FB02B090F9
:1017D000FC027894D501C4018C199D09AE09BF099A
:1017E000B7FF07C0B095A095909581959F4FAF4FDB
:1017F000BF4F40914E0350914F0360915003709141
:101800005103481759076A077B070CF04AC0C70104
:10181000B601681979098A099B09660F771F77FF56
:1018200028C0072E000C880B990B0E94C81B23ECC4
:1018300035EF48EE5EE30E947D1C20E030E04AE593
:1018400053E40E94AC1A0E94901BCB010E94AE0B85
:10185000F8948090F9029090FA02A090FB02B09068
:10186000FC0278946AE070E080E090E00E94380426
:10187000B1CF90E080E06115710541F3072E000CB7
:10188000880B990B0E94C81B2BED39EF4EEB5EE3E2
:101890000E947D1C20E030E04BE753E40E94AD1A2B
:1018A000D2CF90E080E0FF90EF90DF90CF90BF909C
:1018B000AF909F908F900C94AE0BFC010190002094
:1018C000E9F73197AF01481B590BBC018DEF92E04E
:1018D0000C94B406CF93DF930E945D0CEC0189E673
:1018E00091E00E945D0C8C0F9D1FDF91CF910895B8
:1018F0000E94EA1CCF93DF93A2EEB0E09C911C9271
:10190000E9EEF0E020811082C0EFD0E0388118824B
:1019100040E028994160209942602098289A80E10F
:101920008A95F1F783B141FB0EF0209840FB0EF051
:1019300028980EF4289A41FB0EF4209A10823883DE
:1019400020839C9380958170DF91CF910895CF93F0
:10195000DF93A2EEB0E09C911C92E9EEF0E02081D2
:101960001082C0EFD0E03881188240E05D9941607C
:101970005599426055985D9A80E18A95F1F789B151
:1019800041FB0EF0559840FB0EF05D980EF45D9A09
:1019900041FB0EF4559A1082388320839C9390E08B
:1019A00025E0959587952A95E1F78095909581702A
:1019B000DF91CF9108951F920F920FB60F921124CD
:1019C0002F933F938F939F93AF93BF938091E302A5
:1019D0009091E402A091E502B091E6023091E2021A
:1019E00023E0230F2D3758F50196A11DB11D20933B
:1019F000E2028093E3029093E402A093E502B093A5
:101A0000E6028091E7029091E802A091E902B0918C
:101A1000EA020196A11DB11D8093E7029093E802AE
:101A2000A093E902B093EA02BF91AF919F918F9189
:101A30003F912F910F900FBE0F901F90189526E8A1
:101A4000230F0296A11DB11DD2CF1F920F920FB688
:101A50000F9211242F933F934F935F936F937F9334
:101A60008F939F93AF93BF93EF93FF93E0911C01EC
:101A7000F0911D010995FF91EF91BF91AF919F9159
:101A80008F917F916F915F914F913F912F910F9027
:101A90000FBE0F901F9018951F920F920FB60F92C6
:101AA00011242F933F934F935F936F937F938F9363
:101AB0009F93AF93BF93EF93FF93E0911A01F0913F
:101AC0001B010995FF91EF91BF91AF919F918F916C
:101AD0007F916F915F914F913F912F910F900FBE2A
:101AE0000F901F9018951F920F920FB60F9211240E
:101AF0002F933F934F935F936F937F938F939F9316
:101B0000AF93BF93EF93FF93E0911801F091190108
:101B10000995FF91EF91BF91AF919F918F917F9127
:101B20006F915F914F913F912F910F900FBE0F904A
:101B30001F9018951F920F920FB60F9211242F939A
:101B40003F934F935F936F937F938F939F93AF9345
:101B5000BF93EF93FF93E0911601F0911701099560
:101B6000FF91EF91BF91AF919F918F917F916F9175
:101B70005F914F913F912F910F900FBE0F901F904B
:101B800018951F920F920FB60F9211242F933F9327
:101B90004F935F936F937F938F939F93AF93BF9375
:101BA000EF93FF93E0911401F09115010995FF91D6
:101BB000EF91BF91AF919F918F917F916F915F91C5
:101BC0004F913F912F910F900FBE0F901F9018953E
:101BD0001F920F920FB60F9211248F939F938091B3
:101BE000E1009091E100937F9093E10083FF0FC0AB
:101BF0001092E90091E09093EB001092EC0092E3D8
:101C00009093ED001092F80298E09093F00082FF1C
:101C100022C093E09093E9009091F200992319F08B
:101C20009AE39093E8009091D102992341F090912A
:101C3000D10291509093D102911101C05D9A90917F
:101C4000F702992341F09091F70291509093F70297
:101C5000911101C0289A84FF18C08091E2008E7E05
:101C600081608093E2008091E1008F7E8093E100AB
:101C70008091D2028E7E80618093D2029F918F915B
:101C80000F900FBE0F901F90189580FFF7CF809197
:101C9000E2008E7E80618093E2008091E1008E7E82
:101CA0008093E1008091D2028E7E8160E5CF1F9209
:101CB0000F920FB60F921124CF92DF92EF92FF9204
:101CC0000F931F932F933F934F935F936F937F9344
:101CD0008F939F93AF93BF93EF93FF93CF93DF9334
:101CE000CDB7DEB76C97DEBFCDBF1092E900809113
:101CF000E80083FF25C068E0CE0145960E94A70654
:101D000082EF8093E8008D8987FF39C09091E800C9
:101D100090FFFCCF982F907609F034C19E894F89AF
:101D2000588D2F89F88C911131C0803861F58091E0
:101D3000D3028093F1001092F1008EEF8093E800BF
:101D40006C960FB6F894DEBF0FBECDBFDF91CF917A
:101D5000FF91EF91BF91AF919F918F917F916F9183
:101D60005F914F913F912F911F910F91FF90EF90B5
:101D7000DF90CF900F900FBE0F901F9018959EEFA1
:101D80009093E800C7CF1092F100D5CF913059F46D
:101D90008111D3CF4130510581F68091D3028D7FDF
:101DA0008093D302CACF933049F48111C6CF41301A
:101DB000510519F68091D3028260F2CF953041F43B
:101DC0008091E80080FFFCCF20682093E300B5CF2E
:101DD000963009F0A9C00B8D1C8D22E01092E9000D
:101DE0001092CF021092CE02F2122EC01092CD02AB
:101DF0001092CC020E9476061F8299E09983FA82A3
:101E000091E09E8390EA98879AEF99872091CE027D
:101E10003091CF02275F3F4F3C832B838D831092FD
:101E2000E9001092CF021092CE021093CD020093DF
:101E3000CC0249E050E0BE016F5F7F4F80E00E941E
:101E400050060E94760679CF1093CD020093CC0203
:101E50000E94FC02DC0112960D911C9101151105E6
:101E600009F451C1D801ED91FC910480F581E02D78
:101E7000BE016B5E7F4FC8010995009709F03EC116
:101E8000F80100851185EACFF3E0FF120EC08F89BB
:101E9000882309F440C0823061F440E862E187E1C0
:101EA00091E00E941D06811148CF81E28093EB00F2
:101EB00047CF813029F440E862E184E091E0F1CF3E
:101EC000833099F70E94FC02DC011296ED90FC90A1
:101ED0008E010F5F1F4F6801E114F10479F0D70103
:101EE000ED91FC910680F781E02DB801C7010995BD
:101EF000080F111DF701E084F184EECFD8011C9288
:101F0000F60101900020E9F73197BF016C197D09B6
:101F100040E0C601C6CF6EEE70E0FB01449150E098
:101F200080E80E94500609CF973009F4BECF983060
:101F300021F481E08093F10000CF993009F0FDCECB
:101F4000837009F0B2CFE9E2F1E081E031E096E39D
:101F50002191222371F08093E9003093EB00DF019F
:101F600011972C912093EC009093ED008F5F8730B8
:101F700079F78EE78093EA001092EA008F898093C8
:101F8000F802DBCE8B8D9C8D1092E9001092CF026F
:101F90001092CE029093CD028093CC02898D811154
:101FA00092C08E899D89913A49F4813209F07DCFA2
:101FB00047E050E064E071E080E0B3CF913209F097
:101FC00074CF833269F48F89988DB0E0A0E080935C
:101FD000000190930101A0930201B0930301ADCEE3
:101FE000803269F48091E80082FFFCCF67E084E0F2
:101FF00091E00E94A7068BEF8093E8009ECE82328C
:1020000009F09BCE8F8980930B01EEEFFFE785915E
:1020100094918B3F9C4D51F1E0E0F8E080910401F8
:1020200090910501A0910601B0910701803B944079
:10203000A105B105F1F480910B0180FD1AC0EE3FBE
:102040008AE0F80789F587E797E791838083809195
:1020500060008093D00288E19BE00FB6F894A895C9
:10206000809360000FBE9093600067CEEEEFFAE0C1
:10207000D5CF808191818737974709F05ECEA895AB
:10208000809160008861809360008091D00280938D
:102090006000EE3F2AE0F20789F08091FE0A9091FD
:1020A000FF0A9183808349CE808191818737980789
:1020B00051F29093FF0A8093FE0AC5CF1092FF0A57
:1020C0001092FE0A3ACE0E94FC02DC0112960D919B
:1020D0001C910115110509F4E8CED801ED91FC9190
:1020E0000190F081E02DBE016B5E7F4FC801099524
:1020F000811123CEF80100851185EBCF1816190642
:102100000CF41BCED2CEF1E0FF12BECE62EF70E037
:1021100004CF1F920F920FB60F9211242F933F936B
:102120004F935F936F937F938F939F93AF93BF93DF
:10213000EF93FF93CF93DF9300D01F92CDB7DEB71D
:1021400083B18983898190914D0389278A83809106
:102150006B009A8189238B838B8180FF05C0E0917E
:10216000BC02F091BD0209958B8181FF05C0E09111
:10217000BE02F091BF0209958B8182FF05C0E091FC
:10218000C002F091C10209958B8183FF05C0E091E7
:10219000C202F091C30209958B8184FF05C0E091D2
:1021A000C402F091C50209958B8185FF05C0E091BD
:1021B000C602F091C70209958B8186FF05C0E091A8
:1021C000C802F091C90209958B8187FF05C0E09193
:1021D000CA02F091CB020995898180934D030F903B
:1021E0000F900F90DF91CF91FF91EF91BF91AF9141
:1021F0009F918F917F916F915F914F913F912F911F
:102200000F900FBE0F901F9018951F920F920FB650
:102210000F9211242F933F934F935F936F937F936C
:102220008F939F93AF93BF93EF93FF938091B203EC
:102230009091B3032091B0033091B103AC01421BE4
:10224000530B5093A7034093A6039093B10380933D
:10225000B0038091EB039091EC032091E90330915E
:10226000EA03AC01421B530B5093E0034093DF039E
:102270009093EA038093E9038091A503813021F0D4
:102280008091A503823021F483EA93E00E9435080F
:102290008091DE03813021F08091DE03823021F4D1
:1022A0008CED93E00E943508FF91EF91BF91AF91C3
:1022B0009F918F917F916F915F914F913F912F915E
:1022C0000F900FBE0F901F901895CF93DF93EDEFF7
:1022D000F2E01382128288EE93E0A0E0B0E0848303
:1022E0009583A683B7838DE391E0918380838FEFFD
:1022F0009FEF9587848783B180934D03E3EAF3E0F2
:102300001282148213821582168217821086128618
:1023100011862CE231E03487238716861586108AD1
:102320001786128A118A148A138A40E050E060EA04
:1023300070E4458B568B678B708F80E090E0A0E057
:10234000BFE3818F928FA38FB48F158E168E178E59
:1023500010A211A212A213A214A215A216A217A2D1
:1023600010A611A612A613A614A615A616A617A6A1
:1023700010AA11AA12AA13AA14AA15AA16AA17AA71
:1023800010AEC7E6D1E0D183C08313AE15AE14AE54
:102390001092E1031092E2031092E3031092E4031F
:1023A0001092E6031092E5033093E8032093E703CD
:1023B0001092EA031092E9031092EC031092EB03DF
:1023C0001092EE031092ED031092F0031092EF03BF
:1023D0004093F1035093F2036093F3037093F4037B
:1023E0008093F5039093F603A093F703B093F8035B
:1023F0001092F9031092FA031092FB031092FC035F
:102400001092FD031092FE031092FF03109200043D
:10241000109201041092020410920304109204041A
:1024200010920504109206041092070410920804FA
:102430001092090410920A0410920B0410920C04DA
:1024400010920D0410920E0410920F0410921004BA
:10245000109211041092120410921304109214049A
:1024600081E691E092AF81AF8EED95E3AAE7BCE300
:102470008093150490931604A0931704B093180446
:1024800083E393E3ABEEB0E48093190490931A04D2
:10249000A0931B04B0931C0480E190E090931E0471
:1024A00080931D04EBE9F3E0128215828BE591E045
:1024B00091838083E3E9F3E01282158285E591E060
:1024C00091838083E7E8F3E01282158210868EE024
:1024D000818791E0928793872FE431E031832083D5
:1024E000E0E7F3E0108213821482158216824AE03C
:1024F00050E060E070E04783508761877287138601
:102500001486158616861786108A118A128A40E06C
:1025100050E066EC72E4438B548B658B768B91E1D3
:1025200091839CE09283E8E5F3E08083128211823C
:1025300013821482158216821782108611861286E3
:1025400013861486158616861786108A118A128AB3
:10255000138A148A158A168A178AEEE4F3E083E058
:1025600090E0A0E0B0E080839183A283B3838BE00E
:1025700090E09583848384E090E0978386838DE068
:1025800090E091878087DF91CF910895789484B50A
:10259000826084BD84B5816084BD85B5826085BD5F
:1025A00085B5816085BD80916E00816080936E00ED
:1025B00010928100809181008260809381008091DF
:1025C0008100816080938100809180008160809390
:1025D00080008091910082608093910080919100B1
:1025E0008160809391008091900081608093900041
:1025F0008091C10084608093C1008091C10082609D
:102600008093C1008091C10081608093C10080915E
:10261000C30081608093C3008091C000826080937A
:10262000C0008091C20081608093C20080917A00D6
:10263000846080937A0080917A00826080937A002F
:1026400080917A00816080937A0080917A0080681E
:1026500080937A001092F8021092D3021092D20264
:102660008091D70081608093D70080EA8093D80062
:1026700089B5806189BD89B5826089BD09B400FED4
:10268000FDCF61E070E080E090E00E94380480912E
:10269000D8008F7C80618093D8008091E000807F9B
:1026A0008093E0008091E1008E7E8093E1008DE0D8
:1026B0008093E200559A209A8DE691E00E946A0C80
:1026C0002E98269A2D98259A2A98229A2998219A06
:1026D0002F98279AF8948AEA8093800089E1809362
:1026E000810084EA91E090938700809386001092A5
:1026F00089001092880010928B0010928A0010922C
:102700008D0010928C0078948CE691E00E946A0C07
:102710008BE791E00E946A0C24982C9A6A98729A2E
:102720006E98769A8098889A6EE479E084E00E94A8
:102730000C0865E679E084E00E940A016CB1262F5E
:1027400030E0359527953595279583B1422F417017
:10275000682F70E034E0759567953A95E1F7622748
:10276000617083EA93E00E941E0983EA93E00E946D
:1027700070096CB1262F30E0359527953595279552
:1027800083B1422F4170682F70E054E075956795D2
:102790005A95E1F7622761708CED93E00E941E0963
:1027A0008CED93E00E9470098AE791E00E946A0C28
:1027B000F8941092C0008BE08093C1001092C20088
:1027C0001092C30089EF8093D10084E0809372005F
:1027D000789460E0809158030E94B303809158037D
:1027E000843018F0873009F05DC18AE891E00E94DA
:1027F0006A0C80915803882309F44CC1813009F494
:102800004BC1823009F44AC1833009F449C1873091
:1028100029F484E06CEB79E00E940A0160E0809189
:1028200071030E94B30380917103843018F08730E4
:1028300009F053C189EA91E00E946A0C809171030A
:10284000882309F442C1813009F441C1823009F47E
:1028500040C1833009F43FC1873029F484E06AE73E
:1028600079E00E940A0161E0809172030E94B30343
:1028700061E0809152030E94B30361E080915403B0
:102880000E94B30361E0809156030E94B30360E0AD
:1028900080E00E94B30360E081E00E94B30388EA15
:1028A0008093800081E18093810080E991E09093A2
:1028B00087008093860010928D0010928C0066E84D
:1028C0007BE082E00E940A016EE57BE083E00E94EB
:1028D0000A01F8941092F9021092FA021092FB0287
:1028E0001092FC027894F8941092F9021092FA0275
:1028F0001092FB021092FC02789488EE93E0909381
:102900000F0180930E0180ED97E090931101809369
:10291000100160E08EE00E94B3038FEF9FEF909371
:102920000A03809309031092DD021092DC0283E90E
:1029300093E00E94A70C8823D1F36AE070E080E066
:1029400090E00E94380483E993E00E94A70C88235A
:1029500071F383E993E00E94A70C8111FACF6AE03A
:1029600070E080E090E00E94380483E993E00E94E8
:10297000A70C8111EECF0E941B0B0E94180B0E9426
:10298000560520E030E040E252E460E070E080EF85
:1029900091E40E947A046CE271E080E090E00E9491
:1029A00038040E94180B8A3F91057CF420E030E047
:1029B00040E751E460E070E080E791EC0E9447015D
:1029C0000E94180B8A3F910564F30E940B0968EE80
:1029D00073E080E090E00E943804C6E0D0E022245A
:1029E0002394312C8091590390915A030497A1F5B7
:1029F00010925A031092590380915F0390916003E3
:102A0000A0916103B09162038A2F90E0813091051B
:102A100009F076C08091DC029091DD029093DF0294
:102A20008093DE022091E0023091E1023093D502E2
:102A30002093D402D093DD02C093DC02D093E10254
:102A4000C093E002069721F480EE91E00E945D0CB5
:102A500087E092E00E946A0CE091E002F091E102CE
:102A6000E231F10508F064C1E85CFA4E0C94A61A54
:102A7000A8153E1632179917D0156817C717D01723
:102A8000B116D916FE16FD179E18C5187419D61959
:102A90001D1A451A82E0BECE83E0BCCE81E0BACEDC
:102AA00080E0B8CE88E991E00E946A0CE09158037A
:102AB000E8508FEFEA3020F4F0E0E15DFE4F8081D6
:102AC0006CEB79E00E940C08A9CE82E0C8CE83E0CE
:102AD000C6CE81E0C4CE80E0C2CE83EC91E00E94FD
:102AE0006A0CE0917103E8508FEFEA3020F4F0E0D7
:102AF000E15DFE4F80816AE779E00E940C08B3CE69
:102B00008531910599F48091DE029091DF029093D6
:102B1000DD028093DC028091D4029091D5029093E3
:102B2000E1028093E00286E192E094CF8D3091053E
:102B300029F41092DD021092DC028ECF409709F04A
:102B40008BCF88E090E09093DD028093DC0284CF0D
:102B50000E941E0B0E94180B8B3F91050CF4E8C0DD
:102B60000E941B0B8B3F91050CF4E2C020E030E08B
:102B7000A901CA01B9010E94470184E090E0909345
:102B8000DF028093DE02D093DD02C093DC029093DB
:102B9000E1028093E0028EE192E00E946A0CC8C0DC
:102BA0008BE292E00E946A0C8091DB029091D80245
:102BB000992309F43EC081114BC085E590E09093C4
:102BC000D7028093D602D093DD02C093DC0288E066
:102BD00090E09093DF028093DE029093E102809375
:102BE000E00201E020E030E040E251E46CE57FE803
:102BF0008AEE90E40E94E6046091D6027091D702BA
:102C0000072E000C880B990B0E94C81B20E030E0B7
:102C100048EC52E40E947A0481E392E00E946A0C3C
:102C200083EA93E00E9470098CED93E00E947009A2
:102C30007FC0811120C08BEA9FEF9093D7028093D1
:102C4000D602D093DD02C093DC0289E090E0C1CFD0
:102C500085E590E09093D7028093D602D093DD0271
:102C6000C093DC023092DF022092DE023092E10259
:102C70002092E002B6CF8BEA9FEFECCF0E94180BB8
:102C80007C010E941B0BB701681B790B072E000CFF
:102C9000880B990B0E94C81B2AE037ED43E25CE3E6
:102CA0000E947D1C6B017C01AC019B0160E070E027
:102CB00080E291E40E94AC1A4B015C0120E030E01C
:102CC00040E251E4C701B6010E94AD1AA50194018A
:102CD0000E944701F8948091B2039091B3037894D5
:102CE00082379440E4F020E030E0A901CA01B90144
:102CF0000E9447018091DB02811122C0D093DD0246
:102D0000C093DC028BE090E09093DF028093DE02C0
:102D10009093E1028093E0028AE392E03ECFF89440
:102D20008091EB039091EC03789482379440DCF629
:102D300080E090E0892B09F455CE0E9400004FCE30
:102D4000D093DD02C093DC028EE090E09093DF022E
:102D50008093DE029093E1028093E00287E492E0A8
:102D60001CCF85E592E00E946A0C6CE173EF8FEF57
:102D70009FEF0E94D60BF8948091F9029091FA028D
:102D8000A091FB02B091FC0278948D30934FAF4F2D
:102D9000BF4F74F23092DF022092DE02D093DD0248
:102DA000C093DC023092E1022092E0028EE692E0D3
:102DB000F4CE64EC70EF8FEF9FEF0E94D60BF89487
:102DC0008091F9029091FA02A091FB02B091FC026D
:102DD0007894853B904FAF4FBF4F0CF4A9CF309202
:102DE000DF022092DE02D093DD02C093DC0230923B
:102DF000E1022092E0028CE792E0CFCE20E030E0CA
:102E000048EC51ECCA01B9010E94470167ED70E03E
:102E100080E090E00E94380420E030E048EC51E48B
:102E200060E070E08AE293E40E947A0401E020E02E
:102E300030E040E251E460E070E080EC90EC0E9411
:102E4000E60482E090E09093DF028093DE02D0936C
:102E5000DD02C093DC029093E1028093E0028AE8F5
:102E600092E09BCE0E941E0B0E94180B8B3F910597
:102E70000CF45ECF0E941B0B8B3F91050CF458CFD6
:102E800020E030E0A901CA01B9010E94470185E0B4
:102E900090E09093DF028093DE02D093DD02C09336
:102EA000DC029093E1028093E0028FE892E00E94BE
:102EB0006A0C83EA93E00E947009F8948091B2034F
:102EC0009091B30378949093DA028093D90230CF33
:102ED0008BE292E00E946A0C01E020E030E040E2E8
:102EE00051E46CE57FE88AEE90E40E94E60460918C
:102EF000D6027091D702719561957109072E000C69
:102F0000880B990B0E94C81B20E030E048EC52E48B
:102F10000E947A0483E090E09093DF028093DE02C7
:102F2000D093DD02C093DC029093E1028093E00233
:102F300077CE0E941E0BF8948091B2039091B30358
:102F400078948C3D96400CF4F3CEF8948091EB038A
:102F50009091EC0378948C3D96400CF4E9CE20E0FF
:102F600030E0A901CA01B9010E944701D093DD02F6
:102F7000C093DC0287E090E09093DF028093DE0252
:102F80009093E1028093E0028CE992E006CE0E94E9
:102F90000B0990E080E00E94AE0B89EA92E0FDCD43
:102FA00081EB92E00E946A0C60E070E0CB010E942D
:102FB000D60B64E670E080E090E00E943804F8945C
:102FC0008091F9029091FA02A091FB02B091FC026B
:102FD00078940F97A105B1050CF4AACE8CE090E08F
:102FE0009093DF028093DE02D093DD02C093DC0277
:102FF0009093E1028093E002D9CE68EE73E08CE01A
:1030000091E00E94BA0760E273E080E090E00E94E5
:1030100038048CE091E00E94E10701E020E030E01C
:1030200040E751E466E676E686EB90E40E94E6042B
:1030300060ED77E08CE091E00E94BA076CEB72E003
:1030400080E090E00E9438048CE091E00E94E1076B
:1030500064EF71E080E090E00E9438048091D80233
:10306000882309F447C06CEF7FEE8FEF9FEF0E943B
:10307000D60B64E670E080E090E00E94380420E027
:1030800030E040E051E463E373E383EF9FE30E94A9
:10309000E6046AE070E080E090E00E94380460E4BA
:1030A0007DEE8FEF9FEF0E94D60B64E670E080E02C
:1030B00090E00E94380420E030E040E051E460E01D
:1030C00070E080E490E40E94E6046AE070E080E052
:1030D00090E00E9438048AE090E09093DF028093B1
:1030E000DE02D093DD02C093DC029093E102809374
:1030F000E0021ECE64EA7DEE8FEF9FEF0E94D60BBA
:1031000064E670E080E090E00E94380401E020E096
:1031100030E040E051E463E373E383EF9FE30E9418
:10312000E6046AE070E080E090E00E94380468EE17
:103130007AEE8FEF9FEF0E94D60BCDCF68EE73E053
:103140008CE091E00E94BA076CEB72E080E090E0C6
:103150000E9438048CE091E00E94E1076AE070E090
:1031600080E090E00E94380401E020E030E040E29E
:1031700051E460E070E080EF91EC0E94E60481E0B1
:103180008093DB028DE090E0A8CF0E94180B7C01B9
:103190000E941B0BB701681B790B072E000C880BD4
:1031A000990B0E94C81B2AE037ED43E25CE30E94C2
:1031B0007D1C6B017C010E9456052B013C0120E027
:1031C00030E040E251E4C701B6010E94AD1A4B0164
:1031D0005C01A301920160E070E080EF91E40E9445
:1031E0001E1B9B01AC01C501B4010E94AC1A4B012E
:1031F0005C010E9456052B013C01A701960160E08D
:1032000070E080E291E40E94AC1A6B017C01A301A2
:10321000920160E070E080EF91E40E941E1B9B0130
:10322000AC01C701B6010E94AC1A9B01AC01C501FB
:10323000B4010E9447010E94560523E333E34BE4A7
:1032400051E40E94191B18160CF472CD20E030E0F6
:10325000A901CA01B9010E94470160ED77E08CE045
:1032600091E00E94BA076CEB72E080E090E00E946F
:1032700038048CE091E00E94E10764E170E080E0B6
:1032800090E00E9438048091D802882341F160E6E2
:1032900070EF8FEF9FEF0E94D60B01E020E030E04F
:1032A00040E451E460E070E080EA90EC0E94E604C3
:1032B00020E030E040EA51E460E070E08FE293E427
:1032C0000E947A041092DF021092DE02D093DD0297
:1032D000C093DC021092E1021092E00229CD68E076
:1032E0007EEE8FEF9FEFD7CF8091D8028823E1F158
:1032F00064E87AEE8FEF9FEF0E94D60B6AE070E0F1
:1033000080E090E00E94380401E020E030E040E2FC
:1033100051E466E676E686EF90E40E94E60464E611
:1033200070E080E090E00E94380468E77CEE8FEF68
:103330009FEF0E94D60B64EF71E080E090E00E9466
:10334000380468EE73E08CE091E00E94BA076CEB01
:1033500072E080E090E00E9438048CE091E00E94EE
:10336000E1078FE090E0B9CE64E17CEE8FEF9FEF54
:103370000E94D60B6AE070E080E090E00E94380482
:1033800001E020E030E040E251E466E676E686EFD8
:1033900090E40E94E60464E670E080E090E00E9421
:1033A000380468E07EEE8FEF9FEFC3CF20E030E07F
:1033B00048EC51ECCA01B9010E94470167ED70E089
:1033C00080E090E00E94380420E030E048EC51E4D6
:1033D00060E070E08AE293E40E947A0400E020E07A
:1033E00030E040E251E460E070E080EC90EC0E945C
:1033F000E6046CE271E080E090E00E94380460ED49
:1034000077E08CE091E00E94BA076CEB72E080E01C
:1034100090E00E9438048CE091E00E94E10764E1B2
:1034200070E080E090E00E94380460E070E0CB0142
:103430000E94D60B80E190E050CE0E941E0B0E94AD
:10344000180B8B3F91050CF473CC0E941B0B8B3F28
:1034500091050CF46DCC6091D6027091D7027195F4
:1034600061957109072E000C880B990B0E94C81BEF
:1034700020E030E040E751E40E947A0481E190E0EE
:103480009093DD028093DC0230CE0E941E0BF894F4
:103490008091B2039091B30378948E3693400CF4EC
:1034A00047CCF8948091EB039091EC0378948E369E
:1034B00093400CF43DCC6091D6027091D702719587
:1034C00061957109072E000C880B990B0E94C81B8F
:1034D0006B017C0120E030E040E751E40E947A0477
:1034E00020E030E048EC51E4CA01B9010E944701F4
:1034F0000E94180B8B3F91050CF41ACC0E941B0BF9
:103500008B3F91050CF414CC20E030E0A901CA01F6
:10351000B9010E94470164E670E080E090E00E94FB
:10352000380420E030E040E751E4C701B6010E94D2
:103530007A048091D802882329F01092D802109240
:10354000DB02C0CE81E08093D802F9CFEE0FFF1FDF
:103550000590F491E02D09945058BB27AA270E94AA
:10356000C41A0C943E1C0E94301C38F00E94371C78
:1035700020F039F49F3F19F426F40C942D1C0EF41E
:10358000E095E7FB0C94271CE92F0E944F1C58F391
:10359000BA17620773078407950720F079F4A6F538
:1035A0000C94711C0EF4E0950B2EBA2FA02D0B017C
:1035B000B90190010C01CA01A0011124FF27591B78
:1035C00099F0593F50F4503E68F11A16F040A22F7E
:1035D000232F342F4427585FF3CF469537952795EF
:1035E000A795F0405395C9F77EF41F16BA0B620BEE
:1035F000730B840BBAF09150A1F0FF0FBB1F661F35
:10360000771F881FC2F70EC0BA0F621F731F841F77
:1036100048F4879577956795B795F7959E3F08F09D
:10362000B0CF9395880F08F09927EE0F979587955F
:1036300008950E94031C08F481E008950E94321B43
:103640000C943E1C0E94371C58F00E94301C40F025
:1036500029F45F3F29F00C94271C51110C94721C23
:103660000C942D1C0E944F1C68F39923B1F3552331
:1036700091F3951B550BBB27AA2762177307840785
:1036800038F09F5F5F4F220F331F441FAA1FA9F31B
:1036900035D00E2E3AF0E0E832D091505040E69509
:1036A000001CCAF72BD0FE2F29D0660F771F881F6A
:1036B000BB1F261737074807AB07B0E809F0BB0B5D
:1036C000802DBF01FF2793585F4F3AF09E3F510571
:1036D00078F00C94271C0C94721C5F3FE4F3983E26
:1036E000D4F3869577956795B795F7959F5FC9F75A
:1036F000880F911D9695879597F90895E1E0660FDB
:10370000771F881FBB1F621773078407BA0720F053
:10371000621B730B840BBA0BEE1F88F7E0950895BC
:103720000E94971B6894B1110C94721C08950E941A
:10373000571C88F09F5798F0B92F9927B751B0F0D0
:10374000E1F0660F771F881F991F1AF0BA95C9F725
:1037500014C0B13091F00E94711CB1E008950C9436
:10376000711C672F782F8827B85F39F0B93FCCF3E9
:10377000869577956795B395D9F73EF490958095A2
:10378000709561957F4F8F4F9F4F0895E89409C0C2
:1037900097FB3EF490958095709561957F4F8F4F84
:1037A0009F4F9923A9F0F92F96E9BB279395F6959A
:1037B000879577956795B795F111F8CFFAF4BB0F18
:1037C00011F460FF1BC06F5F7F4F8F4F9F4F16C07C
:1037D000882311F096E911C0772321F09EE8872F06
:1037E000762F05C0662371F096E8862F70E060E0C2
:1037F0002AF09A95660F771F881FDAF7880F96953B
:10380000879597F90895990F0008550FAA0BE0E8DE
:10381000FEEF16161706E807F907C0F01216130692
:10382000E407F50798F0621B730B840B950B39F4D2
:103830000A2661F0232B242B252B21F408950A2638
:1038400009F4A140A6958FEF811D811D089597F978
:103850009F6780E870E060E008959FEF80EC089536
:1038600000240A941616170618060906089500245F
:103870000A9412161306140605060895092E0394D9
:10388000000C11F4882352F0BB0F40F4BF2B11F44D
:1038900060FF04C06F5F7F4F8F4F9F4F089557FDAC
:1038A0009058440F551F59F05F3F71F04795880FAE
:1038B00097FB991F61F09F3F79F087950895121645
:1038C00013061406551FF2CF4695F1DF08C01616F1
:1038D00017061806991FF1CF8695710561050894A2
:1038E0000895E894BB2766277727CB0197F90895B9
:1038F0000E94031C08F48FEF08950E94901C0C9402
:103900003E1C0E94301C38F00E94371C20F095238A
:1039100011F00C94271C0C942D1C11240C94721C77
:103920000E944F1C70F3959FC1F3950F50E0551FF7
:10393000629FF001729FBB27F00DB11D639FAA2704
:10394000F00DB11DAA1F649F6627B00DA11D661F53
:10395000829F2227B00DA11D621F739FB00DA11D74
:10396000621F839FA00D611D221F749F3327A00D2E
:10397000611D231F849F600D211D822F762F6A2FCA
:1039800011249F5750409AF0F1F088234AF0EE0F2F
:10399000FF1FBB1F661F771F881F91505040A9F75C
:1039A0009E3F510580F00C94271C0C94721C5F3FC5
:1039B000E4F3983ED4F3869577956795B795F79598
:1039C000E7959F5FC1F7FE2B880F911D9695879510
:1039D00097F9089581E090E0F8940C94EF1CF89426
:0239E000FFCF17
:1039E200FFFFFFFF00E10000000000002201E803EA
:1039F200D007FF00EE05EE05EE05EE05EE05000030
:103A02000000EC07E107BA0700C180810000000452
:103A1200050607FFFF03010200000000003907B49A
:103A2200065A074F07A0075E077C07000000009BAD
:103A32000900000000A70C000000007A0C00000042
:103A420000D90800000000F2080D0A002F696E6913
:103A5200744D6F746F72732829002F696E697445F3
:103A62006E636F64657273282900417474616368C0
:103A7200696E672049535200417474616368696ECC
:103A8200672050435F49535200417474616368690F
:103A92006E672072616E676566696E646572204941
:103AA200535200417474616368696E672072616E7B
:103AB200676566696E6465722050435F49535200C0
:103AC20073746F7070656420647572696E672068C4
:103AD200616C742E207265737461727420726571E8
:103AE20075697265642E00456D657267656E6379EE
:103AF2002053746F7000466F72776172640043687E
:103B020065636B706F696E74203100436865636B27
:103B120000646972656374656400436865636B7011
:103B22006F696E74203400626567696E206F666625
:103B32006C6F616400736973797068757320616E6C
:103B4200642074686520626F756C646572004368F6
:103B520065636B706F696E742033610043686563DF
:103B62006B706F696E74203362005370756E004320
:103B72006865636B706F696E7420350043686563B6
:103B82006B706F696E7420360053746F7070656469
:0C3B9200006465706F736974696E6700F1
:00000001FF
