:100000000C94E0000C94D10C0C94AA0C0C94830C6E
:100010000C945C0C0C9408010C9408010C94350CA5
:100020000C9408010C94990F0C94F80C0C94670D27
:100030000C9408010C9408010C9408010C9408011C
:100040000C9408010C9408010C9408010C9408010C
:100050000C9408010C9408010C9408010C94EB0B0F
:100060000C9408010C9408010C9408010C940801EC
:100070000C9408010C9408010C9408010C940801DC
:100080000C9408010C9408010C9408010C940801CC
:100090000C9408010C9408010C9408010C940801BC
:1000A0000C9408010C9415100C940801080B000224
:1000B0000202000009040000010202000005240001
:1000C0001001052401010104240206052406000193
:1000D0000705810310004009040100020A00000026
:1000E00007050202400000070583024000000403E8
:1000F000090412010002EF020140FB1F002300016E
:1001000001020301506F6C6F6C7520436F72706F4A
:10011000726174696F6E00506F6C6F6C7520412D49
:100120005374617220333255340007060504010010
:10013000080A0B0C0D0900000000240027002A000B
:100140002D00300000000000250028002B002E00AC
:100150003100000000002300260029002C002F00A1
:10016000040404040403040502020202040302025C
:10017000020206060606060604040202020404043D
:100180000802011040804010204080408008020496
:10019000018040201002011080102040402000000B
:1001A000000200090F0000030401000C0000000021
:1001B00000000000000000000000000000007510BA
:1001C00011241FBECFEFDAE0DEBFCDBF12E0A0E00A
:1001D000B1E0E4E6F3E302C005900D92AC34B10760
:1001E000D9F723E0ACE4B2E001C01D92A23CB20713
:1001F000E1F710E0C0EED0E004C02197FE010E94BC
:100200006717CF3DD107C9F70E94D5110C94B019DB
:100210000C940000E82FF0E0EE0FFF1FEC5EFE4FA5
:10022000718360838230D9F028F4882341F08130D3
:1002300071F008958330D9F0843009F108958091E8
:1002400069008C7F816080936900E89A08958091AD
:100250006900837F846080936900E99A08958091A2
:1002600069008F7C806180936900EA9A089580918B
:1002700069008F73806480936900EB9A0895809180
:100280006A008F7C806180936A00EE9A08954F9295
:100290005F926F927F928F929F92AF92BF92CF9216
:1002A000DF92EF92FF92CF93DF9300D000D0CDB7D3
:1002B000DEB769837A838B839C8329013A0160913D
:1002C000C0037091C10390E080E00E94871820E095
:1002D00030E04AE754E40E94DF174B015C01C09014
:1002E000B803D090B903E090BA03F090BB03A30128
:1002F00092010E943E19A70196010E94DF170E94F9
:1003000051182B0129813A814B815C81C501B401CF
:100310000E943E19A70196010E94DF170E94511802
:10032000072E000C880B990B0E94891860934B03D1
:1003300070934C0380934D0390934E038091480338
:10034000813081F010926F0310927003109271034C
:100350001092720380915503909156039093540329
:100360008093530381E080934803B201550C880BBE
:10037000990B0E948918609384037093850380937E
:1003800086039093870380918103813081F01092DE
:10039000A8031092A9031092AA031092AB038091B4
:1003A0008E0390918F0390938D0380938C0381E053
:1003B000809381030F900F900F900F90DF91CF915A
:1003C000FF90EF90DF90CF90BF90AF909F908F9075
:1003D0007F906F905F904F9008954F925F926F92D1
:1003E0007F928F929F92AF92BF92CF92DF92EF92C5
:1003F000FF92CF93DF93CDB7DEB728970FB6F8946F
:10040000DEBF0FBECDBF4B015C012D833E834F830A
:1004100058876091C0037091C10390E080E00E9412
:10042000871820E030E04AE754E40E94DF176B01B0
:100430007C014090B8035090B9036090BA0370906B
:10044000BB03A50194010E943E19A30192010E94E1
:10045000DF170E94511869837A838B839C8323EC76
:1004600035EF48E450E46091BC037091BD03809186
:10047000BE039091BF030E943E1920E030E044E3A8
:1004800053E40E94DF174B015C012D813E814F81B7
:100490005885C701B6010E943E199B01AC01C501F8
:1004A000B4010E943E19A30192010E94DF170E942D
:1004B00051186B0169817A816C197D09072E000C36
:1004C000880B990B0E94891860934B0370934C031F
:1004D00080934D0390934E0380914803813081F0C7
:1004E00010926F03109270031092710310927203B6
:1004F0008091550390915603909354038093530336
:1005000081E08093480389819A81C80ED91EB60183
:10051000DD0C880B990B0E948918609384037093FB
:1005200085038093860390938703809181038130B4
:1005300081F01092A8031092A9031092AA031092BE
:10054000AB0380918E0390918F0390938D038093E2
:100550008C0381E08093810328960FB6F894DEBF68
:100560000FBECDBFDF91CF91FF90EF90DF90CF9086
:10057000BF90AF909F908F907F906F905F904F90C3
:100580000895FC0180918102882311F13FB7F8940E
:1005900082E08093E9002091F200822F90E018160B
:1005A000190614F481E090E0882339F0289844E695
:1005B000409380024091F1004083222339F0209142
:1005C000F200211103C02BE62093E8003FBF0895FD
:1005D0008FEF9FEF08952FB7F89483E08093E900A1
:1005E0009091E800892F807295FF04C09091F200ED
:1005F00080E4891B2FBF08958091780281110DC07E
:1006000082E08093740284E08093750210927702F6
:100610001092760281E08093780284E792E0089558
:1006200081508F3008F047C0E82FF0E0E65EFC4FC5
:100630000C94671737033B0329032F0333035B0332
:100640005B035B033E03440348034C0352035B0319
:100650005603809180008F77809380000895809169
:1006600080008F7DF9CF80918000877FF5CF84B5A2
:100670008F7784BD089584B58F7DFBCF80919000E6
:100680008F77809390000895809190008F7DF9CFAF
:1006900080919000877FF5CF8091C0008F77809305
:1006A000C00008958091C0008F7DF9CF8091C20075
:1006B000877F8093C2000895CF93DF93282F30E087
:1006C000F901E256FE4F8491F901E158FE4FD491B1
:1006D000F901E05AFE4FC491CC23A1F081110E9490
:1006E0001003EC2FF0E0EE0FFF1FEE5AFE4FA59126
:1006F000B491EC91ED2381E090E009F480E0DF918A
:10070000CF91089580E090E0FACF1F93CF93DF93CD
:10071000282F30E0F901E256FE4F8491F901E158AB
:10072000FE4FD491F901E05AFE4FC491CC23A9F0B9
:10073000162F81110E941003EC2FF0E0EE0FFF1F27
:10074000EC5BFE4FA591B4918FB7F894EC91111129
:1007500008C0D095DE23DC938FBFDF91CF911F912E
:100760000895DE2BF8CFCF93DF9390E0FC01E158A2
:10077000FE4F2491805A9E4FFC0184918823C9F03A
:1007800090E0880F991FFC01EA5CFE4FA591B4919F
:10079000FC01EC5BFE4FC591D49161110DC09FB778
:1007A000F8948C91209582238C9388812823288328
:1007B0009FBFDF91CF910895623051F49FB7F894B5
:1007C0003C91822F809583238C93E8812E2BEFCF51
:1007D0008FB7F894EC912E2B2C938FBFEACF8231F8
:1007E00008F08251E82FF0E0E65DFE4FE491909131
:1007F0007B008E2F880F880F80729F7D892B8093BE
:100800007B00E770E064E0937C0080917A00806474
:1008100080937A0080917A0086FDFCCF80917800E9
:100820009091790008953FB7F8948091700290916B
:100830007102A0917202B091730226B5A89B05C007
:100840002F3F19F00196A11DB11D3FBFBA2FA92F4F
:10085000982F8827BC01CD01620F711D811D911D4C
:1008600042E0660F771F881F991F4A95D1F70895B8
:100870008F929F92AF92BF92CF92DF92EF92FF92B0
:100880004B015C010E9413046B017C010E94130464
:100890006C197D098E099F09683E73408105910599
:1008A000A8F321E0821A9108A108B10888EEC80EC9
:1008B00083E0D81EE11CF11C81149104A104B10451
:1008C00029F7FF90EF90DF90CF90BF90AF909F906F
:1008D0008F90089580914803811104C08091810315
:1008E000882339F061E070E080E090E00E943804F5
:1008F000F1CF0895089540915E0250915F022091DA
:100900005C0230915D0242175307B4F49091E80005
:100910009570E1F39091E80092FD19C08093F10089
:1009200080915E0290915F0201968F739927892BC7
:1009300019F48EEF8093E80080915E0290915F023F
:10094000019690935F0280935E0281E0089580E0BB
:100950000895EF92FF920F931F93CF93DF93F82E9A
:10096000192FE62E042F81E0860F880F0E947B044A
:1009700083E00E947B04CF2DD12FEC0EFD2EF11CC5
:10098000CE15DF05B9F007FF13C0FE0184910E9468
:100990007B04182F80E00E947B0481232196811123
:1009A000EFCFDF91CF911F910F91FF90EF900895BE
:1009B0008881EDCF81E0F5CFDF92EF92FF920F9328
:1009C0001F93CF93DF93D82E8A01EB017B01E40EB6
:1009D000F51ECE15DF0559F0D7FE12C0FE01849139
:1009E0000E947B0421968111F4CF0FEF1FEFC80105
:1009F000DF91CF911F910F91FF90EF90DF900895BD
:100A00008881EECF0F931F93CF93DF931F92CDB7C3
:100A1000DEB782E0898342E450E06CEA70E080E86F
:100A20000E94DC040E94FC02DC0112960D911C91D4
:100A30000115110589F0D801ED91FC910280F38137
:100A4000E02DBE016F5F7F4FC801099597FD04C07F
:100A5000F80100851185ECCF89810F90DF91CF914E
:100A60001F910F910895615030F02091F100FC0129
:100A700020830196F8CF289884E680938002089519
:100A80008F929F92AF92BF92CF92DF92EF92FF929E
:100A90000F931F93CF93DF936C017B018A018091A9
:100AA0000B01882309F45CC080918102882309F43A
:100AB00057C08091620280FF05C08091E000826093
:100AC0008093E000E801B12C8AEFA82E93E0892EF4
:100AD0002AE3922E209711F4BB20D9F10E94EB0259
:100AE00081110AC0AA94AA20D9F161E070E080E0E7
:100AF00090E00E943804EECF8C171D0611F00CF028
:100B00008C2F9FB7F8948092E9002091E80025FD92
:100B100002C09FBFDFCF282F30E0C21BD30BF701ED
:100B2000815020F041914093F100FACFE20EF31E84
:100B3000BB2021F09092E800B12CEBCF8091E8002F
:100B400085FDE7CF9092E800BB24B394209709F38A
:100B5000F3CF5D9884E680936102101611063CF095
:100B600081E090E0F6019383828310E000E0C80109
:100B7000DF91CF911F910F91FF90EF90DF90CF9079
:100B8000BF90AF909F908F900895CF93DF931F9267
:100B9000CDB7DEB76983DC01ED91FC910280F38172
:100BA000E02D41E050E0BE016F5F7F4F09950F904F
:100BB000DF91CF91089583E08093E9008091F20066
:100BC000882319F08AE38093E80008950E94EB02DD
:100BD00090E00895CF93DF931F92CDB7DEB7FC016D
:100BE0008485958597FD08C02FEF3FEF35872487D3
:100BF0000F90DF91CF910895CE0101960E94C1021E
:100C0000019719F4898190E0F3CF8FEF9FEFF0CF38
:100C10000F931F93CF93DF931F92CDB7DEB78C0155
:100C2000FC018485958597FF0BC0CE0101960E943B
:100C3000C102019771F4898190E0F801958784875A
:100C4000F801848595850F90DF91CF911F910F91C9
:100C500008958FEF9FEFF1CFFC018485958597FD77
:100C60000BC09FB7F89482E08093E9008091F20076
:100C70009FBF90E0019608959FB7F89482E080931B
:100C8000E9008091F2009FBF90E008950F931F93B9
:100C9000CF93DF93EC018B018F81811107C0E88135
:100CA000F9810190F081E02DCE0109958A819B8127
:100CB0000817190730F08C819D810817190708F46F
:100CC000C801880F991F019790939900809398000D
:100CD000DF91CF911F910F910895DC01F894E0E925
:100CE000F0E090819F779083789417961C920895F6
:100CF000CF93DF93EC0161E085E00E94B303F894A9
:100D000082E8809390008AE1809391008FE39CE9D0
:100D1000909397008093960088EB9BE090939900C6
:100D200080939800789481E08F83DF91CF9108952C
:100D3000F89441E040936800ABE6B0E09C91E82F66
:100D4000F0E021E030E001C0220F8A95EAF7892F18
:100D5000822B8C93EE0FFF1FE45BFD4F718360834A
:100D60004BBB9091D602822F809589238093D60227
:100D700083B19091D6028223892B8093D6027894F6
:100D800008954F925F926F927F928F929F92AF924F
:100D9000BF92CF92DF92EF92FF92CF93DF93EC015D
:100DA0006B817C81072E000C880B990B0E9489189F
:100DB0009B01AC016D817E818F8198850E946D17AA
:100DC0006B017C01C9A2DAA2EBA2FCA229A53AA57B
:100DD0004BA55CA50E946E174B015C0189A69AA6E3
:100DE000ABA6BCA64DA45EA46FA478A820E030E01A
:100DF000A901C301B2010E94391918169CF4A5017A
:100E000094015F77C301B2010E94DA1787FF0AC01D
:100E1000A7019601C501B4010E946D1769A77AA7C1
:100E20008BA79CA72DA13EA14FA158A5C701B60134
:100E30000E946D174B015C01CDA2DEA2EFA2F8A6C5
:100E400029A53AA54BA55CA5698D7A8D8B8D9C8DC6
:100E50000E943E192B013C012D893E894F89588DF6
:100E6000C701B6010E943E199B01AC01C301B2014A
:100E70000E946E176B017C012D8D3E8D4F8D58A108
:100E8000C501B4010E943E199B01AC01C701B60126
:100E90000E946E176DAB7EAB8FAB98AF0E9451185E
:100EA000E881F9810190F081E02DCE01DF91CF91B1
:100EB000FF90EF90DF90CF90BF90AF909F908F907A
:100EC0007F906F905F904F90099420E077FF04C06F
:100ED00071956195710921E0FC01838594856817FE
:100EE00079070CF4CB01909389008093880022232A
:100EF00019F0299A219A08952998FCCF20E077FFCC
:100F000004C071956195710921E0FC018385948588
:100F1000681779070CF4CB0190938B0080938A00BB
:100F2000222319F02A9A229A08952A98FCCFCF9367
:100F3000DF93EC0189899A8950E070E02B893C8924
:100F4000AF85B8898427952726273727821B930BDF
:100F50008A0F9B1F988B8F877A8B698B5C8B4B8B4F
:100F60008A81823089F42F85388989859A85281766
:100F7000390751F4E881F9810190F081E02D70E0AA
:100F800060E0CE0109951A82DF91CF9108956CB18E
:100F9000262F30E0359527953595279583B1422F3B
:100FA0004170682F70E094E0759567959A95E1F728
:100FB0006227617086E493E00C9497074FB141700B
:100FC0006CB166FB662760F964278FE793E00C94A9
:100FD0009707FC01F89487859089108A17861686F2
:100FE000158678940895809128030E945C03892BCC
:100FF00059F00E941304609332037093330380937B
:1010000034039093350308950E94130460933603CC
:1010100070933703809338039093390380912703AB
:101020008260809327030895CF92DF92EF92FF9220
:101030000F931F930E9413046B017C0180910F0397
:101040000E945C03892B79F4C0921B03D0921C038D
:10105000E0921D03F0921E031F910F91FF90EF90FD
:10106000DF90CF900895C0921F03D0922003E092AA
:101070002103F092220340911F03509120036091BD
:1010800021037091220380911B0390911C03A09176
:101090001D03B0911E03481B590B6A0B7B0B8091FB
:1010A0001F0390912003A0912103B0912203C090CF
:1010B0002303D0902403E0902503F09026030091B1
:1010C0001F031091200320912103309122030093EC
:1010D00023031093240320932503309326038A01CE
:1010E0009B010553114221093109073E1340210597
:1010F000310548F410921A0381E090E090931103B7
:1011000080931003A9CF445F514061097109493CA4
:1011100051056105710590F085E090E09093110311
:10112000809310038FEF9FEFDC0180931603909361
:101130001703A0931803B09319038ECF8C199D0940
:10114000AE09BF0920911003309111032130310500
:1011500009F05FC0AC01BD01415C524161097109F8
:10116000433F51406105710558F4109216031092E7
:101170001703109218031092190383E090E0BECF7A
:101180008D589A40A109B10987359240A105B10552
:1011900008F062CF82E090E09093110380931003F7
:1011A0004091160350911703609118037091190331
:1011B0008091160390911703A0911803B091190321
:1011C000892F9A2FAB2FBB2784279527A627B727D0
:1011D00088279927BB270097AF4FB10531F085E0ED
:1011E00090E090931103809310032FB7F8948091AF
:1011F0006C0290916D02A0916E02B0916F022FBFB0
:101200008093120390931303A0931403B0931503D8
:1012100023CF2330310509F01FCFAC01BD01455864
:101220005340610971094F3851406105710560F5FE
:1012300080911A038F5F80931A0380911A03803282
:1012400009F00ACF409116035091170360911803DB
:10125000709119038091160390911703A0911803C0
:10126000B0911903892F9A2FAB2FBB27842795277D
:10127000A627B72788279927BB270097AF4FB10527
:10128000A9F185E090E03ACF815D9740A109B109CD
:10129000833F9140A105B10510F520911A034091BB
:1012A000160350911703609118037091190381E0A0
:1012B00090E0A0E0B0E004C0880F991FAA1FBB1FF8
:1012C0002A95D2F7840F951FA61FB71F8093160388
:1012D00090931703A0931803B0931903A9CF85E047
:1012E00090E09093110380931003A7CF84E090E0E7
:1012F00078CF86E10C94EF0385E10C94EF038F9295
:101300009F92AF92BF92CF92DF92EF92FF92CF93D4
:10131000DF930E947909EC010E947C09BE01681BE1
:10132000790B072E000C880B990B0E9489182AE074
:1013300037ED43E25CE30E943E196B017C01AC0196
:101340009B0160E070E080EA91E40E946D174B0120
:101350005C0120E030E040EA51E4C701B6010E94A0
:101360006E17A5019401DF91CF91FF90EF90DF9070
:10137000CF90BF90AF909F908F900C944701CF93E8
:10138000DF9380E00E945C03EC0181E00E945C033B
:101390004091820250918302609184027091850293
:1013A000C817D90779F44F5F5F4F6F4F7F4F409356
:1013B0008202509383026093840270938502DF91CE
:1013C000CF9108954150510961097109F0CFCF9330
:1013D000DF9380E00E945C03EC0181E00E945C03EB
:1013E0004091820250918302609184027091850243
:1013F000C817D90779F4415051096109710940931F
:101400008202509383026093840270938502DF917D
:10141000CF9108954F5F5F4F6F4F7F4FF0CFCF93C6
:10142000DF93EC0161E080910D030E94850360E091
:1014300080910B030E9485031C161D0684F0D19534
:10144000C195D109C13981E0D80714F0C0E9D1E0D4
:10145000D0938D00C0938C00DF91CF910895D0E0A0
:10146000C0E0F6CFCF93DF9397FF04C0DF91CF9119
:101470000C940F0AEC0160E080910D030E9485033B
:1014800061E080910B030E948503C13981E0D80798
:1014900014F0C0E9D1E0D0938D00C0938C00DF91AF
:1014A000CF9108954F925F926F927F928F929F9209
:1014B000AF92BF92CF92DF92EF92FF920F931F9362
:1014C000CF932B013C01F89440918202509183020A
:1014D00060918402709185027894CA01052E000CF7
:1014E000660B770B93018201041B150B260B370B40
:1014F000B901A801812C912C30E8A32E3FEBB32E2B
:1015000077FD06C0812C912C20E8A22E2FE3B22E6D
:10151000092E000CAA0BBB0BA3019201281B390B4F
:101520004A0B5B0BCA01B901C0910D0369017A0135
:1015300097FF07C0CC24DD247601C61AD70AE80A33
:10154000F90A37E0C316D104E104F1040CF457C0E2
:101550000E9489182091FB023091FC024091FD020B
:101560005091FE020E943E196B017C012091F7020E
:101570003091F8024091F9025091FA02C501B4018C
:101580000E943E199B01AC01C701B6010E946E1773
:101590000E9451186B0177FF14C061E08C2F0E94EC
:1015A000850360E080910B030E94850388279927BB
:1015B0008C199D09813941E0940794F080E991E00C
:1015C0000FC060E08C2F0E94850361E080910B03C7
:1015D0000E948503C60151E9C51651E0D50674F78E
:1015E00090938D0080938C00F8948091820290916A
:1015F0008302A0918402B0918502789489CF60E043
:101600008C2F0E94850361E080910B030E9485036B
:1016100010928D0010928C00CF911F910F91FF902E
:10162000EF90DF90CF90BF90AF909F908F907F9082
:101630006F905F904F900895FC0101900020E9F7B2
:101640003197AF01481B590BBC0186E892E00C941E
:101650004005CF93DF930E941C0BEC018DE591E0D8
:101660000E941C0B8C0F9D1FDF91CF9108958F92CC
:101670009F92AF92BF92CF92DF92EF92FF920F9321
:101680001F93CF93DF93CDB7DEB7A1970FB6F89432
:10169000DEBF0FBECDBF6C01990FEE08FF08F7FE4D
:1016A00047C06DE286E892E00E94C5058C012227C2
:1016B0003327A9012C193D094E095F0919A2CE0152
:1016C00081967C019AE0892E912CA12CB12CCA0123
:1016D000B901A50194010E944517605DF70162936D
:1016E0007F01211531054105510589F790E080E022
:1016F000309719F0CF010E941C0B080F191F8DE5C0
:1017000091E00E941C0B800F911FA1960FB6F894D8
:10171000DEBF0FBECDBFDF91CF911F910F91FF9024
:10172000EF90DF90CF90BF90AF909F908F900895F3
:10173000A701960119A28E010F5D1F4F8AE0C82EE6
:10174000D12CE12CF12CCA01B901A70196010E940C
:101750004517605DF80162938F0121153105410540
:10176000510589F7309729F0CF010E941C0B8C019D
:10177000C6CF10E000E0C3CF0E94AB19CF93DF9338
:10178000A2EEB0E09C911C92E9EEF0E02081108284
:10179000C0EFD0E03881188240E02899416020995C
:1017A00042602098289A80E18A95F1F783B141FB45
:1017B0000EF0209840FB0EF028980EF4289A41FB7A
:1017C0000EF4209A1082388320839C938095817038
:1017D000DF91CF9108951F920F920FB60F921124AF
:1017E0002F933F938F939F93AF93BF9380916C02FE
:1017F00090916D02A0916E02B0916F0230916B02D8
:1018000023E0230F2D3758F50196A11DB11D20931C
:101810006B0280936C0290936D02A0936E02B09362
:101820006F028091700290917102A0917202B0914A
:1018300073020196A11DB11D8093700290937102F5
:10184000A0937202B0937302BF91AF919F918F9159
:101850003F912F910F900FBE0F901F90189526E883
:10186000230F0296A11DB11DD2CF1F920F920FB66A
:101870000F9211242F933F934F935F936F937F9316
:101880008F939F93AF93BF93EF93FF93E0911C01CE
:10189000F0911D010995FF91EF91BF91AF919F913B
:1018A0008F917F916F915F914F913F912F910F9009
:1018B0000FBE0F901F9018951F920F920FB60F92A8
:1018C00011242F933F934F935F936F937F938F9345
:1018D0009F93AF93BF93EF93FF93E0911A01F09121
:1018E0001B010995FF91EF91BF91AF919F918F914E
:1018F0007F916F915F914F913F912F910F900FBE0C
:101900000F901F9018951F920F920FB60F921124EF
:101910002F933F934F935F936F937F938F939F93F7
:10192000AF93BF93EF93FF93E0911801F0911901EA
:101930000995FF91EF91BF91AF919F918F917F9109
:101940006F915F914F913F912F910F900FBE0F902C
:101950001F9018951F920F920FB60F9211242F937C
:101960003F934F935F936F937F938F939F93AF9327
:10197000BF93EF93FF93E0911601F0911701099542
:10198000FF91EF91BF91AF919F918F917F916F9157
:101990005F914F913F912F910F900FBE0F901F902D
:1019A00018951F920F920FB60F9211242F933F9309
:1019B0004F935F936F937F938F939F93AF93BF9357
:1019C000EF93FF93E0911401F09115010995FF91B8
:1019D000EF91BF91AF919F918F917F916F915F91A7
:1019E0004F913F912F910F900FBE0F901F90189520
:1019F0001F920F920FB60F9211248F939F93809195
:101A0000E1009091E100937F9093E10083FF0FC08C
:101A10001092E90091E09093EB001092EC0092E3B9
:101A20009093ED001092810298E09093F00082FF75
:101A300022C093E09093E9009091F200992319F06D
:101A40009AE39093E80090916102992341F090917C
:101A50006102915090936102911101C05D9A909141
:101A60008002992341F090918002915090938002DE
:101A7000911101C0289A84FF18C08091E2008E7EE7
:101A800081608093E2008091E1008F7E8093E1008D
:101A9000809162028E7E8061809362029F918F911D
:101AA0000F900FBE0F901F90189580FFF7CF809179
:101AB000E2008E7E80618093E2008091E1008E7E64
:101AC0008093E100809162028E7E8160E5CF1F925B
:101AD0000F920FB60F921124CF92DF92EF92FF92E6
:101AE0000F931F932F933F934F935F936F937F9326
:101AF0008F939F93AF93BF93EF93FF93CF93DF9316
:101B0000CDB7DEB76C97DEBFCDBF1092E9008091F4
:101B1000E80083FF25C068E0CE0145960E943305AA
:101B200082EF8093E8008D8987FF39C09091E800AB
:101B300090FFFCCF982F907609F034C19E894F8991
:101B4000588D2F89F88C911131C0803861F58091C2
:101B500063028093F1001092F1008EEF8093E80011
:101B60006C960FB6F894DEBF0FBECDBFDF91CF915C
:101B7000FF91EF91BF91AF919F918F917F916F9165
:101B80005F914F913F912F911F910F91FF90EF9097
:101B9000DF90CF900F900FBE0F901F9018959EEF83
:101BA0009093E800C7CF1092F100D5CF913059F44F
:101BB0008111D3CF4130510581F6809163028D7F31
:101BC00080936302CACF933049F48111C6CF41306C
:101BD000510519F6809163028260F2CF953041F48D
:101BE0008091E80080FFFCCF20682093E300B5CF10
:101BF000963009F0A9C00B8D1C8D22E01092E900EF
:101C000010925F0210925E02F2122EC010925D02DC
:101C100010925C020E9402051F8299E09983FA8269
:101C200091E09E8390EA98879AEF998720915E02CF
:101C300030915F02275F3F4F3C832B838D8310924F
:101C4000E90010925F0210925E0210935D02009311
:101C50005C0249E050E0BE016F5F7F4F80E00E9470
:101C6000DC040E94020579CF10935D0200935C02B0
:101C70000E94FC02DC0112960D911C9101151105C8
:101C800009F451C1D801ED91FC910480F581E02D5A
:101C9000BE016B5E7F4FC8010995009709F03EC1F8
:101CA000F80100851185EACFF3E0FF120EC08F899D
:101CB000882309F440C0823061F440E862E187E1A2
:101CC00091E00E94A904811148CF81E28093EB004A
:101CD00047CF813029F440E862E184E091E0F1CF20
:101CE000833099F70E94FC02DC011296ED90FC9083
:101CF0008E010F5F1F4F6801E114F10479F0D701E5
:101D0000ED91FC910680F781E02DB801C70109959E
:101D1000080F111DF701E084F184EECFD8011C9269
:101D2000F60101900020E9F73197BF016C197D0998
:101D300040E0C601C6CF6EEE70E0FB01449150E07A
:101D400080E80E94DC0409CF973009F4BECF9830B8
:101D500021F481E08093F10000CF993009F0FDCEAD
:101D6000837009F0B2CFE9E2F1E081E031E096E37F
:101D70002191222371F08093E9003093EB00DF0181
:101D800011972C912093EC009093ED008F5F87309A
:101D900079F78EE78093EA001092EA008F898093AA
:101DA0008102DBCE8B8D9C8D1092E90010925F0238
:101DB00010925E0290935D0280935C02898D811186
:101DC00092C08E899D89913A49F4813209F07DCF84
:101DD00047E050E064E071E080E0B3CF913209F079
:101DE00074CF833269F48F89988DB0E0A0E080933E
:101DF000000190930101A0930201B0930301ADCEC5
:101E0000803269F48091E80082FFFCCF67E084E0D3
:101E100091E00E9433058BEF8093E8009ECE8232E2
:101E200009F09BCE8F8980930B01EEEFFFE7859140
:101E300094918B3F9C4D51F1E0E0F8E080910401DA
:101E400090910501A0910601B0910701803B94405B
:101E5000A105B105F1F480910B0180FD1AC0EE3FA0
:101E60008AE0F80789F587E797E791838083809177
:101E700060008093600288E19BE00FB6F894A8951B
:101E8000809360000FBE9093600067CEEEEFFAE0A3
:101E9000D5CF808191818737974709F05ECEA8958D
:101EA00080916000886180936000809160028093DF
:101EB0006000EE3F2AE0F20789F08091FE0A9091DF
:101EC000FF0A9183808349CE80819181873798076B
:101ED00051F29093FF0A8093FE0AC5CF1092FF0A39
:101EE0001092FE0A3ACE0E94FC02DC0112960D917D
:101EF0001C910115110509F4E8CED801ED91FC9172
:101F00000190F081E02DBE016B5E7F4FC801099505
:101F1000811123CEF80100851185EBCF1816190623
:101F20000CF41BCED2CEF1E0FF12BECE62EF70E019
:101F300004CF1F920F920FB60F9211242F933F934D
:101F40004F935F936F937F938F939F93AF93BF93C1
:101F5000EF93FF93CF93DF9300D01F92CDB7DEB7FF
:101F600083B1898389819091D60289278A83809160
:101F70006B009A8189238B838B8180FF05C0E09160
:101F80004C02F0914D0209958B8181FF05C0E091D3
:101F90004E02F0914F0209958B8182FF05C0E091BE
:101FA0005002F091510209958B8183FF05C0E091A9
:101FB0005202F091530209958B8184FF05C0E09194
:101FC0005402F091550209958B8185FF05C0E0917F
:101FD0005602F091570209958B8186FF05C0E0916A
:101FE0005802F091590209958B8187FF05C0E09155
:101FF0005A02F0915B02099589818093D6020F9075
:102000000F900F90DF91CF91FF91EF91BF91AF9122
:102010009F918F917F916F915F914F913F912F9100
:102020000F900FBE0F901F9018951F920F920FB632
:102030000F9211242F933F934F935F936F937F934E
:102040008F939F93AF93BF93EF93FF93809155032B
:10205000909156032091530330915403AC01421BDD
:10206000530B50934A034093490390935403809336
:10207000530380918E0390918F0320918C033091B4
:102080008D03AC01421B530B509383034093820397
:1020900090938D0380938C0380914803813021F0CD
:1020A00080914803823021F486E493E00E94C106C7
:1020B00080918103813021F080918103823021F46D
:1020C0008FE793E00E94C106FF91EF91BF91AF911E
:1020D0009F918F917F916F915F914F913F912F9140
:1020E0000F900FBE0F901F901895CF93DF93E6E8E7
:1020F000F2E01382128288EE93E0A0E0B0E08483E5
:102100009583A683B7838DE391E0918380838FEFDE
:102110009FEF9587848783B18093D602E6E4F3E04E
:1021200012821482138215821682178210861286FA
:1021300011862CE231E03487238716861586108AB3
:102140001786128A118A148A138A40E050E060EAE6
:1021500070E4458B568B678B708F80E090E0A0E039
:10216000BFE3818F928FA38FB48F158E168E178E3B
:1021700010A211A212A213A214A215A216A217A2B3
:1021800010A611A612A613A614A615A616A617A683
:1021900010AA11AA12AA13AA14AA15AA16AA17AA53
:1021A00010AECBE5D1E0D183C08313AE15AE14AE33
:1021B0001092840310928503109286031092870375
:1021C000109289031092880330938B0320938A0323
:1021D00010928D0310928C0310928F0310928E0335
:1021E0001092910310929003109293031092920315
:1021F00040939403509395036093960370939703D1
:102200008093980390939903A0939A03B0939B03B0
:1022100010929C0310929D0310929E0310929F03B4
:102220001092A0031092A1031092A2031092A30394
:102230001092A4031092A5031092A6031092A70374
:102240001092A8031092A9031092AA031092AB0354
:102250001092AC031092AD031092AE031092AF0334
:102260001092B0031092B1031092B2031092B30314
:102270001092B4031092B5031092B6031092B703F4
:1022800085E591E092AF81AF8EED95E3AAE7BCE3DF
:102290008093B8039093B903A093BA03B093BB03A0
:1022A00083E393E3ABEEB0E48093BC039093BD0370
:1022B000A093BE03B093BF0380E190E09093C1036D
:1022C0008093C003EEE3F3E0128215828FE491E085
:1022D00091838083E7E2F3E01082138214821582F7
:1022E00016828AE090E0A0E0B0E087839087A18723
:1022F000B28713861486158616861786108A118A69
:10230000128A80E090E0A6ECB2E4838B948BA58BDC
:10231000B68B81E181838CE08283EFE0F3E08EE095
:102320008083128211821382148215821682178290
:1023300010861186128613861486158616861786D1
:10234000108A118A128A138A148A158A168A178AA1
:10235000E7EDF2E080E090E8A9E8B3E480A391A380
:10236000A2A3B3A380E090E0A0E0B0E484A395A38F
:10237000A6A3B7A386E090E091A780A783E090E0B2
:10238000A0E0B0E086A797A7A0ABB1AB8BE090E050
:1023900093AB82AB84E090E095AB84AB8DE090E0B2
:1023A00097AB86ABDF91CF910895789484B5826026
:1023B00084BD84B5816084BD85B5826085BD85B5E9
:1023C000816085BD80916E00816080936E00109267
:1023D00081008091810082608093810080918100E2
:1023E0008160809381008091800081608093800073
:1023F0008091910082608093910080919100816032
:1024000080939100809190008160809390008091F2
:10241000C10084608093C1008091C100826080937C
:10242000C1008091C10081608093C1008091C30090
:1024300081608093C3008091C00082608093C0005F
:102440008091C20081608093C20080917A00846094
:1024500080937A0080917A00826080937A008091E4
:102460007A00816080937A0080917A0080688093FE
:102470007A0010928102109263021092620280919F
:10248000D70081608093D70080EA8093D80089B517
:10249000806189BD89B5826089BD09B400FEFDCF28
:1024A00061E070E080E090E00E9438048091D80004
:1024B0008F7C80618093D8008091E000807F809342
:1024C000E0008091E1008E7E8093E1008DE08093BA
:1024D000E200559A209A81E691E00E94290B2E98FD
:1024E000269A2D98259A2A98229A2998219A2F98E7
:1024F000279AF8948AEA8093800089E1809381008A
:1025000084EA91E09093870080938600109289007E
:102510001092880010928B0010928A0010928D0009
:1025200010928C00789480E691E00E94290B8FE64F
:1025300091E00E94290B24982C9A6A98729A6E98BE
:10254000769A8098889A67EC77E084E00E949806F3
:102550006EED77E084E00E940A016CB1262F30E036
:10256000359527953595279583B1422F4170682F72
:1025700070E0E4E075956795EA95E1F76227617090
:1025800086E493E00E94970786E493E00E94E907BF
:102590006CB1262F30E0359527953595279583B179
:1025A000422F4170682F70E0A4E075956795AA9559
:1025B000E1F7622761708FE793E00E9497078FE74A
:1025C00093E00E94E9078EE691E00E94290BF894BF
:1025D0001092C0008BE08093C1001092C200109254
:1025E000C30089EF8093D10084E0809372007894D7
:1025F00060E080910F030E94B30380910F03843049
:1026000018F0873009F03DC18EE791E00E94290B58
:1026100080910F03882309F42CC1813009F42BC168
:10262000823009F42AC1833009F429C1873029F4A2
:1026300084E064E178E00E940A0160E08091280370
:102640000E94B30380912803843018F0873009F08A
:1026500033C18DE991E00E94290B809128038823E2
:1026600009F422C1813009F421C1823009F420C16A
:10267000833009F41FC1873029F484E063EF77E0E9
:102680000E940A0161E0809129030E94B30361E086
:10269000809109030E94B30361E080910B030E94C3
:1026A000B30361E080910D030E94B30360E080E01A
:1026B0000E94B30360E081E00E94B30388EA809344
:1026C000800081E18093810080E991E09093870010
:1026D0008093860010928D0010928C0067EE79E056
:1026E00082E00E940A016FEB79E083E00E940A0118
:1026F000F894109282021092830210928402109237
:1027000085027894F89410928202109283021092BB
:10271000840210928502789484E893E090930F01EC
:1027200080930E0184E398E090931101809310014F
:1027300060E08EE00E94B3038FEF9FEF90939302CF
:102740008093920210926A02109269028EE393E0E3
:102750000E94BE0B8823D1F36AE070E080E090E035
:102760000E9438048EE393E00E94BE0B882371F32D
:102770008EE393E00E94BE0B8111FACF6AE070E015
:1027800080E090E00E9438048EE393E00E94BE0B4C
:102790008111EECF0E947C090E94790968EE73E0F6
:1027A00080E090E00E943804C6E0D0E00AE010E04B
:1027B00043E0242E312C55E0652E712C62E0E62E8C
:1027C000F12C82E0582E4424439498E0A92EB12C99
:1027D00024E0822E912C30E0C32E30E0D32E809165
:1027E000100390911103049711F5109211031092A8
:1027F00010038091160390911703A0911803B091D4
:1028000019038A2F90E08130910509F068C080910A
:10281000690290916A029093680280936702D09354
:102820006A02C093690284ED91E00E94290B8091B5
:10283000690290916A020E94370B85E10E94EF03C2
:102840000E94370BE0916902F0916A02EB30F105CA
:1028500008F04EC1E25DFB4E0C94671785145015CD
:102860006516C316B5148516ED1602177F15C61525
:102870004A1682E0DECE83E0DCCE81E0DACE80E074
:10288000D8CE8CE891E00E94290BE0910F03E8502C
:102890008FEFEA3020F4F0E0E15DFE4F808164E1EB
:1028A00078E00E949806C9CE82E0E8CE83E0E6CECA
:1028B00081E0E4CE80E0E2CE87EB91E00E94290B3C
:1028C000E0912803E8508FEFEA3020F4F0E0E15D7A
:1028D000FE4F808163EF77E00E949806D3CE85306B
:1028E000910559F4809167029091680290936A0271
:1028F0008093690283EE91E098CF0D9709F097CF0E
:1029000010926A021092690292CF0E947F090E947F
:1029100079098B3F91050CF4EBC00E947C098B3F39
:1029200091050CF4E5C020E030E0A901CA01B9012D
:102930000E9447019092680280926702D0936A02D7
:10294000C09369028AEE91E00E94290B86E493E02D
:102950000E94E907F894809155039091560378946A
:102960009093660280936502C3C087EF91E00E9456
:10297000290B20E030E0A90160E070E080E291E402
:102980000E94ED012091B8033091B9034091BA0340
:102990005091BB0360E070E080EE90E40E94DF178E
:1029A0000E945118F8942091550330915603789461
:1029B000260F371F3093500320934F035092480344
:1029C000F89420918E0330918F037894A901460FDB
:1029D000571F5093890340938803509281030E94AC
:1029E0006A0420E030E048EC52EC60E070E0CB019B
:1029F0000E94ED0123EC35EF48E450E46091BC0304
:102A00007091BD038091BE039091BF030E943E1957
:102A100020E030E044E353E40E94DF1720E030E0A0
:102A200044EB52EC0E943E192091B8033091B90357
:102A30004091BA035091BB030E94DF170E945118C6
:102A4000F89420915503309156037894261B370B48
:102A50003093500320934F0350924803F8942091F1
:102A60008E0330918F037894A901460F571F50931E
:102A7000890340938803509281030E946A04B092B4
:102A80006802A0926702D0936A02C093690286E44A
:102A900093E00E94E9078FE793E00E94E90728C0CE
:102AA0000E947F09F8948091550390915603789481
:102AB00082379440A4F020E030E0A901CA01B901B6
:102AC0000E944701D0936A02C09369021093680282
:102AD000009367028DEF91E00E94290B09C0F894E2
:102AE00080918E0390918F037894823794401CF7E5
:102AF000C114D10409F473CE0E94000062CE64E6D2
:102B000070E080E090E00E94520AF8948091820286
:102B100090918302A0918402B091850278948536C9
:102B20009105A105B105D4F0F894809182029091AD
:102B30008302A0918402B091850278948836910531
:102B4000A105B105ACF281E090E09093680280931A
:102B50006702D0936A02C0936902CACFF894409189
:102B60008202509183026091840270918502789470
:102B700084E690E0A0E0B0E0841B950BA60BB70BB9
:102B80000497A105B1050CF4B3CFDDCFF894809183
:102B9000820290918302A0918402B0918502789480
:102BA00084369141A105B10541F080916402811103
:102BB00004C089E190E00E94320AF8948091820278
:102BC00090918302A0918402B0918502789484361A
:102BD0009141A105B10581F48091640281110CC07D
:102BE00090E080E00E94320A64E378E08CE091E0BB
:102BF0000E9446064092640280916402882309F490
:102C000077CF6CE272E180E090E00E94520A20E00F
:102C100030E0A90160E070E08CE092EC0E94ED01F0
:102C20002091B8033091B9034091BA035091BB038E
:102C300060E070E08CE092EC0E94DF170E94511877
:102C4000F89420915503309156037894260F371F3E
:102C50003093500320934F0350924803F8942091EF
:102C60008E0330918F037894A901460F571F50931C
:102C7000890340938803509281030E946A04109351
:102C8000680200936702D0936A02C09369028AE0E7
:102C900092E022CF20E030E048EC51E460E070E0C8
:102CA00088EC91EC0E9447010E947C098B3F9105C2
:102CB0000CF41ECFF0926802E0926702D0936A0291
:102CC000C093690287E192E007CF0E947F090E94CA
:102CD00079098B3F91050CF40BCF0E947C098B3F47
:102CE00091050CF405CF20E030E0A901CA01B9013B
:102CF0000E9447017092680260926702D0936A0254
:102D0000C093690284E292E01FCE87EF91E00E94B7
:102D1000290B20E030E040E251E4CA01B9010E94F1
:102D2000470180916502909166028D3291400CF4CA
:102D3000AECE20E030E0A901CA01B9010E944701EE
:102D400064E670E080E090E00E94380420E030E02B
:102D500048EC51E460E070E088EC91EC0E9447019F
:102D60000E9479098B3F91050CF491CE3092680254
:102D700020926702D0936A02C093690281E392E0D5
:102D80000E94290B84CE0E947F09F89480915503FC
:102D9000909156037894843A96400CF4A9CEF89416
:102DA00080918E0390918F037894843A96400CF42E
:102DB0009FCE20E030E0A901CA01B9010E9447017D
:102DC000D0936A02C093690287E090E09093680212
:102DD000809367028EE392E07FCE1092480370E00A
:102DE00060E086E493E00E947E071092810370E029
:102DF00060E08FE793E00E94650790E080E00E942A
:102E0000320A76CEF8948091820290918302A0914A
:102E10008402B09185027894892B8A2B8B2B41F008
:102E200080916402882321F087EE9FEF0E940F0AB1
:102E3000F8948091820290918302A0918402B091D3
:102E400085027894892B8A2B8B2B81F480916402E4
:102E5000882361F090E080E00E94320A6CEC77EF0A
:102E60008CE091E00E944606109264028091640218
:102E700081113ECE64E378E08CE091E00E9446064A
:102E8000109368020093670264CEA1E21A2EAA1B77
:102E9000BB1BFD010DC0AA1FBB1FEE1FFF1FA2170A
:102EA000B307E407F50720F0A21BB30BE40BF50B07
:102EB000661F771F881F991F1A9469F76095709590
:102EC000809590959B01AC01BD01CF010895EE0F57
:102ED000FF1F0590F491E02D09945058BB27AA27B5
:102EE0000E9485170C94FF180E94F11838F00E9478
:102EF000F81820F039F49F3F19F426F40C94EE18DA
:102F00000EF4E095E7FB0C94E818E92F0E941019E5
:102F100058F3BA17620773078407950720F079F40E
:102F2000A6F50C9432190EF4E0950B2EBA2FA02DB5
:102F30000B01B90190010C01CA01A0011124FF2766
:102F4000591B99F0593F50F4503E68F11A16F04061
:102F5000A22F232F342F4427585FF3CF4695379560
:102F60002795A795F0405395C9F77EF41F16BA0B25
:102F7000620B730B840BBAF09150A1F0FF0FBB1FD3
:102F8000661F771F881FC2F70EC0BA0F621F731F1C
:102F9000841F48F4879577956795B795F7959E3F79
:102FA00008F0B0CF9395880F08F09927EE0F97950A
:102FB000879508950E94C41808F481E008950E943E
:102FC000F3170C94FF180E94F81858F00E94F1189B
:102FD00040F029F45F3F29F00C94E81851110C944B
:102FE00033190C94EE180E94101968F39923B1F369
:102FF000552391F3951B550BBB27AA27621773071F
:10300000840738F09F5F5F4F220F331F441FAA1FB2
:10301000A9F335D00E2E3AF0E0E832D0915050406E
:10302000E695001CCAF72BD0FE2F29D0660F771F1C
:10303000881FBB1F261737074807AB07B0E809F002
:10304000BB0B802DBF01FF2793585F4F3AF09E3F87
:10305000510578F00C94E8180C9433195F3FE4F3B1
:10306000983ED4F3869577956795B795F7959F5FCA
:10307000C9F7880F911D9695879597F90895E1E016
:10308000660F771F881FBB1F621773078407BA0775
:1030900020F0621B730B840BBA0BEE1F88F7E095D0
:1030A00008950E9458186894B1110C94331908952A
:1030B0000E94181988F09F5798F0B92F9927B75197
:1030C000B0F0E1F0660F771F881F991F1AF0BA95CC
:1030D000C9F714C0B13091F00E943219B1E00895DF
:1030E0000C943219672F782F8827B85F39F0B93FD1
:1030F000CCF3869577956795B395D9F73EF490957F
:103100008095709561957F4F8F4F9F4F0895E894FC
:1031100009C097FB3EF490958095709561957F4F1F
:103120008F4F9F4F9923A9F0F92F96E9BB279395CD
:10313000F695879577956795B795F111F8CFFAF4DD
:10314000BB0F11F460FF1BC06F5F7F4F8F4F9F4F0E
:1031500016C0882311F096E911C0772321F09EE86C
:10316000872F762F05C0662371F096E8862F70E0D2
:1031700060E02AF09A95660F771F881FDAF7880FAC
:103180009695879597F90895990F0008550FAA0B02
:10319000E0E8FEEF16161706E807F907C0F012166A
:1031A0001306E407F50798F0621B730B840B950B6D
:1031B00039F40A2661F0232B242B252B21F40895C2
:1031C0000A2609F4A140A6958FEF811D811D08955F
:1031D00097F99F6780E870E060E008959FEF80ECCA
:1031E000089500240A94161617061806090608956D
:1031F00000240A9412161306140605060895092ED3
:103200000394000C11F4882352F0BB0F40F4BF2B41
:1032100011F460FF04C06F5F7F4F8F4F9F4F089581
:1032200057FD9058440F551F59F05F3F71F0479577
:10323000880F97FB991F61F09F3F79F0879508955C
:10324000121613061406551FF2CF4695F1DF08C07B
:10325000161617061806991FF1CF86957105610598
:1032600008940895E894BB2766277727CB0197F940
:1032700008950E94C41808F48FEF08950E94511910
:103280000C94FF180E94F11838F00E94F81820F0F2
:10329000952311F00C94E8180C94EE1811240C945A
:1032A00033190E94101970F3959FC1F3950F50E0E8
:1032B000551F629FF001729FBB27F00DB11D639FE8
:1032C000AA27F00DB11DAA1F649F6627B00DA11D8E
:1032D000661F829F2227B00DA11D621F739FB00D34
:1032E000A11D621F839FA00D611D221F749F3327A4
:1032F000A00D611D231F849F600D211D822F762F3D
:103300006A2F11249F5750409AF0F1F088234AF019
:10331000EE0FFF1FBB1F661F771F881F9150504085
:10332000A9F79E3F510580F00C94E8180C943319CE
:103330005F3FE4F3983ED4F3869577956795B7950C
:10334000F795E7959F5FC1F7FE2B880F911D969526
:10335000879597F9089581E090E0F8940C94B0195E
:04336000F894FFCF0F
:10336400FFFFFFFF00E10000000000002201E8036E
:10337400D007FF007A047A047A047A047A040000FD
:10338400000078066D06460600C180810000000436
:10339400050607FFFF0301020000000000C5054009
:1033A40005E605DB052C06EA05080600000000BE5C
:1033B4000B000000006507000000007E070D0A00F6
:1033C4002F696E69744D6F746F72732829002F69A9
:1033D4006E6974456E636F64657273282900417465
:1033E40074616368696E6720495352004174746163
:1033F4006368696E672050435F4953520041747497
:10340400616368696E672072616E676566696E6480
:1034140065722049535200417474616368696E6730
:103424002072616E676566696E6465722050435FE1
:1034340049535200456D657267656E637920537414
:103444006F70004F6E7761726400436865636B70E0
:103454006F696E74203100436865636B004368656F
:10346400636B706F696E74203200436865636B70C0
:103474006F696E74203300436865636B706F696EA7
:1034840074203400436865636B706F696E74203513
:1034940000436865636B706F696E7420370043681E
:0C34A40065636B706F696E742036000069
:00000001FF
