:100000000C94E0000C94C10D0C949A0D0C94730D9B
:100010000C944C0D0C9408010C9408010C94250DC3
:100020000C9408010C9489100C94E80D0C94570E54
:100030000C9408010C9408010C9408010C9408011C
:100040000C9408010C9408010C9408010C9408010C
:100050000C9408010C9408010C9408010C94DB0C1E
:100060000C9408010C9408010C9408010C940801EC
:100070000C9408010C9408010C9408010C940801DC
:100080000C9408010C9408010C9408010C940801CC
:100090000C9408010C9408010C9408010C940801BC
:1000A0000C9408010C9405110C940801080B000233
:1000B0000202000009040000010202000005240001
:1000C0001001052401010104240206052406000193
:1000D0000705810310004009040100020A00000026
:1000E00007050202400000070583024000000403E8
:1000F000090412010002EF020140FB1F002300016E
:1001000001020301506F6C6F6C7520436F72706F4A
:10011000726174696F6E00506F6C6F6C7520412D49
:100120005374617220333255340007060504010010
:10013000080A0B0C0D0900000000240027002A000B
:100140002D00300000000000250028002B002E00AC
:100150003100000000002300260029002C002F00A1
:10016000040404040403040502020202040302025C
:10017000020206060606060604040202020404043D
:100180000802011040804010204080408008020496
:10019000018040201002011080102040402000000B
:1001A000000200090F0000030401000C0000000021
:1001B00000000000000000000000000000006511C9
:1001C00011241FBECFEFDAE0DEBFCDBF13E0A0E009
:1001D000B1E0E6E7FAE302C005900D92A030B10766
:1001E000D9F724E0A0E0B3E001C01D92A236B20727
:1001F000E1F710E0C0EED0E004C02197FE010E94BC
:10020000F01ACF3DD107C9F70E94C6120C94391DD0
:100210000C940000E82FF0E0EE0FFF1FEB5EFE4FA6
:10022000718360838230D9F028F4882341F08130D3
:1002300071F008958330D9F0843009F108958091E8
:1002400069008C7F816080936900E89A08958091AD
:100250006900837F846080936900E99A08958091A2
:1002600069008F7C806180936900EA9A089580918B
:1002700069008F73806480936900EB9A0895809180
:100280006A008F7C806180936A00EE9A08954F9295
:100290005F926F927F928F929F92AF92BF92CF9216
:1002A000DF92EF92FF92CF93DF9300D000D0CDB7D3
:1002B000DEB769837A838B839C8329013A0160913D
:1002C00060047091610490E080E00E94101C20E0C6
:1002D00030E04AE754E40E94681B4B015C01C09087
:1002E0005804D0905904E0905A04F0905B04A301A4
:1002F00092010E94C71CA70196010E94681B0E94E0
:10030000DA1B2B0129813A814B815C81C501B40143
:100310000E94C71CA70196010E94681B0E94DA1B5D
:10032000072E000C880B990B0E94121C6093EB03A4
:100330007093EC038093ED039093EE038091E803B8
:10034000813081F010920F04109210041092110469
:10035000109212048091F5039091F6039093F403A8
:100360008093F30381E08093E803B201550C880B7E
:10037000990B0E94121C60932404709325048093AF
:1003800026049093270480912104813081F01092FB
:1003900048041092490410924A0410924B04809130
:1003A0002E0490912F0490932D0480932C0481E0CF
:1003B000809321040F900F900F900F90DF91CF91B9
:1003C000FF90EF90DF90CF90BF90AF909F908F9075
:1003D0007F906F905F904F9008954F925F926F92D1
:1003E0007F928F929F92AF92BF92CF92DF92EF92C5
:1003F000FF92CF93DF93CDB7DEB728970FB6F8946F
:10040000DEBF0FBECDBF4B015C012D833E834F830A
:100410005887609160047091610490E080E00E94D0
:10042000101C20E030E04AE754E40E94681B6B0196
:100430007C01409058045090590460905A04709088
:100440005B04A50194010E94C71CA30192010E94B4
:10045000681B0E94DA1B69837A838B839C8323EC5D
:1004600035EF48E450E460915C0470915D04809144
:100470005E0490915F040E94C71C20E030E044E3DA
:1004800053E40E94681B4B015C012D813E814F812A
:100490005885C701B6010E94C71C9B01AC01C5016C
:1004A000B4010E94C71CA30192010E94681B0E9414
:1004B000DA1B6B0169817A816C197D09072E000CAA
:1004C000880B990B0E94121C6093EB037093EC0352
:1004D0008093ED039093EE038091E803813081F0E7
:1004E00010920F0410921004109211041092120432
:1004F0008091F5039091F6039093F4038093F303B6
:1005000081E08093E80389819A81C80ED91EB601E3
:10051000DD0C880B990B0E94121C609324047093CD
:100520002504809326049093270480912104813030
:1005300081F0109248041092490410924A041092DB
:100540004B0480912E0490912F0490932D0480935E
:100550002C0481E08093210428960FB6F894DEBF26
:100560000FBECDBFDF91CF91FF90EF90DF90CF9086
:10057000BF90AF909F908F907F906F905F904F90C3
:100580000895FC0180913B03882311F13FB7F89453
:1005900082E08093E9002091F200822F90E018160B
:1005A000190614F481E090E0882339F0289844E695
:1005B00040933A034091F1004083222339F0209187
:1005C000F200211103C02BE62093E8003FBF0895FD
:1005D0008FEF9FEF08952FB7F89483E08093E900A1
:1005E0009091E800892F807295FF04C09091F200ED
:1005F00080E4891B2FBF08958091320381110DC0C3
:1006000082E080932E0384E080932F0310923103C5
:100610001092300381E0809332038EE293E00895DC
:1006200081508F3008F047C0E82FF0E0E65EFC4FC5
:100630000C94F01A37033B0329032F0333035B03A6
:100640005B035B033E03440348034C0352035B0319
:100650005603809180008F77809380000895809169
:1006600080008F7DF9CF80918000877FF5CF84B5A2
:100670008F7784BD089584B58F7DFBCF80919000E6
:100680008F77809390000895809190008F7DF9CFAF
:1006900080919000877FF5CF8091C0008F77809305
:1006A000C00008958091C0008F7DF9CF8091C20075
:1006B000877F8093C2000895CF93DF93282F30E087
:1006C000F901E256FE4F8491F901E158FE4FD491B1
:1006D000F901E05AFE4FC491CC23A1F081110E9490
:1006E0001003EC2FF0E0EE0FFF1FEE5AFE4FA59126
:1006F000B491EC91ED2381E090E009F480E0DF918A
:10070000CF91089580E090E0FACF1F93CF93DF93CD
:10071000282F30E0F901E256FE4F8491F901E158AB
:10072000FE4FD491F901E05AFE4FC491CC23A9F0B9
:10073000162F81110E941003EC2FF0E0EE0FFF1F27
:10074000EC5BFE4FA591B4918FB7F894EC91111129
:1007500008C0D095DE23DC938FBFDF91CF911F912E
:100760000895DE2BF8CFCF93DF9390E0FC01E158A2
:10077000FE4F2491805A9E4FFC0184918823C9F03A
:1007800090E0880F991FFC01EA5CFE4FA591B4919F
:10079000FC01EC5BFE4FC591D49161110DC09FB778
:1007A000F8948C91209582238C9388812823288328
:1007B0009FBFDF91CF910895623051F49FB7F894B5
:1007C0003C91822F809583238C93E8812E2BEFCF51
:1007D0008FB7F894EC912E2B2C938FBFEACF8231F8
:1007E00008F08251E82FF0E0E65DFE4FE491909131
:1007F0007B008E2F880F880F80729F7D892B8093BE
:100800007B00E770E064E0937C0080917A00806474
:1008100080937A0080917A0086FDFCCF80917800E9
:100820009091790008953FB7F89480912A039091B0
:100830002B03A0912C03B0912D0326B5A89B05C0D6
:100840002F3F19F00196A11DB11D3FBFBA2FA92F4F
:10085000982F8827BC01CD01620F711D811D911D4C
:1008600042E0660F771F881F991F4A95D1F70895B8
:100870008F929F92AF92BF92CF92DF92EF92FF92B0
:100880004B015C010E9413046B017C010E94130464
:100890006C197D098E099F09683E73408105910599
:1008A000A8F321E0821A9108A108B10888EEC80EC9
:1008B00083E0D81EE11CF11C81149104A104B10451
:1008C00029F7FF90EF90DF90CF90BF90AF909F906F
:1008D0008F9008958091E803811104C080912104D4
:1008E000882339F061E070E080E090E00E943804F5
:1008F000F1CF08958F929F92AF92BF92CF92DF92E5
:10090000EF92FF924B015C0169017A01E894F7F8DC
:1009100020E030E0A9010E94C21C181624F0F7FA6A
:10092000F094F7F8F094A701960160E070E0CB0135
:100930000E94ED0123EC35EF48E450E460915C0443
:1009400070915D0480915E0490915F040E94C71CC9
:1009500020E030E044E353E40E94681BA5019401C9
:100960000E94C71C209158043091590440915A04A8
:1009700050915B040E94681B0E94DA1BF89420913E
:10098000F5033091F6037894261B370B3093F00370
:100990002093EF0322E02093E803F89440912E0483
:1009A00050912F047894CA01860F971F90932904C1
:1009B0008093280420932104FF90EF90DF90CF9044
:1009C000BF90AF909F908F900C946A048F929F92EB
:1009D000AF92BF92CF92DF92EF92FF920F934B01B3
:1009E0005C0169017A01E894F7F820E030E0A901A0
:1009F0000E94C21C181624F0F7FAF094F7F8F0944D
:100A000020E030E0A901C701B6010E94ED0120916C
:100A100058043091590440915A0450915B04C50127
:100A2000B4010E94681B0E94DA1BF8942091F50320
:100A30003091F6037894260F371F3093F0032093FC
:100A4000EF0322E02093E803F89440912E045091A4
:100A50002F047894CA01860F971F909329048093DE
:100A6000280420932104002359F00F91FF90EF9068
:100A7000DF90CF90BF90AF909F908F900C946A04BE
:100A80000F91FF90EF90DF90CF90BF90AF909F902D
:100A90008F9008952FB7F8946091260370912703E3
:100AA00080912803909129032FBF08950F931F93DE
:100AB0008091B30381FF2EC0F8948091C20390917E
:100AC000C303A091C403B091C5034091BE035091EC
:100AD000BF036091C0037091C103841B950B2091EB
:100AE000B3032D7F2093B3037894009799F0BC0152
:100AF00090E080E00E94101C20E030E048E652E4E4
:100B00000E94681B6093C6037093C7038093C80359
:100B10009093C9038091B4030E945C03892B51F028
:100B20000E944A056093B6037093B7038093B8039D
:100B30009093B9030E944A050091B6031091B70340
:100B40002091B8033091B903601B710B820B930B9A
:100B50000091BA031091BB032091BC033091BD03F7
:100B6000601771078207930760F1F8941092BE0333
:100B70001092BF031092C0031092C1031092C203DF
:100B80001092C3031092C4031092C5031092B303D2
:100B900078940E944A056093B6037093B7038093DC
:100BA000B8039093B90361E08091B5030E94850377
:100BB00083E790E00197F1F760E08091B5030E9430
:100BC00085038091B3036091C6037091C703809140
:100BD000C8039091C9031F910F9108950895409102
:100BE0001203509113032091100330911103421707
:100BF0005307B4F49091E8009570E1F39091E80008
:100C000092FD19C08093F10080911203909113031B
:100C100001968F739927892B19F48EEF8093E80042
:100C20008091120390911303019690931303809384
:100C3000120381E0089580E00895EF92FF920F93F0
:100C40001F93CF93DF93F82E192FE62E042F81E008
:100C5000860F880F0E94EF0583E00E94EF05CF2DDD
:100C6000D12FEC0EFD2EF11CCE15DF05B9F007FFDC
:100C700013C0FE0184910E94EF05182F80E00E94AE
:100C8000EF05812321968111EFCFDF91CF911F9145
:100C90000F91FF90EF9008958881EDCF81E0F5CF1F
:100CA000DF92EF92FF920F931F93CF93DF93D82E93
:100CB0008A01EB017B01E40EF51ECE15DF0559F02C
:100CC000D7FE12C0FE0184910E94EF05219681118A
:100CD000F4CF0FEF1FEFC801DF91CF911F910F915C
:100CE000FF90EF90DF9008958881EECF0F931F93D0
:100CF000CF93DF931F92CDB7DEB782E0898342E4C2
:100D000050E06CEA70E080E80E9450060E94FC020D
:100D1000DC0112960D911C910115110589F0D80185
:100D2000ED91FC910280F381E02DBE016F5F7F4F5A
:100D3000C801099597FD04C0F80100851185ECCF25
:100D400089810F90DF91CF911F910F91089561508C
:100D500030F02091F100FC0120830196F8CF289813
:100D600084E680933A0308958F929F92AF92BF9248
:100D7000CF92DF92EF92FF920F931F93CF93DF9367
:100D80006C017B018A0180910B01882309F45CC00E
:100D900080913B03882309F457C08091160380FF9C
:100DA00005C08091E00082608093E000E801B12CF2
:100DB0008AEFA82E93E0892E2AE3922E209711F431
:100DC000BB20D9F10E94EB0281110AC0AA94AA208B
:100DD000D9F161E070E080E090E00E943804EECF4D
:100DE0008C171D0611F00CF08C2F9FB7F894809291
:100DF000E9002091E80025FD02C09FBFDFCF282F2A
:100E000030E0C21BD30BF701815020F04191409399
:100E1000F100FACFE20EF31EBB2021F09092E80021
:100E2000B12CEBCF8091E80085FDE7CF9092E800F0
:100E3000BB24B394209709F3F3CF5D9884E68093A5
:100E40001503101611063CF081E090E0F601938343
:100E5000828310E000E0C801DF91CF911F910F91D4
:100E6000FF90EF90DF90CF90BF90AF909F908F90CA
:100E70000895CF93DF931F92CDB7DEB76983DC016E
:100E8000ED91FC910280F381E02D41E050E0BE0144
:100E90006F5F7F4F09950F90DF91CF91089583E0A9
:100EA0008093E9008091F200882319F08AE380930F
:100EB000E80008950E94EB0290E00895CF93DF933D
:100EC0001F92CDB7DEB7FC018485958597FD08C0DC
:100ED0002FEF3FEF358724870F90DF91CF91089553
:100EE000CE0101960E94C102019719F4898190E018
:100EF000F3CF8FEF9FEFF0CF0F931F93CF93DF933D
:100F00001F92CDB7DEB78C01FC018485958597FFD4
:100F10000BC0CE0101960E94C102019771F4898134
:100F200090E0F80195878487F801848595850F9076
:100F3000DF91CF911F910F9108958FEF9FEFF1CF28
:100F4000FC018485958597FD0BC09FB7F89482E0DE
:100F50008093E9008091F2009FBF90E00196089590
:100F60009FB7F89482E08093E9008091F2009FBFE0
:100F700090E008950F931F93CF93DF93EC018B01C3
:100F80008F81811107C0E881F9810190F081E02D06
:100F9000CE0109958A819B810817190730F08C8151
:100FA0009D810817190708F4C801880F991F019738
:100FB0009093990080939800DF91CF911F910F91AA
:100FC0000895DC01F894E0E9F0E090819F77908348
:100FD000789417961C920895CF93DF93EC0161E00B
:100FE00085E00E94B303F89482E8809390008AE140
:100FF000809391008FE39CE99093970080939600F3
:1010000088EB9BE09093990080939800789481E01E
:101010008F83DF91CF910895F89441E04093680069
:10102000ABE6B0E09C91E82FF0E021E030E001C0B9
:10103000220F8A95EAF7892F822B8C93EE0FFF1FE0
:10104000E050FD4F718360834BBB90919003822FE2
:10105000809589238093900383B19091900382239C
:10106000892B80939003789408954F925F926F92AA
:101070007F928F929F92AF92BF92CF92DF92EF9228
:10108000FF92CF93DF93EC016B817C81072E000CE4
:10109000880B990B0E94121C9B01AC016D817E8113
:1010A0008F8198850E94F61A6B017C01C9A2DAA291
:1010B000EBA2FCA229A53AA54BA55CA50E94F71AB4
:1010C0004B015C0189A69AA6ABA6BCA64DA45EA462
:1010D0006FA478A820E030E0A901C301B2010E940A
:1010E000C21C18169CF4A50194015F77C301B201DC
:1010F0000E94631B87FF0AC0A7019601C501B401C6
:101100000E94F61A69A77AA78BA79CA72DA13EA1DA
:101110004FA158A5C701B6010E94F61A4B015C0108
:10112000CDA2DEA2EFA2F8A629A53AA54BA55CA503
:10113000698D7A8D8B8D9C8D0E94C71C2B013C0183
:101140002D893E894F89588DC701B6010E94C71C61
:101150009B01AC01C301B2010E94F71A6B017C0133
:101160002D8D3E8D4F8D58A1C501B4010E94C71C25
:101170009B01AC01C701B6010E94F71A6DAB7EABB3
:101180008FAB98AF0E94DA1BE881F9810190F08162
:10119000E02DCE01DF91CF91FF90EF90DF90CF90C7
:1011A000BF90AF909F908F907F906F905F904F9087
:1011B000099420E077FF04C071956195710921E0E1
:1011C000FC0183859485681779070CF4CB01909313
:1011D000890080938800222319F0299A219A089582
:1011E0002998FCCF20E077FF04C0719561957109C3
:1011F00021E0FC0183859485681779070CF4CB0105
:1012000090938B0080938A00222319F02A9A229AC5
:1012100008952A98FCCFCF93DF93C6EED3E01A82CD
:1012200070E060E0CE010E94F2081BAE70E060E06A
:101230008FE194E0DF91CF910C94D908CF93DF93A5
:10124000EC0189899A8950E070E02B893C89AF854F
:10125000B8898427952726273727821B930B8A0F67
:101260009B1F988B8F877A8B698B5C8B4B8B8A81CA
:10127000823089F42F85388989859A85281739071E
:1012800051F4E881F9810190F081E02D70E060E097
:10129000CE0109951A82DF91CF9108956CB1262F66
:1012A00030E0359527953595279583B1422F4170CC
:1012B000682F70E094E0759567959A95E1F762273D
:1012C000617086EE93E00C941E094FB141706CB1D1
:1012D00066FB662760F964278FE194E00C941E0991
:1012E000FC01F89487859089108A178616861586E2
:1012F000789408958091B4030E945C03892B59F07F
:101300000E9413046093BE037093BF038093C003D5
:101310009093C10308950E9413046093C2037093D5
:10132000C3038093C4039093C5038091B303826089
:101330008093B3030895CF93DF93EC0188858111E7
:101340000EC0898591E098879A8562E0911101C06D
:1013500060E00E94B3038FE090E00197F1F7898588
:101360000E945C033B8521E03817190609F420E050
:10137000822FDF91CF910895CF92DF92EF92FF926B
:101380000F931F930E9413046B017C0180919B03B8
:101390000E945C03892B79F4C092A703D092A80322
:1013A000E092A903F092AA031F910F91FF90EF9092
:1013B000DF90CF900895C092AB03D092AC03E0923F
:1013C000AD03F092AE034091AB035091AC0360913A
:1013D000AD037091AE038091A7039091A803A091F3
:1013E000A903B091AA03481B590B6A0B7B0B809190
:1013F000AB039091AC03A091AD03B091AE03C0904C
:10140000AF03D090B003E090B103F090B20300912D
:10141000AB031091AC032091AD033091AE03009368
:10142000AF031093B0032093B1033093B2038A014A
:101430009B010553114221093109073E1340210543
:10144000310548F41092A60381E090E090939D034B
:1014500080939C03A9CF445F514061097109493CC5
:1014600051056105710590F085E090E090939D0332
:1014700080939C038FEF9FEFDC018093A2039093F6
:10148000A303A093A403B093A5038ECF8C199D0949
:10149000AE09BF0920919C0330919D032130310595
:1014A00009F056C0AC01BD01415C524161097109AE
:1014B000433F51406105710558F41092A203109208
:1014C000A3031092A4031092A50383E090E0BECF83
:1014D0008D589A40A109B10987359240A105B105FF
:1014E00008F062CF82E090E090939D0380939C038C
:1014F0004091A2035091A3036091A4037091A503AE
:101500008091A2039091A303A091A403B091A5039D
:10151000892F9A2FAB2FBB2784279527A627B7277C
:1015200088279927BB270097AF4FB10531F085E099
:1015300090E090939D0380939C030E944A056093E2
:101540009E0370939F038093A0039093A1032CCFDD
:101550002330310509F028CFAC01BD014558534077
:10156000610971094F3851406105710560F580913D
:10157000A6038F5F8093A6038091A603803209F0B3
:1015800013CF4091A2035091A3036091A4037091E3
:10159000A5038091A2039091A303A091A403B0910D
:1015A000A503892F9A2FAB2FBB2784279527A62722
:1015B000B72788279927BB270097AF4FB105A9F117
:1015C00085E090E043CF815D9740A109B109833F59
:1015D0009140A105B10510F52091A6034091A20309
:1015E0005091A3036091A4037091A50381E090E062
:1015F000A0E0B0E004C0880F991FAA1FBB1F2A9566
:10160000D2F7840F951FA61FB71F8093A203909354
:10161000A303A093A403B093A503A9CF85E090E012
:1016200090939D0380939C03A7CF84E090E081CFAB
:1016300085E10C94EF0386E10C94EF038F929F9267
:10164000AF92BF92CF92DF92EF92FF92CF93DF9350
:101650000E94180BEC010E941B0BBE01681B790B4A
:10166000072E000C880B990B0E94121C2AE037ED04
:1016700043E25CE30E94C71C6B017C01AC019B014F
:1016800060E070E080E791E40E94F61A4B015C0193
:1016900020E030E040E751E4C701B6010E94F71AAC
:1016A000A5019401DF91CF91FF90EF90DF90CF9053
:1016B000BF90AF909F908F900C944701CF93DF9392
:1016C00080E00E945C03EC0181E00E945C03409199
:1016D0003C0350913D0360913E0370913F03C81756
:1016E000D90779F44F5F5F4F6F4F7F4F40933C03B3
:1016F00050933D0360933E0370933F03DF91CF917E
:1017000008954150510961097109F0CFCF93DF93DA
:1017100080E00E945C03EC0181E00E945C03409148
:101720003C0350913D0360913E0370913F03C81705
:10173000D90779F4415051096109710940933C037B
:1017400050933D0360933E0370933F03DF91CF912D
:1017500008954F5F5F4F6F4F7F4FF0CFCF93DF9371
:10176000EC0180919903D7FF18C061E00E948503C6
:1017700060E0809197030E948503D195C195D109BE
:10178000C13981E0D80714F0C0E9D1E0D0938D00D1
:10179000C0938C00DF91CF91089560E00E94850393
:1017A00061E0809197030E948503EACF8F929F9218
:1017B000AF92BF92CF92DF92EF92FF926B017C01CA
:1017C000F89480903C0390903D03A0903E03B0902D
:1017D0003F037894D501C4018C199D09AE09BF0956
:1017E000B7FF07C0B095A095909581959F4FAF4FDB
:1017F000BF4F409191035091920360919303709178
:101800009403481759076A077B070CF04AC0C701C1
:10181000B601681979098A099B09660F771F77FF56
:1018200028C0072E000C880B990B0E94121C23EC79
:1018300035EF48EE5EE30E94C71C20E030E04AE549
:1018400053E40E94F61A0E94DA1BCB010E94AE0BF1
:10185000F89480903C0390903D03A0903E03B0909C
:101860003F0378946AE070E080E090E00E943804E2
:10187000B1CF90E080E06115710541F3072E000CB7
:10188000880B990B0E94121C2BED39EF4EEB5EE397
:101890000E94C71C20E030E04BE753E40E94F71A97
:1018A000D2CF90E080E0FF90EF90DF90CF90BF909C
:1018B000AF909F908F900C94AE0BFC010190002094
:1018C000E9F73197AF01481B590BBC0180E493E065
:1018D0000C94B406CF93DF930E945D0CEC018AE672
:1018E00091E00E945D0C8C0F9D1FDF91CF910895B8
:1018F0000E94341DCF93DF93A2EEB0E09C911C9226
:10190000E9EEF0E020811082C0EFD0E0388118824B
:1019100040E028994160209942602098289A80E10F
:101920008A95F1F783B141FB0EF0209840FB0EF051
:1019300028980EF4289A41FB0EF4209A10823883DE
:1019400020839C9380958170DF91CF910895CF93F0
:10195000DF93A2EEB0E09C911C92E9EEF0E02081D2
:101960001082C0EFD0E03881188240E05D9941607C
:101970005599426055985D9A80E18A95F1F789B151
:1019800041FB0EF0559840FB0EF05D980EF45D9A09
:1019900041FB0EF4559A1082388320839C9390E08B
:1019A00025E0959587952A95E1F78095909581702A
:1019B000DF91CF9108951F920F920FB60F921124CD
:1019C0002F933F938F939F93AF93BF938091260361
:1019D00090912703A0912803B0912903309125030A
:1019E00023E0230F2D3758F50196A11DB11D20933B
:1019F00025038093260390932703A0932803B09395
:101A0000290380912A0390912B03A0912C03B0917C
:101A10002D030196A11DB11D80932A0390932B03E2
:101A2000A0932C03B0932D03BF91AF919F918F9101
:101A30003F912F910F900FBE0F901F90189526E8A1
:101A4000230F0296A11DB11DD2CF1F920F920FB688
:101A50000F9211242F933F934F935F936F937F9334
:101A60008F939F93AF93BF93EF93FF93E0911D01EB
:101A7000F0911E010995FF91EF91BF91AF919F9158
:101A80008F917F916F915F914F913F912F910F9027
:101A90000FBE0F901F9018951F920F920FB60F92C6
:101AA00011242F933F934F935F936F937F938F9363
:101AB0009F93AF93BF93EF93FF93E0911B01F0913E
:101AC0001C010995FF91EF91BF91AF919F918F916B
:101AD0007F916F915F914F913F912F910F900FBE2A
:101AE0000F901F9018951F920F920FB60F9211240E
:101AF0002F933F934F935F936F937F938F939F9316
:101B0000AF93BF93EF93FF93E0911901F0911A0106
:101B10000995FF91EF91BF91AF919F918F917F9127
:101B20006F915F914F913F912F910F900FBE0F904A
:101B30001F9018951F920F920FB60F9211242F939A
:101B40003F934F935F936F937F938F939F93AF9345
:101B5000BF93EF93FF93E0911701F091180109955E
:101B6000FF91EF91BF91AF919F918F917F916F9175
:101B70005F914F913F912F910F900FBE0F901F904B
:101B800018951F920F920FB60F9211242F933F9327
:101B90004F935F936F937F938F939F93AF93BF9375
:101BA000EF93FF93E0911501F09116010995FF91D4
:101BB000EF91BF91AF919F918F917F916F915F91C5
:101BC0004F913F912F910F900FBE0F901F9018953E
:101BD0001F920F920FB60F9211248F939F938091B3
:101BE000E1009091E100937F9093E10083FF0FC0AB
:101BF0001092E90091E09093EB001092EC0092E3D8
:101C00009093ED0010923B0398E09093F00082FFD8
:101C100022C093E09093E9009091F200992319F08B
:101C20009AE39093E80090911503992341F09091E5
:101C30001503915090931503911101C05D9A9091F5
:101C40003A03992341F090913A03915090933A03CB
:101C5000911101C0289A84FF18C08091E2008E7E05
:101C600081608093E2008091E1008F7E8093E100AB
:101C7000809116038E7E8061809316039F918F91D1
:101C80000F900FBE0F901F90189580FFF7CF809197
:101C9000E2008E7E80618093E2008091E1008E7E82
:101CA0008093E100809116038E7E8160E5CF1F92C4
:101CB0000F920FB60F921124CF92DF92EF92FF9204
:101CC0000F931F932F933F934F935F936F937F9344
:101CD0008F939F93AF93BF93EF93FF93CF93DF9334
:101CE000CDB7DEB76C97DEBFCDBF1092E900809113
:101CF000E80083FF25C068E0CE0145960E94A70654
:101D000082EF8093E8008D8987FF39C09091E800C9
:101D100090FFFCCF982F907609F034C19E894F89AF
:101D2000588D2F89F88C911131C0803861F58091E0
:101D300017038093F1001092F1008EEF8093E8007A
:101D40006C960FB6F894DEBF0FBECDBFDF91CF917A
:101D5000FF91EF91BF91AF919F918F917F916F9183
:101D60005F914F913F912F911F910F91FF90EF90B5
:101D7000DF90CF900F900FBE0F901F9018959EEFA1
:101D80009093E800C7CF1092F100D5CF913059F46D
:101D90008111D3CF4130510581F6809117038D7F9A
:101DA00080931703CACF933049F48111C6CF4130D5
:101DB000510519F6809117038260F2CF953041F4F6
:101DC0008091E80080FFFCCF20682093E300B5CF2E
:101DD000963009F0A9C00B8D1C8D22E01092E9000D
:101DE0001092130310921203F2122EC010921103DC
:101DF000109210030E9476061F8299E09983FA825E
:101E000091E09E8390EA98879AEF99872091120338
:101E100030911303275F3F4F3C832B838D831092B8
:101E2000E900109213031092120310931103009310
:101E3000100349E050E0BE016F5F7F4F80E00E94D9
:101E400050060E94760679CF109311030093100379
:101E50000E94FC02DC0112960D911C9101151105E6
:101E600009F451C1D801ED91FC910480F581E02D78
:101E7000BE016B5E7F4FC8010995009709F03EC116
:101E8000F80100851185EACFF3E0FF120EC08F89BB
:101E9000882309F440C0823061F440E862E187E1C0
:101EA00091E00E941D06811148CF81E28093EB00F2
:101EB00047CF813029F440E862E184E091E0F1CF3E
:101EC000833099F70E94FC02DC011296ED90FC90A1
:101ED0008E010F5F1F4F6801E114F10479F0D70103
:101EE000ED91FC910680F781E02DB801C7010995BD
:101EF000080F111DF701E084F184EECFD8011C9288
:101F0000F60101900020E9F73197BF016C197D09B6
:101F100040E0C601C6CF6EEE70E0FB01449150E098
:101F200080E80E94500609CF973009F4BECF983060
:101F300021F481E08093F10000CF993009F0FDCECB
:101F4000837009F0B2CFEAE2F1E081E031E096E39C
:101F50002191222371F08093E9003093EB00DF019F
:101F600011972C912093EC009093ED008F5F8730B8
:101F700079F78EE78093EA001092EA008F898093C8
:101F80003B03DBCE8B8D9C8D1092E90010921303E6
:101F9000109212039093110380931003898D811185
:101FA00092C08E899D89913A49F4813209F07DCFA2
:101FB00047E050E064E071E080E0B3CF913209F097
:101FC00074CF833269F48F89988DB0E0A0E080935C
:101FD000000190930101A0930201B0930301ADCEE3
:101FE000803269F48091E80082FFFCCF67E084E0F2
:101FF00091E00E94A7068BEF8093E8009ECE82328C
:1020000009F09BCE8F8980930B01EEEFFFE785915E
:1020100094918B3F9C4D51F1E0E0F8E080910401F8
:1020200090910501A0910601B0910701803B944079
:10203000A105B105F1F480910B0180FD1AC0EE3FBE
:102040008AE0F80789F587E797E791838083809195
:1020500060008093140388E19BE00FB6F894A89584
:10206000809360000FBE9093600067CEEEEFFAE0C1
:10207000D5CF808191818737974709F05ECEA895AB
:102080008091600088618093600080911403809348
:102090006000EE3F2AE0F20789F08091FE0A9091FD
:1020A000FF0A9183808349CE808191818737980789
:1020B00051F29093FF0A8093FE0AC5CF1092FF0A57
:1020C0001092FE0A3ACE0E94FC02DC0112960D919B
:1020D0001C910115110509F4E8CED801ED91FC9190
:1020E0000190F081E02DBE016B5E7F4FC801099524
:1020F000811123CEF80100851185EBCF1816190642
:102100000CF41BCED2CEF1E0FF12BECE62EF70E037
:1021100004CF1F920F920FB60F9211242F933F936B
:102120004F935F936F937F938F939F93AF93BF93DF
:10213000EF93FF93CF93DF9300D01F92CDB7DEB71D
:1021400083B1898389819091900389278A838091C3
:102150006B009A8189238B838B8180FF05C0E0917E
:102160000003F091010309958B8181FF05C0E09187
:102170000203F091030309958B8182FF05C0E09172
:102180000403F091050309958B8183FF05C0E0915D
:102190000603F091070309958B8184FF05C0E09148
:1021A0000803F091090309958B8185FF05C0E09133
:1021B0000A03F0910B0309958B8186FF05C0E0911E
:1021C0000C03F0910D0309958B8187FF05C0E09109
:1021D0000E03F0910F0309958981809390030F906E
:1021E0000F900F90DF91CF91FF91EF91BF91AF9141
:1021F0009F918F917F916F915F914F913F912F911F
:102200000F900FBE0F901F9018951F920F920FB650
:102210000F9211242F933F934F935F936F937F936C
:102220008F939F93AF93BF93EF93FF938091F503A9
:102230009091F6032091F3033091F403AC01421B1B
:10224000530B5093EA034093E9039093F403809374
:10225000F30380912E0490912F0420912C0430914F
:102260002D04AC01421B530B5093230440932204D2
:1022700090932D0480932C048091E803813021F009
:102280008091E803823021F486EE93E00E943508C5
:1022900080912104813021F080912104823021F449
:1022A0008FE194E00E943508FF91EF91BF91AF91CB
:1022B0009F918F917F916F915F914F913F912F915E
:1022C0000F900FBE0F901F901895CF93DF93E0E40F
:1022D000F3E01382128288EE93E0A0E0B0E0848302
:1022E0009583A683B7838EE391E0918380838FEFFC
:1022F0009FEF9587848783B180939003E6EEF3E0A8
:102300001282148213821582168217821086128618
:1023100011862CE231E03487238716861586108AD1
:102320001786128A118A148A138A40E050E060EA04
:1023300070E4458B568B678B708F80E090E0A0E057
:10234000BFE3818F928FA38FB48F158E168E178E59
:1023500010A211A212A213A214A215A216A217A2D1
:1023600010A611A612A613A614A615A616A617A6A1
:1023700010AA11AA12AA13AA14AA15AA16AA17AA71
:1023800010AEC8E6D1E0D183C08313AE15AE14AE53
:10239000109224041092250410922604109227040F
:1023A000109229041092280430932B0420932A04BD
:1023B00010922D0410922C0410922F0410922E04CF
:1023C00010923104109230041092330410923204AF
:1023D000409334045093350460933604709337046B
:1023E0008093380490933904A0933A04B0933B044B
:1023F00010923C0410923D0410923E0410923F044F
:10240000109240041092410410924204109243042E
:10241000109244041092450410924604109247040E
:10242000109248041092490410924A0410924B04EE
:1024300010924C0410924D0410924E0410924F04CE
:1024400010925004109251041092520410925304AE
:10245000109254041092550410925604109257048E
:1024600082E691E092AF81AF8EED95E3AAE7BCE3FF
:102470008093580490935904A0935A04B0935B043A
:1024800083E393E3ABEEB0E480935C0490935D044C
:10249000A0935E04B0935F0480E190E090936104A8
:1024A00080936004EEEDF3E0128215828CE591E0FA
:1024B00091838083E6EDF3E01282158286E591E058
:1024C00091838083EAECF3E01282158210868EE01D
:1024D000818791E09287938720E531E031832083E3
:1024E000E3EBF3E0108213821482158216824AE035
:1024F00050E060E070E04783508761877287138601
:102500001486158616861786108A118A128A40E06C
:1025100050E066EC72E4438B548B658B768B91E1D3
:1025200091839CE09283EBE9F3E080831282118235
:1025300013821482158216821782108611861286E3
:1025400013861486158616861786108A118A128AB3
:10255000138A148A158A168A178AE1E9F3E083E060
:1025600090E0A0E0B0E080839183A283B3838BE00E
:1025700090E09583848384E090E0978386838DE068
:1025800090E091878087DF91CF910895789484B50A
:10259000826084BD84B5816084BD85B5826085BD5F
:1025A00085B5816085BD80916E00816080936E00ED
:1025B00010928100809181008260809381008091DF
:1025C0008100816080938100809180008160809390
:1025D00080008091910082608093910080919100B1
:1025E0008160809391008091900081608093900041
:1025F0008091C10084608093C1008091C10082609D
:102600008093C1008091C10081608093C10080915E
:10261000C30081608093C3008091C000826080937A
:10262000C0008091C20081608093C20080917A00D6
:10263000846080937A0080917A00826080937A002F
:1026400080917A00816080937A0080917A0080681E
:1026500080937A0010923B03109217031092160396
:102660008091D70081608093D70080EA8093D80062
:1026700089B5806189BD89B5826089BD09B400FED4
:10268000FDCF61E070E080E090E00E94380480912E
:10269000D8008F7C80618093D8008091E000807F9B
:1026A0008093E0008091E1008E7E8093E1008DE0D8
:1026B0008093E200559A209A8EE691E00E946A0C7F
:1026C0002E98269A2D98259A2A98229A2998219A06
:1026D0002F98279AF8948AEA8093800089E1809362
:1026E000810084EA91E090938700809386001092A5
:1026F00089001092880010928B0010928A0010922C
:102700008D0010928C0078948DE691E00E946A0C06
:102710008CE791E00E946A0C24982C9A6A98729A2D
:102720006E98769A8098889A6EE479E084E00E94A8
:102730000C0865E679E084E00E940A016CB1262F5E
:1027400030E0359527953595279583B1422F417017
:10275000682F70E034E0759567953A95E1F7622748
:10276000617086EE93E00E941E0986EE93E00E945F
:1027700070096CB1262F30E0359527953595279552
:1027800083B1422F4170682F70E054E075956795D2
:102790005A95E1F7622761708FE194E00E941E096B
:1027A0008FE194E00E9470098BE791E00E946A0C2F
:1027B000F8941092C0008BE08093C1001092C20088
:1027C0001092C30089EF8093D10084E0809372005F
:1027D000789460E080919B030E94B30380919B03F7
:1027E000843018F0873009F061C18BE891E00E94D5
:1027F0006A0C80919B03882309F450C1813009F44D
:102800004FC1823009F44EC1833009F44DC1873085
:1028100029F484E06CEB79E00E940A0160E0809189
:10282000B4030E94B3038091B403843018F087305E
:1028300009F057C18AEA91E00E946A0C8091B403C2
:10284000882309F446C1813009F445C1823009F476
:1028500044C1833009F443C1873029F484E06AE736
:1028600079E00E940A0161E08091B5030E94B30300
:1028700061E0809195030E94B30361E0809197032A
:102880000E94B30361E0809199030E94B30360E06A
:1028900080E00E94B30360E081E00E94B30388EA15
:1028A0008093800081E18093810080E991E09093A2
:1028B00087008093860010928D0010928C0066E84D
:1028C0007BE082E00E940A016EE57BE083E00E94EB
:1028D0000A01F89410923C0310923D0310923E03BB
:1028E00010923F037894F89410923C0310923D03A9
:1028F00010923E0310923F03789488EE93E09093F9
:10290000100180930F0180ED97E090931201809366
:10291000110160E08EE00E94B3038FEF9FEF909370
:102920004D0380934C0310922403109223031092C2
:10293000200310921F0386ED93E00E94A70C8823CA
:10294000D1F36AE070E080E090E00E94380486ED08
:1029500093E00E94A70C882371F386ED93E00E9418
:10296000A70C8111FACF6AE070E080E090E00E944D
:10297000380486ED93E00E94A70C8111EECF0E94EF
:102980001B0B0E94180B0E94560520E030E040E22D
:1029900052E460E070E080EF91E40E947A046CE21F
:1029A00071E080E090E00E9438040E94180B8A3F9A
:1029B00091057CF420E030E040E751E460E070E015
:1029C00080E791EC0E9447010E94180B8A3F910515
:1029D00064F30E940B0968EE73E080E090E00E94CF
:1029E0003804C6E0D0E022242394312C80919C034B
:1029F00090919D030497A1F510929D0310929C0362
:102A00008091A2039091A303A091A403B091A50388
:102A10008A2F90E08830910509F076C080912303D9
:102A200090912403909322038093210320911F030C
:102A3000309120033093190320931803D09324037B
:102A4000C0932303D0932003C0931F03069721F460
:102A500081EE91E00E945D0C89E092E00E946A0C98
:102A6000E0912303F0912403E231F10508F09BC0CB
:102A7000E45CFA4E0C94F01AAE154B165B17CA17AD
:102A8000DB159117F817FF17D516FE162317271811
:102A9000DC1803199119121A591AA41A82E0BACE35
:102AA00083E0B8CE81E0B6CE80E0B4CE89E991E093
:102AB0000E946A0CE0919B03E8508FEFEA3020F40B
:102AC000F0E0E05DFE4F80816CEB79E00E940C0845
:102AD000A5CE82E0C4CE83E0C2CE81E0C0CE80E04D
:102AE000BECE84EC91E00E946A0CE091B403E85001
:102AF0008FEFEA3020F4F0E0E05DFE4F80816AE77E
:102B000079E00E940C08AFCE85319105A9F480913F
:102B100021039091220390932403809323038091B7
:102B20001803909119039093200380931F0388E169
:102B300092E00E945D0C94CF8D30910529F41092A3
:102B40002403109223038CCF409709F089CF88E0AB
:102B500090E0909324038093230382CF0E941E0B66
:102B60000E94180B8B3F9105F4F00E941B0B8B3FCA
:102B70009105CCF020E030E0A901CA01B9010E9422
:102B8000470184E090E09093220380932103D09347
:102B90002403C09323039093200380931F0388E2B0
:102BA00092E00E946A0C80E090E0892B09F41ECF2D
:102BB0000E94000018CF85E392E00E946A0C809189
:102BC0001E0390910C01992309F440C081114DC05E
:102BD00085E590E090931B0380931A03D093240320
:102BE000C093230388E090E0909322038093210315
:102BF0009093200380931F0301E020E030E040E247
:102C000051E46CE57FE88AEE90E40E94E60460916E
:102C10001A0370911B03072E000C880B990B0E945E
:102C2000121C20E030E048EC52E40E947A048BE36E
:102C300092E00E946A0C86EE93E00E9470098FE198
:102C400094E00E94700984E492E0ABCF811120C02F
:102C50008BEA9FEF90931B0380931A03D093240376
:102C6000C093230389E090E0BFCF85E590E0909387
:102C70001B0380931A03D0932403C0932303309241
:102C80002203209221033092200320921F03B4CF0D
:102C90008BEA9FEFECCF0E94180B7C010E941B0B6C
:102CA000B701681B790B072E000C880B990B0E944B
:102CB000121C2AE037ED43E25CE30E94C71C6B0163
:102CC0007C010E9456052B013C0120E030E040E2EF
:102CD00051E4C701B6010E94F71A4B015C01A30140
:102CE000920160E070E080EF91E40E94681B9B011C
:102CF000AC01C501B4010E94F61A4B015C010E94AF
:102D000056052B013C01A701960160E070E080E2CE
:102D100091E40E94F61A6B017C01A301920160E02C
:102D200070E080EF91E40E94681B9B01AC01C70139
:102D3000B6010E94F61A9B01AC01C501B4010E94C4
:102D400047010E94560520E030E040E351E40E9434
:102D5000631B18160CF427CF20E030E0A901CA014C
:102D6000B9010E94470180911E03D0932403C093B0
:102D7000230381110DC08BE090E090932203809398
:102D800021039093200380931F038CE592E009CFE9
:102D90008EE090E090932203809321039093200390
:102DA00080931F0389E692E0FCCE87E792E00E94C1
:102DB0006A0C60E873EF8FEF9FEF0E94D60BF894D8
:102DC00080913C0390913D03A0913E03B0913F035D
:102DD00078948039934FAF4FBF4F0CF0E4CE3092D0
:102DE000220320922103D0932403C0932303309223
:102DF000200320921F0380E992E0D3CE64EC70EFB1
:102E00008FEF9FEF0E94D60BF89480913C03909136
:102E10003D03A0913E03B0913F037894843D904FD1
:102E2000AF4FBF4F0CF0BFCE309222032092210350
:102E3000D0932403C09323033092200320921F03D6
:102E40008EE992E0AECE8CEA92E00E946A0C20E01D
:102E500030E048EC51ECCA01B9010E94470167ED2E
:102E600070E080E090E00E94380420E030E048EC20
:102E700051E460E070E08AE293E40E947A0401E0A9
:102E800020E030E040E251E460E070E080EC90EC63
:102E90000E94E60482E090E0909322038093210355
:102EA000D0932403C09323039093200380931F03A4
:102EB0008CEB92E076CE0E941E0B0E94180B8B3F8B
:102EC00091050CF470CE0E941B0B8B3F91050CF406
:102ED0006ACE20E030E0A901CA01B9010E94470191
:102EE00085E090E09093220380932103D093240304
:102EF000C09323039093200380931F0381EC92E0FF
:102F00000E946A0C86EE93E00E947009F89480910A
:102F1000F5039091F603789490931D0380931C031E
:102F200042CE85E392E00E946A0C01E020E030E0AE
:102F300040E251E46CE57FE88AEE90E40E94E6040A
:102F400060911A0370911B03719561957109072EA9
:102F5000000C880B990B0E94121C20E030E048EC1A
:102F600052E40E947A0483E090E0909322038093DD
:102F70002103D0932403C0932303909320038093D1
:102F80001F0386EE93E00E9470098FE194E00E9497
:102F9000700909CE0E941E0BF8948091F503909160
:102FA000F60378948C3D96400CF4FDCDF894809116
:102FB0002E0490912F0478948C3D96400CF4F3CD20
:102FC00020E030E0A901CA01B9010E944701D09375
:102FD0002403C093230387E090E09093220380931F
:102FE00021039093200380931F038EEC92E0D9CDB0
:102FF0000E940B0990E080E00E94AE0BD4CD8BEDD7
:1030000092E00E946A0C60E070E0CB010E94D60B57
:10301000F89480913C0390913D03A0913E03B091C0
:103020003F0378948B3F9F4FAF4FBF4F0CF4BBCD06
:103030008CE090E09093220380932103D0932403AB
:10304000C09323039093200380931F03D4CE68EE94
:1030500073E08DE091E00E94BA0760E273E080E0E7
:1030600090E00E9438048DE091E00E94E10701E0C9
:1030700020E030E040E751E46DEC7CEC8CED90E436
:103080000E94E60466ED76E08DE091E00E94BA07CA
:1030900068E775E080E090E00E9438048DE091E000
:1030A0000E94E10764EF71E080E090E00E94380444
:1030B00080910C01882309F441C060E670EF8FEF26
:1030C0009FEF0E94D60B64E670E080E090E00E94E3
:1030D000380420E030E040E051E463E373E383EF41
:1030E0009FE30E94E6046AE070E080E090E00E94C6
:1030F000380464EA7DEE8FEF9FEF0E94D60B64E602
:1031000070E080E090E00E94380420E030E040E091
:1031100051E460E070E080E490E40E94E6048AE01C
:1031200090E09093220380932103D0932403C093D3
:1031300023039093200380931F0335CD64EA7DEE33
:103140008FEF9FEF0E94D60B64E670E080E090E086
:103150000E94380486EE92E00E945D0C01E020E0BF
:1031600030E040E051E463E373E383EF9FE30E94C8
:10317000E6046AE070E080E090E00E94380489EEA6
:1031800092E00E946A0C68EE7AEE8FEF9FEF0E9449
:10319000D60B8AE090E09093220380932103D09392
:1031A0002403C09323039093200380931F038BEE8B
:1031B00092E00E945D0CF7CC68EE73E08DE091E048
:1031C0000E94BA076CEB72E080E090E00E94380445
:1031D0008DE091E00E94E1076AE070E080E090E01D
:1031E0000E94380401E020E030E040E251E460E079
:1031F00070E080EF91EC0E94E60481E080931E0372
:103200008DE090E08ECF0E94180B7C010E941B0B7A
:10321000B701681B790B072E000C880B990B0E94D5
:10322000121C2AE037ED43E25CE30E94C71C6B01ED
:103230007C01AC019B0160E070E080E291E40E94BF
:10324000F61A4B015C0120E030E040E251E4C70196
:10325000B6010E94F71AA50194010E944701F89453
:103260008091F5039091F60378948C3D96400CF490
:103270009ACCF89480912E0490912F0478948C3DF0
:1032800096400CF490CC20E030E0A901CA01B901CD
:103290000E94470160ED77E08DE091E00E94BA075F
:1032A0006CEB72E080E090E00E9438048DE091E0E9
:1032B0000E94E10764E170E080E090E00E94380441
:1032C00080910C01882341F164EC70EF8FEF9FEF48
:1032D0000E94D60B01E020E030E040E451E460E0E1
:1032E00070E080EA90EC0E94E60420E030E040EAE2
:1032F00051E460E070E08FE293E40E947A0410925F
:10330000220310922103D0932403C093230310922D
:10331000200310921F0347CC68E07EEE8FEF9FEFF3
:10332000D7CF80910C01882309F442C068EE7AEE71
:103330008FEF9FEF0E94D60B6AE070E080E090E094
:103340000E94380401E020E030E040E251E46DECFE
:103350007CEC8CEF90E40E94E60464E670E080E090
:1033600090E00E9438046CED7CEE8FEF9FEF0E949E
:10337000D60B64EF71E080E090E00E94380468EEC4
:1033800073E08DE091E00E94BA076CEB72E080E0A0
:1033900090E00E9438048DE091E00E94E10764E330
:1033A0007FEE8FEF9FEF0E94D60B8FE090E0B9CEBB
:1033B00064E17CEE8FEF9FEF0E94D60B6AE070E035
:1033C00080E090E00E94380401E020E030E040E23C
:1033D00051E466E676E686EF90E40E94E60464E651
:1033E00070E080E090E00E94380468E07EEE8FEFAD
:1033F0009FEF0E94D60B64EF71E080E090E00E94A6
:10340000380468EE73E08DE091E00E94BA076CEB3F
:1034100072E080E090E00E9438048DE091E00E942C
:10342000E107C3CF20E030E048EC51ECCA01B9011C
:103430000E94470167ED70E080E090E00E94380450
:1034400020E030E048EC51E460E070E08AE293E490
:103450000E947A0400E020E030E040E251E460E0C5
:1034600070E080EC90EC0E94E6046CE271E080E099
:1034700090E00E94380460ED77E08DE091E00E94DA
:10348000BA076CEB72E080E090E00E9438048DE0B7
:1034900091E00E94E10764E170E080E090E00E942A
:1034A000380460E070E0CB010E94D60B80E190E030
:1034B00038CE0E941E0B0E94180B8B3F91050CF416
:1034C00072CB0E941B0B8B3F91050CF46CCB01E07F
:1034D00020E030E040E251E46CE57FE88AEE90E4E1
:1034E0000E94E60460911A0370911B037195619527
:1034F0007109072E000C880B990B0E94121C6B019E
:103500007C0120E030E040EA51E40E947A0420E0AF
:1035100030E040EA51E460E070E080EB91E40E942A
:10352000E60420E030E040EA51E4C701B6010E9421
:103530007A04D0932403C093230381E190E0909315
:10354000220380932103F5CD20E030E048EC51E4E4
:10355000CA01B9010E9447010E94180B8B3F9105D7
:103560000CF421CB0E941B0B8B3F91050CF41BCB61
:1035700020E030E0A901CA01B9010E94470164E6D8
:1035800070E080E090E00E94380401E020E030E04C
:1035900048EC51E460E070E088EF90E40E94E604BB
:1035A00060911A0370911B03719561957109072E43
:1035B000000C880B990B0E94121C20E030E040E7C1
:1035C00051E40E947A0480910C01882329F0109222
:1035D0000C0110921E0393CE81E080930C01F9CF71
:1035E000EE0FFF1F0590F491E02D09945058BB2772
:1035F000AA270E940E1B0C94881C0E947A1C38F08B
:103600000E94811C20F039F49F3F19F426F40C9499
:10361000771C0EF4E095E7FB0C94711CE92F0E94D7
:10362000991C58F3BA17620773078407950720F0AF
:1036300079F4A6F50C94BB1C0EF4E0950B2EBA2F72
:10364000A02D0B01B90190010C01CA01A0011124A8
:10365000FF27591B99F0593F50F4503E68F11A1654
:10366000F040A22F232F342F4427585FF3CF4695E5
:1036700037952795A795F0405395C9F77EF41F1607
:10368000BA0B620B730B840BBAF09150A1F0FF0FD1
:10369000BB1F661F771F881FC2F70EC0BA0F621FBD
:1036A000731F841F48F4879577956795B795F795AD
:1036B0009E3F08F0B0CF9395880F08F09927EE0F42
:1036C0009795879508950E944D1C08F481E0089510
:1036D0000E947C1B0C94881C0E94811C58F00E9444
:1036E0007A1C40F029F45F3F29F00C94711C5111B1
:1036F0000C94BC1C0C94771C0E94991C68F39923B1
:10370000B1F3552391F3951B550BBB27AA276217DD
:103710007307840738F09F5F5F4F220F331F441FEA
:10372000AA1FA9F335D00E2E3AF0E0E832D091501E
:103730005040E695001CCAF72BD0FE2F29D0660F0B
:10374000771F881FBB1F261737074807AB07B0E84E
:1037500009F0BB0B802DBF01FF2793585F4F3AF054
:103760009E3F510578F00C94711C0C94BC1C5F3F7B
:10377000E4F3983ED4F3869577956795B795F795DA
:103780009F5FC9F7880F911D9695879597F90895C2
:10379000E1E0660F771F881FBB1F6217730784075E
:1037A000BA0720F0621B730B840BBA0BEE1F88F76D
:1037B000E09508950E94E11B6894B1110C94BC1C23
:1037C00008950E94A11C88F09F5798F0B92F99275F
:1037D000B751B0F0E1F0660F771F881F991F1AF0FC
:1037E000BA95C9F714C0B13091F00E94BB1CB1E08A
:1037F00008950C94BB1C672F782F8827B85F39F089
:10380000B93FCCF3869577956795B395D9F73EF494
:1038100090958095709561957F4F8F4F9F4F08953C
:10382000E89409C097FB3EF490958095709561955A
:103830007F4F8F4F9F4F9923A9F0F92F96E9BB2710
:103840009395F695879577956795B795F111F8CF8C
:10385000FAF4BB0F11F460FF1BC06F5F7F4F8F4FF7
:103860009F4F16C0882311F096E911C0772321F0ED
:103870009EE8872F762F05C0662371F096E8862F85
:1038800070E060E02AF09A95660F771F881FDAF7DC
:10389000880F9695879597F90895990F0008550F09
:1038A000AA0BE0E8FEEF16161706E807F907C0F0C6
:1038B00012161306E407F50798F0621B730B840BCE
:1038C000950B39F40A2661F0232B242B252B21F4A8
:1038D00008950A2609F4A140A6958FEF811D811D48
:1038E000089597F99F6780E870E060E008959FEF82
:1038F00080EC089500240A94161617061806090687
:10390000089500240A941216130614060506089555
:10391000092E0394000C11F4882352F0BB0F40F4DD
:10392000BF2B11F460FF04C06F5F7F4F8F4F9F4F1D
:10393000089557FD9058440F551F59F05F3F71F09F
:103940004795880F97FB991F61F09F3F79F0879506
:103950000895121613061406551FF2CF4695F1DF8F
:1039600008C0161617061806991FF1CF869571051F
:10397000610508940895E894BB2766277727CB0153
:1039800097F908950E944D1C08F48FEF08950E9446
:10399000DA1C0C94881C0E947A1C38F00E94811C4E
:1039A00020F0952311F00C94711C0C94771C1124B9
:1039B0000C94BC1C0E94991C70F3959FC1F3950F49
:1039C00050E0551F629FF001729FBB27F00DB11DA3
:1039D000639FAA27F00DB11DAA1F649F6627B00D33
:1039E000A11D661F829F2227B00DA11D621F739F1C
:1039F000B00DA11D621F839FA00D611D221F749F2A
:103A00003327A00D611D231F849F600D211D822F70
:103A1000762F6A2F11249F5750409AF0F1F0882397
:103A20004AF0EE0FFF1FBB1F661F771F881F9150C4
:103A30005040A9F79E3F510580F00C94711C0C94E6
:103A4000BC1C5F3FE4F3983ED4F386957795679569
:103A5000B795F795E7959F5FC1F7FE2B880F911DEE
:103A60009695879597F9089581E090E0F8940C94E5
:063A7000391DF894FFCFA0
:103A7600FFFFFFFF00E1000000000000012301E856
:103A860003D007FF00EE05EE05EE05EE05EE050098
:103A9600000000EC07E107BA0700C18081000000C2
:103AA60004050607FFFF03010200000000003907B6
:103AB600B4065A074F07A0075E077C070000000000
:103AC6009B0900000000A70C000000007A0C000013
:103AD6000000D90800000000F2080D0A002F696EE8
:103AE60069744D6F746F72732829002F696E69743B
:103AF600456E636F6465727328290041747461634F
:103B060068696E672049535200417474616368693D
:103B16006E672050435F4953520041747461636875
:103B2600696E672072616E676566696E646572208C
:103B360049535200417474616368696E672072610B
:103B46006E676566696E6465722050435F495352BD
:103B56000073746F7070656420647572696E672097
:103B660053544148502E20726573746172742072EA
:103B7600657175697265642E00456D657267656E5F
:103B860063792053746F70002873746174652063C1
:103B960068616E6765292000436865636B706F69AD
:103BA6006E74203100436865636B006469726563F7
:103BB600746564006C656176696E67207374617400
:103BC6006520494E54455253454354004368656346
:103BD6006B706F696E74203400626567696E206F62
:103BE60066666C6F616400736973797068757320BB
:103BF600616E642074686520626F756C646572001E
:103C0600436865636B706F696E7420336100436847
:103C160065636B706F696E7420336200746F204F3A
:103C26004E4545494748545A45524F005370756EA4
:103C360000436865636B706F696E74203500436876
:103C460065636B706F696E742036006465706F73A0
:103C56006974696E670031200032005374617465BF
:103C6600206368616E67653A204752414220000032
:00000001FF
