:100000000C94E0000C941F0D0C94F80C0C94D10C83
:100010000C94AA0C0C9408010C9408010C94830C09
:100020000C9408010C94E70F0C94460D0C94B50D3C
:100030000C9408010C9408010C9408010C9408011C
:100040000C9408010C9408010C9408010C9408010C
:100050000C9408010C9408010C9408010C94390CC0
:100060000C9408010C9408010C9408010C940801EC
:100070000C9408010C9408010C9408010C940801DC
:100080000C9408010C9408010C9408010C940801CC
:100090000C9408010C9408010C9408010C940801BC
:1000A0000C9408010C9463100C940801080B0002D6
:1000B0000202000009040000010202000005240001
:1000C0001001052401010104240206052406000193
:1000D0000705810310004009040100020A00000026
:1000E00007050202400000070583024000000403E8
:1000F000090412010002EF020140FB1F002300016E
:1001000001020301506F6C6F6C7520436F72706F4A
:10011000726174696F6E00506F6C6F6C7520412D49
:100120005374617220333255340007060504010010
:10013000080A0B0C0D0900000000240027002A000B
:100140002D00300000000000250028002B002E00AC
:100150003100000000002300260029002C002F00A1
:10016000040404040403040502020202040302025C
:10017000020206060606060604040202020404043D
:100180000802011040804010204080408008020496
:10019000018040201002011080102040402000000B
:1001A000000200090F0000030401000C0000000021
:1001B0000000000000000000000000000000C3106C
:1001C00011241FBECFEFDAE0DEBFCDBF12E0A0E00A
:1001D000B1E0E4EBF3E302C005900D92AE33B1075A
:1001E000D9F723E0AEE3B2E001C01D92A13CB20713
:1001F000E1F710E0C0EED0E004C02197FE010E94BC
:100200008F17CF3DD107C9F70E9423120C94D8193C
:100210000C940000E82FF0E0EE0FFF1FEC5EFE4FA5
:10022000718360838230D9F028F4882341F08130D3
:1002300071F008958330D9F0843009F108958091E8
:1002400069008C7F816080936900E89A08958091AD
:100250006900837F846080936900E99A08958091A2
:1002600069008F7C806180936900EA9A089580918B
:1002700069008F73806480936900EB9A0895809180
:100280006A008F7C806180936A00EE9A08954F9295
:100290005F926F927F928F929F92AF92BF92CF9216
:1002A000DF92EF92FF92CF93DF9300D000D0CDB7D3
:1002B000DEB769837A838B839C8329013A0160913D
:1002C000BF037091C00390E080E00E94AF1820E06F
:1002D00030E04AE754E40E9407184B015C01C090EB
:1002E000B703D090B803E090B903F090BA03A3012C
:1002F00092010E946619A70196010E9407180E94A8
:1003000079182B0129813A814B815C81C501B401A7
:100310000E946619A70196010E9407180E94791889
:10032000072E000C880B990B0E94B11860934A03AA
:1003300070934B0380934C0390934D03809147033C
:10034000813081F010926E0310926F03109270034F
:10035000109271038091540390915503909353032D
:100360008093520381E080934703B201550C880BC0
:10037000990B0E94B1186093830370938403809358
:1003800085039093860380918003813081F01092E1
:10039000A7031092A8031092A9031092AA038091B8
:1003A0008D0390918E0390938C0380938B0381E057
:1003B000809380030F900F900F900F90DF91CF915B
:1003C000FF90EF90DF90CF90BF90AF909F908F9075
:1003D0007F906F905F904F9008954F925F926F92D1
:1003E0007F928F929F92AF92BF92CF92DF92EF92C5
:1003F000FF92CF93DF93CDB7DEB728970FB6F8946F
:10040000DEBF0FBECDBF4B015C012D833E834F830A
:1004100058876091BF037091C00390E080E00E9414
:10042000AF1820E030E04AE754E40E9407186B015F
:100430007C014090B7035090B8036090B90370906E
:10044000BA03A50194010E946619A30192010E94BA
:1004500007180E94791869837A838B839C8323EC25
:1004600035EF48E450E46091BB037091BC03809188
:10047000BD039091BE030E94661920E030E044E382
:1004800053E40E9407184B015C012D813E814F818E
:100490005885C701B6010E9466199B01AC01C501D0
:1004A000B4010E946619A30192010E9407180E94DC
:1004B00079186B0169817A816C197D09072E000C0E
:1004C000880B990B0E94B11860934A0370934B03F9
:1004D00080934C0390934D0380914703813081F0CA
:1004E00010926E0310926F031092700310927103BA
:1004F000809154039091550390935303809352033A
:1005000081E08093470389819A81C80ED91EB60184
:10051000DD0C880B990B0E94B118609383037093D4
:1005200084038093850390938603809180038130B8
:1005300081F01092A7031092A8031092A9031092C1
:10054000AA0380918D0390918E0390938C038093E6
:100550008B0381E08093800328960FB6F894DEBF6A
:100560000FBECDBFDF91CF91FF90EF90DF90CF9086
:10057000BF90AF909F908F907F906F905F904F90C3
:100580000895FC0180917002882311F13FB7F8941F
:1005900082E08093E9002091F200822F90E018160B
:1005A000190614F481E090E0882339F0289844E695
:1005B00040936F024091F1004083222339F0209153
:1005C000F200211103C02BE62093E8003FBF0895FD
:1005D0008FEF9FEF08952FB7F89483E08093E900A1
:1005E0009091E800892F807295FF04C09091F200ED
:1005F00080E4891B2FBF08958091670281110DC08F
:1006000082E08093630284E0809364021092660229
:100610001092650281E08093670283E692E008957C
:1006200081508F3008F047C0E82FF0E0E65EFC4FC5
:100630000C948F1737033B0329032F0333035B030A
:100640005B035B033E03440348034C0352035B0319
:100650005603809180008F77809380000895809169
:1006600080008F7DF9CF80918000877FF5CF84B5A2
:100670008F7784BD089584B58F7DFBCF80919000E6
:100680008F77809390000895809190008F7DF9CFAF
:1006900080919000877FF5CF8091C0008F77809305
:1006A000C00008958091C0008F7DF9CF8091C20075
:1006B000877F8093C2000895CF93DF93282F30E087
:1006C000F901E256FE4F8491F901E158FE4FD491B1
:1006D000F901E05AFE4FC491CC23A1F081110E9490
:1006E0001003EC2FF0E0EE0FFF1FEE5AFE4FA59126
:1006F000B491EC91ED2381E090E009F480E0DF918A
:10070000CF91089580E090E0FACF1F93CF93DF93CD
:10071000282F30E0F901E256FE4F8491F901E158AB
:10072000FE4FD491F901E05AFE4FC491CC23A9F0B9
:10073000162F81110E941003EC2FF0E0EE0FFF1F27
:10074000EC5BFE4FA591B4918FB7F894EC91111129
:1007500008C0D095DE23DC938FBFDF91CF911F912E
:100760000895DE2BF8CFCF93DF9390E0FC01E158A2
:10077000FE4F2491805A9E4FFC0184918823C9F03A
:1007800090E0880F991FFC01EA5CFE4FA591B4919F
:10079000FC01EC5BFE4FC591D49161110DC09FB778
:1007A000F8948C91209582238C9388812823288328
:1007B0009FBFDF91CF910895623051F49FB7F894B5
:1007C0003C91822F809583238C93E8812E2BEFCF51
:1007D0008FB7F894EC912E2B2C938FBFEACF8231F8
:1007E00008F08251E82FF0E0E65DFE4FE491909131
:1007F0007B008E2F880F880F80729F7D892B8093BE
:100800007B00E770E064E0937C0080917A00806474
:1008100080937A0080917A0086FDFCCF80917800E9
:100820009091790008953FB7F89480915F0290917C
:100830006002A0916102B091620226B5A89B05C03A
:100840002F3F19F00196A11DB11D3FBFBA2FA92F4F
:10085000982F8827BC01CD01620F711D811D911D4C
:1008600042E0660F771F881F991F4A95D1F70895B8
:100870008F929F92AF92BF92CF92DF92EF92FF92B0
:100880004B015C010E9413046B017C010E94130464
:100890006C197D098E099F09683E73408105910599
:1008A000A8F321E0821A9108A108B10888EEC80EC9
:1008B00083E0D81EE11CF11C81149104A104B10451
:1008C00029F7FF90EF90DF90CF90BF90AF909F906F
:1008D0008F90089580914703811104C08091800317
:1008E000882339F061E070E080E090E00E943804F5
:1008F000F1CF0895CF92DF92EF92FF926B017C01CE
:1009000020E030E0A9010E94611920E030E048ECCD
:1009100052EC181624F420E030E048EC52E460E099
:1009200070E0CB010E94ED0123EC35EF48E450E488
:100930006091BB037091BC038091BD039091BE0395
:100940000E94661920E030E044E353E40E94071857
:10095000A70196010E9466192091B7033091B80350
:100960004091B9035091BA030E9407180E94791868
:10097000F89420915403309155037894261B370B3B
:1009800030934F0320934E0322E020934703F894C3
:1009900040918D0350918E037894CA01860F971F62
:1009A000909388038093870320938003FF90EF90B8
:1009B000DF90CF900C946A040895409150025091BA
:1009C000510220914E0230914F0242175307B4F466
:1009D0009091E8009570E1F39091E80092FD19C0C4
:1009E0008093F100809150029091510201968F7393
:1009F0009927892B19F48EEF8093E800809150029B
:100A0000909151020196909351028093500281E09F
:100A1000089580E00895EF92FF920F931F93CF9374
:100A2000DF93F82E192FE62E042F81E0860F880F12
:100A30000E94DD0483E00E94DD04CF2DD12FEC0E57
:100A4000FD2EF11CCE15DF05B9F007FF13C0FE0126
:100A500084910E94DD04182F80E00E94DD04812330
:100A600021968111EFCFDF91CF911F910F91FF90D0
:100A7000EF9008958881EDCF81E0F5CFDF92EF927E
:100A8000FF920F931F93CF93DF93D82E8A01EB0130
:100A90007B01E40EF51ECE15DF0559F0D7FE12C01E
:100AA000FE0184910E94DD0421968111F4CF0FEFA5
:100AB0001FEFC801DF91CF911F910F91FF90EF9031
:100AC000DF9008958881EECF0F931F93CF93DF932C
:100AD0001F92CDB7DEB782E0898342E450E06CEA32
:100AE00070E080E80E943E050E94FC02DC01129644
:100AF0000D911C910115110589F0D801ED91FC9122
:100B00000280F381E02DBE016F5F7F4FC801099520
:100B100097FD04C0F80100851185ECCF89810F9005
:100B2000DF91CF911F910F910895615030F0209186
:100B3000F100FC0120830196F8CF289884E6809389
:100B40006F0208958F929F92AF92BF92CF92DF92E1
:100B5000EF92FF920F931F93CF93DF936C017B0172
:100B60008A0180910B01882309F45CC08091700296
:100B7000882309F457C08091540280FF05C08091FA
:100B8000E00082608093E000E801B12C8AEFA82E9B
:100B900093E0892E2AE3922E209711F4BB20D9F1FD
:100BA0000E94EB0281110AC0AA94AA20D9F161E047
:100BB00070E080E090E00E943804EECF8C171D06B4
:100BC00011F00CF08C2F9FB7F8948092E9002091DF
:100BD000E80025FD02C09FBFDFCF282F30E0C21BF9
:100BE000D30BF701815020F041914093F100FACFEF
:100BF000E20EF31EBB2021F09092E800B12CEBCF67
:100C00008091E80085FDE7CF9092E800BB24B39483
:100C1000209709F3F3CF5D9884E680935302101672
:100C200011063CF081E090E0F6019383828310E0AE
:100C300000E0C801DF91CF911F910F91FF90EF90DD
:100C4000DF90CF90BF90AF909F908F900895CF93FB
:100C5000DF931F92CDB7DEB76983DC01ED91FC9184
:100C60000280F381E02D41E050E0BE016F5F7F4FD5
:100C700009950F90DF91CF91089583E08093E9006B
:100C80008091F200882319F08AE38093E8000895A8
:100C90000E94EB0290E00895CF93DF931F92CDB7AF
:100CA000DEB7FC018485958597FD08C02FEF3FEFE7
:100CB000358724870F90DF91CF910895CE0101965B
:100CC0000E94C102019719F4898190E0F3CF8FEF60
:100CD0009FEFF0CF0F931F93CF93DF931F92CDB76A
:100CE000DEB78C01FC018485958597FF0BC0CE0192
:100CF00001960E94C102019771F4898190E0F80188
:100D000095878487F801848595850F90DF91CF9131
:100D10001F910F9108958FEF9FEFF1CFFC01848514
:100D2000958597FD0BC09FB7F89482E08093E9000A
:100D30008091F2009FBF90E0019608959FB7F894CC
:100D400082E08093E9008091F2009FBF90E00895D7
:100D50000F931F93CF93DF93EC018B018F81811150
:100D600007C0E881F9810190F081E02DCE0109955D
:100D70008A819B810817190730F08C819D810817A3
:100D8000190708F4C801880F991F019790939900DB
:100D900080939800DF91CF911F910F910895DC010E
:100DA000F894E0E9F0E090819F779083789417962B
:100DB0001C920895CF93DF93EC0161E085E00E94DF
:100DC000B303F89482E8809390008AE180939100C5
:100DD0008FE39CE9909397008093960088EB9BE0CB
:100DE0009093990080939800789481E08F83DF91AD
:100DF000CF910895F89441E040936800ABE6B0E0ED
:100E00009C91E82FF0E021E030E001C0220F8A95AC
:100E1000EAF7892F822B8C93EE0FFF1FE25CFD4FC8
:100E2000718360834BBB9091D502822F809589237B
:100E30008093D50283B19091D5028223892B809330
:100E4000D502789408954F925F926F927F928F921D
:100E50009F92AF92BF92CF92DF92EF92FF92CF9389
:100E6000DF93EC016B817C81072E000C880B990BC2
:100E70000E94B1189B01AC016D817E818F819885A4
:100E80000E9495176B017C01C9A2DAA2EBA2FCA219
:100E900029A53AA54BA55CA50E9496174B015C01BC
:100EA00089A69AA6ABA6BCA64DA45EA46FA478A8FA
:100EB00020E030E0A901C301B2010E9461191816B7
:100EC0009CF4A50194015F77C301B2010E9402184E
:100ED00087FF0AC0A7019601C501B4010E949517BA
:100EE00069A77AA78BA79CA72DA13EA14FA158A5C2
:100EF000C701B6010E9495174B015C01CDA2DEA28D
:100F0000EFA2F8A629A53AA54BA55CA5698D7A8D17
:100F10008B8D9C8D0E9466192B013C012D893E8989
:100F20004F89588DC701B6010E9466199B01AC011B
:100F3000C301B2010E9496176B017C012D8D3E8D7D
:100F40004F8D58A1C501B4010E9466199B01AC01E7
:100F5000C701B6010E9496176DAB7EAB8FAB98AF01
:100F60000E947918E881F9810190F081E02DCE018D
:100F7000DF91CF91FF90EF90DF90CF90BF90AF9037
:100F80009F908F907F906F905F904F90099420E09A
:100F900077FF04C071956195710921E0FC0183859B
:100FA0009485681779070CF4CB019093890080939E
:100FB0008800222319F0299A219A08952998FCCFB4
:100FC00020E077FF04C071956195710921E0FC0173
:100FD00083859485681779070CF4CB0190938B0077
:100FE00080938A00222319F02A9A229A08952A9837
:100FF000FCCFCF93DF93EC0189899A8950E070E0B0
:101000002B893C89AF85B8898427952726273727E0
:10101000821B930B8A0F9B1F988B8F877A8B698B10
:101020005C8B4B8B8A81823089F42F853889898546
:101030009A852817390751F4E881F9810190F081E8
:10104000E02D70E060E0CE0109951A82DF91CF912A
:1010500008956CB1262F30E0359527953595279565
:1010600083B1422F4170682F70E094E075956795C9
:101070009A95E1F76227617085E493E00C94F90793
:101080004FB141706CB166FB662760F964278EE74B
:1010900093E00C94F907FC01F89487859089108AF5
:1010A00017861686158678940895809127030E94E6
:1010B0005C03892B59F00E941304609331037093F1
:1010C0003203809333039093340308950E941304F2
:1010D00060933503709336038093370390933803FE
:1010E000809126038260809326030895CF92DF9239
:1010F000EF92FF920F931F930E9413046B017C01E8
:1011000080910E030E945C03892B79F4C0921A032C
:10111000D0921B03E0921C03F0921D031F910F91CC
:10112000FF90EF90DF90CF900895C0921E03D09271
:101130001F03E0922003F092210340911E0350917F
:101140001F03609120037091210380911A039091F5
:101150001B03A0911C03B0911D03481B590B6A0B84
:101160007B0B80911E0390911F03A0912003B091EF
:101170002103C0902203D0902303E0902403F09039
:10118000250300911E0310911F032091200330912D
:10119000210300932203109323032093240330930D
:1011A00025038A019B010553114221093109073E9C
:1011B00013402105310548F41092190381E090E0B5
:1011C0009093100380930F03A9CF445F51406109AE
:1011D0007109493C51056105710590F085E090E089
:1011E0009093100380930F038FEF9FEFDC018093A8
:1011F000150390931603A0931703B09318038ECF93
:101200008C199D09AE09BF0920910F03309110037D
:101210002130310509F05FC0AC01BD01415C524194
:1012200061097109433F51406105710558F41092FD
:10123000150310921603109217031092180383E0FF
:1012400090E0BECF8D589A40A109B10987359240F0
:10125000A105B10508F062CF82E090E09093100301
:1012600080930F034091150350911603609117036B
:10127000709118038091150390911603A0911703A4
:10128000B0911803892F9A2FAB2FBB27842795275E
:10129000A627B72788279927BB270097AF4FB10507
:1012A00031F085E090E09093100380930F032FB707
:1012B000F8948091710290917202A0917302B091A2
:1012C00074022FBF8093110390931203A093130312
:1012D000B093140323CF2330310509F01FCFAC01A5
:1012E000BD0145585340610971094F3851406105AE
:1012F000710560F5809119038F5F809319038091C8
:101300001903803209F00ACF40911503509116035A
:101310006091170370911803809115039091160343
:10132000A0911703B0911803892F9A2FAB2FBB27D9
:1013300084279527A627B72788279927BB270097B3
:10134000AF4FB105A9F185E090E03ACF815D9740BC
:10135000A109B109833F9140A105B10510F5209184
:101360001903409115035091160360911703709172
:10137000180381E090E0A0E0B0E004C0880F991F5E
:10138000AA1FBB1F2A95D2F7840F951FA61FB71F50
:101390008093150390931603A0931703B09318033B
:1013A000A9CF85E090E09093100380930F03A7CF1F
:1013B00084E090E078CF86E10C94EF0385E10C9413
:1013C000EF038F929F92AF92BF92CF92DF92EF92F4
:1013D000FF92CF93DF930E94DB09EC010E94DE09AC
:1013E000BE01681B790B072E000C880B990B0E941D
:1013F000B1182AE037ED43E25CE30E9466196B0105
:101400007C01AC019B0160E070E080EA91E40E9405
:1014100095174B015C0120E030E040EA51E4C70140
:10142000B6010E949617A5019401DF91CF91FF901C
:10143000EF90DF90CF90BF90AF909F908F900C94E3
:101440004701CF93DF9380E00E945C03EC0181E0D1
:101450000E945C0340917502509176026091770280
:1014600070917802C817D90779F44F5F5F4F6F4FBB
:101470007F4F40937502509376026093770270938A
:101480007802DF91CF9108954150510961097109A6
:10149000F0CFCF93DF9380E00E945C03EC0181E00A
:1014A0000E945C0340917502509176026091770230
:1014B00070917802C817D90779F441505109610930
:1014C000710940937502509376026093770270938E
:1014D0007802DF91CF9108954F5F5F4F6F4F7F4F3D
:1014E000F0CFCF93DF93EC0180910C03D7FF18C0AE
:1014F00061E00E94850360E080910A030E948503F9
:10150000D195C195D109C13981E0D80714F0C0E95E
:10151000D1E0D0938D00C0938C00DF91CF910895DE
:1015200060E00E94850361E080910A030E948503C8
:10153000EACFFC0101900020E9F73197AF01481B89
:10154000590BBC0185E892E00C94A2058F929F9202
:10155000AF92BF920F931F93CF93DF93CDB7DEB7B8
:10156000A1970FB6F894DEBF0FBECDBF19A24230CF
:1015700008F44AE08E010F5D1F4F842E912CB12C90
:10158000A12CA50194010E946D17E62FB901CA0193
:10159000EA30F4F4E05DD801EE938D01232B242B87
:1015A000252B79F790E080E0109719F0CD010E948B
:1015B000990AA1960FB6F894DEBF0FBECDBFDF919A
:1015C000CF911F910F91BF90AF909F908F900895F2
:1015D000E95CE1CFCF92DF92EF92FF92CF93DF935E
:1015E0006B017C016DE285E892E00E942706EC0128
:1015F00066277727CB016C197D098E099F094AE080
:101600000E94A60A8C0F9D1FDF91CF91FF90EF9053
:10161000DF90CF900895CF93DF9397FF0CC00E9487
:10162000EA0AEC018DE591E00E94990A8C0F9D1F5A
:10163000DF91CF9108954AE00E94A60AF2CF0F935E
:101640001F93CF93DF938C0110928102109282023C
:101650001092830210928402181619060CF067C0CB
:10166000D0E0C0E0BE010D2E000C880B990B0E944B
:10167000B1182BED39EF4EEB5EE30E94661920E0C6
:1016800030E04BE753E40E9496170E947918CB0193
:101690000E94710A80917D0290917E02A0917F024A
:1016A000B09180028093790290937A02A0937B029A
:1016B000B0937C022FB7F8948091710290917202DE
:1016C000A0917302B09174022FBF80937D0290931A
:1016D0007E02A0937F02B0938002609175027091A8
:1016E000760280917702909178020E940B0B809194
:1016F000750290917602A0917702B0917802809362
:10170000810290938202A0938302B093840264E6E4
:1017100070E080E090E00E94380421960C171D07CD
:101720000CF0A0CFDF91CF911F910F910895892BDD
:10173000C9F3D0E0C0E0BE010D2E000C880B990B60
:101740000E94B11823EC35EF48EE5EE30E94661963
:1017500020E030E04AE553E40E9495170E94791892
:10176000CB010E94710A80917D0290917E02A0912E
:101770007F02B09180028093790290937A02A093C5
:101780007B02B0937C022FB7F89480917102909104
:101790007202A0917302B09174022FBF80937D02F8
:1017A00090937E02A0937F02B093800260917502B5
:1017B0007091760280917702909178020E940B0BD3
:1017C0008091750290917602A0917702B091780293
:1017D0008093810290938202A0938302B09384024B
:1017E00064E670E080E090E00E9438042197C01722
:1017F000D1070CF0A0CF96CFCF93DF930E94990A28
:10180000EC018DE591E00E94990A8C0F9D1FDF91FC
:10181000CF9108950E94D319CF93DF93A2EEB0E049
:101820009C911C92E9EEF0E020811082C0EFD0E0A4
:101830003881188240E028994160209942602098C0
:10184000289A80E18A95F1F783B141FB0EF0209848
:1018500040FB0EF028980EF4289A41FB0EF4209AD3
:101860001082388320839C9380958170DF91CF9183
:1018700008951F920F920FB60F9211242F933F934A
:101880008F939F93AF93BF93809171029091720257
:10189000A0917302B091740230915E0223E0230F95
:1018A0002D3758F50196A11DB11D20935E0280933E
:1018B000710290937202A0937302B09374028091AC
:1018C0005F0290916002A0916102B0916202019664
:1018D000A11DB11D80935F0290936002A0936102ED
:1018E000B0936202BF91AF919F918F913F912F91E1
:1018F0000F900FBE0F901F90189526E8230F0296A9
:10190000A11DB11DD2CF1F920F920FB60F921124BD
:101910002F933F934F935F936F937F938F939F93F7
:10192000AF93BF93EF93FF93E0911C01F0911D01E2
:101930000995FF91EF91BF91AF919F918F917F9109
:101940006F915F914F913F912F910F900FBE0F902C
:101950001F9018951F920F920FB60F9211242F937C
:101960003F934F935F936F937F938F939F93AF9327
:10197000BF93EF93FF93E0911A01F0911B0109953A
:10198000FF91EF91BF91AF919F918F917F916F9157
:101990005F914F913F912F910F900FBE0F901F902D
:1019A00018951F920F920FB60F9211242F933F9309
:1019B0004F935F936F937F938F939F93AF93BF9357
:1019C000EF93FF93E0911801F09119010995FF91B0
:1019D000EF91BF91AF919F918F917F916F915F91A7
:1019E0004F913F912F910F900FBE0F901F90189520
:1019F0001F920F920FB60F9211242F933F934F9384
:101A00005F936F937F938F939F93AF93BF93EF9366
:101A1000FF93E0911601F09117010995FF91EF9165
:101A2000BF91AF919F918F917F916F915F914F91F6
:101A30003F912F910F900FBE0F901F9018951F92FE
:101A40000F920FB60F9211242F933F934F935F93F2
:101A50006F937F938F939F93AF93BF93EF93FF9376
:101A6000E0911401F09115010995FF91EF91BF915B
:101A7000AF919F918F917F916F915F914F913F9126
:101A80002F910F900FBE0F901F9018951F920F92DD
:101A90000FB60F9211248F939F938091E100909144
:101AA000E100937F9093E10083FF0FC01092E90063
:101AB00091E09093EB001092EC0092E39093ED0094
:101AC0001092700298E09093F00082FF22C093E0A1
:101AD0009093E9009091F200992319F09AE3909382
:101AE000E80090915302992341F090915302915054
:101AF00090935302911101C05D9A90916F029923C6
:101B000041F090916F02915090936F02911101C03A
:101B1000289A84FF18C08091E2008E7E81608093B5
:101B2000E2008091E1008F7E8093E1008091540279
:101B30008E7E8061809354029F918F910F900FBE93
:101B40000F901F90189580FFF7CF8091E2008E7E56
:101B500080618093E2008091E1008E7E8093E100BD
:101B6000809154028E7E8160E5CF1F920F920FB656
:101B70000F921124CF92DF92EF92FF920F931F9357
:101B80002F933F934F935F936F937F938F939F9385
:101B9000AF93BF93EF93FF93CF93DF93CDB7DEB7B0
:101BA0006C97DEBFCDBF1092E9008091E80083FF03
:101BB00025C068E0CE0145960E94950582EF80938E
:101BC000E8008D8987FF39C09091E80090FFFCCF35
:101BD000982F907609F034C19E894F89588D2F89AE
:101BE000F88C911131C0803861F580915502809355
:101BF000F1001092F1008EEF8093E8006C960FB622
:101C0000F894DEBF0FBECDBFDF91CF91FF91EF9172
:101C1000BF91AF919F918F917F916F915F914F9104
:101C20003F912F911F910F91FF90EF90DF90CF90F8
:101C30000F900FBE0F901F9018959EEF9093E800A5
:101C4000C7CF1092F100D5CF913059F48111D3CF85
:101C50004130510581F6809155028D7F8093550268
:101C6000CACF933049F48111C6CF4130510519F6DE
:101C7000809155028260F2CF953041F48091E80066
:101C800080FFFCCF20682093E300B5CF963009F0A9
:101C9000A9C00B8D1C8D22E01092E9001092510218
:101CA00010925002F2122EC010924F0210924E0269
:101CB0000E9464051F8299E09983FA8291E09E83D5
:101CC00090EA98879AEF99872091500230915102BB
:101CD000275F3F4F3C832B838D831092E900109246
:101CE00051021092500210934F0200934E0249E0AD
:101CF00050E0BE016F5F7F4F80E00E943E050E9472
:101D0000640579CF10934F0200934E020E94FC02AB
:101D1000DC0112960D911C910115110509F451C1B8
:101D2000D801ED91FC910480F581E02DBE016B5E40
:101D30007F4FC8010995009709F03EC1F801008561
:101D40001185EACFF3E0FF120EC08F89882309F4D2
:101D500040C0823061F440E862E187E191E00E9496
:101D60000B05811148CF81E28093EB0047CF813092
:101D700029F440E862E184E091E0F1CF833099F703
:101D80000E94FC02DC011296ED90FC908E010F5F28
:101D90001F4F6801E114F10479F0D701ED91FC9136
:101DA0000680F781E02DB801C7010995080F111DC4
:101DB000F701E084F184EECFD8011C92F601019086
:101DC0000020E9F73197BF016C197D0940E0C60199
:101DD000C6CF6EEE70E0FB01449150E080E80E94B7
:101DE0003E0509CF973009F4BECF983021F481E049
:101DF0008093F10000CF993009F0FDCE837009F097
:101E0000B2CFE9E2F1E081E031E096E321912223D3
:101E100071F08093E9003093EB00DF0111972C9172
:101E20002093EC009093ED008F5F873079F78EE779
:101E30008093EA001092EA008F8980937002DBCED3
:101E40008B8D9C8D1092E9001092510210925002DD
:101E500090934F0280934E02898D811192C08E899A
:101E60009D89913A49F4813209F07DCF47E050E0F5
:101E700064E071E080E0B3CF913209F074CF833237
:101E800069F48F89988DB0E0A0E080930001909371
:101E90000101A0930201B0930301ADCE803269F439
:101EA0008091E80082FFFCCF67E084E091E00E942F
:101EB00095058BEF8093E8009ECE823209F09BCE91
:101EC0008F8980930B01EEEFFFE7859194918B3F13
:101ED0009C4D51F1E0E0F8E0809104019091050102
:101EE000A0910601B0910701803B9440A105B10586
:101EF000F1F480910B0180FD1AC0EE3F8AE0F807F3
:101F000089F587E797E791838083809160008093CC
:101F1000520288E19BE00FB6F894A8958093600088
:101F20000FBE9093600067CEEEEFFAE0D5CF8081D0
:101F300091818737974709F05ECEA8958091600020
:101F40008861809360008091520280936000EE3F30
:101F50002AE0F20789F08091FE0A9091FF0A9183AE
:101F6000808349CE808191818737980751F2909381
:101F7000FF0A8093FE0AC5CF1092FF0A1092FE0A54
:101F80003ACE0E94FC02DC0112960D911C910115C3
:101F9000110509F4E8CED801ED91FC910190F08192
:101FA000E02DBE016B5E7F4FC8010995811123CEE4
:101FB000F80100851185EBCF181619060CF41BCE1D
:101FC000D2CEF1E0FF12BECE62EF70E004CF1F92DE
:101FD0000F920FB60F9211242F933F934F935F935D
:101FE0006F937F938F939F93AF93BF93EF93FF93E1
:101FF000CF93DF9300D01F92CDB7DEB783B1898333
:1020000089819091D50289278A8380916B009A817A
:1020100089238B838B8180FF05C0E0913E02F09184
:102020003F0209958B8181FF05C0E0914002F0914C
:10203000410209958B8182FF05C0E0914202F09137
:10204000430209958B8183FF05C0E0914402F09122
:10205000450209958B8184FF05C0E0914602F0910D
:10206000470209958B8185FF05C0E0914802F091F8
:10207000490209958B8186FF05C0E0914A02F091E3
:102080004B0209958B8187FF05C0E0914C02F091CE
:102090004D02099589818093D5020F900F900F9082
:1020A000DF91CF91FF91EF91BF91AF919F918F9170
:1020B0007F916F915F914F913F912F910F900FBE44
:1020C0000F901F9018951F920F920FB60F92112428
:1020D0002F933F934F935F936F937F938F939F9330
:1020E000AF93BF93EF93FF93809154039091550367
:1020F0002091520330915303AC01421B530B509378
:102100004903409348039093530380935203809173
:102110008D0390918E0320918B0330918C03AC0141
:10212000421B530B509382034093810390938C0383
:1021300080938B0380914703813021F08091470386
:10214000823021F485E493E00E942307809180038C
:10215000813021F080918003823021F48EE793E07A
:102160000E942307FF91EF91BF91AF919F918F91B3
:102170007F916F915F914F913F912F910F900FBE83
:102180000F901F901895CF93DF93E5E8F2E013824C
:10219000128288EE93E0A0E0B0E084839583A6836A
:1021A000B7838DE391E0918380838FEF9FEF9587D5
:1021B000848783B18093D502E5E4F3E01282148230
:1021C00013821582168217821086128611862CE2DF
:1021D00031E03487238716861586108A1786128A7F
:1021E000118A148A138A40E050E060EA70E4458B5B
:1021F000568B678B708F80E090E0A0E0BFE3818F0B
:10220000928FA38FB48F158E168E178E10A211A2E7
:1022100012A213A214A215A216A217A210A611A60A
:1022200012A613A614A615A616A617A610AA11AADA
:1022300012AA13AA14AA15AA16AA17AA10AECBE5B9
:10224000D1E0D183C08313AE15AE14AE10928303D8
:1022500010928403109285031092860310928803D3
:102260001092870330938A032093890310928C0382
:1022700010928B0310928E0310928D031092900394
:1022800010928F0310929203109291034093930344
:1022900050939403609395037093960380939703F0
:1022A00090939803A0939903B0939A0310929B0381
:1022B00010929C0310929D0310929E0310929F0314
:1022C0001092A0031092A1031092A2031092A303F4
:1022D0001092A4031092A5031092A6031092A703D4
:1022E0001092A8031092A9031092AA031092AB03B4
:1022F0001092AC031092AD031092AE031092AF0394
:102300001092B0031092B1031092B2031092B30373
:102310001092B4031092B5031092B60385E591E0D4
:1023200092AF81AF8EED95E3AAE7BCE38093B7034C
:102330009093B803A093B903B093BA0383E393E3F4
:10234000ABEEB0E48093BB039093BC03A093BD03BA
:10235000B093BE0380E190E09093C0038093BF03ED
:10236000EDE3F3E0128215828FE491E091838083A4
:10237000E6E2F3E0108213821482158216828AE06C
:1023800090E0A0E0B0E087839087A187B2871386B2
:102390001486158616861786108A118A128A80E09E
:1023A00090E0A6ECB2E4838B948BA58BB68B81E195
:1023B00081838CE08283EEE0F3E08EE08083128202
:1023C000118213821482158216821782108611865A
:1023D000128613861486158616861786108A118A29
:1023E000128A138A148A158A168A178AE6EDF2E091
:1023F00080E090E8A9E8B3E480A391A3A2A3B3A3EB
:1024000080E090E0A0E0B0E484A395A3A6A3B7A3E6
:1024100086E090E091A780A783E090E0A0E0B0E0A4
:1024200086A797A7A0ABB1AB8BE090E093AB82AB54
:1024300084E090E095AB84AB8DE090E097AB86AB09
:10244000DF91CF910895789484B5826084BD84B57E
:10245000816084BD85B5826085BD85B5816085BD9F
:1024600080916E00816080936E0010928100809157
:1024700081008260809381008091810081608093DF
:102480008100809180008160809380008091910024
:10249000826080939100809191008160809391008F
:1024A000809190008160809390008091C100846051
:1024B0008093C1008091C10082608093C1008091AF
:1024C000C10081608093C1008091C30081608093CE
:1024D000C3008091C00082608093C0008091C200E0
:1024E00081608093C20080917A00846080937A003A
:1024F00080917A00826080937A0080917A00816076
:1025000080937A0080917A00806880937A0010929C
:10251000700210925502109254028091D70081608F
:102520008093D70080EA8093D80089B5806189BD07
:1025300089B5826089BD09B400FEFDCF61E070E01D
:1025400080E090E00E9438048091D8008F7C806108
:102550008093D8008091E000807F8093E00080919C
:10256000E1008E7E8093E1008DE08093E200559A39
:10257000209A81E691E00E94FC0B2E98269A2D98D5
:10258000259A2A98229A2998219A2F98279AF8947E
:102590008AEA8093800089E18093810084EA91E057
:1025A0009093870080938600109289001092880093
:1025B00010928B0010928A0010928D0010928C0065
:1025C000789480E691E00E94FC0B8FE691E00E94F7
:1025D000FC0B24982C9A6A98729A6E98769A809836
:1025E000889A69E278E084E00E94FA0660E478E084
:1025F00084E00E940A016CB1262F30E035952795C2
:102600003595279583B1422F4170682F70E0E4E043
:1026100075956795EA95E1F76227617085E493E027
:102620000E94F90785E493E00E944B086CB1262FC5
:1026300030E0359527953595279583B1422F417028
:10264000682F70E0A4E075956795AA95E1F7622779
:1026500061708EE793E00E94F9078EE793E00E9495
:102660004B088EE691E00E94FC0BF8941092C0009B
:102670008BE08093C1001092C2001092C30089EFDA
:102680008093D10084E080937200789460E0809120
:102690000E030E94B30380910E03843018F087303C
:1026A00009F041C18EE791E00E94FC0B80910E037E
:1026B000882309F430C1813009F42FC1823009F434
:1026C0002EC1833009F42DC1873029F484E066E7F8
:1026D00078E00E940A0160E0809127030E94B30322
:1026E00080912703843018F0873009F037C18DE9D5
:1026F00091E00E94FC0B80912703882309F426C1F6
:10270000813009F425C1823009F424C1833009F4F1
:1027100023C1873029F484E065E578E00E940A014E
:1027200061E0809128030E94B30361E08091080377
:102730000E94B30361E080910A030E94B30361E049
:1027400080910C030E94B30360E080E00E94B30319
:1027500060E081E00E94B30388EA8093800081E119
:1027600080938100C0E9D1E0D0938700C0938600B8
:1027700010928D0010928C0069E47AE082E00E9451
:102780000A0161E27AE083E00E940A01F894109263
:102790007502109276021092770210927802789465
:1027A000F8941092750210927602109277021092AD
:1027B0007802789484E690E090930F0180930E0164
:1027C000D0931101C093100160E08EE00E94B3032A
:1027D0008FEF9FEF909392028093910210925D028F
:1027E00010925C028DE393E00E940C0C8823D1F3DD
:1027F0006AE070E080E090E00E9438048DE393E0AE
:102800000E940C0C882371F38DE393E00E940C0C62
:102810008111FACF6AE070E080E090E00E94380415
:102820008DE393E00E940C0C8111EECF0E94DE0933
:102830000E94DB0968EE73E080E090E00E943804BB
:1028400008E010E0C6E0D0E063E0262E312C82E004
:10285000682E712CEE24E394F12C2BE0C22ED12CA7
:102860003AE5A32EB12C44E0842E912C50E0452E65
:1028700050E0552E80910F0390911003049711F5AD
:102880001092100310920F0380911503909116037C
:10289000A0911703B09118038A2F90E08130910521
:1028A00009F06FC080915C0290915D0290935B0291
:1028B00080935A02D0935D02C0935C0284ED91E054
:1028C0000E94FC0B60915C0270915D02072E000C6F
:1028D000880B990B97FF73C00E94EA0A8DE591E07F
:1028E0000E94990AE0915C02F0915D02ED30F105E1
:1028F00008F01AC1E258FB4E0C948F17E3146C15C4
:102900003916AF1613155B16D916EE169B15E01582
:102910001E163517541782E0DACE83E0D8CE81E058
:10292000D6CE80E0D4CE8CE891E00E94FC0BE09102
:102930000E03E8508FEFEA3020F4F0E0E15DFE4F47
:10294000808166E778E00E94FA06C5CE82E0E4CE98
:1029500083E0E2CE81E0E0CE80E0DECE87EB91E066
:102960000E94FC0BE0912703E8508FEFEA3020F43F
:10297000F0E0E15DFE4F808165E578E00E94FA06B7
:10298000CFCE8530910559F480915A0290915B0227
:1029900090935D0280935C0283EE91E091CF8D3045
:1029A000910529F410925D0210925C028BCF409742
:1029B00009F088CF10935D0200935C0283CF4AE058
:1029C0000E94A60A8BCF0E94E1090E94DB098B3F7F
:1029D00091050CF4A9C00E94DE098B3F91050CF40F
:1029E000A3C020E030E0A901CA01B9010E9447015B
:1029F00090925B0280925A02D0935D02C0935C0277
:102A00008AEE91E00E94FC0B85E493E00E944B0863
:102A1000F8948091540390915503789490935902BF
:102A20008093580281C087EF91E00E94FC0BB09226
:102A30005702A092560220E030E0A90160E070E069
:102A400080E291E40E94ED012091B7033091B80338
:102A50004091B9035091BA0360E070E080EE90E4D9
:102A60000E9407180E947918F8942091540330911D
:102A700055037894260F371F30934F0320934E034E
:102A800022E020934703F89440918D0350918E03E8
:102A90007894460F571F50938803409387032093E1
:102AA00080030E946A046091560270915702072EBB
:102AB000000C880B990B0E94B1180E947A041093A5
:102AC0005D0200935C0285E493E00E944B088EE770
:102AD00093E00E944B0828C00E94E109F89480917D
:102AE000540390915503789482379440A4F020E0E9
:102AF00030E0A901CA01B9010E944701D0935D02EB
:102B0000C0935C02D0925B02C0925A028DEF91E0BA
:102B10000E94FC0B09C0F89480918D0390918E0364
:102B20007894823794401CF74114510409F4A2CEE2
:102B30000E9400008CCE8CE99FEF0E941F0BF8943E
:102B40008091750290917602A0917702B0917802FF
:102B50007894181619061A061B0604F5F894809145
:102B6000750290917602A0917702B09178027894E4
:102B7000813D9740A105B105BCF28AE090E00E943A
:102B80001F0BF0925B02E0925A02D0935D02C09359
:102B90005C028AE092E00E94990AC6CFF894809184
:102BA000750290917602A0917702B09178027894A4
:102BB000B095A095909581959F4FAF4FBF4FD8CFBF
:102BC0008CE99FEF0E941F0BF89480917502909101
:102BD0007602A0917702B0917802789418161906BF
:102BE0001A061B06CCF4F894809175029091760237
:102BF000A0917702B091780278948C379541A10525
:102C0000B1050CF091CF10928102109282021092C5
:102C1000830210928402B5CFF8948091750290914E
:102C20007602A0917702B09178027894B095A09541
:102C3000909581959F4FAF4FBF4FDFCF20E030E0A1
:102C400048EC51E460E070E088EC91EC0E944701B0
:102C50000E94DE098B3F91050CF466CF70925B02F7
:102C600060925A02D0935D02C0935C0287E192E0C9
:102C70004FCF0E94E1090E94DB098B3F91050CF4C4
:102C800053CF0E94DE098B3F91050CF44DCF20E01D
:102C900030E0A901CA01B9010E94470185E090E036
:102CA00090935B0280935A02D0935D02C0935C02C2
:102CB00084E292E0A7CE87EF91E00E94FC0B20E037
:102CC00030E0A90160E070E080E291E40E94ED0153
:102CD0002091B7033091B8034091B9035091BA03E2
:102CE0006CE57FE88AEE90E40E9407180E9479184C
:102CF000F89420915403309155037894260F371F90
:102D000030934F0320934E0322E020934703F8941F
:102D100040918D0350918E037894460F571F509326
:102D2000880340938703209380030E946A04609184
:102D3000560270915702719561957109072E000C2A
:102D4000880B990B0E94B1180E947A0430925B02A2
:102D500020925A02D0935D02C0935C02B4CE0E94CE
:102D6000E109F89480915403909155037894843A42
:102D700096400CF4D9CEF89480918D0390918E03F7
:102D80007894843A96400CF4CFCE20E030E0A9014C
:102D9000CA01B9010E944701D0935D02C0935C0251
:102DA00087E090E090935B0280935A0281E392E087
:102DB000AFCE1092470370E060E085E493E00E949C
:102DC000E0071092800370E060E08EE793E00E94DD
:102DD000C70790E080E00E94710AA6CE84E690E0EA
:102DE0000E941F0BF8948091750290917602A09139
:102DF0007702B09178027894181619061A061B0605
:102E00001CF5F8948091750290917602A09177025A
:102E1000B0917802789485369105A105B1050CF43E
:102E200083CE8CE090E090935B0280935A02D09323
:102E30005D02C0935C021092810210928202109295
:102E4000830210928402A5CEF8948091750290912D
:102E50007602A0917702B091780278948C399F4FD6
:102E6000AF4FBF4F0CF060CEDCCF8CE091E00E9402
:102E7000DA0664EF71E08CE091E00E94A80664E35A
:102E800078E080E090E00E9438048CE091E00E94BD
:102E9000CF068AE090E090935B0280935A02D09331
:102EA0005D02C0935C0240CE8CE091E00E94DA06A5
:102EB0006CE07EEF8CE091E00E94A80664E378E08D
:102EC00080E090E00E9438048CE091E00E94CF0600
:102ED000D0935B02C0935A02E2CFA1E21A2EAA1B42
:102EE000BB1BFD010DC0AA1FBB1FEE1FFF1FA217BA
:102EF000B307E407F50720F0A21BB30BE40BF50BB7
:102F0000661F771F881F991F1A9469F7609570953F
:102F1000809590959B01AC01BD01CF010895EE0F06
:102F2000FF1F0590F491E02D09945058BB27AA2764
:102F30000E94AD170C9427190E94191938F00E94AD
:102F4000201920F039F49F3F19F426F40C94161937
:102F50000EF4E095E7FB0C941019E92F0E94381944
:102F600058F3BA17620773078407950720F079F4BE
:102F7000A6F50C945A190EF4E0950B2EBA2FA02D3D
:102F80000B01B90190010C01CA01A0011124FF2716
:102F9000591B99F0593F50F4503E68F11A16F04011
:102FA000A22F232F342F4427585FF3CF4695379510
:102FB0002795A795F0405395C9F77EF41F16BA0BD5
:102FC000620B730B840BBAF09150A1F0FF0FBB1F83
:102FD000661F771F881FC2F70EC0BA0F621F731FCC
:102FE000841F48F4879577956795B795F7959E3F29
:102FF00008F0B0CF9395880F08F09927EE0F9795BA
:10300000879508950E94EC1808F481E008950E94C5
:103010001B180C9427190E94201958F00E941919A6
:1030200040F029F45F3F29F00C94101951110C94D1
:103030005B190C9416190E94381968F39923B1F39F
:10304000552391F3951B550BBB27AA2762177307CE
:10305000840738F09F5F5F4F220F331F441FAA1F62
:10306000A9F335D00E2E3AF0E0E832D0915050401E
:10307000E695001CCAF72BD0FE2F29D0660F771FCC
:10308000881FBB1F261737074807AB07B0E809F0B2
:10309000BB0B802DBF01FF2793585F4F3AF09E3F37
:1030A000510578F00C9410190C945B195F3FE4F310
:1030B000983ED4F3869577956795B795F7959F5F7A
:1030C000C9F7880F911D9695879597F90895E1E0C6
:1030D000660F771F881FBB1F621773078407BA0725
:1030E00020F0621B730B840BBA0BEE1F88F7E09580
:1030F00008950E9480186894B1110C945B1908958A
:103100000E94401988F09F5798F0B92F9927B7511E
:10311000B0F0E1F0660F771F881F991F1AF0BA957B
:10312000C9F714C0B13091F00E945A19B1E0089566
:103130000C945A19672F782F8827B85F39F0B93F58
:10314000CCF3869577956795B395D9F73EF490952E
:103150008095709561957F4F8F4F9F4F0895E894AC
:1031600009C097FB3EF490958095709561957F4FCF
:103170008F4F9F4F9923A9F0F92F96E9BB2793957D
:10318000F695879577956795B795F111F8CFFAF48D
:10319000BB0F11F460FF1BC06F5F7F4F8F4F9F4FBE
:1031A00016C0882311F096E911C0772321F09EE81C
:1031B000872F762F05C0662371F096E8862F70E082
:1031C00060E02AF09A95660F771F881FDAF7880F5C
:1031D0009695879597F90895990F0008550FAA0BB2
:1031E000E0E8FEEF16161706E807F907C0F012161A
:1031F0001306E407F50798F0621B730B840B950B1D
:1032000039F40A2661F0232B242B252B21F4089571
:103210000A2609F4A140A6958FEF811D811D08950E
:1032200097F99F6780E870E060E008959FEF80EC79
:10323000089500240A94161617061806090608951C
:1032400000240A9412161306140605060895092E82
:103250000394000C11F4882352F0BB0F40F4BF2BF1
:1032600011F460FF04C06F5F7F4F8F4F9F4F089531
:1032700057FD9058440F551F59F05F3F71F0479527
:10328000880F97FB991F61F09F3F79F0879508950C
:10329000121613061406551FF2CF4695F1DF08C02B
:1032A000161617061806991FF1CF86957105610548
:1032B00008940895E894BB2766277727CB0197F9F0
:1032C00008950E94EC1808F48FEF08950E94791970
:1032D0000C9427190E94191938F00E94201920F027
:1032E000952311F00C9410190C94161911240C94B8
:1032F0005B190E94381970F3959FC1F3950F50E048
:10330000551F629FF001729FBB27F00DB11D639F97
:10331000AA27F00DB11DAA1F649F6627B00DA11D3D
:10332000661F829F2227B00DA11D621F739FB00DE3
:10333000A11D621F839FA00D611D221F749F332753
:10334000A00D611D231F849F600D211D822F762FEC
:103350006A2F11249F5750409AF0F1F088234AF0C9
:10336000EE0FFF1FBB1F661F771F881F9150504035
:10337000A9F79E3F510580F00C9410190C945B192D
:103380005F3FE4F3983ED4F3869577956795B795BC
:10339000F795E7959F5FC1F7FE2B880F911D9695D6
:1033A000879597F9089581E090E0F8940C94D819E6
:0433B000F894FFCFBF
:1033B400FFFFFFFF00E10000000000002201E8031E
:1033C400D007FF00DC04DC04DC04DC04DC040000C3
:1033D4000000DA06CF06A80600C1808100000004C0
:1033E400050607FFFF03010200000000002706A2F4
:1033F4000548063D068E064C066A06000000000CD1
:103404000C00000000C70700000000E0070D0A00E0
:103414002F696E69744D6F746F72732829002F6958
:103424006E6974456E636F64657273282900417414
:1034340074616368696E6720495352004174746112
:103444006368696E672050435F4953520041747446
:10345400616368696E672072616E676566696E6430
:1034640065722049535200417474616368696E67E0
:103474002072616E676566696E6465722050435F91
:1034840049535200456D657267656E6379205374C4
:103494006F70004F6E7761726400436865636B7090
:1034A4006F696E74203100436865636B004368651F
:1034B400636B706F696E74203200436865636B7070
:1034C4006F696E74203300436865636B706F696E57
:1034D40074203400436865636B706F696E742035C3
:0E34E40000436865636B706F696E742036007C
:00000001FF
