:100000000C94E0000C94290D0C94020D0C94DB0C64
:100010000C94B40C0C9408010C9408010C948D0CF5
:100020000C9408010C94F10F0C94500D0C94BF0D1E
:100030000C9408010C9408010C9408010C9408011C
:100040000C9408010C9408010C9408010C9408010C
:100050000C9408010C9408010C9408010C94430CB6
:100060000C9408010C9408010C9408010C940801EC
:100070000C9408010C9408010C9408010C940801DC
:100080000C9408010C9408010C9408010C940801CC
:100090000C9408010C9408010C9408010C940801BC
:1000A0000C9408010C946D100C940801080B0002CC
:1000B0000202000009040000010202000005240001
:1000C0001001052401010104240206052406000193
:1000D0000705810310004009040100020A00000026
:1000E00007050202400000070583024000000403E8
:1000F000090412010002EF020140FB1F002300016E
:1001000001020301506F6C6F6C7520436F72706F4A
:10011000726174696F6E00506F6C6F6C7520412D49
:100120005374617220333255340007060504010010
:10013000080A0B0C0D0900000000240027002A000B
:100140002D00300000000000250028002B002E00AC
:100150003100000000002300260029002C002F00A1
:10016000040404040403040502020202040302025C
:10017000020206060606060604040202020404043D
:100180000802011040804010204080408008020496
:10019000018040201002011080102040402000000B
:1001A000000200090F0000030401000C0000000021
:1001B0000000000000000000000000000000CD1062
:1001C00011241FBECFEFDAE0DEBFCDBF12E0A0E00A
:1001D000B1E0ECE3F3E302C005900D92A434B10763
:1001E000D9F723E0A4E4B2E001C01D92A73CB20716
:1001F000E1F710E0C0EED0E004C02197FE010E94BC
:100200005317CF3DD107C9F70E942D120C949C19AA
:100210000C940000E82FF0E0EE0FFF1FEC5EFE4FA5
:10022000718360838230D9F028F4882341F08130D3
:1002300071F008958330D9F0843009F108958091E8
:1002400069008C7F816080936900E89A08958091AD
:100250006900837F846080936900E99A08958091A2
:1002600069008F7C806180936900EA9A089580918B
:1002700069008F73806480936900EB9A0895809180
:100280006A008F7C806180936A00EE9A08954F9295
:100290005F926F927F928F929F92AF92BF92CF9216
:1002A000DF92EF92FF92CF93DF9300D000D0CDB7D3
:1002B000DEB769837A838B839C8329013A0160913D
:1002C000C5037091C60390E080E00E94731820E09F
:1002D00030E04AE754E40E94CB174B015C01C09028
:1002E000BD03D090BE03E090BF03F090C003A30114
:1002F00092010E942A19A70196010E94CB170E9421
:100300003D182B0129813A814B815C81C501B401E3
:100310000E942A19A70196010E94CB170E943D183E
:10032000072E000C880B990B0E94751860935003E0
:1003300070935103809352039093530380914D0324
:10034000813081F01092740310927503109276033D
:100350001092770380915A0390915B039093590315
:100360008093580381E080934D03B201550C880BB4
:10037000990B0E9475186093890370938A03809388
:100380008B0390938C0380918603813081F01092CF
:10039000AD031092AE031092AF031092B0038091A0
:1003A000930390919403909392038093910381E03F
:1003B000809386030F900F900F900F90DF91CF9155
:1003C000FF90EF90DF90CF90BF90AF909F908F9075
:1003D0007F906F905F904F9008954F925F926F92D1
:1003E0007F928F929F92AF92BF92CF92DF92EF92C5
:1003F000FF92CF93DF93CDB7DEB728970FB6F8946F
:10040000DEBF0FBECDBF4B015C012D833E834F830A
:1004100058876091C5037091C60390E080E00E9408
:10042000731820E030E04AE754E40E94CB176B01D8
:100430007C014090BD035090BE036090BF0370905C
:10044000C003A50194010E942A19A30192010E94F0
:10045000CB170E943D1869837A838B839C8323EC9E
:1004600035EF48E450E46091C1037091C20380917C
:10047000C3039091C4030E942A1920E030E044E3B2
:1004800053E40E94CB174B015C012D813E814F81CB
:100490005885C701B6010E942A199B01AC01C5010C
:1004A000B4010E942A19A30192010E94CB170E9455
:1004B0003D186B0169817A816C197D09072E000C4A
:1004C000880B990B0E947518609350037093510329
:1004D000809352039093530380914D03813081F0B8
:1004E00010927403109275031092760310927703A2
:1004F00080915A0390915B03909359038093580322
:1005000081E080934D0389819A81C80ED91EB6017E
:10051000DD0C880B990B0E9475186093890370930A
:100520008A0380938B0390938C03809186038130A0
:1005300081F01092AD031092AE031092AF031092AF
:10054000B0038091930390919403909392038093CE
:10055000910381E08093860328960FB6F894DEBF5E
:100560000FBECDBFDF91CF91FF90EF90DF90CF9086
:10057000BF90AF909F908F907F906F905F904F90C3
:100580000895FC0180917602882311F13FB7F89419
:1005900082E08093E9002091F200822F90E018160B
:1005A000190614F481E090E0882339F0289844E695
:1005B000409375024091F1004083222339F020914D
:1005C000F200211103C02BE62093E8003FBF0895FD
:1005D0008FEF9FEF08952FB7F89483E08093E900A1
:1005E0009091E800892F807295FF04C09091F200ED
:1005F00080E4891B2FBF089580916D0281110DC089
:1006000082E08093690284E080936A0210926C0217
:1006100010926B0281E080936D0289E692E008956A
:1006200081508F3008F047C0E82FF0E0E65EFC4FC5
:100630000C94531737033B0329032F0333035B0346
:100640005B035B033E03440348034C0352035B0319
:100650005603809180008F77809380000895809169
:1006600080008F7DF9CF80918000877FF5CF84B5A2
:100670008F7784BD089584B58F7DFBCF80919000E6
:100680008F77809390000895809190008F7DF9CFAF
:1006900080919000877FF5CF8091C0008F77809305
:1006A000C00008958091C0008F7DF9CF8091C20075
:1006B000877F8093C2000895CF93DF93282F30E087
:1006C000F901E256FE4F8491F901E158FE4FD491B1
:1006D000F901E05AFE4FC491CC23A1F081110E9490
:1006E0001003EC2FF0E0EE0FFF1FEE5AFE4FA59126
:1006F000B491EC91ED2381E090E009F480E0DF918A
:10070000CF91089580E090E0FACF1F93CF93DF93CD
:10071000282F30E0F901E256FE4F8491F901E158AB
:10072000FE4FD491F901E05AFE4FC491CC23A9F0B9
:10073000162F81110E941003EC2FF0E0EE0FFF1F27
:10074000EC5BFE4FA591B4918FB7F894EC91111129
:1007500008C0D095DE23DC938FBFDF91CF911F912E
:100760000895DE2BF8CFCF93DF9390E0FC01E158A2
:10077000FE4F2491805A9E4FFC0184918823C9F03A
:1007800090E0880F991FFC01EA5CFE4FA591B4919F
:10079000FC01EC5BFE4FC591D49161110DC09FB778
:1007A000F8948C91209582238C9388812823288328
:1007B0009FBFDF91CF910895623051F49FB7F894B5
:1007C0003C91822F809583238C93E8812E2BEFCF51
:1007D0008FB7F894EC912E2B2C938FBFEACF8231F8
:1007E00008F08251E82FF0E0E65DFE4FE491909131
:1007F0007B008E2F880F880F80729F7D892B8093BE
:100800007B00E770E064E0937C0080917A00806474
:1008100080937A0080917A0086FDFCCF80917800E9
:100820009091790008953FB7F89480916502909176
:100830006602A0916702B091680226B5A89B05C028
:100840002F3F19F00196A11DB11D3FBFBA2FA92F4F
:10085000982F8827BC01CD01620F711D811D911D4C
:1008600042E0660F771F881F991F4A95D1F70895B8
:100870008F929F92AF92BF92CF92DF92EF92FF92B0
:100880004B015C010E9413046B017C010E94130464
:100890006C197D098E099F09683E73408105910599
:1008A000A8F321E0821A9108A108B10888EEC80EC9
:1008B00083E0D81EE11CF11C81149104A104B10451
:1008C00029F7FF90EF90DF90CF90BF90AF909F906F
:1008D0008F90089580914D03811104C0809186030B
:1008E000882339F061E070E080E090E00E943804F5
:1008F000F1CF0895CF92DF92EF92FF926B017C01CE
:1009000020E030E0A9010E94251920E030E048EC09
:1009100052EC181624F420E030E048EC52E460E099
:1009200070E0CB010E94ED0123EC35EF48E450E488
:100930006091C1037091C2038091C3039091C4037D
:100940000E942A1920E030E044E353E40E94CB17D0
:10095000A70196010E942A192091BD033091BE0380
:100960004091BF035091C0030E94CB170E943D18D5
:10097000F89420915A0330915B037894261B370B2F
:10098000309355032093540322E020934D03F894B1
:1009900040919303509194037894CA01860F971F56
:1009A00090938E0380938D0320938603FF90EF90A6
:1009B000DF90CF900C946A040895409156025091B4
:1009C0005702209154023091550242175307B4F454
:1009D0009091E8009570E1F39091E80092FD19C0C4
:1009E0008093F100809156029091570201968F7387
:1009F0009927892B19F48EEF8093E8008091560295
:100A0000909157020196909357028093560281E08D
:100A1000089580E00895EF92FF920F931F93CF9374
:100A2000DF93F82E192FE62E042F81E0860F880F12
:100A30000E94DD0483E00E94DD04CF2DD12FEC0E57
:100A4000FD2EF11CCE15DF05B9F007FF13C0FE0126
:100A500084910E94DD04182F80E00E94DD04812330
:100A600021968111EFCFDF91CF911F910F91FF90D0
:100A7000EF9008958881EDCF81E0F5CFDF92EF927E
:100A8000FF920F931F93CF93DF93D82E8A01EB0130
:100A90007B01E40EF51ECE15DF0559F0D7FE12C01E
:100AA000FE0184910E94DD0421968111F4CF0FEFA5
:100AB0001FEFC801DF91CF911F910F91FF90EF9031
:100AC000DF9008958881EECF0F931F93CF93DF932C
:100AD0001F92CDB7DEB782E0898342E450E06CEA32
:100AE00070E080E80E943E050E94FC02DC01129644
:100AF0000D911C910115110589F0D801ED91FC9122
:100B00000280F381E02DBE016F5F7F4FC801099520
:100B100097FD04C0F80100851185ECCF89810F9005
:100B2000DF91CF911F910F910895615030F0209186
:100B3000F100FC0120830196F8CF289884E6809389
:100B4000750208958F929F92AF92BF92CF92DF92DB
:100B5000EF92FF920F931F93CF93DF936C017B0172
:100B60008A0180910B01882309F45CC08091760290
:100B7000882309F457C080915A0280FF05C08091F4
:100B8000E00082608093E000E801B12C8AEFA82E9B
:100B900093E0892E2AE3922E209711F4BB20D9F1FD
:100BA0000E94EB0281110AC0AA94AA20D9F161E047
:100BB00070E080E090E00E943804EECF8C171D06B4
:100BC00011F00CF08C2F9FB7F8948092E9002091DF
:100BD000E80025FD02C09FBFDFCF282F30E0C21BF9
:100BE000D30BF701815020F041914093F100FACFEF
:100BF000E20EF31EBB2021F09092E800B12CEBCF67
:100C00008091E80085FDE7CF9092E800BB24B39483
:100C1000209709F3F3CF5D9884E68093590210166C
:100C200011063CF081E090E0F6019383828310E0AE
:100C300000E0C801DF91CF911F910F91FF90EF90DD
:100C4000DF90CF90BF90AF909F908F900895CF93FB
:100C5000DF931F92CDB7DEB76983DC01ED91FC9184
:100C60000280F381E02D41E050E0BE016F5F7F4FD5
:100C700009950F90DF91CF91089583E08093E9006B
:100C80008091F200882319F08AE38093E8000895A8
:100C90000E94EB0290E00895CF93DF931F92CDB7AF
:100CA000DEB7FC018485958597FD08C02FEF3FEFE7
:100CB000358724870F90DF91CF910895CE0101965B
:100CC0000E94C102019719F4898190E0F3CF8FEF60
:100CD0009FEFF0CF0F931F93CF93DF931F92CDB76A
:100CE000DEB78C01FC018485958597FF0BC0CE0192
:100CF00001960E94C102019771F4898190E0F80188
:100D000095878487F801848595850F90DF91CF9131
:100D10001F910F9108958FEF9FEFF1CFFC01848514
:100D2000958597FD0BC09FB7F89482E08093E9000A
:100D30008091F2009FBF90E0019608959FB7F894CC
:100D400082E08093E9008091F2009FBF90E00895D7
:100D50000F931F93CF93DF93EC018B018F81811150
:100D600007C0E881F9810190F081E02DCE0109955D
:100D70008A819B810817190730F08C819D810817A3
:100D8000190708F4C801880F991F019790939900DB
:100D900080939800DF91CF911F910F910895DC010E
:100DA000F894E0E9F0E090819F779083789417962B
:100DB0001C920895CF93DF93EC0161E085E00E94DF
:100DC000B303F89482E8809390008AE180939100C5
:100DD0008FE39CE9909397008093960088EB9BE0CB
:100DE0009093990080939800789481E08F83DF91AD
:100DF000CF910895F89441E040936800ABE6B0E0ED
:100E00009C91E82FF0E021E030E001C0220F8A95AC
:100E1000EAF7892F822B8C93EE0FFF1FEC5BFD4FBF
:100E2000718360834BBB9091DB02822F8095892375
:100E30008093DB0283B19091DB028223892B809324
:100E4000DB02789408954F925F926F927F928F9217
:100E50009F92AF92BF92CF92DF92EF92FF92CF9389
:100E6000DF93EC016B817C81072E000C880B990BC2
:100E70000E9475189B01AC016D817E818F819885E0
:100E80000E9459176B017C01C9A2DAA2EBA2FCA255
:100E900029A53AA54BA55CA50E945A174B015C01F8
:100EA00089A69AA6ABA6BCA64DA45EA46FA478A8FA
:100EB00020E030E0A901C301B2010E9425191816F3
:100EC0009CF4A50194015F77C301B2010E94C6178B
:100ED00087FF0AC0A7019601C501B4010E945917F6
:100EE00069A77AA78BA79CA72DA13EA14FA158A5C2
:100EF000C701B6010E9459174B015C01CDA2DEA2C9
:100F0000EFA2F8A629A53AA54BA55CA5698D7A8D17
:100F10008B8D9C8D0E942A192B013C012D893E89C5
:100F20004F89588DC701B6010E942A199B01AC0157
:100F3000C301B2010E945A176B017C012D8D3E8DB9
:100F40004F8D58A1C501B4010E942A199B01AC0123
:100F5000C701B6010E945A176DAB7EAB8FAB98AF3D
:100F60000E943D18E881F9810190F081E02DCE01C9
:100F7000DF91CF91FF90EF90DF90CF90BF90AF9037
:100F80009F908F907F906F905F904F90099420E09A
:100F900077FF04C071956195710921E0FC0183859B
:100FA0009485681779070CF4CB019093890080939E
:100FB0008800222319F0299A219A08952998FCCFB4
:100FC00020E077FF04C071956195710921E0FC0173
:100FD00083859485681779070CF4CB0190938B0077
:100FE00080938A00222319F02A9A229A08952A9837
:100FF000FCCFCF93DF93EC0189899A8950E070E0B0
:101000002B893C89AF85B8898427952726273727E0
:10101000821B930B8A0F9B1F988B8F877A8B698B10
:101020005C8B4B8B8A81823089F42F853889898546
:101030009A852817390751F4E881F9810190F081E8
:10104000E02D70E060E0CE0109951A82DF91CF912A
:1010500008956CB1262F30E0359527953595279565
:1010600083B1422F4170682F70E094E075956795C9
:101070009A95E1F7622761708BE493E00C94F9078D
:101080004FB141706CB166FB662760F9642784E854
:1010900093E00C94F907FC01F89487859089108AF5
:1010A0001786168615867894089580912D030E94E0
:1010B0005C03892B59F00E941304609337037093EB
:1010C00038038093390390933A0308950E941304E0
:1010D00060933B0370933C0380933D0390933E03E6
:1010E00080912C03826080932C030895CF92DF922D
:1010F000EF92FF920F931F930E9413046B017C01E8
:10110000809114030E945C03892B79F4C092200320
:10111000D0922103E0922203F09223031F910F91BA
:10112000FF90EF90DF90CF900895C0922403D0926B
:101130002503E0922603F092270340912403509167
:1011400025036091260370912703809120039091DD
:101150002103A0912203B0912303481B590B6A0B72
:101160007B0B8091240390912503A0912603B091DD
:101170002703C0902803D0902903E0902A03F09021
:101180002B03009124031091250320912603309115
:101190002703009328031093290320932A033093F5
:1011A0002B038A019B010553114221093109073E96
:1011B00013402105310548F410921F0381E090E0AF
:1011C0009093160380931503A9CF445F51406109A2
:1011D0007109493C51056105710590F085E090E089
:1011E00090931603809315038FEF9FEFDC0180939C
:1011F0001B0390931C03A0931D03B0931E038ECF7B
:101200008C199D09AE09BF09209115033091160371
:101210002130310509F05FC0AC01BD01415C524194
:1012200061097109433F51406105710558F41092FD
:101230001B0310921C0310921D0310921E0383E0E7
:1012400090E0BECF8D589A40A109B10987359240F0
:10125000A105B10508F062CF82E090E090931603FB
:101260008093150340911B0350911C0360911D0353
:1012700070911E0380911B0390911C03A0911D038C
:10128000B0911E03892F9A2FAB2FBB278427952758
:10129000A627B72788279927BB270097AF4FB10507
:1012A00031F085E090E090931603809315032FB7FB
:1012B000F8948091770290917802A0917902B09190
:1012C0007A022FBF8093170390931803A0931903FA
:1012D000B0931A0323CF2330310509F01FCFAC019F
:1012E000BD0145585340610971094F3851406105AE
:1012F000710560F580911F038F5F80931F038091BC
:101300001F03803209F00ACF40911B0350911C0348
:1013100060911D0370911E0380911B0390911C032B
:10132000A0911D03B0911E03892F9A2FAB2FBB27CD
:1013300084279527A627B72788279927BB270097B3
:10134000AF4FB105A9F185E090E03ACF815D9740BC
:10135000A109B109833F9140A105B10510F5209184
:101360001F0340911B0350911C0360911D0370915A
:101370001E0381E090E0A0E0B0E004C0880F991F58
:10138000AA1FBB1F2A95D2F7840F951FA61FB71F50
:1013900080931B0390931C03A0931D03B0931E0323
:1013A000A9CF85E090E09093160380931503A7CF13
:1013B00084E090E078CF86E10C94EF0385E10C9413
:1013C000EF038F929F92AF92BF92CF92DF92EF92F4
:1013D000FF92CF93DF930E94DB09EC010E94DE09AC
:1013E000BE01681B790B072E000C880B990B0E941D
:1013F00075182AE037ED43E25CE30E942A196B017D
:101400007C01AC019B0160E070E080EA91E40E9405
:1014100059174B015C0120E030E040EA51E4C7017C
:10142000B6010E945A17A5019401DF91CF91FF9058
:10143000EF90DF90CF90BF90AF909F908F900C94E3
:101440004701CF93DF9380E00E945C03EC0181E0D1
:101450000E945C0340917B0250917C0260917D026E
:1014600070917E02C817D90779F44F5F5F4F6F4FB5
:101470007F4F40937B0250937C0260937D02709378
:101480007E02DF91CF9108954150510961097109A0
:10149000F0CFCF93DF9380E00E945C03EC0181E00A
:1014A0000E945C0340917B0250917C0260917D021E
:1014B00070917E02C817D90779F44150510961092A
:1014C000710940937B0250937C0260937D0270937C
:1014D0007E02DF91CF9108954F5F5F4F6F4F7F4F37
:1014E000F0CFCF93DF93EC0180911203D7FF18C0A8
:1014F00061E00E94850360E0809110030E948503F3
:10150000D195C195D109C13981E0D80714F0C0E95E
:10151000D1E0D0938D00C0938C00DF91CF910895DE
:1015200060E00E94850361E0809110030E948503C2
:10153000EACFFC0101900020E9F73197AF01481B89
:10154000590BBC018BE892E00C94A2058F929F92FC
:10155000AF92BF92CF92DF92EF92FF920F931F93C1
:10156000CF93DF93CDB7DEB7A1970FB6F894DEBF68
:101570000FBECDBF6B017C01F7FE47C06DE28BE86B
:1015800092E00E9427068C0122273327A9012C19FB
:101590003D094E095F0919A2CE0181967C019AE0AE
:1015A000892E912CA12CB12CCA01B901A50194015D
:1015B0000E943117605DF70162937F0121153105AB
:1015C0004105510589F790E080E0309719F0CF018F
:1015D0000E94990A080F191F8DE591E00E94990A4F
:1015E000800F911FA1960FB6F894DEBF0FBECDBF3E
:1015F000DF91CF911F910F91FF90EF90DF90CF90EF
:10160000BF90AF909F908F900895AC019B0119A25D
:101610008E010F5D1F4F8AE0C82ED12CE12CF12CDA
:10162000CA01B901A70196010E943117605DF80156
:1016300062938F01211531054105510589F73097D6
:1016400029F0CF010E94990A8C01C6CF10E000E07A
:10165000C3CF0F931F93CF93DF938C011092870218
:10166000109288021092890210928A0218161906A6
:101670000CF067C0D0E0C0E0BE010D2E000C880B5E
:10168000990B0E9475182BED39EF4EEB5EE30E942B
:101690002A1920E030E04BE753E40E945A170E94D9
:1016A0003D18CB010E94710A8091830290918402BF
:1016B000A0918502B091860280937F029093800270
:1016C000A0938102B09382022FB7F89480917702A1
:1016D00090917802A0917902B0917A022FBF809305
:1016E000830290938402A0938502B0938602609156
:1016F0007B0270917C0280917D0290917E020E941B
:10170000A60A80917B0290917C02A0917D02B0910B
:101710007E028093870290938802A0938902B093FF
:101720008A0264E670E080E090E00E94380421962E
:101730000C171D070CF0A0CFDF91CF911F910F91D7
:101740000895892BC9F3D0E0C0E0BE010D2E000C36
:10175000880B990B0E94751823EC35EF48EE5EE379
:101760000E942A1920E030E04AE553E40E9459170C
:101770000E943D18CB010E94710A809183029091D2
:101780008402A0918502B091860280937F0290939B
:101790008002A0938102B09382022FB7F8948091C7
:1017A000770290917802A0917902B0917A022FBFCE
:1017B0008093830290938402A0938502B093860263
:1017C00060917B0270917C0280917D0290917E02FB
:1017D0000E94A60A80917B0290917C02A0917D02DA
:1017E000B0917E028093870290938802A093890231
:1017F000B0938A0264E670E080E090E00E943804D2
:101800002197C017D1070CF0A0CF96CFCF93DF93CD
:101810000E94990AEC018DE591E00E94990A8C0FD3
:101820009D1FDF91CF9108950E949719CF93DF9369
:10183000A2EEB0E09C911C92E9EEF0E020811082D3
:10184000C0EFD0E03881188240E0289941602099AB
:1018500042602098289A80E18A95F1F783B141FB94
:101860000EF0209840FB0EF028980EF4289A41FBC9
:101870000EF4209A1082388320839C938095817087
:10188000DF91CF9108951F920F920FB60F921124FE
:101890002F933F938F939F93AF93BF938091770242
:1018A00090917802A0917902B0917A02309164020D
:1018B00023E0230F2D3758F50196A11DB11D20936C
:1018C00064028093770290937802A0937902B09398
:1018D0007A028091650290916602A0916702B091B0
:1018E00068020196A11DB11D809365029093660266
:1018F000A0936702B0936802BF91AF919F918F91BF
:101900003F912F910F900FBE0F901F90189526E8D2
:10191000230F0296A11DB11DD2CF1F920F920FB6B9
:101920000F9211242F933F934F935F936F937F9365
:101930008F939F93AF93BF93EF93FF93E0911C011D
:10194000F0911D010995FF91EF91BF91AF919F918A
:101950008F917F916F915F914F913F912F910F9058
:101960000FBE0F901F9018951F920F920FB60F92F7
:1019700011242F933F934F935F936F937F938F9394
:101980009F93AF93BF93EF93FF93E0911A01F09170
:101990001B010995FF91EF91BF91AF919F918F919D
:1019A0007F916F915F914F913F912F910F900FBE5B
:1019B0000F901F9018951F920F920FB60F9211243F
:1019C0002F933F934F935F936F937F938F939F9347
:1019D000AF93BF93EF93FF93E0911801F09119013A
:1019E0000995FF91EF91BF91AF919F918F917F9159
:1019F0006F915F914F913F912F910F900FBE0F907C
:101A00001F9018951F920F920FB60F9211242F93CB
:101A10003F934F935F936F937F938F939F93AF9376
:101A2000BF93EF93FF93E0911601F0911701099591
:101A3000FF91EF91BF91AF919F918F917F916F91A6
:101A40005F914F913F912F910F900FBE0F901F907C
:101A500018951F920F920FB60F9211242F933F9358
:101A60004F935F936F937F938F939F93AF93BF93A6
:101A7000EF93FF93E0911401F09115010995FF9107
:101A8000EF91BF91AF919F918F917F916F915F91F6
:101A90004F913F912F910F900FBE0F901F9018956F
:101AA0001F920F920FB60F9211248F939F938091E4
:101AB000E1009091E100937F9093E10083FF0FC0DC
:101AC0001092E90091E09093EB001092EC0092E309
:101AD0009093ED001092760298E09093F00082FFD0
:101AE00022C093E09093E9009091F200992319F0BD
:101AF0009AE39093E80090915902992341F09091D4
:101B00005902915090935902911101C05D9A9091A0
:101B10007502992341F0909175029150909375024E
:101B2000911101C0289A84FF18C08091E2008E7E36
:101B300081608093E2008091E1008F7E8093E100DC
:101B400080915A028E7E806180935A029F918F917C
:101B50000F900FBE0F901F90189580FFF7CF8091C8
:101B6000E2008E7E80618093E2008091E1008E7EB3
:101B70008093E10080915A028E7E8160E5CF1F92B2
:101B80000F920FB60F921124CF92DF92EF92FF9235
:101B90000F931F932F933F934F935F936F937F9375
:101BA0008F939F93AF93BF93EF93FF93CF93DF9365
:101BB000CDB7DEB76C97DEBFCDBF1092E900809144
:101BC000E80083FF25C068E0CE0145960E94950598
:101BD00082EF8093E8008D8987FF39C09091E800FB
:101BE00090FFFCCF982F907609F034C19E894F89E1
:101BF000588D2F89F88C911131C0803861F5809112
:101C00005B028093F1001092F1008EEF8093E80068
:101C10006C960FB6F894DEBF0FBECDBFDF91CF91AB
:101C2000FF91EF91BF91AF919F918F917F916F91B4
:101C30005F914F913F912F911F910F91FF90EF90E6
:101C4000DF90CF900F900FBE0F901F9018959EEFD2
:101C50009093E800C7CF1092F100D5CF913059F49E
:101C60008111D3CF4130510581F680915B028D7F88
:101C700080935B02CACF933049F48111C6CF4130C3
:101C8000510519F680915B028260F2CF953041F4E4
:101C90008091E80080FFFCCF20682093E300B5CF5F
:101CA000963009F0A9C00B8D1C8D22E01092E9003E
:101CB0001092570210925602F2122EC01092550244
:101CC000109254020E9464051F8299E09983FA825F
:101CD00091E09E8390EA98879AEF99872091560227
:101CE00030915702275F3F4F3C832B838D831092A7
:101CF000E900109257021092560210935502009379
:101D0000540249E050E0BE016F5F7F4F80E00E94C7
:101D10003E050E94640579CF10935502009354024A
:101D20000E94FC02DC0112960D911C910115110517
:101D300009F451C1D801ED91FC910480F581E02DA9
:101D4000BE016B5E7F4FC8010995009709F03EC147
:101D5000F80100851185EACFF3E0FF120EC08F89EC
:101D6000882309F440C0823061F440E862E187E1F1
:101D700091E00E940B05811148CF81E28093EB0036
:101D800047CF813029F440E862E184E091E0F1CF6F
:101D9000833099F70E94FC02DC011296ED90FC90D2
:101DA0008E010F5F1F4F6801E114F10479F0D70134
:101DB000ED91FC910680F781E02DB801C7010995EE
:101DC000080F111DF701E084F184EECFD8011C92B9
:101DD000F60101900020E9F73197BF016C197D09E8
:101DE00040E0C601C6CF6EEE70E0FB01449150E0CA
:101DF00080E80E943E0509CF973009F4BECF9830A5
:101E000021F481E08093F10000CF993009F0FDCEFC
:101E1000837009F0B2CFE9E2F1E081E031E096E3CE
:101E20002191222371F08093E9003093EB00DF01D0
:101E300011972C912093EC009093ED008F5F8730E9
:101E400079F78EE78093EA001092EA008F898093F9
:101E50007602DBCE8B8D9C8D1092E900109257029A
:101E6000109256029093550280935402898D8111ED
:101E700092C08E899D89913A49F4813209F07DCFD3
:101E800047E050E064E071E080E0B3CF913209F0C8
:101E900074CF833269F48F89988DB0E0A0E080938D
:101EA000000190930101A0930201B0930301ADCE14
:101EB000803269F48091E80082FFFCCF67E084E023
:101EC00091E00E9495058BEF8093E8009ECE8232D0
:101ED00009F09BCE8F8980930B01EEEFFFE7859190
:101EE00094918B3F9C4D51F1E0E0F8E0809104012A
:101EF00090910501A0910601B0910701803B9440AB
:101F0000A105B105F1F480910B0180FD1AC0EE3FEF
:101F10008AE0F80789F587E797E7918380838091C6
:101F200060008093580288E19BE00FB6F894A89572
:101F3000809360000FBE9093600067CEEEEFFAE0F2
:101F4000D5CF808191818737974709F05ECEA895DC
:101F50008091600088618093600080915802809336
:101F60006000EE3F2AE0F20789F08091FE0A90912E
:101F7000FF0A9183808349CE8081918187379807BA
:101F800051F29093FF0A8093FE0AC5CF1092FF0A88
:101F90001092FE0A3ACE0E94FC02DC0112960D91CC
:101FA0001C910115110509F4E8CED801ED91FC91C1
:101FB0000190F081E02DBE016B5E7F4FC801099555
:101FC000811123CEF80100851185EBCF1816190673
:101FD0000CF41BCED2CEF1E0FF12BECE62EF70E069
:101FE00004CF1F920F920FB60F9211242F933F939D
:101FF0004F935F936F937F938F939F93AF93BF9311
:10200000EF93FF93CF93DF9300D01F92CDB7DEB74E
:1020100083B1898389819091DB0289278A838091AA
:102020006B009A8189238B838B8180FF05C0E091AF
:102030004402F091450209958B8181FF05C0E09132
:102040004602F091470209958B8182FF05C0E0911D
:102050004802F091490209958B8183FF05C0E09108
:102060004A02F0914B0209958B8184FF05C0E091F3
:102070004C02F0914D0209958B8185FF05C0E091DE
:102080004E02F0914F0209958B8186FF05C0E091C9
:102090005002F091510209958B8187FF05C0E091B4
:1020A0005202F0915302099589818093DB020F90CF
:1020B0000F900F90DF91CF91FF91EF91BF91AF9172
:1020C0009F918F917F916F915F914F913F912F9150
:1020D0000F900FBE0F901F9018951F920F920FB682
:1020E0000F9211242F933F934F935F936F937F939E
:1020F0008F939F93AF93BF93EF93FF9380915A0376
:1021000090915B032091580330915903AC01421B1D
:10211000530B50934F0340934E0390935903809376
:1021200058038091930390919403209191033091EF
:102130009203AC01421B530B5093880340938703D7
:10214000909392038093910380914D03813021F00D
:1021500080914D03823021F48BE493E00E942307A9
:1021600080918603813021F080918603823021F4B2
:1021700084E893E00E942307FF91EF91BF91AF9114
:102180009F918F917F916F915F914F913F912F918F
:102190000F900FBE0F901F901895CF93DF93EBE831
:1021A000F2E01382128288EE93E0A0E0B0E0848334
:1021B0009583A683B7838DE391E0918380838FEF2E
:1021C0009FEF9587848783B18093DB02EBE4F3E094
:1021D000128214821382158216821782108612864A
:1021E00011862CE231E03487238716861586108A03
:1021F0001786128A118A148A138A40E050E060EA36
:1022000070E4458B568B678B708F80E090E0A0E088
:10221000BFE3818F928FA38FB48F158E168E178E8A
:1022200010A211A212A213A214A215A216A217A202
:1022300010A611A612A613A614A615A616A617A6D2
:1022400010AA11AA12AA13AA14AA15AA16AA17AAA2
:1022500010AECBE5D1E0D183C08313AE15AE14AE82
:102260001092890310928A0310928B0310928C03B0
:1022700010928E0310928D033093900320938F035E
:102280001092920310929103109294031092930370
:102290001092960310929503109298031092970350
:1022A0004093990350939A0360939B0370939C030C
:1022B00080939D0390939E03A0939F03B093A003EC
:1022C0001092A1031092A2031092A3031092A403F0
:1022D0001092A5031092A6031092A7031092A803D0
:1022E0001092A9031092AA031092AB031092AC03B0
:1022F0001092AD031092AE031092AF031092B00390
:102300001092B1031092B2031092B3031092B4036F
:102310001092B5031092B6031092B7031092B8034F
:102320001092B9031092BA031092BB031092BC032F
:1023300085E591E092AF81AF8EED95E3AAE7BCE32E
:102340008093BD039093BE03A093BF03B093C003DB
:1023500083E393E3ABEEB0E48093C1039093C203B5
:10236000A093C303B093C40380E190E09093C603AD
:102370008093C503E3E4F3E0128215828FE491E0D9
:1023800091838083ECE2F3E0108213821482158241
:1023900016828AE090E0A0E0B0E087839087A18772
:1023A000B28713861486158616861786108A118AB8
:1023B000128A80E090E0A6ECB2E4838B948BA58B2C
:1023C000B68B81E181838CE08283E4E1F3E08EE0EF
:1023D00080831282118213821482158216821782E0
:1023E0001086118612861386148615861686178621
:1023F000108A118A128A138A148A158A168A178AF1
:10240000ECEDF2E080E090E8A9E8B3E480A391A3CA
:10241000A2A3B3A380E090E0A0E0B0E484A395A3DE
:10242000A6A3B7A386E090E091A780A783E090E001
:10243000A0E0B0E086A797A7A0ABB1AB8BE090E09F
:1024400093AB82AB84E090E095AB84AB8DE090E001
:1024500097AB86ABDF91CF910895789484B5826075
:1024600084BD84B5816084BD85B5826085BD85B538
:10247000816085BD80916E00816080936E001092B6
:102480008100809181008260809381008091810031
:1024900081608093810080918000816080938000C2
:1024A0008091910082608093910080919100816081
:1024B0008093910080919000816080939000809142
:1024C000C10084608093C1008091C10082608093CC
:1024D000C1008091C10081608093C1008091C300E0
:1024E00081608093C3008091C00082608093C000AF
:1024F0008091C20081608093C20080917A008460E4
:1025000080937A0080917A00826080937A00809133
:102510007A00816080937A0080917A00806880934D
:102520007A001092760210925B0210925A02809109
:10253000D70081608093D70080EA8093D80089B566
:10254000806189BD89B5826089BD09B400FEFDCF77
:1025500061E070E080E090E00E9438048091D80053
:102560008F7C80618093D8008091E000807F809391
:10257000E0008091E1008E7E8093E1008DE0809309
:10258000E200559A209A81E691E00E94060C2E986E
:10259000269A2D98259A2A98229A2998219A2F9836
:1025A000279AF8948AEA8093800089E180938100D9
:1025B00084EA91E0909387008093860010928900CE
:1025C0001092880010928B0010928A0010928D0059
:1025D00010928C00789480E691E00E94060C8FE6C1
:1025E00091E00E94060C24982C9A6A98729A6E9830
:1025F000769A8098889A69E278E084E00E94FA06E8
:1026000060E478E084E00E940A016CB1262F30E09B
:10261000359527953595279583B1422F4170682FC1
:1026200070E0E4E075956795EA95E1F762276170DF
:102630008BE493E00E94F9078BE493E00E944B083F
:102640006CB1262F30E0359527953595279583B1C8
:10265000422F4170682F70E0A4E075956795AA95A8
:10266000E1F76227617084E893E00E94F90784E84B
:1026700093E00E944B088EE691E00E94060CF894CD
:102680001092C0008BE08093C1001092C2001092A3
:10269000C30089EF8093D10084E080937200789426
:1026A00060E0809114030E94B3038091140384308E
:1026B00018F0873009F041C18EE791E00E94060CC6
:1026C00080911403882309F430C1813009F42FC1AB
:1026D000823009F42EC1833009F42DC1873029F4EA
:1026E00084E066E778E00E940A0160E080912D03B3
:1026F0000E94B30380912D03843018F0873009F0D5
:1027000037C18DE991E00E94060C80912D0388234A
:1027100009F426C1813009F425C1823009F424C1AD
:10272000833009F423C1873029F484E065E578E03B
:102730000E940A0161E080912E030E94B30361E0D0
:1027400080910E030E94B30361E0809110030E9408
:10275000B30361E0809112030E94B30360E080E064
:102760000E94B30360E081E00E94B30388EA809393
:10277000800081E180938100C0E9D1E0D09387009F
:10278000C093860010928D0010928C0069E47AE06C
:1027900082E00E940A0161E27AE083E00E940A017D
:1027A000F89410927B0210927C0210927D0210929B
:1027B0007E027894F89410927B0210927C02109220
:1027C0007D0210927E02789484E690E090930F014F
:1027D00080930E01D0931101C093100160E08EE050
:1027E0000E94B3038FEF9FEF90939802809397021C
:1027F000109263021092620283E493E00E94160C2E
:102800008823D1F36AE070E080E090E00E94380411
:1028100083E493E00E94160C882371F383E493E031
:102820000E94160C8111FACF6AE070E080E090E01F
:102830000E94380483E493E00E94160C8111EECFCD
:102840000E94DE090E94DB0968EE73E080E090E000
:102850000E94380408E010E0C6E0D0E063E0262ED5
:10286000312C82E0682E712CEE24E394F12C2BE0C5
:10287000C22ED12C3AE5A32EB12C44E0842E912C0B
:1028800050E0452E50E0552E80911503909116038F
:10289000049711F5109216031092150380911B03F3
:1028A00090911C03A0911D03B0911E038A2F90E00C
:1028B0008130910509F06FC08091620290916302AE
:1028C0009093610280936002D0936302C09362028E
:1028D00084ED91E00E94060CF89460917B02709167
:1028E0007C0280917D0290917E0278940E94A60ADB
:1028F0008AEE91E00E94990AE0916202F0916302EF
:10290000ED30F10508F01AC1E857FB4E0C9453174F
:10291000E9147615FD156F1619151F169916B216BE
:10292000A515CD15E215F916181782E0DACE83E069
:10293000D8CE81E0D6CE80E0D4CE8CE891E00E9463
:10294000060CE0911403E8508FEFEA3020F4F0E039
:10295000E15DFE4F808166E778E00E94FA06C5CE11
:1029600082E0E4CE83E0E2CE81E0E0CE80E0DECE25
:1029700087EB91E00E94060CE0912D03E8508FEF69
:10298000EA3020F4F0E0E15DFE4F808165E578E01B
:102990000E94FA06CFCE8530910559F480916002ED
:1029A00090916102909363028093620283EE91E0C2
:1029B00091CF8D30910529F410926302109262023A
:1029C0008BCF409709F088CF109363020093620287
:1029D00083CF0E94E1090E94DB098B3F91050CF433
:1029E000ADC00E94DE098B3F91050CF4A7C020E02A
:1029F00030E0A901CA01B9010E9447019092610229
:102A000080926002D0936302C09362028FEE91E0E5
:102A10000E94060C8BE493E00E944B08F89480918E
:102A20005A0390915B03789490935F0280935E02C7
:102A300085C08CEF91E00E94060CB0925D02A092DE
:102A40005C0220E030E0A90160E070E080E291E407
:102A50000E94ED012091BD033091BE034091BF0360
:102A60005091C00360E070E080EE90E40E94CB17CC
:102A70000E943D18F89420915A0330915B0378949A
:102A8000260F371F309355032093540322E02093E1
:102A90004D03F89440919303509194037894460F1A
:102AA000571F50938E0340938D03209386030E94FB
:102AB0006A0460915C0270915D02072E000C880B25
:102AC000990B0E9475180E947A041093610200937A
:102AD0006002D0936302C09362028BE493E00E9491
:102AE0004B0884E893E00E944B0828C00E94E1094B
:102AF000F89480915A0390915B03789482379440C4
:102B0000A4F020E030E0A901CA01B9010E94470108
:102B1000D0936302C0936202D0926102C0926002BD
:102B200082E092E00E94060C09C0F8948091930321
:102B3000909194037894823794401CF74114510487
:102B400009F4A2CE0E9400008CCE88E39FEF0E9481
:102B5000290BF89480917B0290917C02A0917D02D8
:102B6000B0917E0278948033984FAF4FBF4F34F7C7
:102B700010928702109288021092890210928A02A3
:102B8000F0926102E0926002D0936302C09362020D
:102B90008FE092E00E94990AD1CF88E39FEF0E94D4
:102BA000290BF89480917B0290917C02A0917D0288
:102BB000B0917E02789484389A4EAF4FBF4F0CF09C
:102BC000BDCFD6CF20E030E048EC51E460E070E0CB
:102BD00088EC91EC0E9447010E94DE098B3F910531
:102BE0000CF4ACCF7092610260926002D0936302E9
:102BF000C09362028CE192E095CF0E94E1090E94AD
:102C0000DB098B3F91050CF499CF0E94DE098B3FC5
:102C100091050CF493CF20E030E0A901CA01B9017D
:102C20000E94470185E090E09093610280936002EA
:102C3000D0936302C093620289E292E0E9CE8CEF06
:102C400091E00E94060C20E030E0A90160E070E015
:102C500080E291E40E94ED012091BD033091BE031A
:102C60004091BF035091C0036CE57FE88AEE90E489
:102C70000E94CB170E943D18F89420915A0330917E
:102C80005B037894260F371F30935503209354032A
:102C900022E020934D03F8944091930350919403C4
:102CA0007894460F571F50938E0340938D032093C3
:102CB00086030E946A0460915C0270915D027195C6
:102CC00061957109072E000C880B990B0E947518ED
:102CD0000E947A043092610220926002FACE0E9431
:102CE000E109F89480915A0390915B037894843AB7
:102CF00096400CF423CFF894809193039091940321
:102D00007894843A96400CF419CF20E030E0A90181
:102D1000CA01B9010E944701D0936302C0936202C5
:102D200087E090E0909361028093600286E392E0F6
:102D3000F9CE10924D0370E060E08BE493E00E94C6
:102D4000E0071092860370E060E084E893E00E9460
:102D5000C70790E080E00E94710A8CE091E00E9439
:102D6000CF06ECCE84E690E00E94290BF894809187
:102D70007B0290917C02A0917D02B0917E027894BA
:102D8000181619061A061B061CF5F89480917B028A
:102D900090917C02A0917D02B0917E02789485365C
:102DA0009105A105B1050CF4C9CE8CE090E090939B
:102DB000610280936002D0936302C093620210921A
:102DC0008702109288021092890210928A02E0CE45
:102DD000F89480917B0290917C02A0917D02B09149
:102DE0007E0278948C399F4FAF4FBF4F0CF0A6CE28
:102DF000DCCF8CE091E00E94DA066CE97FEF8CE09A
:102E000091E00E94A8068CE091E00E94CF0664E663
:102E100070E080E090E00E9438048AE090E09093B7
:102E2000610280936002D0936302C093620286CEF7
:102E30008CE091E00E94DA0664E670E08CE091E0BC
:102E40000E94A8068CE091E00E94CF0664E670E044
:102E500080E090E00E943804D0936102C093600249
:102E6000E2CFA1E21A2EAA1BBB1BFD010DC0AA1FB7
:102E7000BB1FEE1FFF1FA217B307E407F50720F0E3
:102E8000A21BB30BE40BF50B661F771F881F991F5E
:102E90001A9469F760957095809590959B01AC01A7
:102EA000BD01CF010895EE0FFF1F0590F491E02DB5
:102EB00009945058BB27AA270E9471170C94EB184D
:102EC0000E94DD1838F00E94E41820F039F49F3F8A
:102ED00019F426F40C94DA180EF4E095E7FB0C9440
:102EE000D418E92F0E94FC1858F3BA176207730729
:102EF0008407950720F079F4A6F50C941E190EF4BA
:102F0000E0950B2EBA2FA02D0B01B90190010C01F9
:102F1000CA01A0011124FF27591B99F0593F50F411
:102F2000503E68F11A16F040A22F232F342F442769
:102F3000585FF3CF469537952795A795F040539561
:102F4000C9F77EF41F16BA0B620B730B840BBAF031
:102F50009150A1F0FF0FBB1F661F771F881FC2F79C
:102F60000EC0BA0F621F731F841F48F487957795B0
:102F70006795B795F7959E3F08F0B0CF9395880F6A
:102F800008F09927EE0F9795879508950E94B0183D
:102F900008F481E008950E94DF170C94EB180E945A
:102FA000E41858F00E94DD1840F029F45F3F29F042
:102FB0000C94D41851110C941F190C94DA180E9417
:102FC000FC1868F39923B1F3552391F3951B550B26
:102FD000BB27AA2762177307840738F09F5F5F4FEC
:102FE000220F331F441FAA1FA9F335D00E2E3AF02B
:102FF000E0E832D091505040E695001CCAF72BD043
:10300000FE2F29D0660F771F881FBB1F2617370793
:103010004807AB07B0E809F0BB0B802DBF01FF27C5
:1030200093585F4F3AF09E3F510578F00C94D418B6
:103030000C941F195F3FE4F3983ED4F3869577957F
:103040006795B795F7959F5FC9F7880F911D96957E
:10305000879597F90895E1E0660F771F881FBB1FDA
:10306000621773078407BA0720F0621B730B840B87
:10307000BA0BEE1F88F7E09508950E9444186894F3
:10308000B1110C941F1908950E94041988F09F57DC
:1030900098F0B92F9927B751B0F0E1F0660F771F7C
:1030A000881F991F1AF0BA95C9F714C0B13091F072
:1030B0000E941E19B1E008950C941E19672F782FF5
:1030C0008827B85F39F0B93FCCF386957795679537
:1030D000B395D9F73EF490958095709561957F4FA3
:1030E0008F4F9F4F0895E89409C097FB3EF4909549
:1030F0008095709561957F4F8F4F9F4F9923A9F0D1
:10310000F92F96E9BB279395F6958795779567955F
:10311000B795F111F8CFFAF4BB0F11F460FF1BC0A3
:103120006F5F7F4F8F4F9F4F16C0882311F096E936
:1031300011C0772321F09EE8872F762F05C06623E4
:1031400071F096E8862F70E060E02AF09A95660F9D
:10315000771F881FDAF7880F9695879597F9089556
:10316000990F0008550FAA0BE0E8FEEF1616170698
:10317000E807F907C0F012161306E407F50798F000
:10318000621B730B840B950B39F40A2661F0232B19
:10319000242B252B21F408950A2609F4A140A69595
:1031A0008FEF811D811D089597F99F6780E870E07A
:1031B00060E008959FEF80EC089500240A941616AD
:1031C000170618060906089500240A941216130615
:1031D000140605060895092E0394000C11F48823A3
:1031E00052F0BB0F40F4BF2B11F460FF04C06F5FBF
:1031F0007F4F8F4F9F4F089557FD9058440F551F95
:1032000059F05F3F71F04795880F97FB991F61F068
:103210009F3F79F087950895121613061406551FDF
:10322000F2CF4695F1DF08C0161617061806991F4B
:10323000F1CF86957105610508940895E894BB2740
:1032400066277727CB0197F908950E94B01808F4F4
:103250008FEF08950E943D190C94EB180E94DD1821
:1032600038F00E94E41820F0952311F00C94D41843
:103270000C94DA1811240C941F190E94FC1870F396
:10328000959FC1F3950F50E0551F629FF001729F0B
:10329000BB27F00DB11D639FAA27F00DB11DAA1F1A
:1032A000649F6627B00DA11D661F829F2227B00D67
:1032B000A11D621F739FB00DA11D621F839FA00DF2
:1032C000611D221F749F3327A00D611D231F849F42
:1032D000600D211D822F762F6A2F11249F57504099
:1032E0009AF0F1F088234AF0EE0FFF1FBB1F661F14
:1032F000771F881F91505040A9F79E3F510580F0DD
:103300000C94D4180C941F195F3FE4F3983ED4F347
:10331000869577956795B795F795E7959F5FC1F780
:10332000FE2B880F911D9695879597F9089581E05A
:0C33300090E0F8940C949C19F894FFCFE6
:10333C00FFFFFFFF00E10000000000002201E80396
:10334C00D007FF00DC04DC04DC04DC04DC0400003B
:10335C000000DA06CF06A80600C180810000000438
:10336C00050607FFFF03010200000000002706A26C
:10337C000548063D068E064C066A0600000000163F
:10338C000C00000000C70700000000E0070D0A0059
:10339C002F696E69744D6F746F72732829002F69D1
:1033AC006E6974456E636F6465727328290041748D
:1033BC0074616368696E672049535200417474618B
:1033CC006368696E672050435F49535200417474BF
:1033DC00616368696E672072616E676566696E64A9
:1033EC0065722049535200417474616368696E6759
:1033FC002072616E676566696E6465722050435F0A
:10340C0049535200456D657267656E63792053743C
:10341C006F70004F6E77617264006C6F6F70004359
:10342C006865636B706F696E742031004368656307
:10343C006B00436865636B706F696E742032004378
:10344C006865636B706F696E7420330043686563E5
:10345C006B706F696E74203400436865636B706FBA
:10346C00696E74203500436865636B706F696E74A8
:04347C0020360000F6
:00000001FF
