:100000000C94E0000C94690D0C94420D0C941B0DA3
:100010000C94F40C0C9408010C9408010C94CD0C75
:100020000C9408010C9431100C94900D0C94FF0D5D
:100030000C9408010C9408010C9408010C9408011C
:100040000C9408010C9408010C9408010C9408010C
:100050000C9408010C9408010C9408010C94830C76
:100060000C9408010C9408010C9408010C940801EC
:100070000C9408010C9408010C9408010C940801DC
:100080000C9408010C9408010C9408010C940801CC
:100090000C9408010C9408010C9408010C940801BC
:1000A0000C9408010C94AD100C940801080B00028C
:1000B0000202000009040000010202000005240001
:1000C0001001052401010104240206052406000193
:1000D0000705810310004009040100020A00000026
:1000E00007050202400000070583024000000403E8
:1000F000090412010002EF020140FB1F002300016E
:1001000001020301506F6C6F6C7520436F72706F4A
:10011000726174696F6E00506F6C6F6C7520412D49
:100120005374617220333255340007060504010010
:10013000080A0B0C0D0900000000240027002A000B
:100140002D00300000000000250028002B002E00AC
:100150003100000000002300260029002C002F00A1
:10016000040404040403040502020202040302025C
:10017000020206060606060604040202020404043D
:100180000802011040804010204080408008020496
:10019000018040201002011080102040402000000B
:1001A000000200090F0000030401000C0000000021
:1001B00000000000000000000000000000000D1121
:1001C00011241FBECFEFDAE0DEBFCDBF12E0A0E00A
:1001D000B1E0EEEDF9E302C005900D92AE3FB1073C
:1001E000D9F724E0AEEFB2E001C01D92A136B2070C
:1001F000E1F710E0C0EED0E004C02197FE010E94BC
:10020000A41ACF3DD107C9F70E946E120C94ED1CC1
:100210000C940000E82FF0E0EE0FFF1FEC5EFE4FA5
:10022000718360838230D9F028F4882341F08130D3
:1002300071F008958330D9F0843009F108958091E8
:1002400069008C7F816080936900E89A08958091AD
:100250006900837F846080936900E99A08958091A2
:1002600069008F7C806180936900EA9A089580918B
:1002700069008F73806480936900EB9A0895809180
:100280006A008F7C806180936A00EE9A08954F9295
:100290005F926F927F928F929F92AF92BF92CF9216
:1002A000DF92EF92FF92CF93DF9300D000D0CDB7D3
:1002B000DEB769837A838B839C8329013A0160913D
:1002C0005F047091600490E080E00E94C41B20E015
:1002D00030E04AE754E40E941C1B4B015C01C090D3
:1002E0005704D0905804E0905904F0905A04A301A8
:1002F00092010E947B1CA70196010E941C1B0E9478
:100300008E1B2B0129813A814B815C81C501B4018F
:100310000E947B1CA70196010E941C1B0E948E1B41
:10032000072E000C880B990B0E94C61B6093EA03F2
:100330007093EB038093EC039093ED038091E703BC
:10034000813081F010920E0410920F04109210046C
:10035000109211048091F4039091F5039093F303AC
:100360008093F20381E08093E703B201550C880B80
:10037000990B0E94C61B60932304709324048093FE
:1003800025049093260480912004813081F01092FE
:100390004704109248041092490410924A04809134
:1003A0002D0490912E0490932C0480932B0481E0D3
:1003B000809320040F900F900F900F90DF91CF91BA
:1003C000FF90EF90DF90CF90BF90AF909F908F9075
:1003D0007F906F905F904F9008954F925F926F92D1
:1003E0007F928F929F92AF92BF92CF92DF92EF92C5
:1003F000FF92CF93DF93CDB7DEB728970FB6F8946F
:10040000DEBF0FBECDBF4B015C012D833E834F830A
:10041000588760915F047091600490E080E00E94D2
:10042000C41B20E030E04AE754E40E941C1B6B012F
:100430007C0140905704509058046090590470908B
:100440005A04A50194010E947B1CA30192010E9401
:100450001C1B0E948E1B69837A838B839C8323ECF5
:1004600035EF48E450E460915B0470915C04809146
:100470005D0490915E040E947B1C20E030E044E328
:1004800053E40E941C1B4B015C012D813E814F8176
:100490005885C701B6010E947B1C9B01AC01C501B8
:1004A000B4010E947B1CA30192010E941C1B0E94AC
:1004B0008E1B6B0169817A816C197D09072E000CF6
:1004C000880B990B0E94C61B6093EA037093EB03A1
:1004D0008093EC039093ED038091E703813081F0EA
:1004E00010920E0410920F04109210041092110436
:1004F0008091F4039091F5039093F3038093F203BA
:1005000081E08093E70389819A81C80ED91EB601E4
:10051000DD0C880B990B0E94C61B6093230470931B
:100520002404809325049093260480912004813034
:1005300081F01092470410924804109249041092DE
:100540004A0480912D0490912E0490932C04809362
:100550002B0481E08093200428960FB6F894DEBF28
:100560000FBECDBFDF91CF91FF90EF90DF90CF9086
:10057000BF90AF909F908F907F906F905F904F90C3
:100580000895FC0180913A03882311F13FB7F89454
:1005900082E08093E9002091F200822F90E018160B
:1005A000190614F481E090E0882339F0289844E695
:1005B000409339034091F1004083222339F0209188
:1005C000F200211103C02BE62093E8003FBF0895FD
:1005D0008FEF9FEF08952FB7F89483E08093E900A1
:1005E0009091E800892F807295FF04C09091F200ED
:1005F00080E4891B2FBF08958091310381110DC0C4
:1006000082E080932D0384E080932E0310923003C8
:1006100010922F0381E0809331038DE293E00895DF
:1006200081508F3008F047C0E82FF0E0E65EFC4FC5
:100630000C94A41A37033B0329032F0333035B03F2
:100640005B035B033E03440348034C0352035B0319
:100650005603809180008F77809380000895809169
:1006600080008F7DF9CF80918000877FF5CF84B5A2
:100670008F7784BD089584B58F7DFBCF80919000E6
:100680008F77809390000895809190008F7DF9CFAF
:1006900080919000877FF5CF8091C0008F77809305
:1006A000C00008958091C0008F7DF9CF8091C20075
:1006B000877F8093C2000895CF93DF93282F30E087
:1006C000F901E256FE4F8491F901E158FE4FD491B1
:1006D000F901E05AFE4FC491CC23A1F081110E9490
:1006E0001003EC2FF0E0EE0FFF1FEE5AFE4FA59126
:1006F000B491EC91ED2381E090E009F480E0DF918A
:10070000CF91089580E090E0FACF1F93CF93DF93CD
:10071000282F30E0F901E256FE4F8491F901E158AB
:10072000FE4FD491F901E05AFE4FC491CC23A9F0B9
:10073000162F81110E941003EC2FF0E0EE0FFF1F27
:10074000EC5BFE4FA591B4918FB7F894EC91111129
:1007500008C0D095DE23DC938FBFDF91CF911F912E
:100760000895DE2BF8CFCF93DF9390E0FC01E158A2
:10077000FE4F2491805A9E4FFC0184918823C9F03A
:1007800090E0880F991FFC01EA5CFE4FA591B4919F
:10079000FC01EC5BFE4FC591D49161110DC09FB778
:1007A000F8948C91209582238C9388812823288328
:1007B0009FBFDF91CF910895623051F49FB7F894B5
:1007C0003C91822F809583238C93E8812E2BEFCF51
:1007D0008FB7F894EC912E2B2C938FBFEACF8231F8
:1007E00008F08251E82FF0E0E65DFE4FE491909131
:1007F0007B008E2F880F880F80729F7D892B8093BE
:100800007B00E770E064E0937C0080917A00806474
:1008100080937A0080917A0086FDFCCF80917800E9
:100820009091790008953FB7F894809129039091B1
:100830002A03A0912B03B0912C0326B5A89B05C0D9
:100840002F3F19F00196A11DB11D3FBFBA2FA92F4F
:10085000982F8827BC01CD01620F711D811D911D4C
:1008600042E0660F771F881F991F4A95D1F70895B8
:100870008F929F92AF92BF92CF92DF92EF92FF92B0
:100880004B015C010E9413046B017C010E94130464
:100890006C197D098E099F09683E73408105910599
:1008A000A8F321E0821A9108A108B10888EEC80EC9
:1008B00083E0D81EE11CF11C81149104A104B10451
:1008C00029F7FF90EF90DF90CF90BF90AF909F906F
:1008D0008F9008958091E703811104C080912004D6
:1008E000882339F061E070E080E090E00E943804F5
:1008F000F1CF08958F929F92AF92BF92CF92DF92E5
:10090000EF92FF924B015C0169017A01E894F7F8DC
:1009100020E030E0A9010E94761C181624F0F7FAB6
:10092000F094F7F8F094A701960160E070E0CB0135
:100930000E94ED0123EC35EF48E450E460915B0444
:1009400070915C0480915D0490915E040E947B1C18
:1009500020E030E044E353E40E941C1BA501940115
:100960000E947B1C209157043091580440915904F7
:1009700050915A040E941C1B0E948E1BF8942091D7
:10098000F4033091F5037894261B370B3093EF0373
:100990002093EE0322E02093E703F89440912D0486
:1009A00050912E047894CA01860F971F90932804C3
:1009B0008093270420932004FF90EF90DF90CF9046
:1009C000BF90AF909F908F900C946A048F929F92EB
:1009D000AF92BF92CF92DF92EF92FF920F934B01B3
:1009E0005C0169017A01E894F7F820E030E0A901A0
:1009F0000E94761C181624F0F7FAF094F7F8F09499
:100A000020E030E0A901C701B6010E94ED0120916C
:100A10005704309158044091590450915A04C5012B
:100A2000B4010E941C1B0E948E1BF8942091F403B9
:100A30003091F5037894260F371F3093EF032093FE
:100A4000EE0322E02093E703F89440912D045091A7
:100A50002E047894CA01860F971F909328048093E0
:100A6000270420932004002359F00F91FF90EF906A
:100A7000DF90CF90BF90AF909F908F900C946A04BE
:100A80000F91FF90EF90DF90CF90BF90AF909F902D
:100A90008F9008952FB7F8946091250370912603E5
:100AA00080912703909128032FBF089508954091C6
:100AB00010035091110320910E0330910F03421740
:100AC0005307B4F49091E8009570E1F39091E80039
:100AD00092FD19C08093F100809110039091110351
:100AE00001968F739927892B19F48EEF8093E80074
:100AF00080911003909111030196909311038093BC
:100B0000100381E0089580E00895EF92FF920F9323
:100B10001F93CF93DF93F82E192FE62E042F81E039
:100B2000860F880F0E94570583E00E945705CF2D3E
:100B3000D12FEC0EFD2EF11CCE15DF05B9F007FF0D
:100B400013C0FE0184910E945705182F80E00E9477
:100B50005705812321968111EFCFDF91CF911F910E
:100B60000F91FF90EF9008958881EDCF81E0F5CF50
:100B7000DF92EF92FF920F931F93CF93DF93D82EC4
:100B80008A01EB017B01E40EF51ECE15DF0559F05D
:100B9000D7FE12C0FE0184910E9457052196811153
:100BA000F4CF0FEF1FEFC801DF91CF911F910F918D
:100BB000FF90EF90DF9008958881EECF0F931F9301
:100BC000CF93DF931F92CDB7DEB782E0898342E4F3
:100BD00050E06CEA70E080E80E94B8050E94FC02D8
:100BE000DC0112960D911C910115110589F0D801B7
:100BF000ED91FC910280F381E02DBE016F5F7F4F8C
:100C0000C801099597FD04C0F80100851185ECCF56
:100C100089810F90DF91CF911F910F9108956150BD
:100C200030F02091F100FC0120830196F8CF289844
:100C300084E68093390308958F929F92AF92BF927A
:100C4000CF92DF92EF92FF920F931F93CF93DF9398
:100C50006C017B018A0180910B01882309F45CC03F
:100C600080913A03882309F457C08091140380FFD0
:100C700005C08091E00082608093E000E801B12C23
:100C80008AEFA82E93E0892E2AE3922E209711F462
:100C9000BB20D9F10E94EB0281110AC0AA94AA20BC
:100CA000D9F161E070E080E090E00E943804EECF7E
:100CB0008C171D0611F00CF08C2F9FB7F8948092C2
:100CC000E9002091E80025FD02C09FBFDFCF282F5B
:100CD00030E0C21BD30BF701815020F041914093CB
:100CE000F100FACFE20EF31EBB2021F09092E80053
:100CF000B12CEBCF8091E80085FDE7CF9092E80022
:100D0000BB24B394209709F3F3CF5D9884E68093D6
:100D10001303101611063CF081E090E0F601938376
:100D2000828310E000E0C801DF91CF911F910F9105
:100D3000FF90EF90DF90CF90BF90AF909F908F90FB
:100D40000895CF93DF931F92CDB7DEB76983DC019F
:100D5000ED91FC910280F381E02D41E050E0BE0175
:100D60006F5F7F4F09950F90DF91CF91089583E0DA
:100D70008093E9008091F200882319F08AE3809340
:100D8000E80008950E94EB0290E00895CF93DF936E
:100D90001F92CDB7DEB7FC018485958597FD08C00D
:100DA0002FEF3FEF358724870F90DF91CF91089584
:100DB000CE0101960E94C102019719F4898190E049
:100DC000F3CF8FEF9FEFF0CF0F931F93CF93DF936E
:100DD0001F92CDB7DEB78C01FC018485958597FF06
:100DE0000BC0CE0101960E94C102019771F4898166
:100DF00090E0F80195878487F801848595850F90A8
:100E0000DF91CF911F910F9108958FEF9FEFF1CF59
:100E1000FC018485958597FD0BC09FB7F89482E00F
:100E20008093E9008091F2009FBF90E001960895C1
:100E30009FB7F89482E08093E9008091F2009FBF11
:100E400090E008950F931F93CF93DF93EC018B01F4
:100E50008F81811107C0E881F9810190F081E02D37
:100E6000CE0109958A819B810817190730F08C8182
:100E70009D810817190708F4C801880F991F019769
:100E80009093990080939800DF91CF911F910F91DB
:100E90000895DC01F894E0E9F0E090819F77908379
:100EA000789417961C920895CF93DF93EC0161E03C
:100EB00085E00E94B303F89482E8809390008AE171
:100EC000809391008FE39CE9909397008093960024
:100ED00088EB9BE09093990080939800789481E050
:100EE0008F83DF91CF910895F89441E0409368009B
:100EF000ABE6B0E09C91E82FF0E021E030E001C0EB
:100F0000220F8A95EAF7892F822B8C93EE0FFF1F11
:100F1000E250FD4F718360834BBB90918F03822F12
:100F20008095892380938F0383B190918F038223CF
:100F3000892B80938F03789408954F925F926F92DC
:100F40007F928F929F92AF92BF92CF92DF92EF9259
:100F5000FF92CF93DF93EC016B817C81072E000C15
:100F6000880B990B0E94C61B9B01AC016D817E8191
:100F70008F8198850E94AA1A6B017C01C9A2DAA20E
:100F8000EBA2FCA229A53AA54BA55CA50E94AB1A31
:100F90004B015C0189A69AA6ABA6BCA64DA45EA493
:100FA0006FA478A820E030E0A901C301B2010E943B
:100FB000761C18169CF4A50194015F77C301B20159
:100FC0000E94171B87FF0AC0A7019601C501B40143
:100FD0000E94AA1A69A77AA78BA79CA72DA13EA158
:100FE0004FA158A5C701B6010E94AA1A4B015C0186
:100FF000CDA2DEA2EFA2F8A629A53AA54BA55CA535
:10100000698D7A8D8B8D9C8D0E947B1C2B013C0100
:101010002D893E894F89588DC701B6010E947B1CDE
:101020009B01AC01C301B2010E94AB1A6B017C01B0
:101030002D8D3E8D4F8D58A1C501B4010E947B1CA2
:101040009B01AC01C701B6010E94AB1A6DAB7EAB30
:101050008FAB98AF0E948E1BE881F9810190F081DF
:10106000E02DCE01DF91CF91FF90EF90DF90CF90F8
:10107000BF90AF909F908F907F906F905F904F90B8
:10108000099420E077FF04C071956195710921E012
:10109000FC0183859485681779070CF4CB01909344
:1010A000890080938800222319F0299A219A0895B3
:1010B0002998FCCF20E077FF04C0719561957109F4
:1010C00021E0FC0183859485681779070CF4CB0136
:1010D00090938B0080938A00222319F02A9A229AF7
:1010E00008952A98FCCFCF93DF93C5EED3E01A8200
:1010F00070E060E0CE010E945A081BAE70E060E034
:101100008EE194E0DF91CF910C944108CF93DF936F
:10111000EC0189899A8950E070E02B893C89AF8580
:10112000B8898427952726273727821B930B8A0F98
:101130009B1F988B8F877A8B698B5C8B4B8B8A81FB
:10114000823089F42F85388989859A85281739074F
:1011500051F4E881F9810190F081E02D70E060E0C8
:10116000CE0109951A82DF91CF9108956CB1262F97
:1011700030E0359527953595279583B1422F4170FD
:10118000682F70E094E0759567959A95E1F762276E
:10119000617085EE93E00C9486084FB141706CB19C
:1011A00066FB662760F964278EE194E00C9486085C
:1011B000FC01F89487859089108A17861686158613
:1011C000789408958091B3030E945C03892B59F0B1
:1011D0000E9413046093BD037093BE038093BF030A
:1011E0009093C00308950E9413046093C103709309
:1011F000C2038093C3039093C4038091B2038260BF
:101200008093B2030895CF93DF93EC018885811119
:101210000EC0898591E098879A8562E0911101C09E
:1012200060E00E94B3038FE090E00197F1F78985B9
:101230000E945C033B8521E03817190609F420E081
:10124000822FDF91CF910895CF92DF92EF92FF929C
:101250000F931F930E9413046B017C0180919A03EA
:101260000E945C03892B79F4C092A603D092A70355
:10127000E092A803F092A9031F910F91FF90EF90C5
:10128000DF90CF900895C092AA03D092AB03E09272
:10129000AC03F092AD034091AA035091AB0360916F
:1012A000AC037091AD038091A6039091A703A09128
:1012B000A803B091A903481B590B6A0B7B0B8091C3
:1012C000AA039091AB03A091AC03B091AD03C09081
:1012D000AE03D090AF03E090B003F090B103009163
:1012E000AA031091AB032091AC033091AD0300939E
:1012F000AE031093AF032093B0033093B1038A0180
:101300009B010553114221093109073E1340210574
:10131000310548F41092A50381E090E090939C037E
:1013200080939B03A9CF445F514061097109493CF7
:1013300051056105710590F085E090E090939C0364
:1013400080939B038FEF9FEFDC018093A103909329
:10135000A203A093A303B093A4038ECF8C199D097D
:10136000AE09BF0920919B0330919C0321303105C8
:1013700009F056C0AC01BD01415C524161097109DF
:10138000433F51406105710558F41092A10310923A
:10139000A2031092A3031092A40383E090E0BECFB7
:1013A0008D589A40A109B10987359240A105B10530
:1013B00008F062CF82E090E090939C0380939B03BF
:1013C0004091A1035091A2036091A3037091A403E3
:1013D0008091A1039091A203A091A303B091A403D3
:1013E000892F9A2FAB2FBB2784279527A627B727AE
:1013F00088279927BB270097AF4FB10531F085E0CB
:1014000090E090939C0380939B030E944A05609315
:101410009D0370939E0380939F039093A0032CCF12
:101420002330310509F028CFAC01BD0145585340A8
:10143000610971094F3851406105710560F580916E
:10144000A5038F5F8093A5038091A503803209F0E7
:1014500013CF4091A1035091A2036091A303709117
:10146000A4038091A1039091A203A091A303B09142
:10147000A403892F9A2FAB2FBB2784279527A62754
:10148000B72788279927BB270097AF4FB105A9F148
:1014900085E090E043CF815D9740A109B109833F8A
:1014A0009140A105B10510F52091A5034091A1033C
:1014B0005091A2036091A3037091A40381E090E096
:1014C000A0E0B0E004C0880F991FAA1FBB1F2A9597
:1014D000D2F7840F951FA61FB71F8093A103909387
:1014E000A203A093A303B093A403A9CF85E090E047
:1014F00090939C0380939B03A7CF84E090E081CFDF
:1015000085E10C94EF0386E10C94EF038F929F9298
:10151000AF92BF92CF92DF92EF92FF92CF93DF9381
:101520000E94800AEC010E94830ABE01681B790BAD
:10153000072E000C880B990B0E94C61B2AE037ED82
:1015400043E25CE30E947B1C6B017C01AC019B01CC
:1015500060E070E080E291E40E94AA1A4B015C0115
:1015600020E030E040E251E4C701B6010E94AB1A2E
:10157000A5019401DF91CF91FF90EF90DF90CF9084
:10158000BF90AF909F908F900C9447018F929F9245
:10159000AF92BF92CF92DF92EF92FF92CF93DF9301
:1015A0000E94800AEC010E94830ABE01681B790B2D
:1015B000072E000C880B990B0E94C61B2AE037ED02
:1015C00043E25CE30E947B1C6B017C01AC019B014C
:1015D00060E070E080E791E40E94AA1A4B015C0190
:1015E00020E030E040E751E4C701B6010E94AB1AA9
:1015F000A5019401DF91CF91FF90EF90DF90CF9004
:10160000BF90AF909F908F900C944701CF93DF9342
:1016100080E00E945C03EC0181E00E945C03409149
:101620003B0350913C0360913D0370913E03C8170A
:10163000D90779F44F5F5F4F6F4F7F4F40933B0364
:1016400050933C0360933D0370933E03DF91CF9131
:1016500008954150510961097109F0CFCF93DF938B
:1016600080E00E945C03EC0181E00E945C034091F9
:101670003B0350913C0360913D0370913E03C817BA
:10168000D90779F4415051096109710940933B032D
:1016900050933C0360933D0370933E03DF91CF91E1
:1016A00008954F5F5F4F6F4F7F4FF0CFCF93DF9322
:1016B000EC0180919803D7FF18C061E00E94850378
:1016C00060E0809196030E948503D195C195D10970
:1016D000C13981E0D80714F0C0E9D1E0D0938D0082
:1016E000C0938C00DF91CF91089560E00E94850344
:1016F00061E0809196030E948503EACF8F929F92CA
:10170000AF92BF92CF92DF92EF92FF926B017C017A
:10171000F89480903B0390903C03A0903D03B090E0
:101720003E037894D501C4018C199D09AE09BF0907
:10173000B7FF07C0B095A095909581959F4FAF4F8B
:10174000BF4F40919003509191036091920370912B
:101750009303481759076A077B070CF04AC0C70173
:10176000B601681979098A099B09660F771F77FF07
:1017700028C0072E000C880B990B0E94C61B23EC77
:1017800035EF48EE5EE30E947B1C20E030E04AE546
:1017900053E40E94AA1A0E948E1BCB010E94560B92
:1017A000F89480903B0390903C03A0903D03B09050
:1017B0003E0378946AE070E080E090E00E94380494
:1017C000B1CF90E080E06115710541F3072E000C68
:1017D000880B990B0E94C61B2BED39EF4EEB5EE395
:1017E0000E947B1C20E030E04BE753E40E94AB1AE0
:1017F000D2CF90E080E0FF90EF90DF90CF90BF904D
:10180000AF909F908F900C94560BFC01019000209C
:10181000E9F73197AF01481B590BBC018FE393E007
:101820000C941C06CF93DF930E94050CEC0189E613
:1018300091E00E94050C8C0F9D1FDF91CF910895C0
:101840000E94E81CCF93DF93A2EEB0E09C911C9223
:10185000E9EEF0E020811082C0EFD0E038811882FC
:1018600040E028994160209942602098289A80E1C0
:101870008A95F1F783B141FB0EF0209840FB0EF002
:1018800028980EF4289A41FB0EF4209A108238838F
:1018900020839C9380958170DF91CF910895CF93A1
:1018A000DF93A2EEB0E09C911C92E9EEF0E0208183
:1018B0001082C0EFD0E03881188240E05D9941602D
:1018C0005599426055985D9A80E18A95F1F789B102
:1018D00041FB0EF0559840FB0EF05D980EF45D9ABA
:1018E00041FB0EF4559A1082388320839C9390E03C
:1018F00025E0959587952A95E1F7809590958170DB
:10190000DF91CF9108951F920F920FB60F9211247D
:101910002F933F938F939F93AF93BF938091250312
:1019200090912603A0912703B091280330912403BE
:1019300023E0230F2D3758F50196A11DB11D2093EB
:1019400024038093250390932603A0932703B09349
:1019500028038091290390912A03A0912B03B09131
:101960002C030196A11DB11D8093290390932A0396
:10197000A0932B03B0932C03BF91AF919F918F91B4
:101980003F912F910F900FBE0F901F90189526E852
:10199000230F0296A11DB11DD2CF1F920F920FB639
:1019A0000F9211242F933F934F935F936F937F93E5
:1019B0008F939F93AF93BF93EF93FF93E0911C019D
:1019C000F0911D010995FF91EF91BF91AF919F910A
:1019D0008F917F916F915F914F913F912F910F90D8
:1019E0000FBE0F901F9018951F920F920FB60F9277
:1019F00011242F933F934F935F936F937F938F9314
:101A00009F93AF93BF93EF93FF93E0911A01F091EF
:101A10001B010995FF91EF91BF91AF919F918F911C
:101A20007F916F915F914F913F912F910F900FBEDA
:101A30000F901F9018951F920F920FB60F921124BE
:101A40002F933F934F935F936F937F938F939F93C6
:101A5000AF93BF93EF93FF93E0911801F0911901B9
:101A60000995FF91EF91BF91AF919F918F917F91D8
:101A70006F915F914F913F912F910F900FBE0F90FB
:101A80001F9018951F920F920FB60F9211242F934B
:101A90003F934F935F936F937F938F939F93AF93F6
:101AA000BF93EF93FF93E0911601F0911701099511
:101AB000FF91EF91BF91AF919F918F917F916F9126
:101AC0005F914F913F912F910F900FBE0F901F90FC
:101AD00018951F920F920FB60F9211242F933F93D8
:101AE0004F935F936F937F938F939F93AF93BF9326
:101AF000EF93FF93E0911401F09115010995FF9187
:101B0000EF91BF91AF919F918F917F916F915F9175
:101B10004F913F912F910F900FBE0F901F901895EE
:101B20001F920F920FB60F9211248F939F93809163
:101B3000E1009091E100937F9093E10083FF0FC05B
:101B40001092E90091E09093EB001092EC0092E388
:101B50009093ED0010923A0398E09093F00082FF8A
:101B600022C093E09093E9009091F200992319F03C
:101B70009AE39093E80090911303992341F0909198
:101B80001303915090931303911101C05D9A9091AA
:101B90003903992341F0909139039150909339037F
:101BA000911101C0289A84FF18C08091E2008E7EB6
:101BB00081608093E2008091E1008F7E8093E1005C
:101BC000809114038E7E8061809314039F918F9186
:101BD0000F900FBE0F901F90189580FFF7CF809148
:101BE000E2008E7E80618093E2008091E1008E7E33
:101BF0008093E100809114038E7E8160E5CF1F9277
:101C00000F920FB60F921124CF92DF92EF92FF92B4
:101C10000F931F932F933F934F935F936F937F93F4
:101C20008F939F93AF93BF93EF93FF93CF93DF93E4
:101C3000CDB7DEB76C97DEBFCDBF1092E9008091C3
:101C4000E80083FF25C068E0CE0145960E940F069C
:101C500082EF8093E8008D8987FF39C09091E8007A
:101C600090FFFCCF982F907609F034C19E894F8960
:101C7000588D2F89F88C911131C0803861F5809191
:101C800015038093F1001092F1008EEF8093E8002D
:101C90006C960FB6F894DEBF0FBECDBFDF91CF912B
:101CA000FF91EF91BF91AF919F918F917F916F9134
:101CB0005F914F913F912F911F910F91FF90EF9066
:101CC000DF90CF900F900FBE0F901F9018959EEF52
:101CD0009093E800C7CF1092F100D5CF913059F41E
:101CE0008111D3CF4130510581F6809115038D7F4D
:101CF00080931503CACF933049F48111C6CF413088
:101D0000510519F6809115038260F2CF953041F4A8
:101D10008091E80080FFFCCF20682093E300B5CFDE
:101D2000963009F0A9C00B8D1C8D22E01092E900BD
:101D30001092110310921003F2122EC010920F0392
:101D400010920E030E94DE051F8299E09983FA82A9
:101D500091E09E8390EA98879AEF998720911003EB
:101D600030911103275F3F4F3C832B838D8310926B
:101D7000E900109211031092100310930F030093C7
:101D80000E0349E050E0BE016F5F7F4F80E00E948C
:101D9000B8050E94DE0579CF10930F0300930E0360
:101DA0000E94FC02DC0112960D911C910115110597
:101DB00009F451C1D801ED91FC910480F581E02D29
:101DC000BE016B5E7F4FC8010995009709F03EC1C7
:101DD000F80100851185EACFF3E0FF120EC08F896C
:101DE000882309F440C0823061F440E862E187E171
:101DF00091E00E948505811148CF81E28093EB003C
:101E000047CF813029F440E862E184E091E0F1CFEE
:101E1000833099F70E94FC02DC011296ED90FC9051
:101E20008E010F5F1F4F6801E114F10479F0D701B3
:101E3000ED91FC910680F781E02DB801C70109956D
:101E4000080F111DF701E084F184EECFD8011C9238
:101E5000F60101900020E9F73197BF016C197D0967
:101E600040E0C601C6CF6EEE70E0FB01449150E049
:101E700080E80E94B80509CF973009F4BECF9830AA
:101E800021F481E08093F10000CF993009F0FDCE7C
:101E9000837009F0B2CFE9E2F1E081E031E096E34E
:101EA0002191222371F08093E9003093EB00DF0150
:101EB00011972C912093EC009093ED008F5F873069
:101EC00079F78EE78093EA001092EA008F89809379
:101ED0003A03DBCE8B8D9C8D1092E900109211039A
:101EE0001092100390930F0380930E03898D81113C
:101EF00092C08E899D89913A49F4813209F07DCF53
:101F000047E050E064E071E080E0B3CF913209F047
:101F100074CF833269F48F89988DB0E0A0E080930C
:101F2000000190930101A0930201B0930301ADCE93
:101F3000803269F48091E80082FFFCCF67E084E0A2
:101F400091E00E940F068BEF8093E8009ECE8232D4
:101F500009F09BCE8F8980930B01EEEFFFE785910F
:101F600094918B3F9C4D51F1E0E0F8E080910401A9
:101F700090910501A0910601B0910701803B94402A
:101F8000A105B105F1F480910B0180FD1AC0EE3F6F
:101F90008AE0F80789F587E797E791838083809146
:101FA00060008093120388E19BE00FB6F894A89537
:101FB000809360000FBE9093600067CEEEEFFAE072
:101FC000D5CF808191818737974709F05ECEA8955C
:101FD00080916000886180936000809112038093FB
:101FE0006000EE3F2AE0F20789F08091FE0A9091AE
:101FF000FF0A9183808349CE80819181873798073A
:1020000051F29093FF0A8093FE0AC5CF1092FF0A07
:102010001092FE0A3ACE0E94FC02DC0112960D914B
:102020001C910115110509F4E8CED801ED91FC9140
:102030000190F081E02DBE016B5E7F4FC8010995D4
:10204000811123CEF80100851185EBCF18161906F2
:102050000CF41BCED2CEF1E0FF12BECE62EF70E0E8
:1020600004CF1F920F920FB60F9211242F933F931C
:102070004F935F936F937F938F939F93AF93BF9390
:10208000EF93FF93CF93DF9300D01F92CDB7DEB7CE
:1020900083B18983898190918F0389278A83809175
:1020A0006B009A8189238B838B8180FF05C0E0912F
:1020B000FE02F091FF0209958B8181FF05C0E0913E
:1020C0000003F091010309958B8182FF05C0E09127
:1020D0000203F091030309958B8183FF05C0E09112
:1020E0000403F091050309958B8184FF05C0E091FD
:1020F0000603F091070309958B8185FF05C0E091E8
:102100000803F091090309958B8186FF05C0E091D2
:102110000A03F0910B0309958B8187FF05C0E091BD
:102120000C03F0910D030995898180938F030F9023
:102130000F900F90DF91CF91FF91EF91BF91AF91F1
:102140009F918F917F916F915F914F913F912F91CF
:102150000F900FBE0F901F9018951F920F920FB601
:102160000F9211242F933F934F935F936F937F931D
:102170008F939F93AF93BF93EF93FF938091F4035B
:102180009091F5032091F2033091F303AC01421BCF
:10219000530B5093E9034093E8039093F303809328
:1021A000F20380912D0490912E0420912B04309104
:1021B0002C04AC01421B530B509322044093210486
:1021C00090932C0480932B048091E703813021F0BD
:1021D0008091E703823021F485EE93E00E949D0711
:1021E00080912004813021F080912004823021F4FC
:1021F0008EE194E00E949D07FF91EF91BF91AF9116
:102200009F918F917F916F915F914F913F912F910E
:102210000F900FBE0F901F901895CF93DF93EFE3B1
:10222000F3E01382128288EE93E0A0E0B0E08483B2
:102230009583A683B7838DE391E0918380838FEFAD
:102240009FEF9587848783B180938F03E5EEF3E05A
:1022500012821482138215821682178210861286C9
:1022600011862CE231E03487238716861586108A82
:102270001786128A118A148A138A40E050E060EAB5
:1022800070E4458B568B678B708F80E090E0A0E008
:10229000BFE3818F928FA38FB48F158E168E178E0A
:1022A00010A211A212A213A214A215A216A217A282
:1022B00010A611A612A613A614A615A616A617A652
:1022C00010AA11AA12AA13AA14AA15AA16AA17AA22
:1022D00010AEC7E6D1E0D183C08313AE15AE14AE05
:1022E00010922304109224041092250410922604C4
:1022F000109228041092270430932A042093290472
:1023000010922C0410922B0410922E0410922D0483
:102310001092300410922F04109232041092310463
:10232000409333045093340460933504709336041F
:102330008093370490933804A0933904B0933A04FF
:1023400010923B0410923C0410923D0410923E0403
:1023500010923F04109240041092410410924204E3
:1023600010924304109244041092450410924604C3
:1023700010924704109248041092490410924A04A3
:1023800010924B0410924C0410924D0410924E0483
:1023900010924F0410925004109251041092520463
:1023A0001092530410925404109255041092560443
:1023B00081E691E092AF81AF8EED95E3AAE7BCE3B1
:1023C0008093570490935804A0935904B0935A04EF
:1023D00083E393E3ABEEB0E480935B0490935C04FF
:1023E000A0935D04B0935E0480E190E0909360045C
:1023F00080935F04EDEDF3E0128215828BE591E0AE
:1024000091838083E5EDF3E01282158285E591E00A
:1024100091838083E9ECF3E01282158210868EE0CE
:10242000818791E0928793872FE431E03183208385
:10243000E2EBF3E0108213821482158216824AE0E6
:1024400050E060E070E047835087618772871386B1
:102450001486158616861786108A118A128A40E01D
:1024600050E066EC72E4438B548B658B768B91E184
:1024700091839CE09283EAE9F3E0808312821182E7
:102480001382148215821682178210861186128694
:1024900013861486158616861786108A118A128A64
:1024A000138A148A158A168A178AE0E9F3E083E012
:1024B00090E0A0E0B0E080839183A283B3838BE0BF
:1024C00090E09583848384E090E0978386838DE019
:1024D00090E091878087DF91CF910895789484B5BB
:1024E000826084BD84B5816084BD85B5826085BD10
:1024F00085B5816085BD80916E00816080936E009E
:10250000109281008091810082608093810080918F
:102510008100816080938100809180008160809340
:102520008000809191008260809391008091910061
:1025300081608093910080919000816080939000F1
:102540008091C10084608093C1008091C10082604D
:102550008093C1008091C10081608093C10080910F
:10256000C30081608093C3008091C000826080932B
:10257000C0008091C20081608093C20080917A0087
:10258000846080937A0080917A00826080937A00E0
:1025900080917A00816080937A0080917A008068CF
:1025A00080937A0010923A0310921503109214034C
:1025B0008091D70081608093D70080EA8093D80013
:1025C00089B5806189BD89B5826089BD09B400FE85
:1025D000FDCF61E070E080E090E00E9438048091DF
:1025E000D8008F7C80618093D8008091E000807F4C
:1025F0008093E0008091E1008E7E8093E1008DE089
:102600008093E200559A209A8DE691E00E94120C88
:102610002E98269A2D98259A2A98229A2998219AB6
:102620002F98279AF8948AEA8093800089E1809312
:10263000810084EA91E09093870080938600109255
:1026400089001092880010928B0010928A001092DC
:102650008D0010928C0078948CE691E00E94120C10
:102660008BE791E00E94120C24982C9A6A98729A37
:102670006E98769A8098889A66EB78E084E00E945B
:1026800074076DEC78E084E00E940A016CB1262F9B
:1026900030E0359527953595279583B1422F4170C8
:1026A000682F70E0E4E075956795EA95E1F7622799
:1026B000617085EE93E00E94860885EE93E00E94AB
:1026C000D8086CB1262F30E035952795359527959C
:1026D00083B1422F4170682F70E0A4E07595679533
:1026E000AA95E1F7622761708EE194E00E94860866
:1026F0008EE194E00E94D8088AE791E00E94120CD3
:10270000F8941092C0008BE08093C1001092C20038
:102710001092C30089EF8093D10084E0809372000F
:10272000789460E080919A030E94B30380919A03A9
:10273000843018F0873009F0F6C18AE891E00E94F1
:10274000120C80919A03882309F4E5C1813009F4C1
:10275000E4C1823009F4E3C1833009F4E2C1873077
:1027600029F484E064E279E00E940A0160E080914B
:10277000B3030E94B3038091B303843018F0873011
:1027800009F0ECC189EA91E00E94120C8091B30338
:10279000882309F4DBC1813009F4DAC1823009F4FD
:1027A000D9C1833009F4D8C1873029F484E062EEBE
:1027B00078E00E940A0161E08091B4030E94B303B3
:1027C00061E0809194030E94B30361E080919603DD
:1027D0000E94B30361E0809198030E94B30360E01C
:1027E00080E00E94B30360E081E00E94B30388EAC6
:1027F0008093800081E18093810080E991E0909353
:1028000087008093860010928D0010928C006EE2FB
:102810007BE082E00E940A0166E07BE083E00E94A8
:102820000A01F89410923B0310923C0310923D036E
:1028300010923E037894F89410923B0310923C035C
:1028400010923D0310923E03789488EE93E09093AB
:102850000F0180930E0180ED97E09093110180931A
:10286000100160E08EE00E94B3038FEF9FEF909322
:102870004C0380934B031092230310922203109277
:102880001F0310921E0385ED93E00E944F0C8823D6
:10289000D1F36AE070E080E090E00E94380485EDBA
:1028A00093E00E944F0C882371F385ED93E00E9422
:1028B0004F0C8111FACF6AE070E080E090E00E9456
:1028C000380485ED93E00E944F0C8111EECF0E94F9
:1028D000830A0E94800A8091B20381FF2EC0F8947F
:1028E0008091C1039091C203A091C303B091C4032E
:1028F0004091BD035091BE036091BF037091C0032E
:10290000841B950B2091B2032D7F2093B203789402
:10291000009799F0BC0190E080E00E94C41B20E089
:1029200030E048E652E40E941C1B6093C50370939C
:10293000C6038093C7039093C8038091B3030E949A
:102940005C03892B51F00E944A056093B503709394
:10295000B6038093B7039093B8030E944A05C090D2
:10296000B503D090B603E090B703F090B8036C19AC
:102970007D098E099F09C090B903D090BA03E090F9
:10298000BB03F090BC036C157D058E059F0560F1BF
:10299000F8941092BD031092BE031092BF031092E0
:1029A000C0031092C1031092C2031092C30310928D
:1029B000C4031092B20378940E944A056093B50351
:1029C0007093B6038093B7039093B80361E080914E
:1029D000B4030E94850383E790E00197F1F760E07C
:1029E0008091B4030E9485038091B20320E030E01F
:1029F00040E252E460E070E080EF91E40E947A04EB
:102A00006CE271E080E090E00E9438040E94800A4D
:102A10008A3F91057CF420E030E040E751E460E03B
:102A200070E080E791EC0E9447010E94800A8A3F93
:102A3000910564F30E94730868EE73E080E090E013
:102A40000E9438042AE0C22ED12C38E0832E912C2B
:102A5000C6E0D0E04FE0A42EB12C82E0282E312C2D
:102A6000EE24E394F12C80919B0390919C030497B6
:102A7000A1F510929C0310929B038091A103909169
:102A8000A203A091A303B091A4038A2F90E0883001
:102A9000910509F076C080912203909123039093D1
:102AA00021038093200320911E0330911F03309354
:102AB000170320931603D0932303C0932203D093CC
:102AC0001F03C0931E03069721F480EE91E00E943D
:102AD000050C88E092E00E94120CE0912203F09134
:102AE0002303E231F10508F042C1E758FA4E0C9495
:102AF000A41AE91587165317C21711168917F0176C
:102B0000F717D016F8161D171F18D01803196719D4
:102B1000D4191B1A431A82E025CE83E023CE81E02C
:102B200021CE80E01FCE88E991E00E94120CE09156
:102B30009A03E8508FEFEA3020F4F0E0E15DFE4FB9
:102B4000808164E279E00E94740710CE82E02FCE8B
:102B500083E02DCE81E02BCE80E029CE83EC91E086
:102B60000E94120CE091B303E8508FEFEA3020F49A
:102B7000F0E0E15DFE4F808162EE78E00E94740734
:102B80001ACE85319105A9F48091200390912103FB
:102B9000909323038093220380911603909117034F
:102BA00090931F0380931E0387E192E00E94050C1F
:102BB00094CF8D30910529F41092230310922203B3
:102BC0008CCF409709F089CF909223038092220303
:102BD00084CF0E94C60A0E94800A8B3F91050CF4A4
:102BE000C6C00E94830A8B3F91050CF4C0C020E050
:102BF00030E0A901CA01B9010E94470184E090E0D8
:102C00009093210380932003D0932303C093220346
:102C100090931F0380931E0387E292E00E94120CA0
:102C2000A6C084E392E00E94120C80911D03909153
:102C30001A03992309F43EC0811153C085E590E041
:102C40009093190380931803D0932303C093220316
:102C5000909221038092200390921F0380921E0382
:102C600001E020E030E040E251E46CE57FE88AEEEC
:102C700090E40E94E6046091180370911903072EF6
:102C8000000C880B990B0E94C61B20E030E048EC3A
:102C900052E40E947A048AE392E00E94120C85EECC
:102CA00093E00E94D8088EE194E00E94D80883E463
:102CB00092E0B4CF811128C08BEA9FEF9093190363
:102CC00080931803D0932303C093220389E090E0FC
:102CD000909321038093200390931F0380931E03FE
:102CE000BFCF85E590E09093190380931803D093AC
:102CF0002303C0932203F0922103E0922003F09279
:102D00001F03E0921E03ACCF8BEA9FEFECCF0E9433
:102D1000860AF8948091F4039091F5037894883EA4
:102D20009340E4F020E030E0A901CA01B9010E941B
:102D3000470180911D03811122C0D0932303C093CA
:102D400022038BE090E090932103809320039093E3
:102D50001F0380931E038BE592E060CFF89480916F
:102D60002D0490912E047894883E9340DCF680E008
:102D700090E0892B09F477CE0E9400006ECED093AC
:102D80002303C09322038EE090E09093210380936D
:102D9000200390931F0380931E0388E692E03ECFAA
:102DA00086E792E00E94120C6CE173EF8FEF9FEFC9
:102DB0000E947E0BF89480913B0390913C03A0917C
:102DC0003D03B0913E0378948C32934FAF4FBF4F89
:102DD00074F6F0922103E0922003D0932303C09372
:102DE0002203F0921F03E0921E038FE892E016CFB9
:102DF00064EC70EF8FEF9FEF0E947E0BF894809150
:102E00003B0390913C03A0913D03B0913E03789425
:102E1000843D904FAF4FBF4F0CF0A9CFF0922103EC
:102E2000E0922003D0932303C0932203F0921F0368
:102E3000E0921E038DE992E0F1CE8BEA92E00E94CF
:102E4000120C20E030E048EC51ECCA01B9010E94BC
:102E5000470167ED70E080E090E00E94380420E0D8
:102E600030E048EC51E460E070E08AE293E40E94D4
:102E70007A0401E020E030E040E251E460E070E0FC
:102E800080EC90EC0E94E604309221032092200313
:102E9000D0932303C093220330921F0320921E037A
:102EA0008BEB92E0BBCE0E94C60A0E94800A8B3F49
:102EB00091050CF45CCF0E94830A8B3F91050CF4C2
:102EC00056CF20E030E0A901CA01B9010E944701B4
:102ED00085E090E09093210380932003D093230317
:102EE000C093220390931F0380931E0380EC92E013
:102EF0000E94120C85EE93E00E94D808F89480910D
:102F0000F4039091F503789490931C0380931B0332
:102F10002ECF84E392E00E94120C01E020E030E02A
:102F200040E251E46CE57FE88AEE90E40E94E6041A
:102F30006091180370911903719561957109072EBD
:102F4000000C880B990B0E94C61B20E030E048EC77
:102F500052E40E947A0483E090E0909321038093EE
:102F60002003D0932303C093220390931F038093E5
:102F70001E0385EE93E00E94D8088EE194E00E9443
:102F8000D808F5CE0E94C60AF8948091F403909177
:102F9000F50378948C3D96400CF4E9CEF89480913A
:102FA0002D0490912E0478948C3D96400CF4DFCE45
:102FB00020E030E0A901CA01B9010E944701D09385
:102FC0002303C093220387E090E090932103809332
:102FD000200390931F0380931E038DEC92E01ECE7E
:102FE0000E94730890E080E00E94560BC0CE8AEDEC
:102FF00092E00E94120C60E070E0CB010E947E0B18
:10300000F89480913B0390913C03A0913D03B091D3
:103010003E0378948C399F4FAF4FBF4F0CF4A7CE2F
:103020008CE090E09093210380932003D0932303BE
:10303000C093220390931F0380931E03D6CE68EEA5
:1030400073E08CE091E00E94220760E273E080E090
:1030500090E00E9438048CE091E00E94490701E072
:1030600020E030E040E751E46DEC7CEC8CED90E446
:103070000E94E60460ED77E08CE091E00E94220778
:103080006CEB72E080E090E00E9438048CE091E00C
:103090000E94490764EF71E080E090E00E943804EC
:1030A00080911A03882309F43FC06CEF7FEE8FEF05
:1030B0009FEF0E947E0B64E670E080E090E00E944B
:1030C000380420E030E040E051E463E373E383EF51
:1030D0009FE30E94E6046AE070E080E090E00E94D6
:1030E000380460E47DEE8FEF9FEF0E947E0B64E674
:1030F00070E080E090E00E94380420E030E040E0A2
:1031000051E460E070E080E490E40E94E604D09234
:103110002103C0922003D0932303C0932203D092B3
:103120001F03C0921E0323CE64EA7DEE8FEF9FEF54
:103130000E947E0B64E670E080E090E00E9438041C
:1031400085EE92E00E94050C01E020E030E040E0D6
:1031500051E463E373E383EF9FE30E94E6046AE0D4
:1031600070E080E090E00E94380488EE92E00E94D7
:10317000120C68EE7AEE8FEF9FEF0E947E0BD092DA
:103180002103C0922003D0932303C0932203D09243
:103190001F03C0921E038AEE92E00E94050CE7CD49
:1031A00068EE73E08CE091E00E9422076CEB72E025
:1031B00080E090E00E9438048CE091E00E94490792
:1031C0006AE070E080E090E00E94380401E020E0D6
:1031D00030E040E251E460E070E080EF91EC0E946A
:1031E000E60481E080931D038DE090E0909321033D
:1031F00080932003D0932303C093220390931F0353
:1032000080931E03B4CD0E94860AF8948091F40343
:103210009091F50378948C3D96400CF4A8CDF894E9
:1032200080912D0490912E0478948C3D96400CF45E
:103230009ECD20E030E0A901CA01B9010E944701FA
:1032400060ED77E08CE091E00E9422076CEB72E089
:1032500080E090E00E9438048CE091E00E944907F1
:1032600064E170E080E090E00E94380480911A03ED
:10327000882341F160E670EF8FEF9FEF0E947E0B95
:1032800001E020E030E040E451E460E070E080EAFA
:1032900090EC0E94E60420E030E040EA51E460E077
:1032A00070E08FE293E40E947A041092210310925E
:1032B0002003D0932303C093220310921F03109284
:1032C0001E0355CD68E07EEE8FEF9FEFD7CF809144
:1032D0001A03882309F446C064E87AEE8FEF9FEF63
:1032E0000E947E0B6AE070E080E090E00E9438046B
:1032F00001E020E030E040E251E466E676E686EF69
:1033000090E40E94E60464E670E080E090E00E94B1
:10331000380468E77CEE8FEF9FEF0E947E0B64EF2E
:1033200071E080E090E00E94380468EE73E08CE089
:1033300091E00E9422076CEB72E080E090E00E9436
:1033400038048CE091E00E944907B0922103A092DA
:103350002003D0932303C0932203B0921F03A092B3
:103360001E0305CD64E17CEE8FEF9FEF0E947E0B84
:103370006AE070E080E090E00E94380401E020E024
:1033800030E040E251E466E676E686EF90E40E94A3
:10339000E60464E670E080E090E00E94380468E0B3
:1033A0007EEE8FEF9FEFB9CF20E030E048EC51EC9C
:1033B000CA01B9010E94470167ED70E080E090E02A
:1033C0000E94380420E030E048EC51E460E070E016
:1033D0008AE293E40E947A0400E020E030E040E2D8
:1033E00051E460E070E080EC90EC0E94E6046CE256
:1033F00071E080E090E00E94380460ED77E08CE0BE
:1034000091E00E9422076CEB72E080E090E00E9465
:1034100038048CE091E00E94490764E170E080E0AC
:1034200090E00E94380460E070E0CB010E947E0BC7
:1034300080E190E0DBCE0E94C60A0E94800A8B3FAA
:1034400091050CF494CC0E94830A8B3F91050CF4F7
:103450008ECC609118037091190371956195710973
:10346000072E000C880B990B0E94C61B20E030E051
:1034700040E751E40E947A0481E190E090932303B5
:1034800080932203BBCE0E94C60AF8948091F40375
:103490009091F50378948E3693400CF468CCF894B0
:1034A00080912D0490912E0478948E3693400CF4E4
:1034B0005ECC609118037091190371956195710943
:1034C000072E000C880B990B0E94C61B2B013C0198
:1034D00020E030E040E751E40E947A0420E030E050
:1034E00048EC51E4CA01B9010E9447010E94800AD8
:1034F0008B3F91050CF43BCC0E94830A8B3F9105D6
:103500000CF435CC20E030E0A901CA01B9010E94D9
:10351000470164E670E080E090E00E94380420E01B
:1035200030E040E751E4C301B2010E947A04809187
:103530001A03882329F010921A0310921D03B5CEA6
:1035400081E080931A03F9CFEE0FFF1F0590F491ED
:10355000E02D09945058BB27AA270E94C21A0C9448
:103560003C1C0E942E1C38F00E94351C20F039F4BF
:103570009F3F19F426F40C942B1C0EF4E095E7FB06
:103580000C94251CE92F0E944D1C58F3BA176207B2
:1035900073078407950720F079F4A6F50C946F1C47
:1035A0000EF4E0950B2EBA2FA02D0B01B90190015E
:1035B0000C01CA01A0011124FF27591B99F0593FA2
:1035C00050F4503E68F11A16F040A22F232F342FEA
:1035D0004427585FF3CF469537952795A795F04038
:1035E0005395C9F77EF41F16BA0B620B730B840B4D
:1035F000BAF09150A1F0FF0FBB1F661F771F881F05
:10360000C2F70EC0BA0F621F731F841F48F487955C
:1036100077956795B795F7959E3F08F0B0CF93954E
:10362000880F08F09927EE0F9795879508950E94C7
:10363000011C08F481E008950E94301B0C943C1C8E
:103640000E94351C58F00E942E1C40F029F45F3F68
:1036500029F00C94251C51110C94701C0C942B1CFB
:103660000E944D1C68F39923B1F3552391F3951BE8
:10367000550BBB27AA2762177307840738F09F5F93
:103680005F4F220F331F441FAA1FA9F335D00E2E00
:103690003AF0E0E832D091505040E695001CCAF76D
:1036A0002BD0FE2F29D0660F771F881FBB1F261730
:1036B00037074807AB07B0E809F0BB0B802DBF0107
:1036C000FF2793585F4F3AF09E3F510578F00C94D6
:1036D000251C0C94701C5F3FE4F3983ED4F3869550
:1036E00077956795B795F7959F5FC9F7880F911DF7
:1036F0009695879597F90895E1E0660F771F881FE3
:10370000BB1F621773078407BA0720F0621B730B95
:10371000840BBA0BEE1F88F7E09508950E94951B65
:103720006894B1110C94701C08950E94551C88F087
:103730009F5798F0B92F9927B751B0F0E1F0660F75
:10374000771F881F991F1AF0BA95C9F714C0B130B6
:1037500091F00E946F1CB1E008950C946F1C672FCC
:10376000782F8827B85F39F0B93FCCF386957795E5
:103770006795B395D9F73EF49095809570956195CE
:103780007F4F8F4F9F4F0895E89409C097FB3EF4F9
:1037900090958095709561957F4F8F4F9F4F99239E
:1037A000A9F0F92F96E9BB279395F695879577951C
:1037B0006795B795F111F8CFFAF4BB0F11F460FFDC
:1037C0001BC06F5F7F4F8F4F9F4F16C0882311F034
:1037D00096E911C0772321F09EE8872F762F05C048
:1037E000662371F096E8862F70E060E02AF09A95E3
:1037F000660F771F881FDAF7880F9695879597F9D8
:103800000895990F0008550FAA0BE0E8FEEF161671
:103810001706E807F907C0F012161306E407F507C4
:1038200098F0621B730B840B950B39F40A2661F038
:10383000232B242B252B21F408950A2609F4A140DB
:10384000A6958FEF811D811D089597F99F6780E8E8
:1038500070E060E008959FEF80EC089500240A94E2
:103860001616170618060906089500240A9412165B
:103870001306140605060895092E0394000C11F48E
:10388000882352F0BB0F40F4BF2B11F460FF04C03B
:103890006F5F7F4F8F4F9F4F089557FD9058440F94
:1038A000551F59F05F3F71F04795880F97FB991F9F
:1038B00061F09F3F79F0879508951216130614065C
:1038C000551FF2CF4695F1DF08C0161617061806E9
:1038D000991FF1CF86957105610508940895E894C4
:1038E000BB2766277727CB0197F908950E94011C13
:1038F00008F48FEF08950E948E1C0C943C1C0E94CB
:103900002E1C38F00E94351C20F0952311F00C94E9
:10391000251C0C942B1C11240C94701C0E944D1C13
:1039200070F3959FC1F3950F50E0551F629FF00112
:10393000729FBB27F00DB11D639FAA27F00DB11D2B
:10394000AA1F649F6627B00DA11D661F829F2227B4
:10395000B00DA11D621F739FB00DA11D621F839F3B
:10396000A00D611D221F749F3327A00D611D231F11
:10397000849F600D211D822F762F6A2F11249F575F
:1039800050409AF0F1F088234AF0EE0FFF1FBB1F62
:10399000661F771F881F91505040A9F79E3F510521
:1039A00080F00C94251C0C94701C5F3FE4F3983E4F
:1039B000D4F3869577956795B795F795E7959F5FCB
:1039C000C1F7FE2B880F911D9695879597F908955D
:0E39D00081E090E0F8940C94ED1CF894FFCF89
:1039DE00FFFFFFFF00E10000000000002201E803EE
:1039EE00D007FF005605560556055605560500002C
:1039FE00000054074907220700C18081000000041F
:103A0E00050607FFFF0301020000000000A1061CCF
:103A1E0006C206B7060807C606E406000000000345
:103A2E0009000000004F0C00000000220C000000F6
:103A3E00004108000000005A080D0A002F696E6947
:103A4E00744D6F746F72732829002F696E697445F7
:103A5E006E636F64657273282900417474616368C4
:103A6E00696E672049535200417474616368696ED0
:103A7E00672050435F495352004174746163686913
:103A8E006E672072616E676566696E646572204945
:103A9E00535200417474616368696E672072616E7F
:103AAE00676566696E6465722050435F49535200C4
:103ABE0073746F7070656420647572696E672053DD
:103ACE00544148502E207265737461727420726571
:103ADE007175697265642E00456D657267656E63FA
:103AEE00792053746F700028737461746520636855
:103AFE00616E6765292000436865636B706F696E40
:103B0E0074203100436865636B0064697265637489
:103B1E006564006C656176696E67207374617465A7
:103B2E0020494E5445525345435400436865636BD8
:103B3E00706F696E74203400626567696E206F66FF
:103B4E00666C6F6164007369737970687573206158
:103B5E006E642074686520626F756C6465720043D4
:103B6E006865636B706F696E7420336100436865BE
:103B7E00636B706F696E7420336200746F204F4EEA
:103B8E004545494748545A45524F005370756E008B
:103B9E00436865636B706F696E74203500436865AA
:103BAE00636B706F696E742036006465706F736935
:103BBE0074696E67003120003200537461746520A1
:0E3BCE006368616E67653A20475241422000ED
:00000001FF
