:100000000C94E0000C94200D0C94F90C0C94D20C80
:100010000C94AB0C0C9408010C9408010C94840C07
:100020000C9408010C94E80F0C94470D0C94B60D39
:100030000C9408010C9408010C9408010C9408011C
:100040000C9408010C9408010C9408010C9408010C
:100050000C9408010C9408010C9408010C943A0CBF
:100060000C9408010C9408010C9408010C940801EC
:100070000C9408010C9408010C9408010C940801DC
:100080000C9408010C9408010C9408010C940801CC
:100090000C9408010C9408010C9408010C940801BC
:1000A0000C9408010C9464100C940801080B0002D5
:1000B0000202000009040000010202000005240001
:1000C0001001052401010104240206052406000193
:1000D0000705810310004009040100020A00000026
:1000E00007050202400000070583024000000403E8
:1000F000090412010002EF020140FB1F002300016E
:1001000001020301506F6C6F6C7520436F72706F4A
:10011000726174696F6E00506F6C6F6C7520412D49
:100120005374617220333255340007060504010010
:10013000080A0B0C0D0900000000240027002A000B
:100140002D00300000000000250028002B002E00AC
:100150003100000000002300260029002C002F00A1
:10016000040404040403040502020202040302025C
:10017000020206060606060604040202020404043D
:100180000802011040804010204080408008020496
:10019000018040201002011080102040402000000B
:1001A000000200090F0000030401000C0000000021
:1001B0000000000000000000000000000000C4106B
:1001C00011241FBECFEFDAE0DEBFCDBF12E0A0E00A
:1001D000B1E0EAE7F3E302C005900D92AE33B10758
:1001E000D9F723E0AEE3B2E001C01D92AF3BB20706
:1001F000E1F710E0C0EED0E004C02197FE010E94BC
:100200007217CF3DD107C9F70E9424120C94BB1975
:100210000C940000E82FF0E0EE0FFF1FEC5EFE4FA5
:10022000718360838230D9F028F4882341F08130D3
:1002300071F008958330D9F0843009F108958091E8
:1002400069008C7F816080936900E89A08958091AD
:100250006900837F846080936900E99A08958091A2
:1002600069008F7C806180936900EA9A089580918B
:1002700069008F73806480936900EB9A0895809180
:100280006A008F7C806180936A00EE9A08954F9295
:100290005F926F927F928F929F92AF92BF92CF9216
:1002A000DF92EF92FF92CF93DF9300D000D0CDB7D3
:1002B000DEB769837A838B839C8329013A0160913D
:1002C000BD037091BE0390E080E00E94921820E090
:1002D00030E04AE754E40E94EA174B015C01C09009
:1002E000B503D090B603E090B703F090B803A30134
:1002F00092010E944919A70196010E94EA170E94E3
:100300005C182B0129813A814B815C81C501B401C4
:100310000E944919A70196010E94EA170E945C18E1
:10032000072E000C880B990B0E94941860934803C9
:100330007093490380934A0390934B038091450344
:10034000813081F010926C0310926D0310926E0355
:1003500010926F0380915203909153039093510335
:100360008093500381E080934503B201550C880BC4
:10037000990B0E9494186093810370938203809379
:1003800083039093840380917E03813081F01092E7
:10039000A5031092A6031092A7031092A8038091C0
:1003A0008B0390918C0390938A038093890381E05F
:1003B00080937E030F900F900F900F90DF91CF915D
:1003C000FF90EF90DF90CF90BF90AF909F908F9075
:1003D0007F906F905F904F9008954F925F926F92D1
:1003E0007F928F929F92AF92BF92CF92DF92EF92C5
:1003F000FF92CF93DF93CDB7DEB728970FB6F8946F
:10040000DEBF0FBECDBF4B015C012D833E834F830A
:1004100058876091BD037091BE0390E080E00E9418
:10042000921820E030E04AE754E40E94EA176B019A
:100430007C014090B5035090B6036090B703709074
:10044000B803A50194010E944919A30192010E94D9
:10045000EA170E945C1869837A838B839C8323EC60
:1004600035EF48E450E46091B9037091BA0380918C
:10047000BB039091BC030E94491920E030E044E3A3
:1004800053E40E94EA174B015C012D813E814F81AC
:100490005885C701B6010E9449199B01AC01C501ED
:1004A000B4010E944919A30192010E94EA170E9417
:1004B0005C186B0169817A816C197D09072E000C2B
:1004C000880B990B0E94941860934803709349031A
:1004D00080934A0390934B0380914503813081F0D0
:1004E00010926C0310926D0310926E0310926F03C2
:1004F0008091520390915303909351038093500342
:1005000081E08093450389819A81C80ED91EB60186
:10051000DD0C880B990B0E949418609381037093F3
:100520008203809383039093840380917E038130C0
:1005300081F01092A5031092A6031092A7031092C7
:10054000A80380918B0390918C0390938A038093EE
:10055000890381E080937E0328960FB6F894DEBF6E
:100560000FBECDBFDF91CF91FF90EF90DF90CF9086
:10057000BF90AF909F908F907F906F905F904F90C3
:100580000895FC0180916E02882311F13FB7F89421
:1005900082E08093E9002091F200822F90E018160B
:1005A000190614F481E090E0882339F0289844E695
:1005B00040936D024091F1004083222339F0209155
:1005C000F200211103C02BE62093E8003FBF0895FD
:1005D0008FEF9FEF08952FB7F89483E08093E900A1
:1005E0009091E800892F807295FF04C09091F200ED
:1005F00080E4891B2FBF08958091650281110DC091
:1006000082E08093610284E080936202109264022F
:100610001092630281E08093650281E692E0089582
:1006200081508F3008F047C0E82FF0E0E65EFC4FC5
:100630000C94721737033B0329032F0333035B0327
:100640005B035B033E03440348034C0352035B0319
:100650005603809180008F77809380000895809169
:1006600080008F7DF9CF80918000877FF5CF84B5A2
:100670008F7784BD089584B58F7DFBCF80919000E6
:100680008F77809390000895809190008F7DF9CFAF
:1006900080919000877FF5CF8091C0008F77809305
:1006A000C00008958091C0008F7DF9CF8091C20075
:1006B000877F8093C2000895CF93DF93282F30E087
:1006C000F901E256FE4F8491F901E158FE4FD491B1
:1006D000F901E05AFE4FC491CC23A1F081110E9490
:1006E0001003EC2FF0E0EE0FFF1FEE5AFE4FA59126
:1006F000B491EC91ED2381E090E009F480E0DF918A
:10070000CF91089580E090E0FACF1F93CF93DF93CD
:10071000282F30E0F901E256FE4F8491F901E158AB
:10072000FE4FD491F901E05AFE4FC491CC23A9F0B9
:10073000162F81110E941003EC2FF0E0EE0FFF1F27
:10074000EC5BFE4FA591B4918FB7F894EC91111129
:1007500008C0D095DE23DC938FBFDF91CF911F912E
:100760000895DE2BF8CFCF93DF9390E0FC01E158A2
:10077000FE4F2491805A9E4FFC0184918823C9F03A
:1007800090E0880F991FFC01EA5CFE4FA591B4919F
:10079000FC01EC5BFE4FC591D49161110DC09FB778
:1007A000F8948C91209582238C9388812823288328
:1007B0009FBFDF91CF910895623051F49FB7F894B5
:1007C0003C91822F809583238C93E8812E2BEFCF51
:1007D0008FB7F894EC912E2B2C938FBFEACF8231F8
:1007E00008F08251E82FF0E0E65DFE4FE491909131
:1007F0007B008E2F880F880F80729F7D892B8093BE
:100800007B00E770E064E0937C0080917A00806474
:1008100080937A0080917A0086FDFCCF80917800E9
:100820009091790008953FB7F89480915D0290917E
:100830005E02A0915F02B091600226B5A89B05C040
:100840002F3F19F00196A11DB11D3FBFBA2FA92F4F
:10085000982F8827BC01CD01620F711D811D911D4C
:1008600042E0660F771F881F991F4A95D1F70895B8
:100870008F929F92AF92BF92CF92DF92EF92FF92B0
:100880006B017C010E9413044B015C01C114D10473
:10089000E104F104B9F00E941304681979098A0986
:1008A0009B09683E73408105910580F321E0C21ADF
:1008B000D108E108F10888EE880E83E0981EA11C9B
:1008C000B11CE4CFFF90EF90DF90CF90BF90AF903E
:1008D0009F908F90089580914503811104C080916D
:1008E0007E03882339F061E070E080E090E00E94B0
:1008F0003804F1CF0895CF92DF92EF92FF926B010F
:100900007C0120E030E0A9010E94441920E030E0A1
:1009100048EC52EC181624F420E030E048EC52E4A5
:1009200060E070E0CB010E94ED0123EC35EF48E47C
:1009300050E46091B9037091BA038091BB03909128
:10094000BC030E94491920E030E044E353E40E94D4
:10095000EA17A70196010E9449192091B503309129
:10096000B6034091B7035091B8030E94EA170E9462
:100970005C18F89420915203309153037894261B0D
:10098000370B30934D0320934C0322E02093450313
:10099000F89440918B0350918C037894CA01860F90
:1009A000971F909386038093850320937E03FF9087
:1009B000EF90DF90CF900C946B040895409150021B
:1009C0005091510220914E0230914F02421753072D
:1009D000B4F49091E8009570E1F39091E80092FDF5
:1009E00019C08093F10080915002909151020196BC
:1009F0008F739927892B19F48EEF8093E8008091EB
:100A000050029091510201969093510280935002AE
:100A100081E0089580E00895EF92FF920F931F9375
:100A2000CF93DF93F82E192FE62E042F81E0860F47
:100A3000880F0E94DE0483E00E94DE04CF2DD12FB8
:100A4000EC0EFD2EF11CCE15DF05B9F007FF13C02B
:100A5000FE0184910E94DE04182F80E00E94DE04D3
:100A6000812321968111EFCFDF91CF911F910F91BB
:100A7000FF90EF9008958881EDCF81E0F5CFDF9270
:100A8000EF92FF920F931F93CF93DF93D82E8A019B
:100A9000EB017B01E40EF51ECE15DF0559F0D7FE04
:100AA00012C0FE0184910E94DE0421968111F4CFD0
:100AB0000FEF1FEFC801DF91CF911F910F91FF90B2
:100AC000EF90DF9008958881EECF0F931F93CF931F
:100AD000DF931F92CDB7DEB782E0898342E450E016
:100AE0006CEA70E080E80E943F050E94FC02DC0195
:100AF00012960D911C910115110589F0D801ED9107
:100B0000FC910280F381E02DBE016F5F7F4FC80131
:100B1000099597FD04C0F80100851185ECCF898106
:100B20000F90DF91CF911F910F910895615030F098
:100B30002091F100FC0120830196F8CF289884E6EB
:100B400080936D0208958F929F92AF92BF92CF9241
:100B5000DF92EF92FF920F931F93CF93DF936C017D
:100B60007B018A0180910B01882309F45CC080918C
:100B70006E02882309F457C08091540280FF05C09B
:100B80008091E00082608093E000E801B12C8AEF60
:100B9000A82E93E0892E2AE3922E209711F4BB20F1
:100BA000D9F10E94EB0281110AC0AA94AA20D9F1BE
:100BB00061E070E080E090E00E943804EECF8C1796
:100BC0001D0611F00CF08C2F9FB7F8948092E9006D
:100BD0002091E80025FD02C09FBFDFCF282F30E025
:100BE000C21BD30BF701815020F041914093F100DB
:100BF000FACFE20EF31EBB2021F09092E800B12C58
:100C0000EBCF8091E80085FDE7CF9092E800BB2410
:100C1000B394209709F3F3CF5D9884E68093530251
:100C2000101611063CF081E090E0F6019383828378
:100C300010E000E0C801DF91CF911F910F91FF906C
:100C4000EF90DF90CF90BF90AF909F908F900895DE
:100C5000CF93DF931F92CDB7DEB76983DC01ED91AF
:100C6000FC910280F381E02D41E050E0BE016F5F16
:100C70007F4F09950F90DF91CF91089583E0809386
:100C8000E9008091F200882319F08AE38093E8005C
:100C900008950E94EB0290E00895CF93DF931F9296
:100CA000CDB7DEB7FC018485958597FD08C02FEF91
:100CB0003FEF358724870F90DF91CF910895CE01C4
:100CC00001960E94C102019719F4898190E0F3CF47
:100CD0008FEF9FEFF0CF0F931F93CF93DF931F9270
:100CE000CDB7DEB78C01FC018485958597FF0BC0DD
:100CF000CE0101960E94C102019771F4898190E0B2
:100D0000F80195878487F801848595850F90DF9198
:100D1000CF911F910F9108958FEF9FEFF1CFFC01BD
:100D20008485958597FD0BC09FB7F89482E08093EA
:100D3000E9008091F2009FBF90E0019608959FB76F
:100D4000F89482E08093E9008091F2009FBF90E0E8
:100D500008950F931F93CF93DF93EC018B018F8145
:100D6000811107C0E881F9810190F081E02DCE0169
:100D700009958A819B810817190730F08C819D8124
:100D80000817190708F4C801880F991F0197909355
:100D9000990080939800DF91CF911F910F91089552
:100DA000DC01F894E0E9F0E090819F7790837894FB
:100DB00017961C920895CF93DF93EC0161E085E0D4
:100DC0000E94B303F89482E8809390008AE18093B4
:100DD00091008FE39CE9909397008093960088EBB5
:100DE0009BE09093990080939800789481E08F83A2
:100DF000DF91CF910895F89441E040936800ABE60D
:100E0000B0E09C91E82FF0E021E030E001C0220F3B
:100E10008A95EAF7892F822B8C93EE0FFF1FE25CF5
:100E2000FD4F718360834BBB9091D302822F8095DD
:100E300089238093D30283B19091D3028223892B9B
:100E40008093D302789408954F925F926F927F922D
:100E50008F929F92AF92BF92CF92DF92EF92FF92CA
:100E6000CF93DF93EC016B817C81072E000C880B04
:100E7000990B0E9494189B01AC016D817E818F813A
:100E800098850E9478176B017C01C9A2DAA2EBA2B7
:100E9000FCA229A53AA54BA55CA50E9479174B0198
:100EA0005C0189A69AA6ABA6BCA64DA45EA46FA4BD
:100EB00078A820E030E0A901C301B2010E944419E2
:100EC00018169CF4A50194015F77C301B2010E943A
:100ED000E51787FF0AC0A7019601C501B4010E946A
:100EE000781769A77AA78BA79CA72DA13EA14FA130
:100EF00058A5C701B6010E9478174B015C01CDA22D
:100F0000DEA2EFA2F8A629A53AA54BA55CA5698D9E
:100F10007A8D8B8D9C8D0E9449192B013C012D8966
:100F20003E894F89588DC701B6010E9449199B011E
:100F3000AC01C301B2010E9479176B017C012D8DB8
:100F40003E8D4F8D58A1C501B4010E9449199B01E6
:100F5000AC01C701B6010E9479176DAB7EAB8FABB8
:100F600098AF0E945C18E881F9810190F081E02D32
:100F7000CE01DF91CF91FF90EF90DF90CF90BF90A7
:100F8000AF909F908F907F906F905F904F9009945B
:100F900020E077FF04C071956195710921E0FC01A3
:100FA00083859485681779070CF4CB0190938900A9
:100FB00080938800222319F0299A219A089529986C
:100FC000FCCF20E077FF04C071956195710921E0A5
:100FD000FC0183859485681779070CF4CB01909305
:100FE0008B0080938A00222319F02A9A229A08956E
:100FF0002A98FCCFCF93DF93EC0189899A8950E03E
:1010000070E02B893C89AF85B889842795272627EE
:101010003727821B930B8A0F9B1F988B8F877A8BA6
:10102000698B5C8B4B8B8A81823089F42F85388960
:1010300089859A852817390751F4E881F98101904B
:10104000F081E02D70E060E0CE0109951A82DF9119
:10105000CF9108956CB1262F30E0359527953595C1
:10106000279583B1422F4170682F70E094E0759509
:1010700067959A95E1F76227617083E493E00C9499
:10108000FA074FB141706CB166FB662760F96427BF
:101090008CE793E00C94FA07FC01F894878590891B
:1010A000108A1786168615867894089580912503F0
:1010B0000E945C03892B59F00E94130460932F0354
:1010C00070933003809331039093320308950E940C
:1010D0001304609333037093340380933503909328
:1010E0003603809124038260809324030895CF9275
:1010F000DF92EF92FF920F931F930E9413046B01F4
:101100007C0180910C030E945C03892B79F4C092CE
:101110001803D0921903E0921A03F0921B031F9157
:101120000F91FF90EF90DF90CF900895C0921C0335
:10113000D0921D03E0921E03F0921F0340911C0306
:1011400050911D0360911E0370911F03809118033D
:1011500090911903A0911A03B0911B03481B590BDE
:101160006A0B7B0B80911C0390911D03A0911E03C1
:10117000B0911F03C0902003D0902103E090220380
:10118000F090230300911C0310911D0320911E0376
:1011900030911F0300932003109321032093220317
:1011A000309323038A019B01055311422109310920
:1011B000073E13402105310548F41092170381E0E2
:1011C00090E090930E0380930D03A9CF445F5140AC
:1011D00061097109493C51056105710590F085E08F
:1011E00090E090930E0380930D038FEF9FEFDC014F
:1011F0008093130390931403A0931503B0931603E5
:101200008ECF8C199D09AE09BF0920910D03309135
:101210000E032130310509F05FC0AC01BD01415C16
:10122000524161097109433F51406105710558F40C
:1012300010921303109214031092150310921603C8
:1012400083E090E0BECF8D589A40A109B10987355F
:101250009240A105B10508F062CF82E090E0909342
:101260000E0380930D03409113035091140360917A
:101270001503709116038091130390911403A091AC
:101280001503B0911603892F9A2FAB2FBB27842704
:101290009527A627B72788279927BB270097AF4F01
:1012A000B10531F085E090E090930E0380930D033B
:1012B0002FB7F89480916F0290917002A091710203
:1012C000B09172022FBF80930F0390931003A093ED
:1012D0001103B093120323CF2330310509F01FCF40
:1012E000AC01BD0145585340610971094F38514067
:1012F0006105710560F5809117038F5F8093170377
:1013000080911703803209F00ACF40911303509166
:10131000140360911503709116038091130390914B
:101320001403A0911503B0911603892F9A2FAB2FA8
:10133000BB2784279527A627B72788279927BB2768
:101340000097AF4FB105A9F185E090E03ACF815DFC
:101350009740A109B109833F9140A105B10510F55E
:1013600020911703409113035091140360911503CA
:101370007091160381E090E0A0E0B0E004C0880F17
:10138000991FAA1FBB1F2A95D2F7840F951FA61F6E
:10139000B71F8093130390931403A0931503B09386
:1013A0001603A9CF85E090E090930E0380930D0380
:1013B000A7CF84E090E078CF86E10C94EF0384E13E
:1013C0000C94EF038F929F92AF92BF92CF92DF92D5
:1013D000EF92FF92CF93DF930E94DC09EC010E9411
:1013E000DF09BE01681B790B072E000C880B990BD7
:1013F0000E9494182AE037ED43E25CE30E94491909
:101400006B017C01AC019B0160E070E080EA91E43B
:101410000E9478174B015C0120E030E040EA51E483
:10142000C701B6010E947917A5019401DF91CF9100
:10143000FF90EF90DF90CF90BF90AF909F908F90F4
:101440000C944701CF93DF9380E00E945C03EC0192
:1014500081E00E945C03409173025091740260919C
:10146000750270917602C817D90779F44F5F5F4F04
:101470006F4F7F4F409373025093740260937502D5
:1014800070937602DF91CF9108954150510961091F
:101490007109F0CFCF93DF9380E00E945C03EC01F1
:1014A00081E00E945C03409173025091740260914C
:1014B000750270917602C817D90779F44150510925
:1014C000610971094093730250937402609375022D
:1014D00070937602DF91CF9108954F5F5F4F6F4F0A
:1014E0007F4FF0CFCF93DF93EC0180910A03D7FFBA
:1014F00018C061E00E94850360E0809108030E94AB
:101500008503D195C195D109C13981E0D80714F07F
:10151000C0E9D1E0D0938D00C0938C00DF91CF91D2
:10152000089560E00E94850361E0809108030E94B5
:101530008503EACFFC0101900020E9F73197AF0164
:10154000481B590BBC0183E892E00C94A3058F92D1
:101550009F92AF92BF920F931F93CF93DF93CDB71C
:10156000DEB7A1970FB6F894DEBF0FBECDBF19A2AC
:10157000423008F44AE08E010F5D1F4F842E912CFB
:10158000B12CA12CA50194010E945017E62FB9019E
:10159000CA01EA30F4F4E05DD801EE938D01232B0B
:1015A000242B252B79F790E080E0109719F0CD01DE
:1015B0000E949A0AA1960FB6F894DEBF0FBECDBF67
:1015C000DF91CF911F910F91BF90AF909F908F901F
:1015D0000895E95CE1CFCF92DF92EF92FF92CF9333
:1015E000DF936B017C016DE283E892E00E942806A4
:1015F000EC0166277727CB016C197D098E099F09BD
:101600004AE00E94A70A8C0F9D1FDF91CF91FF90A7
:10161000EF90DF90CF900895CF93DF9397FF0CC0AA
:101620000E94EB0AEC018DE591E00E949A0A8C0F72
:101630009D1FDF91CF9108954AE00E94A70AF2CF43
:101640000F931F93CF93DF938C0110927F02109220
:1016500080021092810210928202181619060CF074
:1016600067C0D0E0C0E0BE010D2E000C880B990BC6
:101670000E9494182BED39EF4EEB5EE30E9449195E
:1016800020E030E04BE753E40E9479170E945C1899
:10169000CB010E94720A80917B0290917C02A09102
:1016A0007D02B0917E028093770290937802A0939E
:1016B0007902B0937A022FB7F89480916F029091DB
:1016C0007002A0917102B09172022FBF80937B02D1
:1016D00090937C02A0937D02B0937E02609173028E
:1016E0007091740280917502909176020E940C0BA9
:1016F0008091730290917402A0917502B09176026C
:1017000080937F0290938002A0938102B093820223
:1017100064E670E080E090E00E94380421960C17A7
:101720001D070CF0A0CFDF91CF911F910F9108956D
:10173000892BC9F3D0E0C0E0BE010D2E000C880B50
:10174000990B0E94941823EC35EF48EE5EE30E945B
:10175000491920E030E04AE553E40E9478170E94DE
:101760005C18CB010E94720A80917B0290917C02EE
:10177000A0917D02B0917E028093770290937802CF
:10178000A0937902B0937A022FB7F89480916F02F8
:1017900090917002A0917102B09172022FBF80935C
:1017A0007B0290937C02A0937D02B0937E026091B5
:1017B00073027091740280917502909176020E947A
:1017C0000C0B8091730290917402A0917502B091FC
:1017D000760280937F0290938002A0938102B0935F
:1017E000820264E670E080E090E00E943804219775
:1017F000C017D1070CF0A0CF96CFCF93DF930E94F4
:101800009A0AEC018DE591E00E949A0A8C0F9D1FC7
:10181000DF91CF9108950E94B619CF93DF93A2EE86
:10182000B0E09C911C92E9EEF0E020811082C0EFC4
:10183000D0E03881188240E02899416020994260C8
:101840002098289A80E18A95F1F783B141FB0EF048
:10185000209840FB0EF028980EF4289A41FB0EF4D5
:10186000209A1082388320839C9380958170DF9129
:10187000CF9108951F920F920FB60F9211242F93BC
:101880003F938F939F93AF93BF9380916F029091FB
:101890007002A0917102B091720230915C0223E05B
:1018A000230F2D3758F50196A11DB11D20935C0221
:1018B00080936F0290937002A0937102B0937202B2
:1018C00080915D0290915E02A0915F02B0916002F2
:1018D0000196A11DB11D80935D0290935E02A093BD
:1018E0005F02B0936002BF91AF919F918F913F9142
:1018F0002F910F900FBE0F901F90189526E8230F81
:101900000296A11DB11DD2CF1F920F920FB60F925A
:1019100011242F933F934F935F936F937F938F93F4
:101920009F93AF93BF93EF93FF93E0911C01F091CE
:101930001D010995FF91EF91BF91AF919F918F91FB
:101940007F916F915F914F913F912F910F900FBEBB
:101950000F901F9018951F920F920FB60F9211249F
:101960002F933F934F935F936F937F938F939F93A7
:10197000AF93BF93EF93FF93E0911A01F0911B0196
:101980000995FF91EF91BF91AF919F918F917F91B9
:101990006F915F914F913F912F910F900FBE0F90DC
:1019A0001F9018951F920F920FB60F9211242F932C
:1019B0003F934F935F936F937F938F939F93AF93D7
:1019C000BF93EF93FF93E0911801F09119010995EE
:1019D000FF91EF91BF91AF919F918F917F916F9107
:1019E0005F914F913F912F910F900FBE0F901F90DD
:1019F00018951F920F920FB60F9211242F933F93B9
:101A00004F935F936F937F938F939F93AF93BF9306
:101A1000EF93FF93E0911601F09117010995FF9163
:101A2000EF91BF91AF919F918F917F916F915F9156
:101A30004F913F912F910F900FBE0F901F901895CF
:101A40001F920F920FB60F9211242F933F934F9333
:101A50005F936F937F938F939F93AF93BF93EF9316
:101A6000FF93E0911401F09115010995FF91EF9119
:101A7000BF91AF919F918F917F916F915F914F91A6
:101A80003F912F910F900FBE0F901F9018951F92AE
:101A90000F920FB60F9211248F939F938091E100C4
:101AA0009091E100937F9093E10083FF0FC010922B
:101AB000E90091E09093EB001092EC0092E3909398
:101AC000ED0010926E0298E09093F00082FF22C029
:101AD00093E09093E9009091F200992319F09AE332
:101AE0009093E80090915302992341F09091530212
:101AF000915090935302911101C05D9A90916D02A3
:101B0000992341F090916D02915090936D02911143
:101B100001C0289A84FF18C08091E2008E7E816007
:101B20008093E2008091E1008F7E8093E1008091BC
:101B300054028E7E8061809354029F918F910F900A
:101B40000FBE0F901F90189580FFF7CF8091E20095
:101B50008E7E80618093E2008091E1008E7E809392
:101B6000E100809154028E7E8160E5CF1F920F923A
:101B70000FB60F921124CF92DF92EF92FF920F9344
:101B80001F932F933F934F935F936F937F938F9305
:101B90009F93AF93BF93EF93FF93CF93DF93CDB713
:101BA000DEB76C97DEBFCDBF1092E9008091E800F0
:101BB00083FF25C068E0CE0145960E94960582EF1E
:101BC0008093E8008D8987FF39C09091E80090FFED
:101BD000FCCF982F907609F034C19E894F89588D9B
:101BE0002F89F88C911131C0803861F580915502B0
:101BF0008093F1001092F1008EEF8093E8006C96D4
:101C00000FB6F894DEBF0FBECDBFDF91CF91FF912D
:101C1000EF91BF91AF919F918F917F916F915F9164
:101C20004F913F912F911F910F91FF90EF90DF9077
:101C3000CF900F900FBE0F901F9018959EEF90932E
:101C4000E800C7CF1092F100D5CF913059F481113F
:101C5000D3CF4130510581F6809155028D7F80931D
:101C60005502CACF933049F48111C6CF4130510596
:101C700019F6809155028260F2CF953041F480913F
:101C8000E80080FFFCCF20682093E300B5CF9630BA
:101C900009F0A9C00B8D1C8D22E01092E900109272
:101CA000510210925002F2122EC010924F02109266
:101CB0004E020E9465051F8299E09983FA8291E0A5
:101CC0009E8390EA98879AEF9987209150023091ED
:101CD0005102275F3F4F3C832B838D831092E90095
:101CE000109251021092500210934F0200934E0234
:101CF00049E050E0BE016F5F7F4F80E00E943F05EA
:101D00000E94650579CF10934F0200934E020E9406
:101D1000FC02DC0112960D911C910115110509F4CC
:101D200051C1D801ED91FC910480F581E02DBE01F7
:101D30006B5E7F4FC8010995009709F03EC1F8011D
:101D400000851185EACFF3E0FF120EC08F8988234A
:101D500009F440C0823061F440E862E187E191E03B
:101D60000E940C05811148CF81E28093EB0047CFA0
:101D7000813029F440E862E184E091E0F1CF8330E2
:101D800099F70E94FC02DC011296ED90FC908E0106
:101D90000F5F1F4F6801E114F10479F0D701ED9155
:101DA000FC910680F781E02DB801C7010995080F65
:101DB000111DF701E084F184EECFD8011C92F601E9
:101DC00001900020E9F73197BF016C197D0940E0CF
:101DD000C601C6CF6EEE70E0FB01449150E080E892
:101DE0000E943F0509CF973009F4BECF983021F407
:101DF00081E08093F10000CF993009F0FDCE83702F
:101E000009F0B2CFE9E2F1E081E031E096E321911F
:101E1000222371F08093E9003093EB00DF011197EA
:101E20002C912093EC009093ED008F5F873079F731
:101E30008EE78093EA001092EA008F8980936E0209
:101E4000DBCE8B8D9C8D1092E90010925102109286
:101E5000500290934F0280934E02898D811192C05F
:101E60008E899D89913A49F4813209F07DCF47E00E
:101E700050E064E071E080E0B3CF913209F074CFBC
:101E8000833269F48F89988DB0E0A0E080930001DF
:101E900090930101A0930201B0930301ADCE803273
:101EA00069F48091E80082FFFCCF67E084E091E074
:101EB0000E9496058BEF8093E8009ECE823209F057
:101EC0009BCE8F8980930B01EEEFFFE78591949174
:101ED0008B3F9C4D51F1E0E0F8E08091040190913E
:101EE0000501A0910601B0910701803B9440A10536
:101EF000B105F1F480910B0180FD1AC0EE3F8AE03C
:101F0000F80789F587E797E79183808380916000E0
:101F10008093520288E19BE00FB6F894A8958093D5
:101F200060000FBE9093600067CEEEEFFAE0D5CF71
:101F3000808191818737974709F05ECEA89580917F
:101F400060008861809360008091520280936000FD
:101F5000EE3F2AE0F20789F08091FE0A9091FF0A95
:101F60009183808349CE808191818737980751F290
:101F70009093FF0A8093FE0AC5CF1092FF0A109239
:101F8000FE0A3ACE0E94FC02DC0112960D911C91D1
:101F90000115110509F4E8CED801ED91FC910190ED
:101FA000F081E02DBE016B5E7F4FC8010995811164
:101FB00023CEF80100851185EBCF181619060CF415
:101FC0001BCED2CEF1E0FF12BECE62EF70E004CFA6
:101FD0001F920F920FB60F9211242F933F934F939E
:101FE0005F936F937F938F939F93AF93BF93EF9381
:101FF000FF93CF93DF9300D01F92CDB7DEB783B1AD
:10200000898389819091D30289278A8380916B008B
:102010009A8189238B838B8180FF05C0E0913E02EA
:10202000F0913F0209958B8181FF05C0E09140024C
:10203000F091410209958B8182FF05C0E091420237
:10204000F091430209958B8183FF05C0E091440222
:10205000F091450209958B8184FF05C0E09146020D
:10206000F091470209958B8185FF05C0E0914802F8
:10207000F091490209958B8186FF05C0E0914A02E3
:10208000F0914B0209958B8187FF05C0E0914C02CE
:10209000F0914D02099589818093D3020F900F90A2
:1020A0000F90DF91CF91FF91EF91BF91AF919F91F1
:1020B0008F917F916F915F914F913F912F910F90F1
:1020C0000FBE0F901F9018951F920F920FB60F9290
:1020D00011242F933F934F935F936F937F938F932D
:1020E0009F93AF93BF93EF93FF938091520390918F
:1020F00053032091500330915103AC01421B530B09
:1021000050934703409346039093510380935003A9
:1021100080918B0390918C032091890330918A03E5
:10212000AC01421B530B5093800340937F03909369
:102130008A038093890380914503813021F0809147
:102140004503823021F483E493E00E9424078091C8
:102150007E03813021F080917E03823021F48CE770
:1021600093E00E942407FF91EF91BF91AF919F915F
:102170008F917F916F915F914F913F912F910F9030
:102180000FBE0F901F901895CF93DF93E3E8F2E016
:102190001382128288EE93E0A0E0B0E084839583FE
:1021A000A683B7838DE391E0918380838FEF9FEFC8
:1021B0009587848783B18093D302E3E4F3E01282AE
:1021C0001482138215821682178210861286118657
:1021D0002CE231E03487238716861586108A17860D
:1021E000128A118A148A138A40E050E060EA70E48F
:1021F000458B568B678B708F80E090E0A0E0BFE34B
:10220000818F928FA38FB48F158E168E178E10A28A
:1022100011A212A213A214A215A216A217A210A60E
:1022200011A612A613A614A615A616A617A610AADE
:1022300011AA12AA13AA14AA15AA16AA17AA10AEAE
:10224000CBE5D1E0D183C08313AE15AE14AE1092AE
:1022500081031092820310928303109284031092E0
:10226000860310928503309388032093870310928E
:102270008A031092890310928C0310928B031092A0
:102280008E0310928D031092900310928F0340934F
:1022900091035093920360939303709394038093FC
:1022A000950390939603A0939703B093980310928D
:1022B000990310929A0310929B0310929C03109220
:1022C0009D0310929E0310929F031092A003109200
:1022D000A1031092A2031092A3031092A4031092E0
:1022E000A5031092A6031092A7031092A8031092C0
:1022F000A9031092AA031092AB031092AC031092A0
:10230000AD031092AE031092AF031092B00310927F
:10231000B1031092B2031092B3031092B40385E597
:1023200091E092AF81AF8EED95E3AAE7BCE3809395
:10233000B5039093B603A093B703B093B80383E3B8
:1023400093E3ABEEB0E48093B9039093BA03A09308
:10235000BB03B093BC0380E190E09093BE038093F5
:10236000BD03EBE3F3E0128215828FE491E09183E9
:102370008083E4E2F3E010821382148215821682D5
:102380008AE090E0A0E0B0E087839087A187B287E1
:1023900013861486158616861786108A118A128A65
:1023A00080E090E0A6ECB2E4838B948BA58BB68B97
:1023B00081E181838CE08283ECE0F3E08EE0808336
:1023C000128211821382148215821682178210865D
:1023D0001186128613861486158616861786108A2D
:1023E000118A128A138A148A158A168A178AE4EDCA
:1023F000F2E080E090E8A9E8B3E480A391A3A2A36F
:10240000B3A380E090E0A0E0B0E484A395A3A6A3EA
:10241000B7A386E090E091A780A783E090E0A0E0DA
:10242000B0E086A797A7A0ABB1AB8BE090E093ABF1
:1024300082AB84E090E095AB84AB8DE090E097AB0D
:1024400086ABDF91CF910895789484B5826084BD86
:1024500084B5816084BD85B5826085BD85B58160A8
:1024600085BD80916E00816080936E001092810026
:1024700080918100826080938100809181008160E1
:1024800080938100809180008160809380008091A2
:10249000910082608093910080919100816080938F
:1024A0009100809190008160809390008091C100A4
:1024B00084608093C1008091C10082608093C100DC
:1024C0008091C10081608093C1008091C3008160D0
:1024D0008093C3008091C00082608093C00080918F
:1024E000C20081608093C20080917A0084608093F2
:1024F0007A0080917A00826080937A0080917A00DD
:10250000816080937A0080917A00806880937A005D
:1025100010926E0210925502109254028091D700D0
:1025200081608093D70080EA8093D80089B580616C
:1025300089BD89B5826089BD09B400FEFDCF61E027
:1025400070E080E090E00E9438048091D8008F7C99
:1025500080618093D8008091E000807F8093E000CC
:102560008091E1008E7E8093E1008DE08093E20017
:10257000559A209A81E691E00E94FD0B2E98269AAA
:102580002D98259A2A98229A2998219A2F98279A45
:10259000F8948AEA8093800089E18093810084EA3C
:1025A00091E09093870080938600109289001092AA
:1025B000880010928B0010928A0010928D00109269
:1025C0008C00789480E691E00E94FD0B8FE691E00C
:1025D0000E94FD0B24982C9A6A98729A6E98769AAB
:1025E0008098889A6AE278E084E00E94FB0661E4C1
:1025F00078E084E00E940A016CB1262F30E0359526
:1026000027953595279583B1422F4170682F70E04B
:10261000E4E075956795EA95E1F76227617083E4D8
:1026200093E00E94FA0783E493E00E944C086CB1A7
:10263000262F30E0359527953595279583B1422F84
:102640004170682F70E0A4E075956795AA95E1F751
:10265000622761708CE793E00E94FA078CE793E0B1
:102660000E944C088EE691E00E94FD0BF8941092B7
:10267000C0008BE08093C1001092C2001092C30092
:1026800089EF8093D10084E080937200789460E0B9
:1026900080910C030E94B30380910C03843018F0E6
:1026A000873009F04CC18EE791E00E94FD0B8091CC
:1026B0000C03882309F43BC1813009F43AC182300C
:1026C00009F439C1833009F438C1873029F484E032
:1026D00067E778E00E940A0160E0809125030E948C
:1026E000B30380912503843018F0873009F042C18C
:1026F0008DE991E00E94FD0B80912503882309F468
:1027000031C1813009F430C1823009F42FC18330E6
:1027100009F42EC1873029F484E066E578E00E9450
:102720000A0161E0809126030E94B30361E0809179
:1027300006030E94B30361E0809108030E94B30383
:1027400061E080910A030E94B30360E080E00E9490
:10275000B30360E081E00E94B30388EA80938000C5
:1027600081E180938100C0E9D1E0D0938700C093DC
:10277000860010928D0010928C006AE47AE082E06C
:102780000E940A0162E27AE083E00E940A01F89462
:1027900010927302109274021092750210927602D7
:1027A0007894F89410927302109274021092750249
:1027B00010927602789484E690E090930F018093D3
:1027C0000E01D0931101C093100160E08EE00E94D1
:1027D000B3038FEF9FEF9093900280938F0210923C
:1027E0005B0210925A028BE393E00E940D0C882347
:1027F000D1F36AE070E080E090E00E9438048BE35F
:1028000093E00E940D0C882371F38BE393E00E9408
:102810000D0C8111FACF6AE070E080E090E00E9438
:1028200038048BE393E00E940D0C8111EECF0E94DF
:10283000DF090E94DC0968EE73E080E090E00E940E
:1028400038043CE7C32E35E1D32EE12CF12C40EFC8
:10285000442E4AE0542E612C712CC6E0D0E0222494
:102860002394312C9BE0892E912C09E010E024E088
:10287000A22EB12C80910D0390910E03049711F5B7
:1028800010920E0310920D03809113039091140384
:10289000A0911503B09116038A2F90E08130910525
:1028A00009F07BC080915A0290915B02909359028B
:1028B00080935802D0935B02C0935A0284ED91E05A
:1028C0000E94FD0BF89460917302709174028091E4
:1028D00075029091760278940E940C0B60915A02D6
:1028E00070915B02072E000C880B990B97FF6BC051
:1028F0000E94EB0A8DE591E00E949A0AE0915A024B
:10290000F0915B02ED30F10508F00CC1E657FB4E8B
:102910000C947217E7146A153716A2161715591674
:10292000CC16E1169A15E9151A1628173F1782E0FA
:10293000CFCE83E0CDCE81E0CBCE80E0C9CE8CE897
:1029400091E00E94FD0BE0910C03E8508FEFEA301C
:1029500020F4F0E0E15DFE4F808167E778E00E94BF
:10296000FB06BACE82E0D9CE83E0D7CE81E0D5CEC9
:1029700080E0D3CE87EB91E00E94FD0BE091250330
:10298000E8508FEFEA3020F4F0E0E15DFE4F808107
:1029900066E578E00E94FB06C4CE8530910559F4C7
:1029A000809158029091590290935B0280935A0251
:1029B00083EE91E085CF0D9709F084CF10925B02F2
:1029C00010925A027FCF4AE00E94A70A93CF0E943A
:1029D000E2090E94DC098B3F91050CF4A3C00E9420
:1029E000DF098B3F91050CF49DC020E030E0A90188
:1029F000CA01B9010E944701B0925902A09258023F
:102A0000D0935B02C0935A028AEE91E00E94FD0BC4
:102A100083E493E00E944C08F894809152039091D3
:102A20005303789490935702809356027BC087EFAC
:102A300091E00E94FD0B20E030E0A90160E070E031
:102A400080E291E40E94ED012091B5033091B6033C
:102A50004091B7035091B80360E070E080EE90E4DD
:102A60000E94EA170E945C18F8942091520330915A
:102A700053037894260F371F30934D0320934C0354
:102A800022E020934503F89440918B0350918C03EE
:102A90007894460F571F50938603409385032093E5
:102AA0007E030E946B0460E070E084EB92EC0E9475
:102AB0007B041093590200935802D0935B02C09399
:102AC0005A0283E493E00E944C088CE793E00E9452
:102AD0004C0828C00E94E209F8948091520390911A
:102AE0005303789482379440A4F020E030E0A901A9
:102AF000CA01B9010E944701D0935B02C0935A02F8
:102B000090925902809258028DEF91E00E94FD0B45
:102B100009C0F89480918B0390918C03789482374C
:102B200094401CF780E090E0892B09F4A3CE0E942A
:102B3000000095CE8CE99FEF0E94200BF8948091C5
:102B4000730290917402A0917502B091760278940C
:102B5000813F9A40A105B10524F1F8948091730258
:102B600090917402A0917502B09176027894843F9E
:102B70009A40A105B105B4F210927F021092800232
:102B800010928102109282023092590220925802D1
:102B9000D0935B02C0935A028AE092E00E949A0AA4
:102BA000C1CFF8948091730290917402A091750244
:102BB000B09176027894A3019201281B390B4A0B3D
:102BC0005B0BDA01C9010497A105B1050CF4AACF8A
:102BD000D3CF8CE99FEF0E94200BF8948091730271
:102BE00090917402A0917502B091760278948D371D
:102BF0009541A105B1058CF0F894809173029091F4
:102C00007402A0917502B091760278948038954153
:102C1000A105B1050CF0B0CF85CFF8948091730277
:102C200090917402A0917502B09176027894A701F8
:102C30009601C3CF20E030E048EC51E460E070E062
:102C400088EC91EC0E9447010E94DF098B3F9105BF
:102C50000CF468CF42E050E0509359024093580280
:102C6000D0935B02C0935A0287E192E04FCF0E945B
:102C7000E2090E94DC098B3F91050CF453CF0E94BE
:102C8000DF098B3F91050CF44DCF20E030E0A90126
:102C9000CA01B9010E94470185E090E09093590272
:102CA00080935802D0935B02C0935A0284E292E070
:102CB000ADCE87EF91E00E94FD0B20E030E0A9014E
:102CC00060E070E080E291E40E94ED012091B503A4
:102CD0003091B6034091B7035091B8036CE57FE89B
:102CE0008AEE90E40E94EA170E945C18F894209102
:102CF0005203309153037894260F371F30934D03BE
:102D000020934C0322E020934503F89440918B03D9
:102D100050918C037894460F571F5093860340932D
:102D2000850320937E030E946B0460E070E084EBD7
:102D300092E40E947B0423E030E030935902209318
:102D40005802BBCE0E94E209F89480915203909100
:102D500053037894843A96400CF4E4CEF89480912E
:102D60008B0390918C037894843A96400CF4DACEDD
:102D700020E030E0A901CA01B9010E944701D093C7
:102D80005B02C0935A0287E090E0909359028093CF
:102D9000580281E392E0BACE1092450370E060E001
:102DA00083E493E00E94E10710927E0370E060E00C
:102DB0008CE793E00E94C80790E080E00E94720ACE
:102DC000B1CE84E690E00E94200BF89480917302CB
:102DD00090917402A0917502B091760278941816C1
:102DE00019061A061B061CF5F8948091730290913F
:102DF0007402A0917502B09176027894853691059F
:102E0000A105B1050CF48ECE4CE050E05093590270
:102E100040935802D0935B02C0935A0210927F02F3
:102E2000109280021092810210928202B5CEF89424
:102E30008091730290917402A0917502B091760214
:102E400078948C399F4FAF4FBF4F0CF06BCEDCCFD7
:102E50006CE97FEF8CE091E00E94A90664E670E0E7
:102E600080E090E00E9438048AE090E0909359025C
:102E700080935802D0935B02C0935A0253CE64E60B
:102E800070E08CE091E00E94A90664E670E080E0CA
:102E900090E00E943804D0935902C0935802EACFC0
:102EA000A1E21A2EAA1BBB1BFD010DC0AA1FBB1F4E
:102EB000EE1FFF1FA217B307E407F50720F0A21BC0
:102EC000B30BE40BF50B661F771F881F991F1A942D
:102ED00069F760957095809590959B01AC01BD0157
:102EE000CF010895EE0FFF1F0590F491E02D099496
:102EF0005058BB27AA270E9490170C940A190E94C9
:102F0000FC1838F00E94031920F039F49F3F19F49F
:102F100026F40C94F9180EF4E095E7FB0C94F318E2
:102F2000E92F0E941B1958F3BA1762077307840729
:102F3000950720F079F4A6F50C943D190EF4E09570
:102F40000B2EBA2FA02D0B01B90190010C01CA0163
:102F5000A0011124FF27591B99F0593F50F4503E0E
:102F600068F11A16F040A22F232F342F4427585F00
:102F7000F3CF469537952795A795F0405395C9F718
:102F80007EF41F16BA0B620B730B840BBAF09150D0
:102F9000A1F0FF0FBB1F661F771F881FC2F70EC06F
:102FA000BA0F621F731F841F48F487957795679542
:102FB000B795F7959E3F08F0B0CF9395880F08F02E
:102FC0009927EE0F9795879508950E94CF1808F4DA
:102FD00081E008950E94FE170C940A190E940319BB
:102FE00058F00E94FC1840F029F45F3F29F00C943F
:102FF000F31851110C943E190C94F9180E941B19E6
:1030000068F39923B1F3552391F3951B550BBB2717
:10301000AA2762177307840738F09F5F5F4F220F5C
:10302000331F441FAA1FA9F335D00E2E3AF0E0E853
:1030300032D091505040E695001CCAF72BD0FE2F9D
:1030400029D0660F771F881FBB1F26173707480731
:10305000AB07B0E809F0BB0B802DBF01FF279358E9
:103060005F4F3AF09E3F510578F00C94F3180C94A2
:103070003E195F3FE4F3983ED4F3869577956795C4
:10308000B795F7959F5FC9F7880F911D969587951E
:1030900097F90895E1E0660F771F881FBB1F62173D
:1030A00073078407BA0720F0621B730B840BBA0BFB
:1030B000EE1F88F7E09508950E9463186894B11197
:1030C0000C943E1908950E94231988F09F5798F098
:1030D000B92F9927B751B0F0E1F0660F771F881F1D
:1030E000991F1AF0BA95C9F714C0B13091F00E9437
:1030F0003D19B1E008950C943D19672F782F88276A
:10310000B85F39F0B93FCCF3869577956795B3955D
:10311000D9F73EF490958095709561957F4F8F4FCC
:103120009F4F0895E89409C097FB3EF490958095D1
:10313000709561957F4F8F4F9F4F9923A9F0F92F7D
:1031400096E9BB279395F695879577956795B795FB
:10315000F111F8CFFAF4BB0F11F460FF1BC06F5FE1
:103160007F4F8F4F9F4F16C0882311F096E911C0F3
:10317000772321F09EE8872F762F05C0662371F014
:1031800096E8862F70E060E02AF09A95660F771F28
:10319000881FDAF7880F9695879597F90895990F04
:1031A0000008550FAA0BE0E8FEEF16161706E80711
:1031B000F907C0F012161306E407F50798F0621B32
:1031C000730B840B950B39F40A2661F0232B242B07
:1031D000252B21F408950A2609F4A140A6958FEF26
:1031E000811D811D089597F99F6780E870E060E078
:1031F00008959FEF80EC089500240A941616170690
:1032000018060906089500240A94121613061406D7
:1032100005060895092E0394000C11F4882352F03A
:10322000BB0F40F4BF2B11F460FF04C06F5F7F4FF2
:103230008F4F9F4F089557FD9058440F551F59F0D9
:103240005F3F71F04795880F97FB991F61F09F3F93
:1032500079F087950895121613061406551FF2CFBC
:103260004695F1DF08C0161617061806991FF1CF0C
:1032700086957105610508940895E894BB27662733
:103280007727CB0197F908950E94CF1808F48FEFA4
:1032900008950E945C190C940A190E94FC1838F0D9
:1032A0000E94031920F0952311F00C94F3180C944C
:1032B000F91811240C943E190E941B1970F3959F64
:1032C000C1F3950F50E0551F629FF001729FBB271D
:1032D000F00DB11D639FAA27F00DB11DAA1F649FB9
:1032E0006627B00DA11D661F829F2227B00DA11D6C
:1032F000621F739FB00DA11D621F839FA00D611DF2
:10330000221F749F3327A00D611D231F849F600D12
:10331000211D822F762F6A2F11249F5750409AF03B
:10332000F1F088234AF0EE0FFF1FBB1F661F771FC7
:10333000881F91505040A9F79E3F510580F00C9492
:10334000F3180C943E195F3FE4F3983ED4F386954E
:1033500077956795B795F795E7959F5FC1F7FE2B32
:10336000880F911D9695879597F9089581E090E0D3
:0A337000F8940C94BB19F894FFCFF9
:10337A00FFFFFFFF00E10000000000002201E80358
:10338A00D007FF00DD04DD04DD04DD04DD040000F8
:10339A000000DB06D006A90600C1808100000004F7
:1033AA00050607FFFF03010200000000002806A32C
:1033BA000549063E068F064D066B06000000000D05
:1033CA000C00000000C80700000000E1070D0A0019
:1033DA002F696E69744D6F746F72732829002F6993
:1033EA006E6974456E636F6465727328290041744F
:1033FA0074616368696E672049535200417474614D
:10340A006368696E672050435F4953520041747480
:10341A00616368696E672072616E676566696E646A
:10342A0065722049535200417474616368696E671A
:10343A002072616E676566696E6465722050435FCB
:10344A0049535200456D657267656E6379205374FE
:10345A006F70004F6E7761726400436865636B70CA
:10346A006F696E74203100436865636B0043686559
:10347A00636B706F696E74203200436865636B70AA
:10348A006F696E74203300436865636B706F696E91
:10349A0074203400436865636B706F696E742035FD
:0E34AA0000436865636B706F696E74203600B6
:00000001FF
