:100000000C94E0000C94330D0C940C0D0C94E50C46
:100010000C94BE0C0C9408010C9408010C94970CE1
:100020000C9408010C94FB0F0C945A0D0C94C90D00
:100030000C9408010C9408010C9408010C9408011C
:100040000C9408010C9408010C9408010C9408010C
:100050000C9408010C9408010C9408010C944D0CAC
:100060000C9408010C9408010C9408010C940801EC
:100070000C9408010C9408010C9408010C940801DC
:100080000C9408010C9408010C9408010C940801CC
:100090000C9408010C9408010C9408010C940801BC
:1000A0000C9408010C9477100C940801080B0002C2
:1000B0000202000009040000010202000005240001
:1000C0001001052401010104240206052406000193
:1000D0000705810310004009040100020A00000026
:1000E00007050202400000070583024000000403E8
:1000F000090412010002EF020140FB1F002300016E
:1001000001020301506F6C6F6C7520436F72706F4A
:10011000726174696F6E00506F6C6F6C7520412D49
:100120005374617220333255340007060504010010
:10013000080A0B0C0D0900000000240027002A000B
:100140002D00300000000000250028002B002E00AC
:100150003100000000002300260029002C002F00A1
:10016000040404040403040502020202040302025C
:10017000020206060606060604040202020404043D
:100180000802011040804010204080408008020496
:10019000018040201002011080102040402000000B
:1001A000000200090F0000030401000C0000000021
:1001B0000000000000000000000000000000D71058
:1001C00011241FBECFEFDAE0DEBFCDBF12E0A0E00A
:1001D000B1E0EEE3F4E302C005900D92AA36B10758
:1001E000D9F723E0AAE6B2E001C01D92AD3EB20706
:1001F000E1F710E0C0EED0E004C02197FE010E94BC
:10020000D417CF3DD107C9F70E9437120C941D1A9D
:100210000C940000E82FF0E0EE0FFF1FEC5EFE4FA5
:10022000718360838230D9F028F4882341F08130D3
:1002300071F008958330D9F0843009F108958091E8
:1002400069008C7F816080936900E89A08958091AD
:100250006900837F846080936900E99A08958091A2
:1002600069008F7C806180936900EA9A089580918B
:1002700069008F73806480936900EB9A0895809180
:100280006A008F7C806180936A00EE9A08954F9295
:100290005F926F927F928F929F92AF92BF92CF9216
:1002A000DF92EF92FF92CF93DF9300D000D0CDB7D3
:1002B000DEB769837A838B839C8329013A0160913D
:1002C000EB037091EC0390E080E00E94F41820E0D2
:1002D00030E04AE754E40E944C184B015C01C090A6
:1002E000E303D090E403E090E503F090E603A3017C
:1002F00092010E94AB19A70196010E944C180E941E
:10030000BE182B0129813A814B815C81C501B40162
:100310000E94AB19A70196010E944C180E94BE18BA
:10032000072E000C880B990B0E94F6186093760339
:10033000709377038093780390937903809173038C
:10034000813081F010929A0310929B0310929C03CB
:1003500010929D03809180039091810390937F037D
:1003600080937E0381E080937303B201550C880B68
:10037000990B0E94F6186093AF037093B0038093BB
:10038000B1039093B2038091AC03813081F010925D
:10039000D3031092D4031092D5031092D603809108
:1003A000B9039091BA039093B8038093B70381E0A7
:1003B0008093AC030F900F900F900F90DF91CF912F
:1003C000FF90EF90DF90CF90BF90AF909F908F9075
:1003D0007F906F905F904F9008954F925F926F92D1
:1003E0007F928F929F92AF92BF92CF92DF92EF92C5
:1003F000FF92CF93DF93CDB7DEB728970FB6F8946F
:10040000DEBF0FBECDBF4B015C012D833E834F830A
:1004100058876091EB037091EC0390E080E00E94BC
:10042000F41820E030E04AE754E40E944C186B01D5
:100430007C014090E3035090E4036090E5037090EA
:10044000E603A50194010E94AB19A30192010E9449
:100450004C180E94BE1869837A838B839C8323EC9B
:1004600035EF48E450E46091E7037091E803809130
:10047000E9039091EA030E94AB1920E030E044E3E5
:1004800053E40E944C184B015C012D813E814F8149
:100490005885C701B6010E94AB199B01AC01C5018B
:1004A000B4010E94AB19A30192010E944C180E9452
:1004B000BE186B0169817A816C197D09072E000CC9
:1004C000880B990B0E94F61860937603709377035C
:1004D000809378039093790380917303813081F046
:1004E00010929A0310929B0310929C0310929D030A
:1004F000809180039091810390937F0380937E038A
:1005000081E08093730389819A81C80ED91EB60158
:10051000DD0C880B990B0E94F6186093AF03709363
:10052000B0038093B1039093B2038091AC03813008
:1005300081F01092D3031092D4031092D50310923D
:10054000D6038091B9039091BA039093B803809336
:10055000B70381E08093AC0328960FB6F894DEBF12
:100560000FBECDBFDF91CF91FF90EF90DF90CF9086
:10057000BF90AF909F908F907F906F905F904F90C3
:100580000895FC0180919C02882311F13FB7F894F3
:1005900082E08093E9002091F200822F90E018160B
:1005A000190614F481E090E0882339F0289844E695
:1005B00040939B024091F1004083222339F0209127
:1005C000F200211103C02BE62093E8003FBF0895FD
:1005D0008FEF9FEF08952FB7F89483E08093E900A1
:1005E0009091E800892F807295FF04C09091F200ED
:1005F00080E4891B2FBF08958091930281110DC063
:1006000082E080938F0284E08093900210929202A5
:100610001092910281E0809393028FE892E0089516
:1006200081508F3008F047C0E82FF0E0E65EFC4FC5
:100630000C94D41737033B0329032F0333035B03C5
:100640005B035B033E03440348034C0352035B0319
:100650005603809180008F77809380000895809169
:1006600080008F7DF9CF80918000877FF5CF84B5A2
:100670008F7784BD089584B58F7DFBCF80919000E6
:100680008F77809390000895809190008F7DF9CFAF
:1006900080919000877FF5CF8091C0008F77809305
:1006A000C00008958091C0008F7DF9CF8091C20075
:1006B000877F8093C2000895CF93DF93282F30E087
:1006C000F901E256FE4F8491F901E158FE4FD491B1
:1006D000F901E05AFE4FC491CC23A1F081110E9490
:1006E0001003EC2FF0E0EE0FFF1FEE5AFE4FA59126
:1006F000B491EC91ED2381E090E009F480E0DF918A
:10070000CF91089580E090E0FACF1F93CF93DF93CD
:10071000282F30E0F901E256FE4F8491F901E158AB
:10072000FE4FD491F901E05AFE4FC491CC23A9F0B9
:10073000162F81110E941003EC2FF0E0EE0FFF1F27
:10074000EC5BFE4FA591B4918FB7F894EC91111129
:1007500008C0D095DE23DC938FBFDF91CF911F912E
:100760000895DE2BF8CFCF93DF9390E0FC01E158A2
:10077000FE4F2491805A9E4FFC0184918823C9F03A
:1007800090E0880F991FFC01EA5CFE4FA591B4919F
:10079000FC01EC5BFE4FC591D49161110DC09FB778
:1007A000F8948C91209582238C9388812823288328
:1007B0009FBFDF91CF910895623051F49FB7F894B5
:1007C0003C91822F809583238C93E8812E2BEFCF51
:1007D0008FB7F894EC912E2B2C938FBFEACF8231F8
:1007E00008F08251E82FF0E0E65DFE4FE491909131
:1007F0007B008E2F880F880F80729F7D892B8093BE
:100800007B00E770E064E0937C0080917A00806474
:1008100080937A0080917A0086FDFCCF80917800E9
:100820009091790008953FB7F89480918B02909150
:100830008C02A0918D02B0918E0226B5A89B05C0B6
:100840002F3F19F00196A11DB11D3FBFBA2FA92F4F
:10085000982F8827BC01CD01620F711D811D911D4C
:1008600042E0660F771F881F991F4A95D1F70895B8
:100870008F929F92AF92BF92CF92DF92EF92FF92B0
:100880004B015C010E9413046B017C010E94130464
:100890006C197D098E099F09683E73408105910599
:1008A000A8F321E0821A9108A108B10888EEC80EC9
:1008B00083E0D81EE11CF11C81149104A104B10451
:1008C00029F7FF90EF90DF90CF90BF90AF909F906F
:1008D0008F90089580917303811104C08091AC03BF
:1008E000882339F061E070E080E090E00E943804F5
:1008F000F1CF08958F929F92AF92BF92CF92DF92E5
:10090000EF92FF924B015C0169017A01E894F7F8DC
:1009100020E030E0A9010E94A619181624F0F7FA89
:10092000F094F7F8F094A701960160E070E0CB0135
:100930000E94ED0123EC35EF48E450E46091E703B9
:100940007091E8038091E9039091EA030E94AB194A
:1009500020E030E044E353E40E944C18A5019401E8
:100960000E94AB192091E3033091E4034091E50329
:100970005091E6030E944C180E94BE18F8942091F2
:100980008003309181037894261B370B30937B03CF
:1009900020937A0322E020937303F8944091B903E3
:1009A0005091BA037894CA01860F971F9093B403AD
:1009B0008093B3032093AC03FF90EF90DF90CF9030
:1009C000BF90AF909F908F900C946A0408954091CF
:1009D0007C0250917D0220917A0230917B02421775
:1009E0005307B4F49091E8009570E1F39091E8001A
:1009F00092FD19C08093F10080917C0290917D025C
:100A000001968F739927892B19F48EEF8093E80054
:100A100080917C0290917D02019690937D0280935B
:100A20007C0281E0089580E00895EF92FF920F9399
:100A30001F93CF93DF93F82E192FE62E042F81E01A
:100A4000860F880F0E94E70483E00E94E704CF2D01
:100A5000D12FEC0EFD2EF11CCE15DF05B9F007FFEE
:100A600013C0FE0184910E94E704182F80E00E94C9
:100A7000E704812321968111EFCFDF91CF911F9160
:100A80000F91FF90EF9008958881EDCF81E0F5CF31
:100A9000DF92EF92FF920F931F93CF93DF93D82EA5
:100AA0008A01EB017B01E40EF51ECE15DF0559F03E
:100AB000D7FE12C0FE0184910E94E70421968111A5
:100AC000F4CF0FEF1FEFC801DF91CF911F910F916E
:100AD000FF90EF90DF9008958881EECF0F931F93E2
:100AE000CF93DF931F92CDB7DEB782E0898342E4D4
:100AF00050E06CEA70E080E80E9448050E94FC0229
:100B0000DC0112960D911C910115110589F0D80197
:100B1000ED91FC910280F381E02DBE016F5F7F4F6C
:100B2000C801099597FD04C0F80100851185ECCF37
:100B300089810F90DF91CF911F910F91089561509E
:100B400030F02091F100FC0120830196F8CF289825
:100B500084E680939B0208958F929F92AF92BF92FA
:100B6000CF92DF92EF92FF920F931F93CF93DF9379
:100B70006C017B018A0180910B01882309F45CC020
:100B800080919C02882309F457C08091800280FFE5
:100B900005C08091E00082608093E000E801B12C04
:100BA0008AEFA82E93E0892E2AE3922E209711F443
:100BB000BB20D9F10E94EB0281110AC0AA94AA209D
:100BC000D9F161E070E080E090E00E943804EECF5F
:100BD0008C171D0611F00CF08C2F9FB7F8948092A3
:100BE000E9002091E80025FD02C09FBFDFCF282F3C
:100BF00030E0C21BD30BF701815020F041914093AC
:100C0000F100FACFE20EF31EBB2021F09092E80033
:100C1000B12CEBCF8091E80085FDE7CF9092E80002
:100C2000BB24B394209709F3F3CF5D9884E68093B7
:100C30007F02101611063CF081E090E0F6019383EC
:100C4000828310E000E0C801DF91CF911F910F91E6
:100C5000FF90EF90DF90CF90BF90AF909F908F90DC
:100C60000895CF93DF931F92CDB7DEB76983DC0180
:100C7000ED91FC910280F381E02D41E050E0BE0156
:100C80006F5F7F4F09950F90DF91CF91089583E0BB
:100C90008093E9008091F200882319F08AE3809321
:100CA000E80008950E94EB0290E00895CF93DF934F
:100CB0001F92CDB7DEB7FC018485958597FD08C0EE
:100CC0002FEF3FEF358724870F90DF91CF91089565
:100CD000CE0101960E94C102019719F4898190E02A
:100CE000F3CF8FEF9FEFF0CF0F931F93CF93DF934F
:100CF0001F92CDB7DEB78C01FC018485958597FFE7
:100D00000BC0CE0101960E94C102019771F4898146
:100D100090E0F80195878487F801848595850F9088
:100D2000DF91CF911F910F9108958FEF9FEFF1CF3A
:100D3000FC018485958597FD0BC09FB7F89482E0F0
:100D40008093E9008091F2009FBF90E001960895A2
:100D50009FB7F89482E08093E9008091F2009FBFF2
:100D600090E008950F931F93CF93DF93EC018B01D5
:100D70008F81811107C0E881F9810190F081E02D18
:100D8000CE0109958A819B810817190730F08C8163
:100D90009D810817190708F4C801880F991F01974A
:100DA0009093990080939800DF91CF911F910F91BC
:100DB0000895DC01F894E0E9F0E090819F7790835A
:100DC000789417961C920895CF93DF93EC0161E01D
:100DD00085E00E94B303F89482E8809390008AE152
:100DE000809391008FE39CE9909397008093960005
:100DF00088EB9BE09093990080939800789481E031
:100E00008F83DF91CF910895F89441E0409368007B
:100E1000ABE6B0E09C91E82FF0E021E030E001C0CB
:100E2000220F8A95EAF7892F822B8C93EE0FFF1FF2
:100E3000E659FD4F718360834BBB90910103822F74
:100E4000809589238093010383B1909101038223CC
:100E5000892B80930103789408954F925F926F924B
:100E60007F928F929F92AF92BF92CF92DF92EF923A
:100E7000FF92CF93DF93EC016B817C81072E000CF6
:100E8000880B990B0E94F6189B01AC016D817E8145
:100E90008F8198850E94DA176B017C01C9A2DAA2C2
:100EA000EBA2FCA229A53AA54BA55CA50E94DB17E5
:100EB0004B015C0189A69AA6ABA6BCA64DA45EA474
:100EC0006FA478A820E030E0A901C301B2010E941C
:100ED000A61918169CF4A50194015F77C301B2010D
:100EE0000E94471887FF0AC0A7019601C501B401F7
:100EF0000E94DA1769A77AA78BA79CA72DA13EA10C
:100F00004FA158A5C701B6010E94DA174B015C0139
:100F1000CDA2DEA2EFA2F8A629A53AA54BA55CA515
:100F2000698D7A8D8B8D9C8D0E94AB192B013C01B4
:100F30002D893E894F89588DC701B6010E94AB1992
:100F40009B01AC01C301B2010E94DB176B017C0164
:100F50002D8D3E8D4F8D58A1C501B4010E94AB1956
:100F60009B01AC01C701B6010E94DB176DAB7EABE4
:100F70008FAB98AF0E94BE18E881F9810190F08193
:100F8000E02DCE01DF91CF91FF90EF90DF90CF90D9
:100F9000BF90AF909F908F907F906F905F904F9099
:100FA000099420E077FF04C071956195710921E0F3
:100FB000FC0183859485681779070CF4CB01909325
:100FC000890080938800222319F0299A219A089594
:100FD0002998FCCF20E077FF04C0719561957109D5
:100FE00021E0FC0183859485681779070CF4CB0117
:100FF00090938B0080938A00222319F02A9A229AD8
:1010000008952A98FCCFCF93DF93EC0189899A89C0
:1010100050E070E02B893C89AF85B88984279527FB
:1010200026273727821B930B8A0F9B1F988B8F874E
:101030007A8B698B5C8B4B8B8A81823089F42F850C
:10104000388989859A852817390751F4E881F9810B
:101050000190F081E02D70E060E0CE0109951A82E8
:10106000DF91CF9108956CB1262F30E0359527950B
:101070003595279583B1422F4170682F70E094E039
:10108000759567959A95E1F76227617081E793E01E
:101090000C9403084FB141706CB166FB662760F990
:1010A00064278AEA93E00C940308FC01F89487858E
:1010B0009089108A178616861586789408958091EF
:1010C00053030E945C03892B59F00E941304609320
:1010D0005D0370935E0380935F03909360030895B4
:1010E0000E9413046093610370936203809363030F
:1010F0009093640380915203826080935203089519
:10110000CF92DF92EF92FF920F931F930E941304EE
:101110006B017C0180913A030E945C03892B79F476
:10112000C0924603D0924703E0924803F0924903ED
:101130001F910F91FF90EF90DF90CF900895C09294
:101140004A03D0924B03E0924C03F0924D0340913E
:101150004A0350914B0360914C0370914D03809171
:10116000460390914703A0914803B0914903481B5F
:10117000590B6A0B7B0B80914A0390914B03A09112
:101180004C03B0914D03C0904E03D0904F03E090BC
:101190005003F090510300914A0310914B032091AA
:1011A0004C0330914D0300934E0310934F03209353
:1011B0005003309351038A019B01055311422109C9
:1011C0003109073E13402105310548F410924503CB
:1011D00081E090E090933C0380933B03A9CF445F70
:1011E000514061097109493C51056105710590F053
:1011F00085E090E090933C0380933B038FEF9FEF5B
:10120000DC018093410390934203A0934303B09386
:1012100044038ECF8C199D09AE09BF0920913B0371
:1012200030913C032130310509F05FC0AC01BD01B4
:10123000415C524161097109433F514061057105AB
:1012400058F41092410310924203109243031092FB
:10125000440383E090E0BECF8D589A40A109B109C4
:1012600087359240A105B10508F062CF82E090E099
:1012700090933C0380933B03409141035091420380
:101280006091430370914403809141039091420324
:10129000A0914303B0914403892F9A2FAB2FBB2712
:1012A00084279527A627B72788279927BB27009744
:1012B000AF4FB10531F085E090E090933C0380930F
:1012C0003B032FB7F89480919D0290919E02A091CC
:1012D0009F02B091A0022FBF80933D0390933E03E5
:1012E000A0933F03B093400323CF2330310509F08F
:1012F0001FCFAC01BD0145585340610971094F38FA
:1013000051406105710560F5809145038F5F8093C1
:10131000450380914503803209F00ACF4091410393
:1013200050914203609143037091440380914103C3
:1013300090914203A0914303B0914403892F9A2FC7
:10134000AB2FBB2784279527A627B7278827992760
:10135000BB270097AF4FB105A9F185E090E03ACFE8
:10136000815D9740A109B109833F9140A105B10575
:1013700010F5209145034091410350914203609143
:1013800043037091440381E090E0A0E0B0E004C02A
:10139000880F991FAA1FBB1F2A95D2F7840F951F8C
:1013A000A61FB71F8093410390934203A09343036A
:1013B000B0934403A9CF85E090E090933C038093E1
:1013C0003B03A7CF84E090E078CF86E10C94EF0355
:1013D00085E10C94EF038F929F92AF92BF92CF92D0
:1013E000DF92EF92FF92CF93DF930E94E509EC0129
:1013F0000E94E809BE01681B790B072E000C880BC0
:10140000990B0E94F6182AE037ED43E25CE30E9454
:10141000AB196B017C01AC019B0160E070E080EADC
:1014200091E40E94DA174B015C0120E030E040EAD1
:1014300051E4C701B6010E94DB17A5019401DF91B9
:10144000CF91FF90EF90DF90CF90BF90AF909F90A3
:101450008F900C944701CF93DF9380E00E945C0350
:10146000EC0181E00E945C034091A1025091A20234
:101470006091A3027091A402C817D90779F44F5F55
:101480005F4F6F4F7F4F4093A1025093A202609332
:10149000A3027093A402DF91CF91089541505109A6
:1014A00061097109F0CFCF93DF9380E00E945C0364
:1014B000EC0181E00E945C034091A1025091A202E4
:1014C0006091A3027091A402C817D90779F4415022
:1014D0005109610971094093A1025093A2026093DE
:1014E000A3027093A402DF91CF9108954F5F5F4FE5
:1014F0006F4F7F4FF0CFCF93DF93EC018091380394
:10150000D7FF18C061E00E94850360E08091360338
:101510000E948503D195C195D109C13981E0D807D1
:1015200014F0C0E9D1E0D0938D00C0938C00DF911E
:10153000CF91089560E00E94850361E080913603B9
:101540000E948503EACFFC0101900020E9F7319762
:10155000AF01481B590BBC0181EB92E00C94AC0528
:101560008F929F92AF92BF92CF92DF92EF92FF92B3
:101570000F931F93CF93DF93CDB7DEB7A1970FB62D
:10158000F894DEBF0FBECDBF6B017C01F7FE47C0F4
:101590006DE281EB92E00E9431068C012227332715
:1015A000A9012C193D094E095F0919A2CE018196A6
:1015B0007C019AE0892E912CA12CB12CCA01B90191
:1015C000A50194010E94B217605DF70162937F014B
:1015D000211531054105510589F790E080E03097EC
:1015E00019F0CF010E94A30A080F191F8DE591E0A1
:1015F0000E94A30A800F911FA1960FB6F894DEBF38
:101600000FBECDBFDF91CF911F910F91FF90EF9053
:10161000DF90CF90BF90AF909F908F900895AC01D6
:101620009B0119A28E010F5D1F4F8AE0C82ED12C9D
:10163000E12CF12CCA01B901A70196010E94B21751
:10164000605DF80162938F01211531054105510557
:1016500089F7309729F0CF010E94A30A8C01C6CFE9
:1016600010E000E0C3CF0F931F93CF93DF938C0163
:101670001092AD021092AE021092AF021092B00220
:10168000181619060CF067C0D0E0C0E0BE010D2EA0
:10169000000C880B990B0E94F6182BED39EF4EEBDE
:1016A0005EE30E94AB1920E030E04BE753E40E9478
:1016B000DB170E94BE18CB010E947B0A8091A90211
:1016C0009091AA02A091AB02B091AC028093A502C6
:1016D0009093A602A093A702B093A8022FB7F89404
:1016E00080919D0290919E02A0919F02B091A002D4
:1016F0002FBF8093A9029093AA02A093AB02B0934C
:10170000AC026091A1027091A2028091A30290911B
:10171000A4020E94B00A8091A1029091A202A0911D
:10172000A302B091A4028093AD029093AE02A09365
:10173000AF02B093B00264E670E080E090E00E94F7
:10174000380421960C171D070CF0A0CFDF91CF9124
:101750001F910F910895892BC9F3D0E0C0E0BE011D
:101760000D2E000C880B990B0E94F61823EC35EF18
:1017700048EE5EE30E94AB1920E030E04AE553E416
:101780000E94DA170E94BE18CB010E947B0A80914A
:10179000A9029091AA02A091AB02B091AC028093F1
:1017A000A5029093A602A093A702B093A8022FB718
:1017B000F89480919D0290919E02A0919F02B09119
:1017C000A0022FBF8093A9029093AA02A093AB021C
:1017D000B093AC026091A1027091A2028091A30229
:1017E0009091A4020E94B00A8091A1029091A2025D
:1017F000A091A302B091A4028093AD029093AE0297
:10180000A093AF02B093B00264E670E080E090E095
:101810000E9438042197C017D1070CF0A0CF96CFB3
:10182000CF93DF930E94A30AEC018DE591E00E9423
:10183000A30A8C0F9D1FDF91CF9108950E94181A63
:10184000CF93DF93A2EEB0E09C911C92E9EEF0E022
:1018500020811082C0EFD0E03881188240E02899C2
:101860004160209942602098289A80E18A95F1F79A
:1018700083B141FB0EF0209840FB0EF028980EF447
:10188000289A41FB0EF4209A1082388320839C937F
:1018900080958170DF91CF9108951F920F920FB6BE
:1018A0000F9211242F933F938F939F93AF93BF93E6
:1018B00080919D0290919E02A0919F02B091A00202
:1018C00030918A0223E0230F2D3758F50196A11D90
:1018D000B11D20938A0280939D0290939E02A09353
:1018E0009F02B093A00280918B0290918C02A091F4
:1018F0008D02B0918E020196A11DB11D80938B02C5
:1019000090938C02A0938D02B0938E02BF91AF9101
:101910009F918F913F912F910F900FBE0F901F902D
:10192000189526E8230F0296A11DB11DD2CF1F9254
:101930000F920FB60F9211242F933F934F935F9303
:101940006F937F938F939F93AF93BF93EF93FF9387
:10195000E0911C01F0911D010995FF91EF91BF915C
:10196000AF919F918F917F916F915F914F913F9137
:101970002F910F900FBE0F901F9018951F920F92EE
:101980000FB60F9211242F933F934F935F936F9352
:101990007F938F939F93AF93BF93EF93FF93E091C8
:1019A0001A01F0911B010995FF91EF91BF91AF9141
:1019B0009F918F917F916F915F914F913F912F9167
:1019C0000F900FBE0F901F9018951F920F920FB699
:1019D0000F9211242F933F934F935F936F937F93B5
:1019E0008F939F93AF93BF93EF93FF93E091180171
:1019F000F09119010995FF91EF91BF91AF919F91DE
:101A00008F917F916F915F914F913F912F910F90A7
:101A10000FBE0F901F9018951F920F920FB60F9246
:101A200011242F933F934F935F936F937F938F93E3
:101A30009F93AF93BF93EF93FF93E0911601F091C3
:101A400017010995FF91EF91BF91AF919F918F91F0
:101A50007F916F915F914F913F912F910F900FBEAA
:101A60000F901F9018951F920F920FB60F9211248E
:101A70002F933F934F935F936F937F938F939F9396
:101A8000AF93BF93EF93FF93E0911401F091150191
:101A90000995FF91EF91BF91AF919F918F917F91A8
:101AA0006F915F914F913F912F910F900FBE0F90CB
:101AB0001F9018951F920F920FB60F9211248F93BB
:101AC0009F938091E1009091E100937F9093E100DA
:101AD00083FF0FC01092E90091E09093EB00109209
:101AE000EC0092E39093ED0010929C0298E09093AA
:101AF000F00082FF22C093E09093E9009091F20001
:101B0000992319F09AE39093E80090917F0299232A
:101B100041F090917F02915090937F02911101C00A
:101B20005D9A90919B02992341F090919B02915074
:101B300090939B02911101C0289A84FF18C0809154
:101B4000E2008E7E81608093E2008091E1008F7ED2
:101B50008093E100809180028E7E8061809380027C
:101B60009F918F910F900FBE0F901F90189580FF3F
:101B7000F7CF8091E2008E7E80618093E2008091B9
:101B8000E1008E7E8093E100809180028E7E8160F4
:101B9000E5CF1F920F920FB60F921124CF92DF92D2
:101BA000EF92FF920F931F932F933F934F935F9367
:101BB0006F937F938F939F93AF93BF93EF93FF9315
:101BC000CF93DF93CDB7DEB76C97DEBFCDBF10925A
:101BD000E9008091E80083FF25C068E0CE014596CA
:101BE0000E949F0582EF8093E8008D8987FF39C0AE
:101BF0009091E80090FFFCCF982F907609F034C1C7
:101C00009E894F89588D2F89F88C911131C0803869
:101C100061F5809181028093F1001092F1008EEFC6
:101C20008093E8006C960FB6F894DEBF0FBECDBF70
:101C3000DF91CF91FF91EF91BF91AF919F918F91E4
:101C40007F916F915F914F913F912F911F910F91D4
:101C5000FF90EF90DF90CF900F900FBE0F901F90EE
:101C600018959EEF9093E800C7CF1092F100D5CF62
:101C7000913059F48111D3CF4130510581F68091D3
:101C800081028D7F80938102CACF933049F4811104
:101C9000C6CF4130510519F6809181028260F2CFA2
:101CA000953041F48091E80080FFFCCF20682093BC
:101CB000E300B5CF963009F0A9C00B8D1C8D22E052
:101CC0001092E90010927D0210927C02F2122EC056
:101CD00010927B0210927A020E946E051F8299E098
:101CE0009983FA8291E09E8390EA98879AEF998788
:101CF00020917C0230917D02275F3F4F3C832B83F4
:101D00008D831092E90010927D0210927C02109354
:101D10007B0200937A0249E050E0BE016F5F7F4F83
:101D200080E00E9448050E946E0579CF10937B02E7
:101D300000937A020E94FC02DC0112960D911C9124
:101D40000115110509F451C1D801ED91FC910480F0
:101D5000F581E02DBE016B5E7F4FC80109950097AC
:101D600009F03EC1F80100851185EACFF3E0FF12CA
:101D70000EC08F89882309F440C0823061F440E8A6
:101D800062E187E191E00E941505811148CF81E26F
:101D90008093EB0047CF813029F440E862E184E092
:101DA00091E0F1CF833099F70E94FC02DC0112969A
:101DB000ED90FC908E010F5F1F4F6801E114F1045C
:101DC00079F0D701ED91FC910680F781E02DB80103
:101DD000C7010995080F111DF701E084F184EECFCA
:101DE000D8011C92F60101900020E9F73197BF015C
:101DF0006C197D0940E0C601C6CF6EEE70E0FB01B4
:101E0000449150E080E80E94480509CF973009F4DA
:101E1000BECF983021F481E08093F10000CF99305B
:101E200009F0FDCE837009F0B2CFE9E2F1E081E084
:101E300031E096E32191222371F08093E900309301
:101E4000EB00DF0111972C912093EC009093ED00B3
:101E50008F5F873079F78EE78093EA001092EA006F
:101E60008F8980939C02DBCE8B8D9C8D1092E90034
:101E700010927D0210927C0290937B0280937A02F2
:101E8000898D811192C08E899D89913A49F4813260
:101E900009F07DCF47E050E064E071E080E0B3CF2F
:101EA000913209F074CF833269F48F89988DB0E054
:101EB000A0E08093000190930101A0930201B093F0
:101EC0000301ADCE803269F48091E80082FFFCCF3F
:101ED00067E084E091E00E949F058BEF8093E8002B
:101EE0009ECE823209F09BCE8F8980930B01EEEF5C
:101EF000FFE7859194918B3F9C4D51F1E0E0F8E034
:101F00008091040190910501A0910601B091070113
:101F1000803B9440A105B105F1F480910B0180FD57
:101F20001AC0EE3F8AE0F80789F587E797E79183C3
:101F300080838091600080937E0288E19BE00FB6F1
:101F4000F894A895809360000FBE9093600067CED0
:101F5000EEEFFAE0D5CF808191818737974709F07E
:101F60005ECEA8958091600088618093600080912A
:101F70007E0280936000EE3F2AE0F20789F08091B4
:101F8000FE0A9091FF0A9183808349CE80819181DE
:101F90008737980751F29093FF0A8093FE0AC5CFC6
:101FA0001092FF0A1092FE0A3ACE0E94FC02DC0157
:101FB00012960D911C910115110509F4E8CED80176
:101FC000ED91FC910190F081E02DBE016B5E7F4FA1
:101FD000C8010995811123CEF80100851185EBCF49
:101FE000181619060CF41BCED2CEF1E0FF12BECEAD
:101FF00062EF70E004CF1F920F920FB60F92112480
:102000002F933F934F935F936F937F938F939F9300
:10201000AF93BF93EF93FF93CF93DF9300D01F92C3
:10202000CDB7DEB783B18983898190910103892778
:102030008A8380916B009A8189238B838B8180FFB7
:1020400005C0E0916A02F0916B0209958B8181FFD6
:1020500005C0E0916C02F0916D0209958B8182FFC1
:1020600005C0E0916E02F0916F0209958B8183FFAC
:1020700005C0E0917002F091710209958B8184FF97
:1020800005C0E0917202F091730209958B8185FF82
:1020900005C0E0917402F091750209958B8186FF6D
:1020A00005C0E0917602F091770209958B8187FF58
:1020B00005C0E0917802F0917902099589818093B9
:1020C00001030F900F900F90DF91CF91FF91EF914F
:1020D000BF91AF919F918F917F916F915F914F9140
:1020E0003F912F910F900FBE0F901F9018951F9248
:1020F0000F920FB60F9211242F933F934F935F933C
:102100006F937F938F939F93AF93BF93EF93FF93BF
:10211000809180039091810320917E0330917F0311
:10212000AC01421B530B509375034093740390937F
:102130007F0380937E038091B9039091BA0320912D
:10214000B7033091B803AC01421B530B5093AE035D
:102150004093AD039093B8038093B70380917303CA
:10216000813021F080917303823021F481E793E084
:102170000E942D078091AC03813021F08091AC0347
:10218000823021F48AEA93E00E942D07FF91EF91BB
:10219000BF91AF919F918F917F916F915F914F917F
:1021A0003F912F910F900FBE0F901F901895CF93D6
:1021B000DF93E1EBF2E01382128288EE93E0A0E07D
:1021C000B0E084839583A683B7838DE391E0918308
:1021D00080838FEF9FEF9587848783B1809301037E
:1021E000E1E7F3E0128214821382158216821782CD
:1021F0001086128611862CE231E0348723871686FA
:102200001586108A1786128A118A148A138A40E06A
:1022100050E060EA70E4458B568B678B708F80E0EE
:1022200090E0A0E0BFE3818F928FA38FB48F158ED3
:10223000168E178E10A211A212A213A214A215A21A
:1022400016A217A210A611A612A613A614A615A6CA
:1022500016A617A610AA11AA12AA13AA14AA15AA9A
:1022600016AA17AA10AECBE5D1E0D183C08313AE76
:1022700015AE14AE1092AF031092B0031092B103DA
:102280001092B2031092B4031092B3033093B603CA
:102290002093B5031092B8031092B7031092BA03BB
:1022A0001092B9031092BC031092BB031092BE03AC
:1022B0001092BD034093BF035093C0036093C103CA
:1022C0007093C2038093C3039093C403A093C50388
:1022D000B093C6031092C7031092C8031092C903AB
:1022E0001092CA031092CB031092CC031092CD032C
:1022F0001092CE031092CF031092D0031092D1030C
:102300001092D2031092D3031092D4031092D503EB
:102310001092D6031092D7031092D8031092D903CB
:102320001092DA031092DB031092DC031092DD03AB
:102330001092DE031092DF031092E0031092E1038B
:102340001092E20385E591E092AF81AF8EED95E3C7
:10235000AAE7BCE38093E3039093E403A093E5032F
:10236000B093E60383E393E3ABEEB0E48093E7033B
:102370009093E803A093E903B093EA0380E190E02F
:102380009093EC038093EB03E9E6F3E0128215826D
:102390008FE491E091838083E2E5F3E01082138281
:1023A0001482158216828AE090E0A0E0B0E0878374
:1023B0009087A187B287138614861586168617869E
:1023C000108A118A128A80E090E0A6ECB2E4838B36
:1023D000948BA58BB68B81E181838CE08283EAE3C9
:1023E000F3E08EE0808312821182138214821582C0
:1023F0001682178210861186128613861486158619
:1024000016861786108A118A128A138A148A158AE8
:10241000168A178AE2E0F3E080E090E8A9E8B3E4E6
:1024200080A391A3A2A3B3A380E090E0A0E0B0E4D6
:1024300084A395A3A6A3B7A386E090E091A780A765
:1024400083E090E0A0E0B0E086A797A7A0ABB1AB97
:102450008BE090E093AB82AB84E090E095AB84ABF3
:102460008DE090E097AB86ABDF91CF9108957894A3
:1024700084B5826084BD84B5816084BD85B5826089
:1024800085BD85B5816085BD80916E00816080933A
:102490006E001092810080918100826080938100A3
:1024A00080918100816080938100809180008160B3
:1024B0008093800080919100826080939100809150
:1024C0009100816080939100809190008160809361
:1024D00090008091C10084608093C1008091C10010
:1024E00082608093C1008091C10081608093C100AF
:1024F0008091C30081608093C3008091C00082609E
:102500008093C0008091C20081608093C20080915E
:102510007A00846080937A0080917A008260809350
:102520007A0080917A00816080937A0080917A00AD
:10253000806880937A0010929C021092810210921F
:1025400080028091D70081608093D70080EA8093D9
:10255000D80089B5806189BD89B5826089BD09B41B
:1025600000FEFDCF61E070E080E090E00E94380462
:102570008091D8008F7C80618093D8008091E000AA
:10258000807F8093E0008091E1008E7E8093E10067
:102590008DE08093E200559A209A81E691E00E94B6
:1025A000100C2E98269A2D98259A2A98229A2998C6
:1025B000219A2F98279AF8948AEA8093800089E1DB
:1025C0008093810084EA91E0909387008093860055
:1025D000109289001092880010928B0010928A004D
:1025E00010928D0010928C00789480E691E00E9409
:1025F000100C8FE691E00E94100C24982C9A6A9897
:10260000729A6E98769A8098889A63E378E084E06C
:102610000E9404076AE478E084E00E940A016CB139
:10262000262F30E0359527953595279583B1422F94
:102630004170682F70E0E4E075956795EA95E1F7E1
:102640006227617081E793E00E94030881E793E0CD
:102650000E9455086CB1262F30E0359527953595A9
:10266000279583B1422F4170682F70E0A4E07595E3
:102670006795AA95E1F7622761708AEA93E00E9464
:1026800003088AEA93E00E9455088EE691E00E94D2
:10269000100CF8941092C0008BE08093C10010924F
:1026A000C2001092C30089EF8093D10084E0809330
:1026B0007200789460E080913A030E94B3038091A5
:1026C0003A03843018F0873009F030C18EE791E08A
:1026D0000E94100C80913A03882309F41FC18130B5
:1026E00009F41EC1823009F41DC1833009F41CC1F4
:1026F000873029F484E060E878E00E940A0160E015
:10270000809153030E94B30380915303843018F0E7
:10271000873009F026C18DE991E00E94100C80916C
:102720005303882309F415C1813009F414C18230A0
:1027300009F413C1833009F412C1873029F484E00D
:102740006FE578E00E940A0161E0809154030E94E5
:10275000B30361E0809134030E94B30361E0809190
:1027600036030E94B30361E0809138030E94B303F3
:1027700060E080E00E94B30360E081E00E94B30368
:1027800088EA8093800081E180938100C0E9D1E0F4
:10279000D0938700C093860010928D0010928C0019
:1027A00063E57AE082E00E940A016BE27AE083E06E
:1027B0000E940A01F8941092A1021092A2021092B3
:1027C000A3021092A4027894F8941092A10210929D
:1027D000A2021092A3021092A402789484E690E0E0
:1027E00090930F0180930E01D0931101C0931001BB
:1027F00060E08EE00E94B3038FEF9FEF9093BE02E4
:102800008093BD02109289021092880289E693E0BB
:102810000E94200C8823D1F36AE070E080E090E011
:102820000E94380489E693E00E94200C882371F30B
:1028300089E693E00E94200C8111FACF6AE070E0F3
:1028400080E090E00E94380489E693E00E94200C2A
:102850008111EECF0E94E8090E94E50968EE73E05D
:1028600080E090E00E94380450EA452E5FE0552E4B
:10287000612C712C08E010E0C6E0D0E082E0282E48
:10288000312CEE24E394F12C2BE0822E912C3AE5AE
:10289000C32ED12C44E0A42EB12C80913B03909107
:1028A0003C03049711F510923C0310923B03809176
:1028B000410390914203A0914303B09144038A2FB6
:1028C00090E08130910509F05FC08091880290917D
:1028D00089029093870280938602D0938902C093E5
:1028E000880284ED91E00E94100CE0918802F09142
:1028F0008902ED30F10508F028C1EF57FB4E0C942A
:10290000D417E2147D157616F216121598161C17B8
:102910003117AD15051653167A17991782E0EBCECD
:1029200083E0E9CE81E0E7CE80E0E5CE8CE891E07F
:102930000E94100CE0913A03E8508FEFEA3020F447
:10294000F0E0E15DFE4F808160E878E00E940407DE
:10295000D6CE82E0F5CE83E0F3CE81E0F1CE80E00A
:10296000EFCE87EB91E00E94100CE0915303E8500A
:102970008FEFEA3020F4F0E0E15DFE4F80816FE5FB
:1029800078E00E940407E0CE8530910559F48091EB
:10299000860290918702909389028093880283EE49
:1029A00091E0A1CF8D30910529F410928902109207
:1029B00088029BCF409709F098CF1093890200932B
:1029C000880293CF0E94EB090E94E5098B3F910595
:1029D0000CF4BBC00E94E8098B3F91050CF4B5C014
:1029E00020E030E0A901CA01B9010E944701B0927C
:1029F0008702A0928602D0938902C09388028AEE51
:102A000091E00E94100C81E793E00E945508F89431
:102A100080918003909181037894909385028093B4
:102A2000840293C087EF91E00E94100CD092830241
:102A3000C0928202D0938902C093880210938702C9
:102A40000093860220E030E0A90160E070E080E2BF
:102A500091E40E94ED012091E3033091E403409161
:102A6000E5035091E60360E070E080EE90E40E94A0
:102A70004C180E94BE18F894209180033091810375
:102A80007894260F371F30937B0320937A0322E03C
:102A900020937303F8944091B9035091BA0378944A
:102AA000460F571F5093B4034093B3032093AC03D6
:102AB0000E946A046091820270918302072E000CCA
:102AC000880B990B0E94F61820E030E048EC52E4A5
:102AD0000E947A048DEF91E00E94100C8091880290
:102AE00090918902049789F181E793E00E9455084B
:102AF0008AEA93E00E94550828C00E94EB09F894E6
:102B00008091800390918103789482379440A4F05F
:102B100020E030E0A901CA01B9010E944701D09329
:102B20008902C0938802909287028092860286E092
:102B300092E00E94100C09C0F8948091B903909122
:102B4000BA037894823794401CF780E090E0892B98
:102B500009F4A3CE0E94000091CE8CE99FEF0E9461
:102B6000330BF8948091A1029091A202A091A3024C
:102B7000B091A4027894A3019201281B390B4A0B4F
:102B80005B0BCA01B9010E94B00AF8948091A102BE
:102B90009091A202A091A302B091A4027894181679
:102BA00019061A061B06FCF4F8948091A102909174
:102BB000A202A091A302B091A4027894813A9F400E
:102BC000A105B1050CF4C1CF8AE090E00E94330B5F
:102BD000F0928702E0928602D0938902C093880225
:102BE00083E192E0A6CFF8948091A1029091A20295
:102BF000A091A302B091A4027894B095A09590956D
:102C000081959F4FAF4FBF4FD9CF8CE99FEF0E9467
:102C1000330B81E292E00E94100CF8948091A102A3
:102C20009091A202A091A302B091A40278941816E8
:102C300019061A061B062CF5F8948091A1029091B2
:102C4000A202A091A302B091A40278948D3795417D
:102C5000A105B1050CF479CF1092AD021092AE022D
:102C60001092AF021092B002F0928702E0928602B8
:102C7000D0938902C09388028FE292E00E94A30A57
:102C800064CFF8948091A1029091A202A091A30236
:102C9000B091A4027894B095A095909581959F4F9E
:102CA000AF4FBF4FD3CF20E030E048EC51ECCA012A
:102CB000B9010E94470168EC70E080E090E00E945A
:102CC000380420E030E048EC51E460E070E08AE253
:102CD00093E40E947A043092870220928602D09375
:102CE0008902C09388028DE392E023CF0E94EB0912
:102CF0000E94E5098B3F91050CF427CF0E94E8095B
:102D00008B3F91050CF421CF20E030E0A901CA01EE
:102D1000B9010E94470185E090E09093870280937B
:102D20008602D0938902C093880282E492E069CE41
:102D300087EF91E00E94100C20E030E0A90160E0F4
:102D400070E080E291E40E94ED012091E303309174
:102D5000E4034091E5035091E6036CE57FE88AEED9
:102D600090E40E944C180E94BE18F89420918003B1
:102D7000309181037894260F371F30937B03209383
:102D80007A0322E020937303F8944091B9035091A1
:102D9000BA037894460F571F5093B4034093B3037C
:102DA0002093AC030E946A046091820270918302B6
:102DB000719561957109072E000C880B990B0E9483
:102DC000F61820E030E048EC52E40E947A0423E058
:102DD00030E03093870220938602D0938902C0931B
:102DE000880282CE0E94EB09F89480918003909132
:102DF00081037894843A96400CF4A7CEF89480919D
:102E0000B9039091BA037894843A96400CF49DCE1D
:102E100020E030E0A901CA01B9010E944701D09326
:102E20008902C093880287E090E0909387028093A4
:102E300086028FE492E07DCE1092730370E060E032
:102E400081E793E00E94EA071092AC0370E060E033
:102E50008AEA93E00E94D10790E080E00E947B0A1A
:102E600074CE84E690E00E94330BF8948091A10226
:102E70009091A202A091A302B091A4027894181696
:102E800019061A061B062CF5F8948091A102909160
:102E9000A202A091A302B091A40278948536910574
:102EA000A105B1050CF451CE4CE050E050938702DF
:102EB00040938602D0938902C09388021092AD029B
:102EC0001092AE021092AF021092B0028CE592E026
:102ED000D5CEF8948091A1029091A202A091A30274
:102EE000B091A40278948C399F4FAF4FBF4F0CF034
:102EF0002CCEDACF8CE091E00E94E40664EF71E022
:102F00008CE091E00E94B20664E378E080E090E01B
:102F10000E9438048CE091E00E94D9068AE090E09B
:102F20009093870280938602D0938902C09388028F
:102F30000CCE8CE091E00E94E4066CE07EEF8CE029
:102F400091E00E94B20664E378E080E090E00E94A5
:102F500038048CE091E00E94D906D0938702C09398
:102F60008602E2CFA1E21A2EAA1BBB1BFD010DC0F7
:102F7000AA1FBB1FEE1FFF1FA217B307E407F50729
:102F800020F0A21BB30BE40BF50B661F771F881F05
:102F9000991F1A9469F760957095809590959B019B
:102FA000AC01BD01CF010895EE0FFF1F0590F49114
:102FB000E02D09945058BB27AA270E94F2170C94C1
:102FC0006C190E945E1938F00E94651920F039F4DE
:102FD0009F3F19F426F40C945B190EF4E095E7FB7F
:102FE0000C945519E92F0E947D1958F3BA176207FE
:102FF00073078407950720F079F4A6F50C949F19C0
:103000000EF4E0950B2EBA2FA02D0B01B901900103
:103010000C01CA01A0011124FF27591B99F0593F47
:1030200050F4503E68F11A16F040A22F232F342F8F
:103030004427585FF3CF469537952795A795F040DD
:103040005395C9F77EF41F16BA0B620B730B840BF2
:10305000BAF09150A1F0FF0FBB1F661F771F881FAA
:10306000C2F70EC0BA0F621F731F841F48F4879502
:1030700077956795B795F7959E3F08F0B0CF9395F4
:10308000880F08F09927EE0F9795879508950E946D
:10309000311908F481E008950E9460180C946C19AD
:1030A0000E94651958F00E945E1940F029F45F3FB4
:1030B00029F00C94551951110C94A0190C945B191A
:1030C0000E947D1968F39923B1F3552391F3951B61
:1030D000550BBB27AA2762177307840738F09F5F39
:1030E0005F4F220F331F441FAA1FA9F335D00E2EA6
:1030F0003AF0E0E832D091505040E695001CCAF713
:103100002BD0FE2F29D0660F771F881FBB1F2617D5
:1031100037074807AB07B0E809F0BB0B802DBF01AC
:10312000FF2793585F4F3AF09E3F510578F00C947B
:1031300055190C94A0195F3FE4F3983ED4F386959B
:1031400077956795B795F7959F5FC9F7880F911D9C
:103150009695879597F90895E1E0660F771F881F88
:10316000BB1F621773078407BA0720F0621B730B3B
:10317000840BBA0BEE1F88F7E09508950E94C518DE
:103180006894B1110C94A01908950E94851988F0D3
:103190009F5798F0B92F9927B751B0F0E1F0660F1B
:1031A000771F881F991F1AF0BA95C9F714C0B1305C
:1031B00091F00E949F19B1E008950C949F19672F18
:1031C000782F8827B85F39F0B93FCCF3869577958B
:1031D0006795B395D9F73EF4909580957095619574
:1031E0007F4F8F4F9F4F0895E89409C097FB3EF49F
:1031F00090958095709561957F4F8F4F9F4F992344
:10320000A9F0F92F96E9BB279395F69587957795C1
:103210006795B795F111F8CFFAF4BB0F11F460FF81
:103220001BC06F5F7F4F8F4F9F4F16C0882311F0D9
:1032300096E911C0772321F09EE8872F762F05C0ED
:10324000662371F096E8862F70E060E02AF09A9588
:10325000660F771F881FDAF7880F9695879597F97D
:103260000895990F0008550FAA0BE0E8FEEF161617
:103270001706E807F907C0F012161306E407F5076A
:1032800098F0621B730B840B950B39F40A2661F0DE
:10329000232B242B252B21F408950A2609F4A14081
:1032A000A6958FEF811D811D089597F99F6780E88E
:1032B00070E060E008959FEF80EC089500240A9488
:1032C0001616170618060906089500240A94121601
:1032D0001306140605060895092E0394000C11F434
:1032E000882352F0BB0F40F4BF2B11F460FF04C0E1
:1032F0006F5F7F4F8F4F9F4F089557FD9058440F3A
:10330000551F59F05F3F71F04795880F97FB991F44
:1033100061F09F3F79F08795089512161306140601
:10332000551FF2CF4695F1DF08C01616170618068E
:10333000991FF1CF86957105610508940895E89469
:10334000BB2766277727CB0197F908950E9431198B
:1033500008F48FEF08950E94BE190C946C190E9416
:103360005E1938F00E94651920F0952311F00C9435
:1033700055190C945B1911240C94A0190E947D1905
:1033800070F3959FC1F3950F50E0551F629FF001B8
:10339000729FBB27F00DB11D639FAA27F00DB11DD1
:1033A000AA1F649F6627B00DA11D661F829F22275A
:1033B000B00DA11D621F739FB00DA11D621F839FE1
:1033C000A00D611D221F749F3327A00D611D231FB7
:1033D000849F600D211D822F762F6A2F11249F5705
:1033E00050409AF0F1F088234AF0EE0FFF1FBB1F08
:1033F000661F771F881F91505040A9F79E3F5105C7
:1034000080F00C9455190C94A0195F3FE4F3983E9A
:10341000D4F3869577956795B795F795E7959F5F70
:10342000C1F7FE2B880F911D9695879597F9089502
:0E34300081E090E0F8940C941D1AF894FFCF00
:10343E00FFFFFFFF00E10000000000002201E80393
:10344E00D007FF00E604E604E604E604E604000006
:10345E000000E406D906B20600C180810000000417
:10346E00050607FFFF03010200000000003106AC55
:10347E000552064706980656067406000000002000
:10348E000C00000000D10700000000EA070D0A0042
:10349E002F696E69744D6F746F72732829002F69CE
:1034AE006E6974456E636F6465727328290041748A
:1034BE0074616368696E6720495352004174746188
:1034CE006368696E672050435F49535200417474BC
:1034DE00616368696E672072616E676566696E64A6
:1034EE0065722049535200417474616368696E6756
:1034FE002072616E676566696E6465722050435F07
:10350E0049535200456D657267656E637920537439
:10351E006F70004F6E7761726400436865636B7005
:10352E006F696E74203100436865636B0064697265
:10353E00656374656400436865636B706F696E7470
:10354E00203400436865636B706F696E742033615D
:10355E000061726D7374726F6E6720696E670043DF
:10356E006865636B706F696E74203362005370759B
:10357E006E00436865636B706F696E74203500432F
:10358E006865636B706F696E74203600436865639F
:0A359E006B706F696E74203300003B
:00000001FF
