:100000000C94E0000C94880D0C94610D0C943A0D46
:100010000C94130D0C9408010C9408010C94EC0C36
:100020000C9408010C9450100C94AF0D0C941E0EFF
:100030000C9408010C9408010C9408010C9408011C
:100040000C9408010C9408010C9408010C9408010C
:100050000C9408010C9408010C9408010C94A20C57
:100060000C9408010C9408010C9408010C940801EC
:100070000C9408010C9408010C9408010C940801DC
:100080000C9408010C9408010C9408010C940801CC
:100090000C9408010C9408010C9408010C940801BC
:1000A0000C9408010C94CC100C940801080B00026D
:1000B0000202000009040000010202000005240001
:1000C0001001052401010104240206052406000193
:1000D0000705810310004009040100020A00000026
:1000E00007050202400000070583024000000403E8
:1000F000090412010002EF020140FB1F002300016E
:1001000001020301506F6C6F6C7520436F72706F4A
:10011000726174696F6E00506F6C6F6C7520412D49
:100120005374617220333255340007060504010010
:10013000080A0B0C0D0900000000240027002A000B
:100140002D00300000000000250028002B002E00AC
:100150003100000000002300260029002C002F00A1
:10016000040404040403040502020202040302025C
:10017000020206060606060604040202020404043D
:100180000802011040804010204080408008020496
:10019000018040201002011080102040402000000B
:1001A000000200090F0000030401000C0000000021
:1001B00000000000000000000000000000002C1102
:1001C00011241FBECFEFDAE0DEBFCDBF12E0A0E00A
:1001D000B1E0EEE0F6E302C005900D92A438B1075D
:1001E000D9F723E0A4E8B2E001C01D92AD3EB2070A
:1001F000E1F710E0C0EED0E004C02197FE010E94BC
:10020000BC18CF3DD107C9F70E948D120C94051B75
:100210000C940000E82FF0E0EE0FFF1FEC5EFE4FA5
:10022000718360838230D9F028F4882341F08130D3
:1002300071F008958330D9F0843009F108958091E8
:1002400069008C7F816080936900E89A08958091AD
:100250006900837F846080936900E99A08958091A2
:1002600069008F7C806180936900EA9A089580918B
:1002700069008F73806480936900EB9A0895809180
:100280006A008F7C806180936A00EE9A08954F9295
:100290005F926F927F928F929F92AF92BF92CF9216
:1002A000DF92EF92FF92CF93DF9300D000D0CDB7D3
:1002B000DEB769837A838B839C8329013A0160913D
:1002C000EB037091EC0390E080E00E94DC1920E0E9
:1002D00030E04AE754E40E9434194B015C01C090BD
:1002E000E303D090E403E090E503F090E603A3017C
:1002F00092010E94931AA70196010E9434190E944C
:10030000A6192B0129813A814B815C81C501B40179
:100310000E94931AA70196010E9434190E94A619FF
:10032000072E000C880B990B0E94DE196093760350
:10033000709377038093780390937903809173038C
:10034000813081F010929A0310929B0310929C03CB
:1003500010929D03809180039091810390937F037D
:1003600080937E0381E080937303B201550C880B68
:10037000990B0E94DE196093AF037093B0038093D2
:10038000B1039093B2038091AC03813081F010925D
:10039000D3031092D4031092D5031092D603809108
:1003A000B9039091BA039093B8038093B70381E0A7
:1003B0008093AC030F900F900F900F90DF91CF912F
:1003C000FF90EF90DF90CF90BF90AF909F908F9075
:1003D0007F906F905F904F9008954F925F926F92D1
:1003E0007F928F929F92AF92BF92CF92DF92EF92C5
:1003F000FF92CF93DF93CDB7DEB728970FB6F8946F
:10040000DEBF0FBECDBF4B015C012D833E834F830A
:1004100058876091EB037091EC0390E080E00E94BC
:10042000DC1920E030E04AE754E40E9434196B0103
:100430007C014090E3035090E4036090E5037090EA
:10044000E603A50194010E94931AA30192010E9460
:1004500034190E94A61969837A838B839C8323ECC9
:1004600035EF48E450E46091E7037091E803809130
:10047000E9039091EA030E94931A20E030E044E3FC
:1004800053E40E9434194B015C012D813E814F8160
:100490005885C701B6010E94931A9B01AC01C501A2
:1004A000B4010E94931AA30192010E9434190E9480
:1004B000A6196B0169817A816C197D09072E000CE0
:1004C000880B990B0E94DE19609376037093770373
:1004D000809378039093790380917303813081F046
:1004E00010929A0310929B0310929C0310929D030A
:1004F000809180039091810390937F0380937E038A
:1005000081E08093730389819A81C80ED91EB60158
:10051000DD0C880B990B0E94DE196093AF0370937A
:10052000B0038093B1039093B2038091AC03813008
:1005300081F01092D3031092D4031092D50310923D
:10054000D6038091B9039091BA039093B803809336
:10055000B70381E08093AC0328960FB6F894DEBF12
:100560000FBECDBFDF91CF91FF90EF90DF90CF9086
:10057000BF90AF909F908F907F906F905F904F90C3
:100580000895FC018091B602882311F13FB7F894D9
:1005900082E08093E9002091F200822F90E018160B
:1005A000190614F481E090E0882339F0289844E695
:1005B0004093B5024091F1004083222339F020910D
:1005C000F200211103C02BE62093E8003FBF0895FD
:1005D0008FEF9FEF08952FB7F89483E08093E900A1
:1005E0009091E800892F807295FF04C09091F200ED
:1005F00080E4891B2FBF08958091AD0281110DC049
:1006000082E08093A90284E08093AA021092AC0257
:100610001092AB0281E08093AD0289EA92E00895E6
:1006200081508F3008F047C0E82FF0E0E65EFC4FC5
:100630000C94BC1837033B0329032F0333035B03DC
:100640005B035B033E03440348034C0352035B0319
:100650005603809180008F77809380000895809169
:1006600080008F7DF9CF80918000877FF5CF84B5A2
:100670008F7784BD089584B58F7DFBCF80919000E6
:100680008F77809390000895809190008F7DF9CFAF
:1006900080919000877FF5CF8091C0008F77809305
:1006A000C00008958091C0008F7DF9CF8091C20075
:1006B000877F8093C2000895CF93DF93282F30E087
:1006C000F901E256FE4F8491F901E158FE4FD491B1
:1006D000F901E05AFE4FC491CC23A1F081110E9490
:1006E0001003EC2FF0E0EE0FFF1FEE5AFE4FA59126
:1006F000B491EC91ED2381E090E009F480E0DF918A
:10070000CF91089580E090E0FACF1F93CF93DF93CD
:10071000282F30E0F901E256FE4F8491F901E158AB
:10072000FE4FD491F901E05AFE4FC491CC23A9F0B9
:10073000162F81110E941003EC2FF0E0EE0FFF1F27
:10074000EC5BFE4FA591B4918FB7F894EC91111129
:1007500008C0D095DE23DC938FBFDF91CF911F912E
:100760000895DE2BF8CFCF93DF9390E0FC01E158A2
:10077000FE4F2491805A9E4FFC0184918823C9F03A
:1007800090E0880F991FFC01EA5CFE4FA591B4919F
:10079000FC01EC5BFE4FC591D49161110DC09FB778
:1007A000F8948C91209582238C9388812823288328
:1007B0009FBFDF91CF910895623051F49FB7F894B5
:1007C0003C91822F809583238C93E8812E2BEFCF51
:1007D0008FB7F894EC912E2B2C938FBFEACF8231F8
:1007E00008F08251E82FF0E0E65DFE4FE491909131
:1007F0007B008E2F880F880F80729F7D892B8093BE
:100800007B00E770E064E0937C0080917A00806474
:1008100080937A0080917A0086FDFCCF80917800E9
:100820009091790008953FB7F8948091A502909136
:10083000A602A091A702B091A80226B5A89B05C068
:100840002F3F19F00196A11DB11D3FBFBA2FA92F4F
:10085000982F8827BC01CD01620F711D811D911D4C
:1008600042E0660F771F881F991F4A95D1F70895B8
:100870008F929F92AF92BF92CF92DF92EF92FF92B0
:100880004B015C010E9413046B017C010E94130464
:100890006C197D098E099F09683E73408105910599
:1008A000A8F321E0821A9108A108B10888EEC80EC9
:1008B00083E0D81EE11CF11C81149104A104B10451
:1008C00029F7FF90EF90DF90CF90BF90AF909F906F
:1008D0008F90089580917303811104C08091AC03BF
:1008E000882339F061E070E080E090E00E943804F5
:1008F000F1CF08958F929F92AF92BF92CF92DF92E5
:10090000EF92FF924B015C0169017A01E894F7F8DC
:1009100020E030E0A9010E948E1A181624F0F7FAA0
:10092000F094F7F8F094A701960160E070E0CB0135
:100930000E94ED0123EC35EF48E450E46091E703B9
:100940007091E8038091E9039091EA030E94931A61
:1009500020E030E044E353E40E943419A5019401FF
:100960000E94931A2091E3033091E4034091E50340
:100970005091E6030E9434190E94A619F894209120
:100980008003309181037894261B370B30937B03CF
:1009900020937A0322E020937303F8944091B903E3
:1009A0005091BA037894CA01860F971F9093B403AD
:1009B0008093B3032093AC03FF90EF90DF90CF9030
:1009C000BF90AF909F908F900C946A0408954091CF
:1009D000960250919702209194023091950242170D
:1009E0005307B4F49091E8009570E1F39091E8001A
:1009F00092FD19C08093F100809196029091970228
:100A000001968F739927892B19F48EEF8093E80054
:100A1000809196029091970201969093970280930D
:100A2000960281E0089580E00895EF92FF920F937F
:100A30001F93CF93DF93F82E192FE62E042F81E01A
:100A4000860F880F0E94E70483E00E94E704CF2D01
:100A5000D12FEC0EFD2EF11CCE15DF05B9F007FFEE
:100A600013C0FE0184910E94E704182F80E00E94C9
:100A7000E704812321968111EFCFDF91CF911F9160
:100A80000F91FF90EF9008958881EDCF81E0F5CF31
:100A9000DF92EF92FF920F931F93CF93DF93D82EA5
:100AA0008A01EB017B01E40EF51ECE15DF0559F03E
:100AB000D7FE12C0FE0184910E94E70421968111A5
:100AC000F4CF0FEF1FEFC801DF91CF911F910F916E
:100AD000FF90EF90DF9008958881EECF0F931F93E2
:100AE000CF93DF931F92CDB7DEB782E0898342E4D4
:100AF00050E06CEA70E080E80E9448050E94FC0229
:100B0000DC0112960D911C910115110589F0D80197
:100B1000ED91FC910280F381E02DBE016F5F7F4F6C
:100B2000C801099597FD04C0F80100851185ECCF37
:100B300089810F90DF91CF911F910F91089561509E
:100B400030F02091F100FC0120830196F8CF289825
:100B500084E68093B50208958F929F92AF92BF92E0
:100B6000CF92DF92EF92FF920F931F93CF93DF9379
:100B70006C017B018A0180910B01882309F45CC020
:100B80008091B602882309F457C080919A0280FFB1
:100B900005C08091E00082608093E000E801B12C04
:100BA0008AEFA82E93E0892E2AE3922E209711F443
:100BB000BB20D9F10E94EB0281110AC0AA94AA209D
:100BC000D9F161E070E080E090E00E943804EECF5F
:100BD0008C171D0611F00CF08C2F9FB7F8948092A3
:100BE000E9002091E80025FD02C09FBFDFCF282F3C
:100BF00030E0C21BD30BF701815020F041914093AC
:100C0000F100FACFE20EF31EBB2021F09092E80033
:100C1000B12CEBCF8091E80085FDE7CF9092E80002
:100C2000BB24B394209709F3F3CF5D9884E68093B7
:100C30009902101611063CF081E090E0F6019383D2
:100C4000828310E000E0C801DF91CF911F910F91E6
:100C5000FF90EF90DF90CF90BF90AF909F908F90DC
:100C60000895CF93DF931F92CDB7DEB76983DC0180
:100C7000ED91FC910280F381E02D41E050E0BE0156
:100C80006F5F7F4F09950F90DF91CF91089583E0BB
:100C90008093E9008091F200882319F08AE3809321
:100CA000E80008950E94EB0290E00895CF93DF934F
:100CB0001F92CDB7DEB7FC018485958597FD08C0EE
:100CC0002FEF3FEF358724870F90DF91CF91089565
:100CD000CE0101960E94C102019719F4898190E02A
:100CE000F3CF8FEF9FEFF0CF0F931F93CF93DF934F
:100CF0001F92CDB7DEB78C01FC018485958597FFE7
:100D00000BC0CE0101960E94C102019771F4898146
:100D100090E0F80195878487F801848595850F9088
:100D2000DF91CF911F910F9108958FEF9FEFF1CF3A
:100D3000FC018485958597FD0BC09FB7F89482E0F0
:100D40008093E9008091F2009FBF90E001960895A2
:100D50009FB7F89482E08093E9008091F2009FBFF2
:100D600090E008950F931F93CF93DF93EC018B01D5
:100D70008F81811107C0E881F9810190F081E02D18
:100D8000CE0109958A819B810817190730F08C8163
:100D90009D810817190708F4C801880F991F01974A
:100DA0009093990080939800DF91CF911F910F91BC
:100DB0000895DC01F894E0E9F0E090819F7790835A
:100DC000789417961C920895CF93DF93EC0161E01D
:100DD00085E00E94B303F89482E8809390008AE152
:100DE000809391008FE39CE9909397008093960005
:100DF00088EB9BE09093990080939800789481E031
:100E00008F83DF91CF910895F89441E0409368007B
:100E1000ABE6B0E09C91E82FF0E021E030E001C0CB
:100E2000220F8A95EAF7892F822B8C93EE0FFF1FF2
:100E3000EC57FD4F718360834BBB90911B03822F56
:100E40008095892380931B0383B190911B03822398
:100E5000892B80931B03789408954F925F926F9231
:100E60007F928F929F92AF92BF92CF92DF92EF923A
:100E7000FF92CF93DF93EC016B817C81072E000CF6
:100E8000880B990B0E94DE199B01AC016D817E815C
:100E90008F8198850E94C2186B017C01C9A2DAA2D9
:100EA000EBA2FCA229A53AA54BA55CA50E94C318FC
:100EB0004B015C0189A69AA6ABA6BCA64DA45EA474
:100EC0006FA478A820E030E0A901C301B2010E941C
:100ED0008E1A18169CF4A50194015F77C301B20124
:100EE0000E942F1987FF0AC0A7019601C501B4010E
:100EF0000E94C21869A77AA78BA79CA72DA13EA123
:100F00004FA158A5C701B6010E94C2184B015C0150
:100F1000CDA2DEA2EFA2F8A629A53AA54BA55CA515
:100F2000698D7A8D8B8D9C8D0E94931A2B013C01CB
:100F30002D893E894F89588DC701B6010E94931AA9
:100F40009B01AC01C301B2010E94C3186B017C017B
:100F50002D8D3E8D4F8D58A1C501B4010E94931A6D
:100F60009B01AC01C701B6010E94C3186DAB7EABFB
:100F70008FAB98AF0E94A619E881F9810190F081AA
:100F8000E02DCE01DF91CF91FF90EF90DF90CF90D9
:100F9000BF90AF909F908F907F906F905F904F9099
:100FA000099420E077FF04C071956195710921E0F3
:100FB000FC0183859485681779070CF4CB01909325
:100FC000890080938800222319F0299A219A089594
:100FD0002998FCCF20E077FF04C0719561957109D5
:100FE00021E0FC0183859485681779070CF4CB0117
:100FF00090938B0080938A00222319F02A9A229AD8
:1010000008952A98FCCFCF93DF93EC0189899A89C0
:1010100050E070E02B893C89AF85B88984279527FB
:1010200026273727821B930B8A0F9B1F988B8F874E
:101030007A8B698B5C8B4B8B8A81823089F42F850C
:10104000388989859A852817390751F4E881F9810B
:101050000190F081E02D70E060E0CE0109951A82E8
:10106000DF91CF9108956CB1262F30E0359527950B
:101070003595279583B1422F4170682F70E094E039
:10108000759567959A95E1F76227617081E793E01E
:101090000C9403084FB141706CB166FB662760F990
:1010A00064278AEA93E00C940308FC01F89487858E
:1010B0009089108A178616861586789408958091EF
:1010C0003F030E945C03892B59F00E941304609334
:1010D000490370934A0380934B0390934C03089504
:1010E0000E94130460934D0370934E0380934F034B
:1010F0009093500380913E03826080933E03089555
:10110000CF93DF93EC01888581110EC0898591E032
:1011100098879A8562E0911101C060E00E94B30354
:101120008FE090E00197F1F789850E945C033B8591
:1011300021E03817190609F420E0822FDF91CF91C2
:101140000895CF92DF92EF92FF920F931F930E9428
:1011500013046B017C01809126030E945C03892BA0
:1011600079F4C0923203D0923303E0923403F092C8
:1011700035031F910F91FF90EF90DF90CF9008956E
:10118000C0923603D0923703E0923803F0923903CD
:1011900040913603509137036091380370913903C1
:1011A0008091320390913303A0913403B0913503C1
:1011B000481B590B6A0B7B0B8091360390913703C8
:1011C000A0913803B0913903C0903A03D0903B030B
:1011D000E0903C03F0903D030091360310913703FB
:1011E000209138033091390300933A0310933B0365
:1011F00020933C0330933D038A019B010553114228
:1012000021093109073E13402105310548F41092A8
:10121000310381E090E09093280380932703A9CFC6
:10122000445F514061097109493C510561057105EF
:1012300090F085E090E090932803809327038FEF50
:101240009FEFDC0180932D0390932E03A0932F0337
:10125000B09330038ECF8C199D09AE09BF09209140
:101260002703309128032130310509F05FC0AC011C
:10127000BD01415C524161097109433F5140610523
:10128000710558F410922D0310922E0310922F0323
:101290001092300383E090E0BECF8D589A40A109B0
:1012A000B10987359240A105B10508F062CF82E00F
:1012B00090E0909328038093270340912D03509151
:1012C0002E0360912F037091300380912D03909134
:1012D0002E03A0912F03B0913003892F9A2FAB2FAB
:1012E000BB2784279527A627B72788279927BB27B9
:1012F0000097AF4FB10531F085E090E0909328035F
:10130000809327032FB7F8948091B7029091B80289
:10131000A091B902B091BA022FBF80932903909394
:101320002A03A0932B03B0932C0323CF2330310542
:1013300009F01FCFAC01BD01455853406109710947
:101340004F3851406105710560F5809131038F5F21
:101350008093310380913103803209F00ACF4091AC
:101360002D0350912E0360912F03709130038091D3
:101370002D0390912E03A0912F03B0913003892F5C
:101380009A2FAB2FBB2784279527A627B727882717
:101390009927BB270097AF4FB105A9F185E090E0F1
:1013A0003ACF815D9740A109B109833F9140A105E2
:1013B000B10510F52091310340912D0350912E037A
:1013C00060912F037091300381E090E0A0E0B0E0E5
:1013D00004C0880F991FAA1FBB1F2A95D2F7840F3C
:1013E000951FA61FB71F80932D0390932E03A093E4
:1013F0002F03B0933003A9CF85E090E090932803AA
:1014000080932703A7CF84E090E078CF86E10C9407
:10141000EF0385E10C94EF038F929F92AF92BF92FE
:10142000CF92DF92EF92FF92CF93DF930E94060A52
:10143000EC010E94090ABE01681B790B072E000C03
:10144000880B990B0E94DE192AE037ED43E25CE33A
:101450000E94931A6B017C01AC019B0160E070E07B
:1014600080EA91E40E94C2184B015C0120E030E068
:1014700040EA51E4C701B6010E94C318A5019401D6
:10148000DF91CF91FF90EF90DF90CF90BF90AF9022
:101490009F908F900C944701CF93DF9380E00E9440
:1014A0005C03EC0181E00E945C034091BB0250911F
:1014B000BC026091BD027091BE02C817D90779F4D1
:1014C0004F5F5F4F6F4F7F4F4093BB025093BC0203
:1014D0006093BD027093BE02DF91CF910895415099
:1014E000510961097109F0CFCF93DF9380E00E9429
:1014F0005C03EC0181E00E945C034091BB025091CF
:10150000BC026091BD027091BE02C817D90779F480
:1015100041505109610971094093BB025093BC02CB
:101520006093BD027093BE02DF91CF9108954F5F2B
:101530005F4F6F4F7F4FF0CFCF93DF93EC018091E0
:101540002403D7FF18C061E00E94850360E080910A
:1015500022030E948503D195C195D109C13981E04B
:10156000D80714F0C0E9D1E0D0938D00C0938C006F
:10157000DF91CF91089560E00E94850361E0809142
:1015800022030E948503EACFFC0101900020E9F7C5
:101590003197AF01481B590BBC018BEC92E00C94C6
:1015A000AC058F929F92AF92BF92CF92DF92EF9253
:1015B000FF920F931F93CF93DF93CDB7DEB7A19721
:1015C0000FB6F894DEBF0FBECDBF6B017C01F7FEF6
:1015D00047C06DE28BEC92E00E9431068C0122271D
:1015E0003327A9012C193D094E095F0919A2CE0123
:1015F00081967C019AE0892E912CA12CB12CCA01F4
:10160000B901A50194010E949A18605DF7016293E7
:101610007F01211531054105510589F790E080E0F2
:10162000309719F0CF010E94C40A080F191F89E6EC
:1016300091E00E94C40A800F911FA1960FB6F89402
:10164000DEBF0FBECDBFDF91CF911F910F91FF90F5
:10165000EF90DF90CF90BF90AF909F908F900895C4
:10166000AC019B0119A28E010F5D1F4F8AE0C82EAD
:10167000D12CE12CF12CCA01B901A70196010E94DD
:101680009A18605DF80162938F01211531054105BB
:10169000510589F7309729F0CF010E94C40A8C01C7
:1016A000C6CF10E000E0C3CF0F931F93CF93DF931B
:1016B0008C011092C7021092C8021092C9021092B7
:1016C000CA02181619060CF067C0D0E0C0E0BE01CF
:1016D0000D2E000C880B990B0E94DE192BED39EFB3
:1016E0004EEB5EE30E94931A20E030E04BE753E4B8
:1016F0000E94C3180E94A619CB010E949C0A8091E7
:10170000C3029091C402A091C502B091C602809319
:10171000BF029093C002A093C102B093C2022FB740
:10172000F8948091B7029091B802A091B902B0915B
:10173000BA022FBF8093C3029093C402A093C50244
:10174000B093C6026091BB027091BC028091BD0251
:101750009091BE020E94D10A8091BB029091BC027E
:10176000A091BD02B091BE028093C7029093C802BF
:10177000A093C902B093CA0264E670E080E090E0F2
:101780000E94380421960C171D070CF0A0CFDF91A2
:10179000CF911F910F910895892BC9F3D0E0C0E03C
:1017A000BE010D2E000C880B990B0E94DE1923EC54
:1017B00035EF48EE5EE30E94931A20E030E04AE500
:1017C00053E40E94C2180E94A619CB010E949C0AF1
:1017D0008091C3029091C402A091C502B091C6024B
:1017E0008093BF029093C002A093C102B093C20243
:1017F0002FB7F8948091B7029091B802A091B902E6
:10180000B091BA022FBF8093C3029093C402A093F9
:10181000C502B093C6026091BB027091BC02809178
:10182000BD029091BE020E94D10A8091BB029091AC
:10183000BC02A091BD02B091BE028093C7029093FA
:10184000C802A093C902B093CA0264E670E080E0C7
:1018500090E00E9438042197C017D1070CF0A0CF68
:1018600096CFCF93DF930E94C40AEC0189E691E002
:101870000E94C40A8C0F9D1FDF91CF9108950E9492
:10188000001BCF93DF93A2EEB0E09C911C92E9EE97
:10189000F0E020811082C0EFD0E03881188240E073
:1018A00028994160209942602098289A80E18A9581
:1018B000F1F783B141FB0EF0209840FB0EF0289821
:1018C0000EF4289A41FB0EF4209A1082388320836C
:1018D0009C9380958170DF91CF910895CF93DF9392
:1018E000A2EEB0E09C911C92E9EEF0E02081108223
:1018F000C0EFD0E03881188240E05D994160559991
:10190000426055985D9A80E18A95F1F789B141FB73
:101910000EF0559840FB0EF05D980EF45D9A41FB79
:101920000EF4559A1082388320839C9390E025E032
:10193000959587952A95E1F7809590958170DF912F
:10194000CF9108951F920F920FB60F9211242F93EB
:101950003F938F939F93AF93BF938091B7029091E2
:10196000B802A091B902B091BA023091A40223E06A
:10197000230F2D3758F50196A11DB11D2093A40208
:101980008093B7029093B802A093B902B093BA02C1
:101990008091A5029091A602A091A702B091A80201
:1019A0000196A11DB11D8093A5029093A602A0935C
:1019B000A702B093A802BF91AF919F918F913F91E1
:1019C0002F910F900FBE0F901F90189526E8230FB0
:1019D0000296A11DB11DD2CF1F920F920FB60F928A
:1019E00011242F933F934F935F936F937F938F9324
:1019F0009F93AF93BF93EF93FF93E0911C01F091FE
:101A00001D010995FF91EF91BF91AF919F918F912A
:101A10007F916F915F914F913F912F910F900FBEEA
:101A20000F901F9018951F920F920FB60F921124CE
:101A30002F933F934F935F936F937F938F939F93D6
:101A4000AF93BF93EF93FF93E0911A01F0911B01C5
:101A50000995FF91EF91BF91AF919F918F917F91E8
:101A60006F915F914F913F912F910F900FBE0F900B
:101A70001F9018951F920F920FB60F9211242F935B
:101A80003F934F935F936F937F938F939F93AF9306
:101A9000BF93EF93FF93E0911801F091190109951D
:101AA000FF91EF91BF91AF919F918F917F916F9136
:101AB0005F914F913F912F910F900FBE0F901F900C
:101AC00018951F920F920FB60F9211242F933F93E8
:101AD0004F935F936F937F938F939F93AF93BF9336
:101AE000EF93FF93E0911601F09117010995FF9193
:101AF000EF91BF91AF919F918F917F916F915F9186
:101B00004F913F912F910F900FBE0F901F901895FE
:101B10001F920F920FB60F9211242F933F934F9362
:101B20005F936F937F938F939F93AF93BF93EF9345
:101B3000FF93E0911401F09115010995FF91EF9148
:101B4000BF91AF919F918F917F916F915F914F91D5
:101B50003F912F910F900FBE0F901F9018951F92DD
:101B60000F920FB60F9211248F939F938091E100F3
:101B70009091E100937F9093E10083FF0FC010925A
:101B8000E90091E09093EB001092EC0092E39093C7
:101B9000ED001092B60298E09093F00082FF22C010
:101BA00093E09093E9009091F200992319F09AE361
:101BB0009093E80090919902992341F090919902B5
:101BC000915090939902911101C05D9A9091B50244
:101BD000992341F09091B50291509093B5029111E3
:101BE00001C0289A84FF18C08091E2008E7E816037
:101BF0008093E2008091E1008F7E8093E1008091EC
:101C00009A028E7E806180939A029F918F910F90AD
:101C10000FBE0F901F90189580FFF7CF8091E200C4
:101C20008E7E80618093E2008091E1008E7E8093C1
:101C3000E10080919A028E7E8160E5CF1F920F9223
:101C40000FB60F921124CF92DF92EF92FF920F9373
:101C50001F932F933F934F935F936F937F938F9334
:101C60009F93AF93BF93EF93FF93CF93DF93CDB742
:101C7000DEB76C97DEBFCDBF1092E9008091E8001F
:101C800083FF25C068E0CE0145960E949F0582EF44
:101C90008093E8008D8987FF39C09091E80090FF1C
:101CA000FCCF982F907609F034C19E894F89588DCA
:101CB0002F89F88C911131C0803861F580919B0299
:101CC0008093F1001092F1008EEF8093E8006C9603
:101CD0000FB6F894DEBF0FBECDBFDF91CF91FF915D
:101CE000EF91BF91AF919F918F917F916F915F9194
:101CF0004F913F912F911F910F91FF90EF90DF90A7
:101D0000CF900F900FBE0F901F9018959EEF90935D
:101D1000E800C7CF1092F100D5CF913059F481116E
:101D2000D3CF4130510581F680919B028D7F809306
:101D30009B02CACF933049F48111C6CF413051057F
:101D400019F680919B028260F2CF953041F4809128
:101D5000E80080FFFCCF20682093E300B5CF9630E9
:101D600009F0A9C00B8D1C8D22E01092E9001092A1
:101D7000970210929602F2122EC0109295021092C3
:101D800094020E946E051F8299E09983FA8291E085
:101D90009E8390EA98879AEF9987209196023091D6
:101DA0009702275F3F4F3C832B838D831092E9007E
:101DB000109297021092960210939502009394024B
:101DC00049E050E0BE016F5F7F4F80E00E94480510
:101DD0000E946E0579CF10939502009394020E94A1
:101DE000FC02DC0112960D911C910115110509F4FC
:101DF00051C1D801ED91FC910480F581E02DBE0127
:101E00006B5E7F4FC8010995009709F03EC1F8014C
:101E100000851185EACFF3E0FF120EC08F89882379
:101E200009F440C0823061F440E862E187E191E06A
:101E30000E941505811148CF81E28093EB0047CFC6
:101E4000813029F440E862E184E091E0F1CF833011
:101E500099F70E94FC02DC011296ED90FC908E0135
:101E60000F5F1F4F6801E114F10479F0D701ED9184
:101E7000FC910680F781E02DB801C7010995080F94
:101E8000111DF701E084F184EECFD8011C92F60118
:101E900001900020E9F73197BF016C197D0940E0FE
:101EA000C601C6CF6EEE70E0FB01449150E080E8C1
:101EB0000E94480509CF973009F4BECF983021F42D
:101EC00081E08093F10000CF993009F0FDCE83705E
:101ED00009F0B2CFE9E2F1E081E031E096E321914F
:101EE000222371F08093E9003093EB00DF0111971A
:101EF0002C912093EC009093ED008F5F873079F761
:101F00008EE78093EA001092EA008F898093B602F0
:101F1000DBCE8B8D9C8D1092E9001092970210926F
:101F200096029093950280939402898D811192C0BC
:101F30008E899D89913A49F4813209F07DCF47E03D
:101F400050E064E071E080E0B3CF913209F074CFEB
:101F5000833269F48F89988DB0E0A0E0809300010E
:101F600090930101A0930201B0930301ADCE8032A2
:101F700069F48091E80082FFFCCF67E084E091E0A3
:101F80000E949F058BEF8093E8009ECE823209F07D
:101F90009BCE8F8980930B01EEEFFFE785919491A3
:101FA0008B3F9C4D51F1E0E0F8E08091040190916D
:101FB0000501A0910601B0910701803B9440A10565
:101FC000B105F1F480910B0180FD1AC0EE3F8AE06B
:101FD000F80789F587E797E7918380838091600010
:101FE0008093980288E19BE00FB6F894A8958093BF
:101FF00060000FBE9093600067CEEEEFFAE0D5CFA1
:10200000808191818737974709F05ECEA8958091AE
:1020100060008861809360008091980280936000E6
:10202000EE3F2AE0F20789F08091FE0A9091FF0AC4
:102030009183808349CE808191818737980751F2BF
:102040009093FF0A8093FE0AC5CF1092FF0A109268
:10205000FE0A3ACE0E94FC02DC0112960D911C9100
:102060000115110509F4E8CED801ED91FC9101901C
:10207000F081E02DBE016B5E7F4FC8010995811193
:1020800023CEF80100851185EBCF181619060CF444
:102090001BCED2CEF1E0FF12BECE62EF70E004CFD5
:1020A0001F920F920FB60F9211242F933F934F93CD
:1020B0005F936F937F938F939F93AF93BF93EF93B0
:1020C000FF93CF93DF9300D01F92CDB7DEB783B1DC
:1020D0008983898190911B0389278A8380916B0072
:1020E0009A8189238B838B8180FF05C0E0918402D4
:1020F000F091850209958B8181FF05C0E0918602F0
:10210000F091870209958B8182FF05C0E0918802DA
:10211000F091890209958B8183FF05C0E0918A02C5
:10212000F0918B0209958B8184FF05C0E0918C02B0
:10213000F0918D0209958B8185FF05C0E0918E029B
:10214000F0918F0209958B8186FF05C0E091900286
:10215000F091910209958B8187FF05C0E091920271
:10216000F09193020995898180931B030F900F9042
:102170000F90DF91CF91FF91EF91BF91AF919F9120
:102180008F917F916F915F914F913F912F910F9020
:102190000FBE0F901F9018951F920F920FB60F92BF
:1021A00011242F933F934F935F936F937F938F935C
:1021B0009F93AF93BF93EF93FF9380918003909190
:1021C000810320917E0330917F03AC01421B530BAE
:1021D000509375034093740390937F0380937E0321
:1021E0008091B9039091BA032091B7033091B8035D
:1021F000AC01421B530B5093AE034093AD0390933D
:10220000B8038093B70380917303813021F08091EC
:102210007303823021F481E793E00E942D078091BF
:10222000AC03813021F08091AC03823021F48AEA42
:1022300093E00E942D07FF91EF91BF91AF919F9185
:102240008F917F916F915F914F913F912F910F905F
:102250000FBE0F901F901895CF93DF93EBECF2E039
:102260001382128288EE93E0A0E0B0E0848395832D
:10227000A683B7838DE391E0918380838FEF9FEFF7
:102280009587848783B180931B03E1E7F3E0128293
:102290001482138215821682178210861286118686
:1022A0002CE231E03487238716861586108A17863C
:1022B000128A118A148A138A40E050E060EA70E4BE
:1022C000458B568B678B708F80E090E0A0E0BFE37A
:1022D000818F928FA38FB48F158E168E178E10A2BA
:1022E00011A212A213A214A215A216A217A210A63E
:1022F00011A612A613A614A615A616A617A610AA0E
:1023000011AA12AA13AA14AA15AA16AA17AA10AEDD
:10231000C7E6D1E0D183C08313AE15AE14AE1092E0
:10232000AF031092B0031092B1031092B203109257
:10233000B4031092B3033093B6032093B503109205
:10234000B8031092B7031092BA031092B903109217
:10235000BC031092BB031092BE031092BD034093C6
:10236000BF035093C0036093C1037093C203809373
:10237000C3039093C403A093C503B093C603109204
:10238000C7031092C8031092C9031092CA03109297
:10239000CB031092CC031092CD031092CE03109277
:1023A000CF031092D0031092D1031092D203109257
:1023B000D3031092D4031092D5031092D603109237
:1023C000D7031092D8031092D9031092DA03109217
:1023D000DB031092DC031092DD031092DE031092F7
:1023E000DF031092E0031092E1031092E20381E612
:1023F00091E092AF81AF8EED95E3AAE7BCE38093C5
:10240000E3039093E403A093E503B093E60383E32F
:1024100093E3ABEEB0E48093E7039093E803A093DB
:10242000E903B093EA0380E190E09093EC0380939A
:10243000EB03E9E6F3E0128215828BE591E09183EC
:102440008083E1E6F3E01282158285E591E09183D5
:102450008083E5E5F3E01282158210868EE08187A5
:1024600091E0928793872FE431E031832083EEE37C
:10247000F3E0108213821482158216824AE050E043
:1024800060E070E047835087618772871386148607
:10249000158616861786108A118A128A40E050E047
:1024A00066EC72E4438B548B658B768B91E1918360
:1024B0009CE09283E6E2F3E0808312821182138231
:1024C0001482158216821782108611861286138650
:1024D0001486158616861786108A118A128A138A20
:1024E000148A158A168A178AECE1F3E083E090E0FB
:1024F000A0E0B0E080839183A283B3838BE090E07F
:102500009583848384E090E0978386838DE090E0D8
:1025100091878087DF91CF910895CF93DF9300D08B
:1025200000D0CDB7DEB7789484B5826084BD84B521
:10253000816084BD85B5826085BD85B5816085BDBE
:1025400080916E00816080936E0010928100809176
:1025500081008260809381008091810081608093FE
:102560008100809180008160809380008091910043
:1025700082608093910080919100816080939100AE
:10258000809190008160809390008091C100846070
:102590008093C1008091C10082608093C1008091CE
:1025A000C10081608093C1008091C30081608093ED
:1025B000C3008091C00082608093C0008091C200FF
:1025C00081608093C20080917A00846080937A0059
:1025D00080917A00826080937A0080917A00816095
:1025E00080937A0080917A00806880937A001092BC
:1025F000B60210929B0210929A028091D7008160DD
:102600008093D70080EA8093D80089B5806189BD26
:1026100089B5826089BD09B400FEFDCF61E070E03C
:1026200080E090E00E9438048091D8008F7C806127
:102630008093D8008091E000807F8093E0008091BB
:10264000E1008E7E8093E1008DE08093E200559A58
:10265000209A8DE691E00E94310C2E98269A2D98B2
:10266000259A2A98229A2998219A2F98279AF8949D
:102670008AEA8093800089E18093810084EA91E076
:1026800090938700809386001092890010928800B2
:1026900010928B0010928A0010928D0010928C0084
:1026A00078948CE691E00E94310C8BE791E00E94D7
:1026B000310C24982C9A6A98729A6E98769A80981F
:1026C000889A63E378E084E00E9404076AE478E093
:1026D00084E00E940A016CB1262F30E035952795E1
:1026E0003595279583B1422F4170682F70E054E0F3
:1026F000759567955A95E1F76227617081E793E0D8
:102700000E94030881E793E00E9455086CB1262FD0
:1027100030E0359527953595279583B1422F417047
:10272000682F70E0E4E075956795EA95E1F7622718
:1027300061708AEA93E00E9403088AEA93E00E94AB
:1027400055088AE791E00E94310CF8941092C0007D
:102750008BE08093C1001092C2001092C30089EFF9
:102760008093D10084E080937200789460E080913F
:1027700026030E94B30380912603843018F087302B
:1027800009F02DC18AE891E00E94310C8091260366
:10279000882309F41CC1813009F41BC1823009F47B
:1027A0001AC1833009F419C1873029F484E061EA41
:1027B00078E00E940A0160E080913F030E94B30329
:1027C00080913F03843018F0873009F023C189EAF3
:1027D00091E00E94310C80913F03882309F412C1DB
:1027E000813009F411C1823009F410C1833009F439
:1027F0000FC1873029F484E06FE578E00E940A0178
:1028000061E0809140030E94B30361E08091200366
:102810000E94B30361E0809122030E94B30361E050
:10282000809124030E94B30360E080E00E94B30320
:1028300060E081E00E94B30388EA8093800081E138
:102840008093810090E9A92EBB24B394B0928700B5
:10285000A092860010928D0010928C0064E77AE0BE
:1028600082E00E940A016CE47AE083E00E940A019F
:10287000F8941092BB021092BC021092BD0210920A
:10288000BE027894F8941092BB021092BC0210928F
:10289000BD021092BE02789484E690E090930F01FE
:1028A00080930E01B0921101A092100160E08EE0C1
:1028B0000E94B3038FEF9FEF9093D8028093D702CB
:1028C0001092A3021092A20289E693E00E94410CAA
:1028D0008823D1F36AE070E080E090E00E94380441
:1028E00089E693E00E94410C882371F389E693E026
:1028F0000E94410C8111FACF6AE070E080E090E024
:102900000E94380489E693E00E94410C8111EECFC9
:102910000E94090A0E94060A68EE73E080E090E0D7
:102920000E943804A3E08A2E912CB0EA4B2EBFE01F
:102930005B2E612C712C08E010E087E0282E312CF2
:10294000EE24E394F12C80912703909128030497BF
:1029500029F5109228031092270380912D0390915E
:102960002E03A0912F03B09130038A2F90E0813085
:10297000910509F062C08091A2029091A302909308
:10298000A1028093A002E6E0CE2ED12CD092A30229
:10299000C092A20280EE91E00E94310CE091A2026E
:1029A000F091A302ED30F10508F034C1E652FB4E80
:1029B0000C94BC183B15DE154E17CD176F15731709
:1029C000F8170D181216D616261758187A1882E01E
:1029D000EECE83E0ECCE81E0EACE80E0E8CE88E97E
:1029E00091E00E94310CE0912603E8508FEFEA302D
:1029F00020F4F0E0E15DFE4F808161EA78E00E9422
:102A00000407D9CE82E0F8CE83E0F6CE81E0F4CEA2
:102A100080E0F2CE83EC91E00E94310CE0913F0324
:102A2000E8508FEFEA3020F4F0E0E15DFE4F808166
:102A30006FE578E00E940407E3CE8530910559F4F4
:102A40008091A0029091A1029093A3028093A20290
:102A50008FEE91E0A1CF8D30910529F41092A30261
:102A60001092A2029BCF409709F098CF1093A30237
:102A70000093A20293CF0E940C0A0E94060A8B3F89
:102A800091050CF4C7C00E94090A8B3F91050CF414
:102A9000C1C020E030E0A901CA01B9010E9447018C
:102AA00084E090E09093A1028093A00226E030E0C1
:102AB0003093A3022093A20286EF91E00E94310C92
:102AC00081E793E00E945508F894809180039091EB
:102AD0008103789490939F0280939E029BC083E031
:102AE00092E00E94310C8AE590E090939D028093E1
:102AF0009C0246E050E05093A3024093A202109340
:102B0000A1020093A00220E030E0A90160E070E0A3
:102B100080E291E40E94ED012091E3033091E4030F
:102B20004091E5035091E60360E070E080EE90E4B0
:102B30000E9434190E94A619F894209180033091C4
:102B400081037894260F371F30937B0320937A03F9
:102B500022E020937303F8944091B9035091BA0393
:102B60007894460F571F5093B4034093B3032093B8
:102B7000AC030E946A0460919C0270919D02072E32
:102B8000000C880B990B0E94DE1920E030E048EC25
:102B900052E40E947A0489E092E00E94310C809114
:102BA000A2029091A3020497A9F181E793E00E9409
:102BB00055088AEA93E00E9455082CC00E940C0A2E
:102BC000F8948091800390918103789482379440A7
:102BD000C4F020E030E0A901CA01B9010E94470118
:102BE00086E090E09093A3028093A2028BE090E0B5
:102BF0009093A1028093A00282E192E00E94310CA6
:102C000009C0F8948091B9039091BA0378948237FF
:102C10009440FCF680E090E0892B09F494CE0E9469
:102C200000008ECE8FE192E00E94310CF8948091EA
:102C3000BB029091BC02A091BD02B091BE027894FB
:102C40008093BB029093BC02A093BD02B093BE02DE
:102C50004091BB025091BC026091BD027091BE02D6
:102C600080911C0390911D03A0911E03B0911F033E
:102C70008056904FAF4FBF4F481759076A077B07E1
:102C80006CF5F8948091BB029091BC02A091BD02BA
:102C9000B091BE0278948093BB029093BC02A09343
:102CA000BD02B093BE0263015201A41AB50AC60A5E
:102CB000D70AA5017AE0B72EB49EC001B59E900D4B
:102CC00011240E94540B6091BB027091BC02809150
:102CD000BD029091BE020E94D10ABACF8091BB0280
:102CE0009091BC02A091BD02B091BE0220911C0344
:102CF00030911D0340911E0350911F036301520147
:102D0000A21AB30AC40AD50AA816B906CA06DB066F
:102D100064F5F8944091BB025091BC026091BD02F1
:102D20007091BE0278944093BB025093BC026093B2
:102D3000BD027093BE02B301A201481B590B6A0B7E
:102D40007B0B6AE0B62EB49EC001B59E900D112497
:102D50000E94540B6091BB027091BC028091BD0235
:102D60009091BE020E94D10AB9CF90E080E00E940B
:102D70009C0AF8948091BB029091BC02A091BD0284
:102D8000B091BE027894803A9F40A105B10509F048
:102D900041CFF092A102E092A00246E050E05093B1
:102DA000A3024093A2028DE292E028CF8CE99FEF2C
:102DB0000E94540B8BE392E00E94310CF8948091B6
:102DC000BB029091BC02A091BD02B091BE0278946A
:102DD000181619061A061B063CF5F8948091BB02DA
:102DE0009091BC02A091BD02B091BE0278948D3743
:102DF0009541A105B1050CF40DCF1092C7021092B8
:102E0000C8021092C9021092CA02F092A102E09286
:102E1000A00286E090E09093A3028093A20289E44E
:102E200092E00E94C40AF6CEF8948091BB02909181
:102E3000BC02A091BD02B091BE027894B095A0955D
:102E4000909581959F4FAF4FBF4FD1CF20E030E09D
:102E500048EC51ECCA01B9010E94470168EC70E0EE
:102E600080E090E00E94380420E030E048EC51E43B
:102E700060E070E08AE293E40E947A04A2E0B0E0AD
:102E8000B093A102A093A00246E0A42EB12CB09270
:102E9000A302A092A20287E592E0B0CE0E940C0AA3
:102EA0000E94060A8B3F91050CF4B4CE0E94090AD9
:102EB0008B3F91050CF4AECE20E030E0A901CA01B1
:102EC000B9010E94470135E0C32ED12CD092A10256
:102ED000C092A00226E030E03093A3022093A20229
:102EE0008CE592E0EBCD83E092E00E94310C20E093
:102EF00030E0A90160E070E080E291E40E94ED0121
:102F00002091E3033091E4034091E5035091E603FF
:102F10006CE57FE88AEE90E40E9434190E94A619BD
:102F2000F89420918003309181037894260F371F05
:102F300030937B0320937A0322E020937303F89469
:102F40004091B9035091BA037894460F571F50939C
:102F5000B4034093B3032093AC030E946A046091CE
:102F60009C0270919D02719561957109072E000C6C
:102F7000880B990B0E94DE1920E030E048EC52E407
:102F80000E947A049092A1028092A00246E050E052
:102F90005093A3024093A20208CE0E940C0AF89418
:102FA00080918003909181037894843A96400CF448
:102FB00031CEF8948091B9039091BA037894843A11
:102FC00096400CF427CE20E030E0A901CA01B901F7
:102FD0000E94470126E0A22EB12CB092A302A0923B
:102FE000A2023092A1022092A00289E692E006CECF
:102FF0001092730370E060E081E793E00E94EA07BB
:103000001092AC0370E060E08AEA93E00E94D1077E
:1030100090E080E00E949C0AFDCD84E690E00E9452
:10302000540BF8948091BB029091BC02A091BD0218
:10303000B091BE027894181619061A061B063CF5C4
:10304000F8948091BB029091BC02A091BD02B09116
:10305000BE02789485369105A105B1050CF4DACD50
:103060004CE050E05093A1024093A00286E090E033
:103070009093A3028093A2021092C7021092C802FA
:103080001092C9021092CA0286E792E0B7CDF89476
:103090008091BB029091BC02A091BD02B091BE0292
:1030A00078948C399F4FAF4FBF4F0CF0B3CDD8CF32
:1030B0008CE091E00E94E40664EF71E08CE091E026
:1030C0000E94B20664E378E080E090E00E94380459
:1030D0008CE091E00E94D906AAE0B0E0B093A10292
:1030E000A093A00296E0A92EB12CB092A302A092C8
:1030F000A20290CD8CE091E00E94E4066CE07EEFAD
:103100008CE091E00E94B20664E378E080E090E019
:103110000E9438048CE091E00E94D90686E0C82E17
:10312000D12CD092A102C092A002D092A302C09250
:10313000A20270CDA1E21A2EAA1BBB1BFD010DC07D
:10314000AA1FBB1FEE1FFF1FA217B307E407F50757
:1031500020F0A21BB30BE40BF50B661F771F881F33
:10316000991F1A9469F760957095809590959B01C9
:10317000AC01BD01CF010895EE0FFF1F0590F49142
:10318000E02D09945058BB27AA270E94DA180C9406
:10319000541A0E94461A38F00E944D1A20F039F451
:1031A0009F3F19F426F40C94431A0EF4E095E7FBC4
:1031B0000C943D1AE92F0E94651A58F3BA1762075A
:1031C00073078407950720F079F4A6F50C94871A05
:1031D0000EF4E0950B2EBA2FA02D0B01B901900132
:1031E0000C01CA01A0011124FF27591B99F0593F76
:1031F00050F4503E68F11A16F040A22F232F342FBE
:103200004427585FF3CF469537952795A795F0400B
:103210005395C9F77EF41F16BA0B620B730B840B20
:10322000BAF09150A1F0FF0FBB1F661F771F881FD8
:10323000C2F70EC0BA0F621F731F841F48F4879530
:1032400077956795B795F7959E3F08F0B0CF939522
:10325000880F08F09927EE0F9795879508950E949B
:10326000191A08F481E008950E9448190C94541A20
:103270000E944D1A58F00E94461A40F029F45F3F10
:1032800029F00C943D1A51110C94881A0C94431A8D
:103290000E94651A68F39923B1F3552391F3951BA6
:1032A000550BBB27AA2762177307840738F09F5F67
:1032B0005F4F220F331F441FAA1FA9F335D00E2ED4
:1032C0003AF0E0E832D091505040E695001CCAF741
:1032D0002BD0FE2F29D0660F771F881FBB1F261704
:1032E00037074807AB07B0E809F0BB0B802DBF01DB
:1032F000FF2793585F4F3AF09E3F510578F00C94AA
:103300003D1A0C94881A5F3FE4F3983ED4F38695F7
:1033100077956795B795F7959F5FC9F7880F911DCA
:103320009695879597F90895E1E0660F771F881FB6
:10333000BB1F621773078407BA0720F0621B730B69
:10334000840BBA0BEE1F88F7E09508950E94AD1923
:103350006894B1110C94881A08950E946D1A88F02F
:103360009F5798F0B92F9927B751B0F0E1F0660F49
:10337000771F881F991F1AF0BA95C9F714C0B1308A
:1033800091F00E94871AB1E008950C94871A672F74
:10339000782F8827B85F39F0B93FCCF386957795B9
:1033A0006795B395D9F73EF49095809570956195A2
:1033B0007F4F8F4F9F4F0895E89409C097FB3EF4CD
:1033C00090958095709561957F4F8F4F9F4F992372
:1033D000A9F0F92F96E9BB279395F69587957795F0
:1033E0006795B795F111F8CFFAF4BB0F11F460FFB0
:1033F0001BC06F5F7F4F8F4F9F4F16C0882311F008
:1034000096E911C0772321F09EE8872F762F05C01B
:10341000662371F096E8862F70E060E02AF09A95B6
:10342000660F771F881FDAF7880F9695879597F9AB
:103430000895990F0008550FAA0BE0E8FEEF161645
:103440001706E807F907C0F012161306E407F50798
:1034500098F0621B730B840B950B39F40A2661F00C
:10346000232B242B252B21F408950A2609F4A140AF
:10347000A6958FEF811D811D089597F99F6780E8BC
:1034800070E060E008959FEF80EC089500240A94B6
:103490001616170618060906089500240A9412162F
:1034A0001306140605060895092E0394000C11F462
:1034B000882352F0BB0F40F4BF2B11F460FF04C00F
:1034C0006F5F7F4F8F4F9F4F089557FD9058440F68
:1034D000551F59F05F3F71F04795880F97FB991F73
:1034E00061F09F3F79F08795089512161306140630
:1034F000551FF2CF4695F1DF08C0161617061806BD
:10350000991FF1CF86957105610508940895E89497
:10351000BB2766277727CB0197F908950E94191AD0
:1035200008F48FEF08950E94A61A0C94541A0E9472
:10353000461A38F00E944D1A20F0952311F00C9491
:103540003D1A0C94431A11240C94881A0E94651A8F
:1035500070F3959FC1F3950F50E0551F629FF001E6
:10356000729FBB27F00DB11D639FAA27F00DB11DFF
:10357000AA1F649F6627B00DA11D661F829F222788
:10358000B00DA11D621F739FB00DA11D621F839F0F
:10359000A00D611D221F749F3327A00D611D231FE5
:1035A000849F600D211D822F762F6A2F11249F5733
:1035B00050409AF0F1F088234AF0EE0FFF1FBB1F36
:1035C000661F771F881F91505040A9F79E3F5105F5
:1035D00080F00C943D1A0C94881A5F3FE4F3983EF7
:1035E000D4F3869577956795B795F795E7959F5F9F
:1035F000C1F7FE2B880F911D9695879597F9089531
:0E36000081E090E0F8940C94051BF894FFCF45
:10360E00FFFFFFFF00E10000000000002201E803C1
:10361E00D007FF00E604E604E604E604E604000034
:10362E000000E406D906B20600C180810000000445
:10363E00050607FFFF03010200000000003106AC83
:10364E0005520647069806560674060000000080CE
:10365E0008000000006E0C00000000410C0000008D
:10366E0000D10700000000EA070D0A002F696E69FD
:10367E00744D6F746F72732829002F696E697445CB
:10368E006E636F6465727328290041747461636898
:10369E00696E672049535200417474616368696EA4
:1036AE00672050435F4953520041747461636869E7
:1036BE006E672072616E676566696E646572204919
:1036CE00535200417474616368696E672072616E53
:1036DE00676566696E6465722050435F4953520098
:1036EE00456D657267656E63792053746F70004F18
:1036FE006E7761726400436865636B706F696E7498
:10370E00203100436865636B00646972656374659C
:10371E006400436865636B706F696E74203400617A
:10372E00726D207374726F6E67696E6700436865A1
:10373E00636B706F696E742033610061726D7374A8
:10374E00726F6E6720696E6700436865636B706F9A
:10375E00696E74203362005370756E004368656342
:10376E006B706F696E74203500436865636B706FA4
:10377E00696E74203600436865636B706F696E7492
:04378E0020330000E4
:00000001FF
